{
  "contractName": "ApplicantFactory",
  "abi": [
    {
      "constant": false,
      "inputs": [],
      "name": "unpause",
      "outputs": [],
      "payable": false,
      "stateMutability": "nonpayable",
      "type": "function"
    },
    {
      "constant": true,
      "inputs": [],
      "name": "paused",
      "outputs": [
        {
          "name": "",
          "type": "bool"
        }
      ],
      "payable": false,
      "stateMutability": "view",
      "type": "function"
    },
    {
      "constant": false,
      "inputs": [],
      "name": "pause",
      "outputs": [],
      "payable": false,
      "stateMutability": "nonpayable",
      "type": "function"
    },
    {
      "constant": true,
      "inputs": [],
      "name": "owner",
      "outputs": [
        {
          "name": "",
          "type": "address"
        }
      ],
      "payable": false,
      "stateMutability": "view",
      "type": "function"
    },
    {
      "constant": false,
      "inputs": [
        {
          "name": "newOwner",
          "type": "address"
        }
      ],
      "name": "transferOwnership",
      "outputs": [],
      "payable": false,
      "stateMutability": "nonpayable",
      "type": "function"
    },
    {
      "inputs": [],
      "payable": false,
      "stateMutability": "nonpayable",
      "type": "constructor"
    },
    {
      "anonymous": false,
      "inputs": [
        {
          "indexed": false,
          "name": "ApplicantAddress",
          "type": "address"
        },
        {
          "indexed": false,
          "name": "position",
          "type": "uint32"
        },
        {
          "indexed": false,
          "name": "detail",
          "type": "string"
        }
      ],
      "name": "CreateNewApplicant",
      "type": "event"
    },
    {
      "anonymous": false,
      "inputs": [
        {
          "indexed": false,
          "name": "ApplicantCallerAddress",
          "type": "address"
        },
        {
          "indexed": false,
          "name": "detail",
          "type": "string"
        }
      ],
      "name": "ApplicantDetail",
      "type": "event"
    },
    {
      "anonymous": false,
      "inputs": [],
      "name": "Pause",
      "type": "event"
    },
    {
      "anonymous": false,
      "inputs": [],
      "name": "Unpause",
      "type": "event"
    },
    {
      "anonymous": false,
      "inputs": [
        {
          "indexed": true,
          "name": "previousOwner",
          "type": "address"
        },
        {
          "indexed": true,
          "name": "newOwner",
          "type": "address"
        }
      ],
      "name": "OwnershipTransferred",
      "type": "event"
    },
    {
      "constant": false,
      "inputs": [
        {
          "name": "_credentialOrgContractAddress",
          "type": "address"
        }
      ],
      "name": "setAddress",
      "outputs": [],
      "payable": false,
      "stateMutability": "nonpayable",
      "type": "function"
    },
    {
      "constant": false,
      "inputs": [
        {
          "name": "_collegeAddress",
          "type": "address"
        },
        {
          "name": "_SSN",
          "type": "string"
        },
        {
          "name": "_collegeStudentID",
          "type": "string"
        },
        {
          "name": "_firstName",
          "type": "string"
        },
        {
          "name": "_lastName",
          "type": "string"
        }
      ],
      "name": "createApplicant",
      "outputs": [],
      "payable": false,
      "stateMutability": "nonpayable",
      "type": "function"
    },
    {
      "constant": true,
      "inputs": [
        {
          "name": "_orgAddress",
          "type": "address"
        },
        {
          "name": "_position",
          "type": "uint32"
        }
      ],
      "name": "selectApplicantByOrgAndPosition",
      "outputs": [
        {
          "name": "studentAddress",
          "type": "address"
        },
        {
          "name": "SSN",
          "type": "string"
        },
        {
          "name": "collegeStudentID",
          "type": "string"
        },
        {
          "name": "firstName",
          "type": "string"
        },
        {
          "name": "lastName",
          "type": "string"
        }
      ],
      "payable": false,
      "stateMutability": "view",
      "type": "function"
    },
    {
      "constant": false,
      "inputs": [
        {
          "name": "_position",
          "type": "uint32"
        },
        {
          "name": "_processDetail",
          "type": "string"
        }
      ],
      "name": "updateApplicantByOrgAndPosition",
      "outputs": [
        {
          "name": "updateSuccess",
          "type": "bool"
        }
      ],
      "payable": false,
      "stateMutability": "nonpayable",
      "type": "function"
    },
    {
      "constant": true,
      "inputs": [
        {
          "name": "_orgAddress",
          "type": "address"
        }
      ],
      "name": "selectOrgApplicantCount",
      "outputs": [
        {
          "name": "appCount",
          "type": "uint32"
        }
      ],
      "payable": false,
      "stateMutability": "view",
      "type": "function"
    }
  ],
  "bytecode": "0x608060405260008060146101000a81548160ff02191690831515021790555034801561002a57600080fd5b50336000806101000a81548173ffffffffffffffffffffffffffffffffffffffff021916908373ffffffffffffffffffffffffffffffffffffffff1602179055506126a68061007a6000396000f3006080604052600436106100a4576000357c0100000000000000000000000000000000000000000000000000000000900463ffffffff1680631e0beabe146100a95780633f4ba83a1461010c5780635c975abb146101235780638456cb59146101525780638da5cb5b14610169578063bbbd0832146101c0578063d1887dcd14610251578063e30081a0146103ac578063f2fde38b146103ef578063f76806d914610432575b600080fd5b3480156100b557600080fd5b506100ea600480360381019080803573ffffffffffffffffffffffffffffffffffffffff169060200190929190505050610675565b604051808263ffffffff1663ffffffff16815260200191505060405180910390f35b34801561011857600080fd5b5061012161085e565b005b34801561012f57600080fd5b5061013861091c565b604051808215151515815260200191505060405180910390f35b34801561015e57600080fd5b5061016761092f565b005b34801561017557600080fd5b5061017e6109ef565b604051808273ffffffffffffffffffffffffffffffffffffffff1673ffffffffffffffffffffffffffffffffffffffff16815260200191505060405180910390f35b3480156101cc57600080fd5b50610237600480360381019080803563ffffffff169060200190929190803590602001908201803590602001908080601f0160208091040260200160405190810160405280939291908181526020018383808284378201915050505050509192919290505050610a14565b604051808215151515815260200191505060405180910390f35b34801561025d57600080fd5b506103aa600480360381019080803573ffffffffffffffffffffffffffffffffffffffff169060200190929190803590602001908201803590602001908080601f0160208091040260200160405190810160405280939291908181526020018383808284378201915050505050509192919290803590602001908201803590602001908080601f0160208091040260200160405190810160405280939291908181526020018383808284378201915050505050509192919290803590602001908201803590602001908080601f0160208091040260200160405190810160405280939291908181526020018383808284378201915050505050509192919290803590602001908201803590602001908080601f0160208091040260200160405190810160405280939291908181526020018383808284378201915050505050509192919290505050610fa2565b005b3480156103b857600080fd5b506103ed600480360381019080803573ffffffffffffffffffffffffffffffffffffffff169060200190929190505050611872565b005b3480156103fb57600080fd5b50610430600480360381019080803573ffffffffffffffffffffffffffffffffffffffff169060200190929190505050611967565b005b34801561043e57600080fd5b50610483600480360381019080803573ffffffffffffffffffffffffffffffffffffffff169060200190929190803563ffffffff169060200190929190505050611abc565b604051808673ffffffffffffffffffffffffffffffffffffffff1673ffffffffffffffffffffffffffffffffffffffff16815260200180602001806020018060200180602001858103855289818151815260200191508051906020019080838360005b838110156105015780820151818401526020810190506104e6565b50505050905090810190601f16801561052e5780820380516001836020036101000a031916815260200191505b50858103845288818151815260200191508051906020019080838360005b8381101561056757808201518184015260208101905061054c565b50505050905090810190601f1680156105945780820380516001836020036101000a031916815260200191505b50858103835287818151815260200191508051906020019080838360005b838110156105cd5780820151818401526020810190506105b2565b50505050905090810190601f1680156105fa5780820380516001836020036101000a031916815260200191505b50858103825286818151815260200191508051906020019080838360005b83811015610633578082015181840152602081019050610618565b50505050905090810190601f1680156106605780820380516001836020036101000a031916815260200191505b50995050505050505050505060405180910390f35b60003360008060009150600460009054906101000a900473ffffffffffffffffffffffffffffffffffffffff1690508073ffffffffffffffffffffffffffffffffffffffff1663e1eaee42336040518263ffffffff167c0100000000000000000000000000000000000000000000000000000000028152600401808273ffffffffffffffffffffffffffffffffffffffff1673ffffffffffffffffffffffffffffffffffffffff168152602001915050602060405180830381600087803b15801561073f57600080fd5b505af1158015610753573d6000803e3d6000fd5b505050506040513d602081101561076957600080fd5b81019080805190602001909291905050501561078457600191505b60008263ffffffff161415610801576040517f08c379a000000000000000000000000000000000000000000000000000000000815260040180806020018281038252601c8152602001807f4e6f7420417574686f72697a65642043726564656e7469616c4f72670000000081525060200191505060405180910390fd5b600260008673ffffffffffffffffffffffffffffffffffffffff1673ffffffffffffffffffffffffffffffffffffffff16815260200190815260200160002060009054906101000a900463ffffffff169350839350505050919050565b6000809054906101000a900473ffffffffffffffffffffffffffffffffffffffff1673ffffffffffffffffffffffffffffffffffffffff163373ffffffffffffffffffffffffffffffffffffffff161415156108b957600080fd5b600060149054906101000a900460ff1615156108d457600080fd5b60008060146101000a81548160ff0219169083151502179055507f7805862f689e2f13df9f062ff482ad3ad112aca9e0847911ed832e158c525b3360405160405180910390a1565b600060149054906101000a900460ff1681565b6000809054906101000a900473ffffffffffffffffffffffffffffffffffffffff1673ffffffffffffffffffffffffffffffffffffffff163373ffffffffffffffffffffffffffffffffffffffff1614151561098a57600080fd5b600060149054906101000a900460ff161515156109a657600080fd5b6001600060146101000a81548160ff0219169083151502179055507f6985a02210a168e66602d3235cb6db0e70f92b3ba4d376a33c0f3d9434bff62560405160405180910390a1565b6000809054906101000a900473ffffffffffffffffffffffffffffffffffffffff1681565b60003360008060009150600460009054906101000a900473ffffffffffffffffffffffffffffffffffffffff1690508073ffffffffffffffffffffffffffffffffffffffff1663e1eaee42336040518263ffffffff167c0100000000000000000000000000000000000000000000000000000000028152600401808273ffffffffffffffffffffffffffffffffffffffff1673ffffffffffffffffffffffffffffffffffffffff168152602001915050602060405180830381600087803b158015610ade57600080fd5b505af1158015610af2573d6000803e3d6000fd5b505050506040513d6020811015610b0857600080fd5b810190808051906020019092919050505015610b2357600191505b60008263ffffffff161415610ba0576040517f08c379a000000000000000000000000000000000000000000000000000000000815260040180806020018281038252601c8152602001807f4e6f7420417574686f72697a65642043726564656e7469616c4f72670000000081525060200191505060405180910390fd5b6000935060008663ffffffff1610151515610c23576040517f08c379a00000000000000000000000000000000000000000000000000000000081526004018080602001828103825260208152602001807f4170706c6963616e7420706f736974696f6e207265717569726573203e3d203081525060200191505060405180910390fd5b6000855110158015610c375750600a855110155b1515610cab576040517f08c379a00000000000000000000000000000000000000000000000000000000081526004018080602001828103825260208152602001807f4170706c6963616e7420706f736974696f6e207265717569726573203e3d203081525060200191505060405180910390fd5b600260003373ffffffffffffffffffffffffffffffffffffffff1673ffffffffffffffffffffffffffffffffffffffff16815260200190815260200160002060009054906101000a900463ffffffff1663ffffffff168663ffffffff161015610ed35742600160003373ffffffffffffffffffffffffffffffffffffffff1673ffffffffffffffffffffffffffffffffffffffff1681526020019081526020016000208763ffffffff16815481101515610d6157fe5b906000526020600020906007020160050160046101000a81548163ffffffff021916908363ffffffff16021790555084600160003373ffffffffffffffffffffffffffffffffffffffff1673ffffffffffffffffffffffffffffffffffffffff1681526020019081526020016000208763ffffffff16815481101515610de357fe5b90600052602060002090600702016006019080519060200190610e07929190612555565b50600193507f491fee1f85eec3261a1316f32c7197251f6ca0b8dde2aa4a62657c89fbea12bf33604051808273ffffffffffffffffffffffffffffffffffffffff1673ffffffffffffffffffffffffffffffffffffffff16815260200180602001828103825260298152602001807f73656c6563744170706c6963616e7442794f7267416e64506f736974696f6e2081526020017f28535543434553532900000000000000000000000000000000000000000000008152506040019250505060405180910390a1610f96565b7f491fee1f85eec3261a1316f32c7197251f6ca0b8dde2aa4a62657c89fbea12bf33604051808273ffffffffffffffffffffffffffffffffffffffff1673ffffffffffffffffffffffffffffffffffffffff16815260200180602001828103825260378152602001807f73656c6563744170706c6963616e7442794f7267416e64506f736974696f6e2081526020017f284641494c2920696e76616c696420706f736974696f6e0000000000000000008152506040019250505060405180910390a15b83935050505092915050565b60007fa963f37e8e3338219c9563a7978df774dc5aaf0a1c804af20aefb5c997e33729336000604051808373ffffffffffffffffffffffffffffffffffffffff1673ffffffffffffffffffffffffffffffffffffffff1681526020018263ffffffff16815260200180602001828103825260198152602001807f6372656174654170706c6963616e742028415454454d50542900000000000000815250602001935050505060405180910390a160003373ffffffffffffffffffffffffffffffffffffffff161415801561108d575060008673ffffffffffffffffffffffffffffffffffffffff1614155b1515611127576040517f08c379a000000000000000000000000000000000000000000000000000000000815260040180806020018281038252602e8152602001807f6372656174654170706c6963616e7420284641494c292041646472657373657381526020017f2063616e206e6f7420626520302e00000000000000000000000000000000000081525060400191505060405180910390fd5b600985511415156111c6576040517f08c379a000000000000000000000000000000000000000000000000000000000815260040180806020018281038252602b8152602001807f6372656174654170706c6963616e7420284641494c292053534e204c656e677481526020017f6820696e636f727265637400000000000000000000000000000000000000000081525060400191505060405180910390fd5b60098451141515611265576040517f08c379a00000000000000000000000000000000000000000000000000000000081526004018080602001828103825260368152602001807f6372656174654170706c6963616e7420284641494c29436f6c6c65676520537481526020017f7564656e744944206c656e6774682050726f626c656d0000000000000000000081525060400191505060405180910390fd5b6000835111801561127857506028835111155b1515611312576040517f08c379a000000000000000000000000000000000000000000000000000000000815260040180806020018281038252602f8152602001807f6372656174654170706c6963616e7420284641494c292046697273744e616d6581526020017f206c656e6774682070726f626c656d000000000000000000000000000000000081525060400191505060405180910390fd5b6000825111801561132557506028825111155b15156113bf576040517f08c379a000000000000000000000000000000000000000000000000000000000815260040180806020018281038252602e8152602001807f6372656174654170706c6963616e7420284641494c29204c6173744e616d652081526020017f6c656e6774682070726f626c656d00000000000000000000000000000000000081525060400191505060405180910390fd5b600160008773ffffffffffffffffffffffffffffffffffffffff1673ffffffffffffffffffffffffffffffffffffffff168152602001908152602001600020610100604051908101604052803373ffffffffffffffffffffffffffffffffffffffff1681526020018781526020018681526020018581526020018481526020014263ffffffff168152602001600063ffffffff16815260200160206040519081016040528060008152508152509080600181540180825580915050906001820390600052602060002090600702016000909192909190915060008201518160000160006101000a81548173ffffffffffffffffffffffffffffffffffffffff021916908373ffffffffffffffffffffffffffffffffffffffff16021790555060208201518160010190805190602001906114fa9291906125d5565b5060408201518160020190805190602001906115179291906125d5565b5060608201518160030190805190602001906115349291906125d5565b5060808201518160040190805190602001906115519291906125d5565b5060a08201518160050160006101000a81548163ffffffff021916908363ffffffff16021790555060c08201518160050160046101000a81548163ffffffff021916908363ffffffff16021790555060e08201518160060190805190602001906115bc9291906125d5565b505050905060008163ffffffff161015156117be576115eb60018263ffffffff1661250690919063ffffffff16565b600360003373ffffffffffffffffffffffffffffffffffffffff1673ffffffffffffffffffffffffffffffffffffffff16815260200190815260200160002060006101000a81548163ffffffff021916908363ffffffff1602179055506116b16001600260008973ffffffffffffffffffffffffffffffffffffffff1673ffffffffffffffffffffffffffffffffffffffff16815260200190815260200160002060009054906101000a900463ffffffff1663ffffffff1661252b90919063ffffffff16565b600260008873ffffffffffffffffffffffffffffffffffffffff1673ffffffffffffffffffffffffffffffffffffffff16815260200190815260200160002060006101000a81548163ffffffff021916908363ffffffff1602179055507fa963f37e8e3338219c9563a7978df774dc5aaf0a1c804af20aefb5c997e33729336000604051808373ffffffffffffffffffffffffffffffffffffffff1673ffffffffffffffffffffffffffffffffffffffff1681526020018263ffffffff16815260200180602001828103825260198152602001807f6372656174654170706c6963616e742028535543434553532900000000000000815250602001935050505060405180910390a161186a565b7fa963f37e8e3338219c9563a7978df774dc5aaf0a1c804af20aefb5c997e33729336000604051808373ffffffffffffffffffffffffffffffffffffffff1673ffffffffffffffffffffffffffffffffffffffff1681526020018263ffffffff16815260200180602001828103825260168152602001807f6372656174654170706c6963616e7420284641494c2900000000000000000000815250602001935050505060405180910390a15b505050505050565b6000809054906101000a900473ffffffffffffffffffffffffffffffffffffffff1673ffffffffffffffffffffffffffffffffffffffff163373ffffffffffffffffffffffffffffffffffffffff161415156118cd57600080fd5b6000809054906101000a900473ffffffffffffffffffffffffffffffffffffffff1673ffffffffffffffffffffffffffffffffffffffff163373ffffffffffffffffffffffffffffffffffffffff1614156119645780600460006101000a81548173ffffffffffffffffffffffffffffffffffffffff021916908373ffffffffffffffffffffffffffffffffffffffff1602179055505b50565b6000809054906101000a900473ffffffffffffffffffffffffffffffffffffffff1673ffffffffffffffffffffffffffffffffffffffff163373ffffffffffffffffffffffffffffffffffffffff161415156119c257600080fd5b600073ffffffffffffffffffffffffffffffffffffffff168173ffffffffffffffffffffffffffffffffffffffff16141515156119fe57600080fd5b8073ffffffffffffffffffffffffffffffffffffffff166000809054906101000a900473ffffffffffffffffffffffffffffffffffffffff1673ffffffffffffffffffffffffffffffffffffffff167f8be0079c531659141344cd1fd0a4f28419497f9722a3daafe3b4186f6b6457e060405160405180910390a3806000806101000a81548173ffffffffffffffffffffffffffffffffffffffff021916908373ffffffffffffffffffffffffffffffffffffffff16021790555050565b600060608060608060003360008060009150600460009054906101000a900473ffffffffffffffffffffffffffffffffffffffff1690508073ffffffffffffffffffffffffffffffffffffffff1663e1eaee42336040518263ffffffff167c0100000000000000000000000000000000000000000000000000000000028152600401808273ffffffffffffffffffffffffffffffffffffffff1673ffffffffffffffffffffffffffffffffffffffff168152602001915050602060405180830381600087803b158015611b8e57600080fd5b505af1158015611ba2573d6000803e3d6000fd5b505050506040513d6020811015611bb857600080fd5b810190808051906020019092919050505015611bd357600191505b60008263ffffffff161415611c50576040517f08c379a000000000000000000000000000000000000000000000000000000000815260040180806020018281038252601c8152602001807f4e6f7420417574686f72697a65642043726564656e7469616c4f72670000000081525060200191505060405180910390fd5b60008b73ffffffffffffffffffffffffffffffffffffffff1614151515611d05576040517f08c379a00000000000000000000000000000000000000000000000000000000081526004018080602001828103825260218152602001807f4170706c6963616e74206f7267416464726573732063616e206e6f742062652081526020017f300000000000000000000000000000000000000000000000000000000000000081525060400191505060405180910390fd5b600460009054906101000a900473ffffffffffffffffffffffffffffffffffffffff169350600260008c73ffffffffffffffffffffffffffffffffffffffff1673ffffffffffffffffffffffffffffffffffffffff16815260200190815260200160002060009054906101000a900463ffffffff1663ffffffff168a63ffffffff16108015611e6657508373ffffffffffffffffffffffffffffffffffffffff1663e1eaee428c6040518263ffffffff167c0100000000000000000000000000000000000000000000000000000000028152600401808273ffffffffffffffffffffffffffffffffffffffff1673ffffffffffffffffffffffffffffffffffffffff168152602001915050602060405180830381600087803b158015611e2a57600080fd5b505af1158015611e3e573d6000803e3d6000fd5b505050506040513d6020811015611e5457600080fd5b81019080805190602001909291905050505b156123b057600160008c73ffffffffffffffffffffffffffffffffffffffff1673ffffffffffffffffffffffffffffffffffffffff1681526020019081526020016000208a63ffffffff16815481101515611ebd57fe5b906000526020600020906007020160000160009054906101000a900473ffffffffffffffffffffffffffffffffffffffff169850600160008c73ffffffffffffffffffffffffffffffffffffffff1673ffffffffffffffffffffffffffffffffffffffff1681526020019081526020016000208a63ffffffff16815481101515611f4357fe5b90600052602060002090600702016001018054600181600116156101000203166002900480601f016020809104026020016040519081016040528092919081815260200182805460018160011615610100020316600290048015611fe85780601f10611fbd57610100808354040283529160200191611fe8565b820191906000526020600020905b815481529060010190602001808311611fcb57829003601f168201915b50505050509750600160008c73ffffffffffffffffffffffffffffffffffffffff1673ffffffffffffffffffffffffffffffffffffffff1681526020019081526020016000208a63ffffffff1681548110151561204157fe5b90600052602060002090600702016002018054600181600116156101000203166002900480601f0160208091040260200160405190810160405280929190818152602001828054600181600116156101000203166002900480156120e65780601f106120bb576101008083540402835291602001916120e6565b820191906000526020600020905b8154815290600101906020018083116120c957829003601f168201915b50505050509650600160008c73ffffffffffffffffffffffffffffffffffffffff1673ffffffffffffffffffffffffffffffffffffffff1681526020019081526020016000208a63ffffffff1681548110151561213f57fe5b90600052602060002090600702016003018054600181600116156101000203166002900480601f0160208091040260200160405190810160405280929190818152602001828054600181600116156101000203166002900480156121e45780601f106121b9576101008083540402835291602001916121e4565b820191906000526020600020905b8154815290600101906020018083116121c757829003601f168201915b50505050509550600160008c73ffffffffffffffffffffffffffffffffffffffff1673ffffffffffffffffffffffffffffffffffffffff1681526020019081526020016000208a63ffffffff1681548110151561223d57fe5b90600052602060002090600702016004018054600181600116156101000203166002900480601f0160208091040260200160405190810160405280929190818152602001828054600181600116156101000203166002900480156122e25780601f106122b7576101008083540402835291602001916122e2565b820191906000526020600020905b8154815290600101906020018083116122c557829003601f168201915b505050505094507f491fee1f85eec3261a1316f32c7197251f6ca0b8dde2aa4a62657c89fbea12bf33604051808273ffffffffffffffffffffffffffffffffffffffff1673ffffffffffffffffffffffffffffffffffffffff16815260200180602001828103825260298152602001807f73656c6563744170706c6963616e7442794f7267416e64506f736974696f6e2081526020017f28535543434553532900000000000000000000000000000000000000000000008152506040019250505060405180910390a16124e9565b60009850602060405190810160405280600081525097506020604051908101604052806000815250965060206040519081016040528060008152509550602060405190810160405280600081525094507f491fee1f85eec3261a1316f32c7197251f6ca0b8dde2aa4a62657c89fbea12bf33604051808273ffffffffffffffffffffffffffffffffffffffff1673ffffffffffffffffffffffffffffffffffffffff16815260200180602001828103825260548152602001807f73656c6563744170706c6963616e7420284641494c29204170706c6963616e7481526020017f206c6f6f6b7570206661696c2c206f72206f7267416464726573732069736e2781526020017f742063726564656e7469616c696e67206f72672e0000000000000000000000008152506060019250505060405180910390a15b888888888898509850985098509850505050509295509295909350565b60008263ffffffff168263ffffffff161115151561252057fe5b818303905092915050565b60008082840190508363ffffffff168163ffffffff161015151561254b57fe5b8091505092915050565b828054600181600116156101000203166002900490600052602060002090601f016020900481019282601f1061259657805160ff19168380011785556125c4565b828001600101855582156125c4579182015b828111156125c35782518255916020019190600101906125a8565b5b5090506125d19190612655565b5090565b828054600181600116156101000203166002900490600052602060002090601f016020900481019282601f1061261657805160ff1916838001178555612644565b82800160010185558215612644579182015b82811115612643578251825591602001919060010190612628565b5b5090506126519190612655565b5090565b61267791905b8082111561267357600081600090555060010161265b565b5090565b905600a165627a7a723058205c64e6bbe6f343c90019acb290620a25e7ca615a1864cff4d1fee122db60b6f70029",
  "source": "pragma solidity ^0.4.21;\r\n/**\r\n * @title ApplicantFactory\r\n * @dev The ApplicantFactory allows applicants to apply to a credentialOrg for an electronic credential.\r\n */\r\nimport \"./Pausable.sol\";\r\nimport \"./SafeMath32.sol\";\r\n\r\ninterface CredentialOrgFactory{\r\n    function isCredentialOrg(address _credentialOrgAddress) external view returns (bool IsOrgAddress);\r\n}\r\n\r\ncontract ApplicantFactory is Pausable {\r\n\r\n    /**\r\n    *  @dev Library useage for safemath for uint32\r\n    */\r\n    using SafeMath32 for uint32;\r\n\r\n    event CreateNewApplicant(address ApplicantAddress, uint32 position, string detail);\r\n    event ApplicantDetail(address ApplicantCallerAddress, string detail);\r\n    \r\n    \r\n    mapping (address => Applicant[]) orgAddressToApplicants;\r\n    mapping (address => uint32) orgAddressToApplicantCount;\r\n    mapping (address => uint32) applicantAddressToApplicantPosition;\r\n    \r\n    struct Applicant {\r\n        address studentAddress;     // address of student requesting credential\r\n        string SSN;                 // Applicant SSN\r\n        string collegeStudentID;    // Applicant CollegeID\r\n        string firstName;           // first name lenmax 40\r\n        string lastName;            // last name  lenmax 40\r\n        uint32 insertDate;          // unix timestamp.\r\n        uint32 processDate;         // unix timestamp.\r\n        string processDetail;       // AWARDED/DENIED\r\n    }\r\n    \r\n    constructor() public {\r\n    }\r\n    \r\n    address private credentialOrgContractAddress;\r\n\r\n    // modifiers\r\n    /**\r\n    * @dev Modifer onlyBy for Access Control\r\n    */\r\n    modifier onlyBy(address _credentialOrgAddress){\r\n        uint32 foundAccount = 0;\r\n        CredentialOrgFactory cof = CredentialOrgFactory(credentialOrgContractAddress);\r\n        if (cof.isCredentialOrg(msg.sender)){\r\n            foundAccount = 1;\r\n        }\r\n        if (foundAccount == 0) revert(\"Not Authorized CredentialOrg\");\r\n        _;\r\n    }\r\n\r\n\r\n    // functions\r\n    /**\r\n    * @dev Allows owner to set address of CredentialOrgFactory contract.\r\n    * @param _credentialOrgContractAddress address of CredentialOrgFactory (set on deploy).\r\n    */\r\n    function setAddress(address _credentialOrgContractAddress) public onlyOwner {\r\n        if (msg.sender == owner){\r\n            credentialOrgContractAddress = _credentialOrgContractAddress;\r\n        }\r\n    }\r\n\r\n    /**\r\n    * @dev Allows creation of Applicants to Credentialing Orgs\r\n    * @param _collegeAddress address of CredentialingOrg\r\n    * @param _SSN SSN of Student\r\n    * @param _collegeStudentID College Student ID\r\n    * @param _firstName First Name of Student\r\n    * @param _lastName Last Name of Student\r\n    */\r\n    function createApplicant(address _collegeAddress, string _SSN, string _collegeStudentID, string _firstName, string _lastName) \r\n    public \r\n    {\r\n        emit CreateNewApplicant(msg.sender, 0, \"createApplicant (ATTEMPT)\");\r\n        require(msg.sender != 0 && _collegeAddress != 0, \"createApplicant (FAIL) Addresses can not be 0.\");\r\n        require(bytes(_SSN).length == 9,\"createApplicant (FAIL) SSN Length incorrect\");\r\n        require(bytes(_collegeStudentID).length == 9, \"createApplicant (FAIL)College StudentID length Problem\");\r\n        require(bytes(_firstName).length > 0 && bytes(_firstName).length <= 40, \"createApplicant (FAIL) FirstName length problem\"); \r\n        require(bytes(_lastName).length > 0 && bytes(_lastName).length <= 40, \"createApplicant (FAIL) LastName length problem\"); \r\n\r\n        uint32 position = uint32(orgAddressToApplicants[_collegeAddress].push(Applicant(msg.sender, _SSN, _collegeStudentID, _firstName, _lastName, uint32(block.timestamp), 0, \"\")));\r\n        if(position >= 0){\r\n            applicantAddressToApplicantPosition[msg.sender] = position.sub(1);\r\n            orgAddressToApplicantCount[_collegeAddress] = orgAddressToApplicantCount[_collegeAddress].add(1);\r\n            emit CreateNewApplicant(msg.sender, 0, \"createApplicant (SUCCESS)\");\r\n        } else {\r\n            emit CreateNewApplicant(msg.sender, 0, \"createApplicant (FAIL)\");\r\n        }\r\n    }\r\n\r\n    /**\r\n    * @dev Allows Selection of Applicant by org and position.\r\n    * @param _orgAddress address of CredentialingOrg\r\n    * @param _position position in array of Applicant\r\n    */\r\n    function selectApplicantByOrgAndPosition(address _orgAddress, uint32 _position)\r\n    public view onlyBy(msg.sender)\r\n    returns (address studentAddress, string SSN, string collegeStudentID, string firstName,  string lastName)\r\n    {\r\n        require(_orgAddress != 0, \"Applicant orgAddress can not be 0\");\r\n        CredentialOrgFactory cof = CredentialOrgFactory(credentialOrgContractAddress);\r\n        if (_position < orgAddressToApplicantCount[_orgAddress] && cof.isCredentialOrg(_orgAddress)){\r\n            studentAddress = orgAddressToApplicants[_orgAddress][_position].studentAddress;\r\n            SSN = orgAddressToApplicants[_orgAddress][_position].SSN;\r\n            collegeStudentID = orgAddressToApplicants[_orgAddress][_position].collegeStudentID;\r\n            firstName = orgAddressToApplicants[_orgAddress][_position].firstName;\r\n            lastName = orgAddressToApplicants[_orgAddress][_position].lastName;\r\n            emit ApplicantDetail(msg.sender, \"selectApplicantByOrgAndPosition (SUCCESS)\");\r\n        } else {\r\n            studentAddress = 0;\r\n            SSN = \"\";\r\n            collegeStudentID = \"\";\r\n            firstName = \"\";\r\n            lastName = \"\";\r\n            emit ApplicantDetail(msg.sender, \"selectApplicant (FAIL) Applicant lookup fail, or orgAddress isn't credentialing org.\");\r\n        }\r\n        return(studentAddress, SSN, collegeStudentID, firstName, lastName);\r\n    }\r\n\r\n    /**\r\n    * @dev Allows Selection of Applicant by org and position.\r\n    * @param _position position in array of Applicant\r\n    * @param _processDetail Applicant AWARDED/DENIED\r\n    */\r\n    function updateApplicantByOrgAndPosition(uint32 _position, string _processDetail)\r\n    public onlyBy(msg.sender)\r\n    returns (bool updateSuccess)\r\n    {\r\n        updateSuccess = false;\r\n        require(_position >= 0, \"Applicant position requires >= 0\");\r\n        require(bytes(_processDetail).length >= 0 && bytes(_processDetail).length >= 10, \"Applicant position requires >= 0\");\r\n        if (_position < orgAddressToApplicantCount[msg.sender]){\r\n            orgAddressToApplicants[msg.sender][_position].processDate = uint32(block.timestamp);\r\n            orgAddressToApplicants[msg.sender][_position].processDetail = _processDetail;\r\n            updateSuccess = true;\r\n            emit ApplicantDetail(msg.sender, \"selectApplicantByOrgAndPosition (SUCCESS)\");\r\n        } else {\r\n            emit ApplicantDetail(msg.sender, \"selectApplicantByOrgAndPosition (FAIL) invalid position\");\r\n        }\r\n        return(updateSuccess);\r\n    }\r\n\r\n    /**\r\n    * @dev Allows Selection of Applicant Count by orgAddress\r\n    * @param _orgAddress address of CredentialingOrg\r\n    */\r\n    function selectOrgApplicantCount(address _orgAddress)\r\n    public view onlyBy(msg.sender)\r\n    returns (uint32 appCount)\r\n    {\r\n        appCount = orgAddressToApplicantCount[_orgAddress];\r\n        return (appCount);\r\n    }\r\n}",
  "sourcePath": "E:\\Projects\\CredentialVerify\\contracts\\ApplicantFactory.sol",
  "compiler": {
    "name": "solc",
    "version": "0.4.24+commit.e67f0147.Emscripten.clang"
  },
  "schemaVersion": "2.0.1",
  "updatedAt": "2018-08-13T02:49:19.172Z"
}