{
  "contractName": "ApplicantFactory",
  "abi": [
    {
      "constant": false,
      "inputs": [],
      "name": "unpause",
      "outputs": [],
      "payable": false,
      "stateMutability": "nonpayable",
      "type": "function"
    },
    {
      "constant": true,
      "inputs": [],
      "name": "paused",
      "outputs": [
        {
          "name": "",
          "type": "bool"
        }
      ],
      "payable": false,
      "stateMutability": "view",
      "type": "function"
    },
    {
      "constant": false,
      "inputs": [],
      "name": "pause",
      "outputs": [],
      "payable": false,
      "stateMutability": "nonpayable",
      "type": "function"
    },
    {
      "constant": true,
      "inputs": [],
      "name": "owner",
      "outputs": [
        {
          "name": "",
          "type": "address"
        }
      ],
      "payable": false,
      "stateMutability": "view",
      "type": "function"
    },
    {
      "constant": false,
      "inputs": [
        {
          "name": "newOwner",
          "type": "address"
        }
      ],
      "name": "transferOwnership",
      "outputs": [],
      "payable": false,
      "stateMutability": "nonpayable",
      "type": "function"
    },
    {
      "inputs": [],
      "payable": false,
      "stateMutability": "nonpayable",
      "type": "constructor"
    },
    {
      "anonymous": false,
      "inputs": [
        {
          "indexed": false,
          "name": "ApplicantAddress",
          "type": "address"
        },
        {
          "indexed": false,
          "name": "position",
          "type": "uint32"
        },
        {
          "indexed": false,
          "name": "detail",
          "type": "string"
        }
      ],
      "name": "CreateNewApplicant",
      "type": "event"
    },
    {
      "anonymous": false,
      "inputs": [
        {
          "indexed": false,
          "name": "ApplicantCallerAddress",
          "type": "address"
        },
        {
          "indexed": false,
          "name": "detail",
          "type": "string"
        }
      ],
      "name": "ApplicantDetail",
      "type": "event"
    },
    {
      "anonymous": false,
      "inputs": [],
      "name": "Pause",
      "type": "event"
    },
    {
      "anonymous": false,
      "inputs": [],
      "name": "Unpause",
      "type": "event"
    },
    {
      "anonymous": false,
      "inputs": [
        {
          "indexed": true,
          "name": "previousOwner",
          "type": "address"
        },
        {
          "indexed": true,
          "name": "newOwner",
          "type": "address"
        }
      ],
      "name": "OwnershipTransferred",
      "type": "event"
    },
    {
      "constant": false,
      "inputs": [
        {
          "name": "_credentialOrgContractAddress",
          "type": "address"
        }
      ],
      "name": "setAddress",
      "outputs": [],
      "payable": false,
      "stateMutability": "nonpayable",
      "type": "function"
    },
    {
      "constant": false,
      "inputs": [
        {
          "name": "_collegeAddress",
          "type": "address"
        },
        {
          "name": "_SSN",
          "type": "string"
        },
        {
          "name": "_collegeStudentID",
          "type": "string"
        },
        {
          "name": "_firstName",
          "type": "string"
        },
        {
          "name": "_lastName",
          "type": "string"
        }
      ],
      "name": "createApplicant",
      "outputs": [],
      "payable": false,
      "stateMutability": "nonpayable",
      "type": "function"
    },
    {
      "constant": true,
      "inputs": [
        {
          "name": "_orgAddress",
          "type": "address"
        },
        {
          "name": "_position",
          "type": "uint32"
        }
      ],
      "name": "selectApplicantByOrgAndPosition",
      "outputs": [
        {
          "name": "studentAddress",
          "type": "address"
        },
        {
          "name": "SSN",
          "type": "string"
        },
        {
          "name": "collegeStudentID",
          "type": "string"
        },
        {
          "name": "firstName",
          "type": "string"
        },
        {
          "name": "lastName",
          "type": "string"
        },
        {
          "name": "insertDate",
          "type": "uint32"
        },
        {
          "name": "processDate",
          "type": "uint32"
        }
      ],
      "payable": false,
      "stateMutability": "view",
      "type": "function"
    },
    {
      "constant": true,
      "inputs": [],
      "name": "selectApplicantCount",
      "outputs": [
        {
          "name": "appCount",
          "type": "uint32"
        }
      ],
      "payable": false,
      "stateMutability": "view",
      "type": "function"
    },
    {
      "constant": true,
      "inputs": [
        {
          "name": "_orgAddress",
          "type": "address"
        }
      ],
      "name": "selectOrgApplicantCount",
      "outputs": [
        {
          "name": "appCount",
          "type": "uint32"
        }
      ],
      "payable": false,
      "stateMutability": "view",
      "type": "function"
    }
  ],
  "bytecode": "0x608060405260008060146101000a81548160ff02191690831515021790555034801561002a57600080fd5b50336000806101000a81548173ffffffffffffffffffffffffffffffffffffffff021916908373ffffffffffffffffffffffffffffffffffffffff1602179055506000600460006101000a81548163ffffffff021916908363ffffffff1602179055506120188061009c6000396000f3006080604052600436106100a4576000357c0100000000000000000000000000000000000000000000000000000000900463ffffffff1680631e0beabe146100a95780633f4ba83a1461010c5780635c975abb146101235780638456cb59146101525780638da5cb5b14610169578063d1887dcd146101c0578063e30081a01461031b578063f2fde38b1461035e578063f76806d9146103a1578063fb997a891461060a575b600080fd5b3480156100b557600080fd5b506100ea600480360381019080803573ffffffffffffffffffffffffffffffffffffffff169060200190929190505050610641565b604051808263ffffffff1663ffffffff16815260200191505060405180910390f35b34801561011857600080fd5b5061012161069d565b005b34801561012f57600080fd5b5061013861075b565b604051808215151515815260200191505060405180910390f35b34801561015e57600080fd5b5061016761076e565b005b34801561017557600080fd5b5061017e61082e565b604051808273ffffffffffffffffffffffffffffffffffffffff1673ffffffffffffffffffffffffffffffffffffffff16815260200191505060405180910390f35b3480156101cc57600080fd5b50610319600480360381019080803573ffffffffffffffffffffffffffffffffffffffff169060200190929190803590602001908201803590602001908080601f0160208091040260200160405190810160405280939291908181526020018383808284378201915050505050509192919290803590602001908201803590602001908080601f0160208091040260200160405190810160405280939291908181526020018383808284378201915050505050509192919290803590602001908201803590602001908080601f0160208091040260200160405190810160405280939291908181526020018383808284378201915050505050509192919290803590602001908201803590602001908080601f0160208091040260200160405190810160405280939291908181526020018383808284378201915050505050509192919290505050610853565b005b34801561032757600080fd5b5061035c600480360381019080803573ffffffffffffffffffffffffffffffffffffffff1690602001909291905050506112fd565b005b34801561036a57600080fd5b5061039f600480360381019080803573ffffffffffffffffffffffffffffffffffffffff1690602001909291905050506113f1565b005b3480156103ad57600080fd5b506103f2600480360381019080803573ffffffffffffffffffffffffffffffffffffffff169060200190929190803563ffffffff169060200190929190505050611546565b604051808873ffffffffffffffffffffffffffffffffffffffff1673ffffffffffffffffffffffffffffffffffffffff168152602001806020018060200180602001806020018763ffffffff1663ffffffff1681526020018663ffffffff1663ffffffff16815260200185810385528b818151815260200191508051906020019080838360005b83811015610494578082015181840152602081019050610479565b50505050905090810190601f1680156104c15780820380516001836020036101000a031916815260200191505b5085810384528a818151815260200191508051906020019080838360005b838110156104fa5780820151818401526020810190506104df565b50505050905090810190601f1680156105275780820380516001836020036101000a031916815260200191505b50858103835289818151815260200191508051906020019080838360005b83811015610560578082015181840152602081019050610545565b50505050905090810190601f16801561058d5780820380516001836020036101000a031916815260200191505b50858103825288818151815260200191508051906020019080838360005b838110156105c65780820151818401526020810190506105ab565b50505050905090810190601f1680156105f35780820380516001836020036101000a031916815260200191505b509b50505050505050505050505060405180910390f35b34801561061657600080fd5b5061061f611f00565b604051808263ffffffff1663ffffffff16815260200191505060405180910390f35b6000600260008373ffffffffffffffffffffffffffffffffffffffff1673ffffffffffffffffffffffffffffffffffffffff16815260200190815260200160002060009054906101000a900463ffffffff169050809050919050565b6000809054906101000a900473ffffffffffffffffffffffffffffffffffffffff1673ffffffffffffffffffffffffffffffffffffffff163373ffffffffffffffffffffffffffffffffffffffff161415156106f857600080fd5b600060149054906101000a900460ff16151561071357600080fd5b60008060146101000a81548160ff0219169083151502179055507f7805862f689e2f13df9f062ff482ad3ad112aca9e0847911ed832e158c525b3360405160405180910390a1565b600060149054906101000a900460ff1681565b6000809054906101000a900473ffffffffffffffffffffffffffffffffffffffff1673ffffffffffffffffffffffffffffffffffffffff163373ffffffffffffffffffffffffffffffffffffffff161415156107c957600080fd5b600060149054906101000a900460ff161515156107e557600080fd5b6001600060146101000a81548160ff0219169083151502179055507f6985a02210a168e66602d3235cb6db0e70f92b3ba4d376a33c0f3d9434bff62560405160405180910390a1565b6000809054906101000a900473ffffffffffffffffffffffffffffffffffffffff1681565b6000807fa963f37e8e3338219c9563a7978df774dc5aaf0a1c804af20aefb5c997e33729336000604051808373ffffffffffffffffffffffffffffffffffffffff1673ffffffffffffffffffffffffffffffffffffffff1681526020018263ffffffff16815260200180602001828103825260198152602001807f6372656174654170706c6963616e742028415454454d50542900000000000000815250602001935050505060405180910390a160003373ffffffffffffffffffffffffffffffffffffffff161415801561093f575060008773ffffffffffffffffffffffffffffffffffffffff1614155b15156109d9576040517f08c379a000000000000000000000000000000000000000000000000000000000815260040180806020018281038252602e8152602001807f6372656174654170706c6963616e7420284641494c292041646472657373657381526020017f2063616e206e6f7420626520302e00000000000000000000000000000000000081525060400191505060405180910390fd5b60098651141515610a78576040517f08c379a000000000000000000000000000000000000000000000000000000000815260040180806020018281038252602b8152602001807f6372656174654170706c6963616e7420284641494c292053534e204c656e677481526020017f6820696e636f727265637400000000000000000000000000000000000000000081525060400191505060405180910390fd5b60098551141515610b17576040517f08c379a00000000000000000000000000000000000000000000000000000000081526004018080602001828103825260368152602001807f6372656174654170706c6963616e7420284641494c29436f6c6c65676520537481526020017f7564656e744944206c656e6774682050726f626c656d0000000000000000000081525060400191505060405180910390fd5b60008451118015610b2a57506028845111155b1515610bc4576040517f08c379a000000000000000000000000000000000000000000000000000000000815260040180806020018281038252602f8152602001807f6372656174654170706c6963616e7420284641494c292046697273744e616d6581526020017f206c656e6774682070726f626c656d000000000000000000000000000000000081525060400191505060405180910390fd5b60008351118015610bd757506028835111155b1515610c71576040517f08c379a000000000000000000000000000000000000000000000000000000000815260040180806020018281038252602e8152602001807f6372656174654170706c6963616e7420284641494c29204c6173744e616d652081526020017f6c656e6774682070726f626c656d00000000000000000000000000000000000081525060400191505060405180910390fd5b6004809054906101000a900473ffffffffffffffffffffffffffffffffffffffff1691508173ffffffffffffffffffffffffffffffffffffffff1663e1eaee42886040518263ffffffff167c0100000000000000000000000000000000000000000000000000000000028152600401808273ffffffffffffffffffffffffffffffffffffffff1673ffffffffffffffffffffffffffffffffffffffff168152602001915050602060405180830381600087803b158015610d3057600080fd5b505af1158015610d44573d6000803e3d6000fd5b505050506040513d6020811015610d5a57600080fd5b81019080805190602001909291905050501561122257600160008873ffffffffffffffffffffffffffffffffffffffff1673ffffffffffffffffffffffffffffffffffffffff16815260200190815260200160002060e0604051908101604052803373ffffffffffffffffffffffffffffffffffffffff1681526020018881526020018781526020018681526020018581526020014263ffffffff168152602001600063ffffffff168152509080600181540180825580915050906001820390600052602060002090600602016000909192909190915060008201518160000160006101000a81548173ffffffffffffffffffffffffffffffffffffffff021916908373ffffffffffffffffffffffffffffffffffffffff1602179055506020820151816001019080519060200190610e94929190611f47565b506040820151816002019080519060200190610eb1929190611f47565b506060820151816003019080519060200190610ece929190611f47565b506080820151816004019080519060200190610eeb929190611f47565b5060a08201518160050160006101000a81548163ffffffff021916908363ffffffff16021790555060c08201518160050160046101000a81548163ffffffff021916908363ffffffff1602179055505050905060008163ffffffff1610151561117157610f7a6001600460009054906101000a900463ffffffff1663ffffffff16611f1d90919063ffffffff16565b600460006101000a81548163ffffffff021916908363ffffffff16021790555060018103600360003373ffffffffffffffffffffffffffffffffffffffff1673ffffffffffffffffffffffffffffffffffffffff16815260200190815260200160002060006101000a81548163ffffffff021916908363ffffffff1602179055506110646001600260008a73ffffffffffffffffffffffffffffffffffffffff1673ffffffffffffffffffffffffffffffffffffffff16815260200190815260200160002060009054906101000a900463ffffffff1663ffffffff16611f1d90919063ffffffff16565b600260008973ffffffffffffffffffffffffffffffffffffffff1673ffffffffffffffffffffffffffffffffffffffff16815260200190815260200160002060006101000a81548163ffffffff021916908363ffffffff1602179055507fa963f37e8e3338219c9563a7978df774dc5aaf0a1c804af20aefb5c997e33729336000604051808373ffffffffffffffffffffffffffffffffffffffff1673ffffffffffffffffffffffffffffffffffffffff1681526020018263ffffffff16815260200180602001828103825260198152602001807f6372656174654170706c6963616e742028535543434553532900000000000000815250602001935050505060405180910390a161121d565b7fa963f37e8e3338219c9563a7978df774dc5aaf0a1c804af20aefb5c997e33729336000604051808373ffffffffffffffffffffffffffffffffffffffff1673ffffffffffffffffffffffffffffffffffffffff1681526020018263ffffffff16815260200180602001828103825260168152602001807f6372656174654170706c6963616e7420284641494c2900000000000000000000815250602001935050505060405180910390a15b6112f4565b7fa963f37e8e3338219c9563a7978df774dc5aaf0a1c804af20aefb5c997e33729336000604051808373ffffffffffffffffffffffffffffffffffffffff1673ffffffffffffffffffffffffffffffffffffffff1681526020018263ffffffff16815260200180602001828103825260288152602001807f6372656174654170706c6963616e7420284641494c29204e6f7420437265646581526020017f6e7469616c4f7267000000000000000000000000000000000000000000000000815250604001935050505060405180910390a15b50505050505050565b6000809054906101000a900473ffffffffffffffffffffffffffffffffffffffff1673ffffffffffffffffffffffffffffffffffffffff163373ffffffffffffffffffffffffffffffffffffffff1614151561135857600080fd5b6000809054906101000a900473ffffffffffffffffffffffffffffffffffffffff1673ffffffffffffffffffffffffffffffffffffffff163373ffffffffffffffffffffffffffffffffffffffff1614156113ee57806004806101000a81548173ffffffffffffffffffffffffffffffffffffffff021916908373ffffffffffffffffffffffffffffffffffffffff1602179055505b50565b6000809054906101000a900473ffffffffffffffffffffffffffffffffffffffff1673ffffffffffffffffffffffffffffffffffffffff163373ffffffffffffffffffffffffffffffffffffffff1614151561144c57600080fd5b600073ffffffffffffffffffffffffffffffffffffffff168173ffffffffffffffffffffffffffffffffffffffff161415151561148857600080fd5b8073ffffffffffffffffffffffffffffffffffffffff166000809054906101000a900473ffffffffffffffffffffffffffffffffffffffff1673ffffffffffffffffffffffffffffffffffffffff167f8be0079c531659141344cd1fd0a4f28419497f9722a3daafe3b4186f6b6457e060405160405180910390a3806000806101000a81548173ffffffffffffffffffffffffffffffffffffffff021916908373ffffffffffffffffffffffffffffffffffffffff16021790555050565b60006060806060806000806000808a73ffffffffffffffffffffffffffffffffffffffff1614151515611607576040517f08c379a00000000000000000000000000000000000000000000000000000000081526004018080602001828103825260218152602001807f4170706c6963616e74206f7267416464726573732063616e206e6f742062652081526020017f300000000000000000000000000000000000000000000000000000000000000081525060400191505060405180910390fd5b6004809054906101000a900473ffffffffffffffffffffffffffffffffffffffff169050600260008b73ffffffffffffffffffffffffffffffffffffffff1673ffffffffffffffffffffffffffffffffffffffff16815260200190815260200160002060009054906101000a900463ffffffff1663ffffffff168963ffffffff1610801561176757508073ffffffffffffffffffffffffffffffffffffffff1663e1eaee428b6040518263ffffffff167c0100000000000000000000000000000000000000000000000000000000028152600401808273ffffffffffffffffffffffffffffffffffffffff1673ffffffffffffffffffffffffffffffffffffffff168152602001915050602060405180830381600087803b15801561172b57600080fd5b505af115801561173f573d6000803e3d6000fd5b505050506040513d602081101561175557600080fd5b81019080805190602001909291905050505b15611d9d57600160008b73ffffffffffffffffffffffffffffffffffffffff1673ffffffffffffffffffffffffffffffffffffffff1681526020019081526020016000208963ffffffff168154811015156117be57fe5b906000526020600020906006020160000160009054906101000a900473ffffffffffffffffffffffffffffffffffffffff169750600160008b73ffffffffffffffffffffffffffffffffffffffff1673ffffffffffffffffffffffffffffffffffffffff1681526020019081526020016000208963ffffffff1681548110151561184457fe5b90600052602060002090600602016001018054600181600116156101000203166002900480601f0160208091040260200160405190810160405280929190818152602001828054600181600116156101000203166002900480156118e95780601f106118be576101008083540402835291602001916118e9565b820191906000526020600020905b8154815290600101906020018083116118cc57829003601f168201915b50505050509650600160008b73ffffffffffffffffffffffffffffffffffffffff1673ffffffffffffffffffffffffffffffffffffffff1681526020019081526020016000208963ffffffff1681548110151561194257fe5b90600052602060002090600602016002018054600181600116156101000203166002900480601f0160208091040260200160405190810160405280929190818152602001828054600181600116156101000203166002900480156119e75780601f106119bc576101008083540402835291602001916119e7565b820191906000526020600020905b8154815290600101906020018083116119ca57829003601f168201915b50505050509550600160008b73ffffffffffffffffffffffffffffffffffffffff1673ffffffffffffffffffffffffffffffffffffffff1681526020019081526020016000208963ffffffff16815481101515611a4057fe5b90600052602060002090600602016003018054600181600116156101000203166002900480601f016020809104026020016040519081016040528092919081815260200182805460018160011615610100020316600290048015611ae55780601f10611aba57610100808354040283529160200191611ae5565b820191906000526020600020905b815481529060010190602001808311611ac857829003601f168201915b50505050509450600160008b73ffffffffffffffffffffffffffffffffffffffff1673ffffffffffffffffffffffffffffffffffffffff1681526020019081526020016000208963ffffffff16815481101515611b3e57fe5b90600052602060002090600602016004018054600181600116156101000203166002900480601f016020809104026020016040519081016040528092919081815260200182805460018160011615610100020316600290048015611be35780601f10611bb857610100808354040283529160200191611be3565b820191906000526020600020905b815481529060010190602001808311611bc657829003601f168201915b50505050509350600160008b73ffffffffffffffffffffffffffffffffffffffff1673ffffffffffffffffffffffffffffffffffffffff1681526020019081526020016000208963ffffffff16815481101515611c3c57fe5b906000526020600020906006020160050160009054906101000a900463ffffffff169250600160008b73ffffffffffffffffffffffffffffffffffffffff1673ffffffffffffffffffffffffffffffffffffffff1681526020019081526020016000208963ffffffff16815481101515611cb257fe5b906000526020600020906006020160050160049054906101000a900463ffffffff1691507f491fee1f85eec3261a1316f32c7197251f6ca0b8dde2aa4a62657c89fbea12bf33604051808273ffffffffffffffffffffffffffffffffffffffff1673ffffffffffffffffffffffffffffffffffffffff16815260200180602001828103825260298152602001807f73656c6563744170706c6963616e7442794f7267416e64506f736974696f6e2081526020017f28535543434553532900000000000000000000000000000000000000000000008152506040019250505060405180910390a1611ede565b600097506020604051908101604052806000815250965060206040519081016040528060008152509550602060405190810160405280600081525094506020604051908101604052806000815250935060009250600091507f491fee1f85eec3261a1316f32c7197251f6ca0b8dde2aa4a62657c89fbea12bf33604051808273ffffffffffffffffffffffffffffffffffffffff1673ffffffffffffffffffffffffffffffffffffffff16815260200180602001828103825260548152602001807f73656c6563744170706c6963616e7420284641494c29204170706c6963616e7481526020017f206c6f6f6b7570206661696c2c206f72206f7267416464726573732069736e2781526020017f742063726564656e7469616c696e67206f72672e0000000000000000000000008152506060019250505060405180910390a15b8787878787878797509750975097509750975097505092959891949750929550565b6000600460009054906101000a900463ffffffff16905080905090565b60008082840190508363ffffffff168163ffffffff1610151515611f3d57fe5b8091505092915050565b828054600181600116156101000203166002900490600052602060002090601f016020900481019282601f10611f8857805160ff1916838001178555611fb6565b82800160010185558215611fb6579182015b82811115611fb5578251825591602001919060010190611f9a565b5b509050611fc39190611fc7565b5090565b611fe991905b80821115611fe5576000816000905550600101611fcd565b5090565b905600a165627a7a72305820f36b3e691807d2fc72d8246b6dcdcf52487428fd37a581661671cfac28cf8f8e0029",
  "source": "pragma solidity ^0.4.21;\r\n/**\r\n * @title ApplicantFactory\r\n * @dev The ApplicantFactory allows applicants to apply to a credentialOrg for an electronic credential.\r\n */\r\nimport \"./Pausable.sol\";\r\nimport \"./SafeMath32.sol\";\r\n\r\ninterface CredentialOrgFactory{\r\n    function isCredentialOrg(address _credentialOrgAddress) external view returns (bool IsOrgAddress);\r\n}\r\n\r\ncontract ApplicantFactory is Pausable {\r\n\r\n    /**\r\n    *  @dev Library useage for safemath for uint32\r\n    */\r\n    using SafeMath32 for uint32;\r\n\r\n    event CreateNewApplicant(address ApplicantAddress, uint32 position, string detail);\r\n    event ApplicantDetail(address ApplicantCallerAddress, string detail);\r\n    \r\n    \r\n    mapping (address => Applicant[]) orgAddressToApplicants;\r\n    mapping (address => uint32) orgAddressToApplicantCount;\r\n    mapping (address => uint32) applicantAddressToApplicantPosition;\r\n    \r\n    uint32 applicantCount;\r\n\r\n    struct Applicant {\r\n        address studentAddress;     // address of student requesting credential\r\n        string SSN;                 // Applicant SSN\r\n        string collegeStudentID;    // Applicant CollegeID\r\n        string firstName;          // first name lenmax 40\r\n        string lastName;           // last name  lenmax 40\r\n        uint32 insertDate;            // unix timestamp.\r\n        uint32 processDate;           // unix timestamp.\r\n    }\r\n    \r\n    constructor() public {\r\n        applicantCount = 0;\r\n    }\r\n    \r\n    address credentialOrgContractAddress;\r\n\r\n    // functions\r\n    /**\r\n    * @dev Allows owner to set address of CredentialOrgFactory contract.\r\n    * @param _credentialOrgContractAddress address of CredentialOrgFactory (set on deploy).\r\n    */\r\n    function setAddress(address _credentialOrgContractAddress) public onlyOwner {\r\n        if (msg.sender == owner){\r\n            credentialOrgContractAddress = _credentialOrgContractAddress;\r\n        }\r\n    }\r\n\r\n    /**\r\n    * @dev Allows creation of Applicants to Credentialing Orgs\r\n    * @param _collegeAddress address of CredentialingOrg\r\n    * @param _SSN SSN of Student\r\n    * @param _collegeStudentID College Student ID\r\n    * @param _firstName First Name of Student\r\n    * @param _lastName Last Name of Student\r\n    */\r\n    function createApplicant(address _collegeAddress, string _SSN, string _collegeStudentID, string _firstName, string _lastName) \r\n    public \r\n    {\r\n        emit CreateNewApplicant(msg.sender, 0, \"createApplicant (ATTEMPT)\");\r\n        require(msg.sender !=0 && _collegeAddress != 0, \"createApplicant (FAIL) Addresses can not be 0.\");\r\n        require(bytes(_SSN).length == 9,\"createApplicant (FAIL) SSN Length incorrect\");\r\n        require(bytes(_collegeStudentID).length == 9, \"createApplicant (FAIL)College StudentID length Problem\");\r\n        require(bytes(_firstName).length > 0 && bytes(_firstName).length <= 40, \"createApplicant (FAIL) FirstName length problem\"); \r\n        require(bytes(_lastName).length > 0 && bytes(_lastName).length <= 40, \"createApplicant (FAIL) LastName length problem\"); \r\n\r\n        CredentialOrgFactory cof = CredentialOrgFactory(credentialOrgContractAddress);\r\n        if (cof.isCredentialOrg(_collegeAddress)){\r\n            uint32 position = uint32(orgAddressToApplicants[_collegeAddress].push(Applicant(msg.sender, _SSN, _collegeStudentID, _firstName, _lastName, uint32(block.timestamp), 0)));\r\n            if(position >= 0){\r\n                applicantCount = applicantCount.add(1);\r\n                applicantAddressToApplicantPosition[msg.sender] = position -1;\r\n                orgAddressToApplicantCount[_collegeAddress] = orgAddressToApplicantCount[_collegeAddress].add(1);\r\n                emit CreateNewApplicant(msg.sender, 0, \"createApplicant (SUCCESS)\");\r\n            } else {\r\n                emit CreateNewApplicant(msg.sender, 0, \"createApplicant (FAIL)\");\r\n            }\r\n        } else {\r\n            emit CreateNewApplicant(msg.sender, 0, \"createApplicant (FAIL) Not CredentialOrg\");\r\n        }\r\n    }\r\n\r\n    /**\r\n    * @dev Allows Selection of Applicant by org and position.\r\n    * @param _orgAddress address of CredentialingOrg\r\n    * @param _position position in array of Applicant\r\n    */\r\n    function selectApplicantByOrgAndPosition(address _orgAddress, uint32 _position)\r\n    public view\r\n    returns (address studentAddress, string SSN, string collegeStudentID, string firstName,  string lastName, uint32 insertDate,  uint32 processDate)\r\n    {\r\n        require(_orgAddress != 0, \"Applicant orgAddress can not be 0\");\r\n        CredentialOrgFactory cof = CredentialOrgFactory(credentialOrgContractAddress);\r\n        if (_position < orgAddressToApplicantCount[_orgAddress] && cof.isCredentialOrg(_orgAddress)){\r\n            studentAddress = orgAddressToApplicants[_orgAddress][_position].studentAddress;\r\n            SSN = orgAddressToApplicants[_orgAddress][_position].SSN;\r\n            collegeStudentID = orgAddressToApplicants[_orgAddress][_position].collegeStudentID;\r\n            firstName = orgAddressToApplicants[_orgAddress][_position].firstName;\r\n            lastName = orgAddressToApplicants[_orgAddress][_position].lastName;\r\n            insertDate = orgAddressToApplicants[_orgAddress][_position].insertDate;\r\n            processDate = orgAddressToApplicants[_orgAddress][_position].processDate;\r\n            emit ApplicantDetail(msg.sender, \"selectApplicantByOrgAndPosition (SUCCESS)\");\r\n        } else {\r\n            studentAddress = 0;\r\n            SSN = \"\";\r\n            collegeStudentID = \"\";\r\n            firstName = \"\";\r\n            lastName = \"\";\r\n            insertDate = 0;\r\n            processDate = 0;\r\n            emit ApplicantDetail(msg.sender, \"selectApplicant (FAIL) Applicant lookup fail, or orgAddress isn't credentialing org.\");\r\n        }\r\n        return(studentAddress, SSN, collegeStudentID, firstName, lastName, insertDate, processDate);\r\n    }\r\n\r\n    /**\r\n    * @dev Allows Selection of Applicant Total Count.\r\n    */\r\n    function selectApplicantCount()\r\n    public view \r\n    returns (uint32 appCount)\r\n    {\r\n        appCount = applicantCount;\r\n        return (appCount);\r\n    }\r\n\r\n    /**\r\n    * @dev Allows Selection of Applicant Count by orgAddress\r\n    * @param _orgAddress address of CredentialingOrg\r\n    */\r\n    function selectOrgApplicantCount(address _orgAddress)\r\n    public view \r\n    returns (uint32 appCount)\r\n    {\r\n        appCount = orgAddressToApplicantCount[_orgAddress];\r\n        return (appCount);\r\n    }\r\n}",
  "sourcePath": "E:\\Projects\\CredentialVerify\\contracts\\ApplicantFactory.sol",
  "compiler": {
    "name": "solc",
    "version": "0.4.24+commit.e67f0147.Emscripten.clang"
  },
  "schemaVersion": "2.0.1",
  "updatedAt": "2018-08-11T22:54:17.555Z"
}