{
  "contractName": "ApplicantFactory",
  "abi": [
    {
      "constant": true,
      "inputs": [
        {
          "name": "",
          "type": "uint256"
        }
      ],
      "name": "applicants",
      "outputs": [
        {
          "name": "studentAddress",
          "type": "address"
        },
        {
          "name": "collegeAddress",
          "type": "address"
        },
        {
          "name": "SSN",
          "type": "string"
        },
        {
          "name": "collegeStudentID",
          "type": "string"
        },
        {
          "name": "firstName",
          "type": "bytes32"
        },
        {
          "name": "middleName",
          "type": "bytes32"
        },
        {
          "name": "lastName",
          "type": "bytes32"
        },
        {
          "name": "nameSuffix",
          "type": "bytes8"
        },
        {
          "name": "dateOfBirth",
          "type": "bytes8"
        },
        {
          "name": "insertDate",
          "type": "uint256"
        },
        {
          "name": "processDate",
          "type": "uint256"
        }
      ],
      "payable": false,
      "stateMutability": "view",
      "type": "function"
    },
    {
      "constant": true,
      "inputs": [],
      "name": "owner",
      "outputs": [
        {
          "name": "",
          "type": "address"
        }
      ],
      "payable": false,
      "stateMutability": "view",
      "type": "function"
    },
    {
      "constant": false,
      "inputs": [
        {
          "name": "newOwner",
          "type": "address"
        }
      ],
      "name": "transferOwnership",
      "outputs": [],
      "payable": false,
      "stateMutability": "nonpayable",
      "type": "function"
    },
    {
      "inputs": [],
      "payable": false,
      "stateMutability": "nonpayable",
      "type": "constructor"
    },
    {
      "anonymous": false,
      "inputs": [
        {
          "indexed": false,
          "name": "ApplicantAddress",
          "type": "address"
        },
        {
          "indexed": false,
          "name": "position",
          "type": "uint32"
        },
        {
          "indexed": false,
          "name": "detail",
          "type": "string"
        }
      ],
      "name": "NewApplicantAdd",
      "type": "event"
    },
    {
      "anonymous": false,
      "inputs": [
        {
          "indexed": true,
          "name": "previousOwner",
          "type": "address"
        },
        {
          "indexed": true,
          "name": "newOwner",
          "type": "address"
        }
      ],
      "name": "OwnershipTransferred",
      "type": "event"
    },
    {
      "constant": false,
      "inputs": [
        {
          "name": "_collegeAddress",
          "type": "address"
        },
        {
          "name": "_SSN",
          "type": "string"
        },
        {
          "name": "_collegeStudentID",
          "type": "string"
        },
        {
          "name": "_firstName",
          "type": "bytes32"
        },
        {
          "name": "_middleName",
          "type": "bytes32"
        },
        {
          "name": "_lastName",
          "type": "bytes32"
        },
        {
          "name": "_nameSuffix",
          "type": "bytes8"
        },
        {
          "name": "_dateOfBirth",
          "type": "bytes8"
        }
      ],
      "name": "createApplicant",
      "outputs": [],
      "payable": false,
      "stateMutability": "nonpayable",
      "type": "function"
    },
    {
      "constant": true,
      "inputs": [],
      "name": "selectApplicantCount",
      "outputs": [
        {
          "name": "appCount",
          "type": "uint256"
        }
      ],
      "payable": false,
      "stateMutability": "view",
      "type": "function"
    }
  ],
  "bytecode": "0x608060405234801561001057600080fd5b50336000806101000a81548173ffffffffffffffffffffffffffffffffffffffff021916908373ffffffffffffffffffffffffffffffffffffffff1602179055506000600181905550610e52806100686000396000f30060806040526004361061006d576000357c0100000000000000000000000000000000000000000000000000000000900463ffffffff16806363de53231461007257806388ddba6b1461029f5780638da5cb5b146103e2578063f2fde38b14610439578063fb997a891461047c575b600080fd5b34801561007e57600080fd5b5061009d600480360381019080803590602001909291905050506104a7565b604051808c73ffffffffffffffffffffffffffffffffffffffff1673ffffffffffffffffffffffffffffffffffffffff1681526020018b73ffffffffffffffffffffffffffffffffffffffff1673ffffffffffffffffffffffffffffffffffffffff16815260200180602001806020018a60001916600019168152602001896000191660001916815260200188600019166000191681526020018777ffffffffffffffffffffffffffffffffffffffffffffffff191677ffffffffffffffffffffffffffffffffffffffffffffffff191681526020018677ffffffffffffffffffffffffffffffffffffffffffffffff191677ffffffffffffffffffffffffffffffffffffffffffffffff1916815260200185815260200184815260200183810383528c818151815260200191508051906020019080838360005b838110156101f35780820151818401526020810190506101d8565b50505050905090810190601f1680156102205780820380516001836020036101000a031916815260200191505b5083810382528b818151815260200191508051906020019080838360005b8381101561025957808201518184015260208101905061023e565b50505050905090810190601f1680156102865780820380516001836020036101000a031916815260200191505b509d505050505050505050505050505060405180910390f35b3480156102ab57600080fd5b506103e0600480360381019080803573ffffffffffffffffffffffffffffffffffffffff169060200190929190803590602001908201803590602001908080601f0160208091040260200160405190810160405280939291908181526020018383808284378201915050505050509192919290803590602001908201803590602001908080601f0160208091040260200160405190810160405280939291908181526020018383808284378201915050505050509192919290803560001916906020019092919080356000191690602001909291908035600019169060200190929190803577ffffffffffffffffffffffffffffffffffffffffffffffff19169060200190929190803577ffffffffffffffffffffffffffffffffffffffffffffffff191690602001909291905050506106ca565b005b3480156103ee57600080fd5b506103f7610bfa565b604051808273ffffffffffffffffffffffffffffffffffffffff1673ffffffffffffffffffffffffffffffffffffffff16815260200191505060405180910390f35b34801561044557600080fd5b5061047a600480360381019080803573ffffffffffffffffffffffffffffffffffffffff169060200190929190505050610c1f565b005b34801561048857600080fd5b50610491610d74565b6040518082815260200191505060405180910390f35b6002818154811015156104b657fe5b90600052602060002090600a02016000915090508060000160009054906101000a900473ffffffffffffffffffffffffffffffffffffffff16908060010160009054906101000a900473ffffffffffffffffffffffffffffffffffffffff1690806002018054600181600116156101000203166002900480601f0160208091040260200160405190810160405280929190818152602001828054600181600116156101000203166002900480156105ae5780601f10610583576101008083540402835291602001916105ae565b820191906000526020600020905b81548152906001019060200180831161059157829003601f168201915b505050505090806003018054600181600116156101000203166002900480601f01602080910402602001604051908101604052809291908181526020018280546001816001161561010002031660029004801561064c5780601f106106215761010080835404028352916020019161064c565b820191906000526020600020905b81548152906001019060200180831161062f57829003601f168201915b5050505050908060040154908060050154908060060154908060070160009054906101000a9004780100000000000000000000000000000000000000000000000002908060070160089054906101000a900478010000000000000000000000000000000000000000000000000290806008015490806009015490508b565b60007f5b2abd2e9bae7a7d7d1c82bca1b3f70cecac8aa00fd5ca126bbaab196e4655e9336000604051808373ffffffffffffffffffffffffffffffffffffffff1673ffffffffffffffffffffffffffffffffffffffff1681526020018263ffffffff16815260200180602001828103825260198152602001807f4e65774170706c6963616e744164642028415454454d50542900000000000000815250602001935050505060405180910390a160003373ffffffffffffffffffffffffffffffffffffffff16141580156107b5575060008973ffffffffffffffffffffffffffffffffffffffff1614155b80156107c2575060098851145b80156107cf575060098751145b80156107df57506000602060ff16115b80156107ef57506000602060ff16115b15156107fa57600080fd5b6002610160604051908101604052803373ffffffffffffffffffffffffffffffffffffffff1681526020018b73ffffffffffffffffffffffffffffffffffffffff1681526020018a81526020018981526020018860001916815260200187600019168152602001866000191681526020018577ffffffffffffffffffffffffffffffffffffffffffffffff191681526020018477ffffffffffffffffffffffffffffffffffffffffffffffff1916815260200142815260200160008152509080600181540180825580915050906001820390600052602060002090600a02016000909192909190915060008201518160000160006101000a81548173ffffffffffffffffffffffffffffffffffffffff021916908373ffffffffffffffffffffffffffffffffffffffff16021790555060208201518160010160006101000a81548173ffffffffffffffffffffffffffffffffffffffff021916908373ffffffffffffffffffffffffffffffffffffffff160217905550604082015181600201908051906020019061098d929190610d81565b5060608201518160030190805190602001906109aa929190610d81565b506080820151816004019060001916905560a0820151816005019060001916905560c0820151816006019060001916905560e08201518160070160006101000a81548167ffffffffffffffff02191690837801000000000000000000000000000000000000000000000000900402179055506101008201518160070160086101000a81548167ffffffffffffffff021916908378010000000000000000000000000000000000000000000000009004021790555061012082015181600801556101408201518160090155505090506000811115610b43576001600081548092919060010191905055507f5b2abd2e9bae7a7d7d1c82bca1b3f70cecac8aa00fd5ca126bbaab196e4655e9336000604051808373ffffffffffffffffffffffffffffffffffffffff1673ffffffffffffffffffffffffffffffffffffffff1681526020018263ffffffff16815260200180602001828103825260198152602001807f4e65774170706c6963616e744164642028535543434553532900000000000000815250602001935050505060405180910390a1610bef565b7f5b2abd2e9bae7a7d7d1c82bca1b3f70cecac8aa00fd5ca126bbaab196e4655e9336000604051808373ffffffffffffffffffffffffffffffffffffffff1673ffffffffffffffffffffffffffffffffffffffff1681526020018263ffffffff168152602001806020018281038252601b8152602001807f4e65774170706c6963616e7441646420284641494c2d50555348290000000000815250602001935050505060405180910390a15b505050505050505050565b6000809054906101000a900473ffffffffffffffffffffffffffffffffffffffff1681565b6000809054906101000a900473ffffffffffffffffffffffffffffffffffffffff1673ffffffffffffffffffffffffffffffffffffffff163373ffffffffffffffffffffffffffffffffffffffff16141515610c7a57600080fd5b600073ffffffffffffffffffffffffffffffffffffffff168173ffffffffffffffffffffffffffffffffffffffff1614151515610cb657600080fd5b8073ffffffffffffffffffffffffffffffffffffffff166000809054906101000a900473ffffffffffffffffffffffffffffffffffffffff1673ffffffffffffffffffffffffffffffffffffffff167f8be0079c531659141344cd1fd0a4f28419497f9722a3daafe3b4186f6b6457e060405160405180910390a3806000806101000a81548173ffffffffffffffffffffffffffffffffffffffff021916908373ffffffffffffffffffffffffffffffffffffffff16021790555050565b6000600154905080905090565b828054600181600116156101000203166002900490600052602060002090601f016020900481019282601f10610dc257805160ff1916838001178555610df0565b82800160010185558215610df0579182015b82811115610def578251825591602001919060010190610dd4565b5b509050610dfd9190610e01565b5090565b610e2391905b80821115610e1f576000816000905550600101610e07565b5090565b905600a165627a7a7230582093e85b531ccf274d86238df0975f5b07ac46e64be44c79a1e8572c67756459200029",
  "source": "pragma solidity ^0.4.21;\r\n\r\nimport \"./Ownable.sol\";\r\n\r\ncontract ApplicantFactory is Ownable {\r\n\r\n    event NewApplicantAdd(address ApplicantAddress, uint32 position, string detail);\r\n\r\n    uint256 applicantCount;\r\n\r\n    struct Applicant {\r\n        address studentAddress;     // address of student requesting credential\r\n        address collegeAddress;      // college address\r\n        string SSN;                 // Applicant SSN\r\n        string collegeStudentID;    // Applicant CollegeID\r\n        bytes32 firstName;          // first name\r\n        bytes32 middleName;         // middle name\r\n        bytes32 lastName;           // last name\r\n        bytes8 nameSuffix;          // name suffix\r\n        bytes8 dateOfBirth;         // YYYYMMDD\r\n        uint insertDate;            // unix timestamp.\r\n        uint processDate;           // unix timestamp.\r\n    }\r\n    \r\n    Applicant[] public applicants;\r\n    \r\n    constructor() public {\r\n        applicantCount = 0;\r\n    }\r\n    \r\n    function createApplicant(address _collegeAddress, string _SSN, string _collegeStudentID, bytes32 _firstName, bytes32 _middleName, bytes32 _lastName, bytes8 _nameSuffix, bytes8 _dateOfBirth) \r\n    public \r\n    {\r\n        emit NewApplicantAdd(msg.sender, 0, \"NewApplicantAdd (ATTEMPT)\");\r\n        require(msg.sender !=0 && _collegeAddress !=0 && bytes(_SSN).length == 9 && bytes(_collegeStudentID).length == 9 && _firstName.length > 0 && _lastName.length > 0); \r\n        uint position = applicants.push(Applicant(msg.sender, _collegeAddress, _SSN, _collegeStudentID, _firstName, _middleName, _lastName, _nameSuffix, _dateOfBirth, block.timestamp, 0));\r\n        if (position > 0){\r\n            applicantCount++;\r\n            emit NewApplicantAdd(msg.sender, 0, \"NewApplicantAdd (SUCCESS)\");\r\n        } else {\r\n            emit NewApplicantAdd(msg.sender, 0, \"NewApplicantAdd (FAIL-PUSH)\");\r\n        }\r\n    }\r\n\r\n    function selectApplicantCount()\r\n    public view\r\n    returns (uint256 appCount)\r\n    {\r\n        appCount = applicantCount;\r\n        return (appCount);\r\n    }\r\n\r\n}",
  "sourcePath": "E:\\Projects\\CredentialVerify\\contracts\\ApplicantFactory.sol",
  "compiler": {
    "name": "solc",
    "version": "0.4.24+commit.e67f0147.Emscripten.clang"
  },
  "schemaVersion": "2.0.1",
  "updatedAt": "2018-08-05T20:37:25.050Z"
}