{
  "contractName": "CredentialFactory",
  "abi": [
    {
      "constant": false,
      "inputs": [],
      "name": "unpause",
      "outputs": [],
      "payable": false,
      "stateMutability": "nonpayable",
      "type": "function"
    },
    {
      "constant": false,
      "inputs": [
        {
          "name": "_shortName",
          "type": "bytes32"
        },
        {
          "name": "_schoolAddress",
          "type": "address"
        },
        {
          "name": "_schoolCode",
          "type": "bytes6"
        },
        {
          "name": "_officialSchoolName",
          "type": "string"
        }
      ],
      "name": "createCredentialOrg",
      "outputs": [
        {
          "name": "position",
          "type": "uint32"
        }
      ],
      "payable": false,
      "stateMutability": "nonpayable",
      "type": "function"
    },
    {
      "constant": true,
      "inputs": [],
      "name": "selectOrgCount",
      "outputs": [
        {
          "name": "returnOrgCount",
          "type": "uint32"
        }
      ],
      "payable": false,
      "stateMutability": "view",
      "type": "function"
    },
    {
      "constant": true,
      "inputs": [],
      "name": "paused",
      "outputs": [
        {
          "name": "",
          "type": "bool"
        }
      ],
      "payable": false,
      "stateMutability": "view",
      "type": "function"
    },
    {
      "constant": false,
      "inputs": [],
      "name": "pause",
      "outputs": [],
      "payable": false,
      "stateMutability": "nonpayable",
      "type": "function"
    },
    {
      "constant": true,
      "inputs": [],
      "name": "owner",
      "outputs": [
        {
          "name": "",
          "type": "address"
        }
      ],
      "payable": false,
      "stateMutability": "view",
      "type": "function"
    },
    {
      "constant": true,
      "inputs": [
        {
          "name": "_credentialOrgPosition",
          "type": "uint32"
        }
      ],
      "name": "selectCredentialOrg",
      "outputs": [
        {
          "name": "shortName",
          "type": "bytes32"
        },
        {
          "name": "schoolCode",
          "type": "bytes6"
        },
        {
          "name": "officialSchoolName",
          "type": "string"
        },
        {
          "name": "schoolAddress",
          "type": "address"
        }
      ],
      "payable": false,
      "stateMutability": "view",
      "type": "function"
    },
    {
      "constant": true,
      "inputs": [
        {
          "name": "_credentialOrgAddress",
          "type": "address"
        }
      ],
      "name": "isCredentialOrg",
      "outputs": [
        {
          "name": "IsOrgAddress",
          "type": "bool"
        }
      ],
      "payable": false,
      "stateMutability": "view",
      "type": "function"
    },
    {
      "constant": false,
      "inputs": [
        {
          "name": "newOwner",
          "type": "address"
        }
      ],
      "name": "transferOwnership",
      "outputs": [],
      "payable": false,
      "stateMutability": "nonpayable",
      "type": "function"
    },
    {
      "inputs": [],
      "payable": false,
      "stateMutability": "nonpayable",
      "type": "constructor"
    },
    {
      "anonymous": false,
      "inputs": [
        {
          "indexed": false,
          "name": "credentialOrg",
          "type": "address"
        },
        {
          "indexed": false,
          "name": "credentialTitle",
          "type": "string"
        },
        {
          "indexed": false,
          "name": "detail",
          "type": "string"
        }
      ],
      "name": "CredentialFactoryActivity",
      "type": "event"
    },
    {
      "anonymous": false,
      "inputs": [
        {
          "indexed": false,
          "name": "shortName",
          "type": "bytes32"
        },
        {
          "indexed": false,
          "name": "schoolAddress",
          "type": "address"
        },
        {
          "indexed": false,
          "name": "detail",
          "type": "string"
        }
      ],
      "name": "NewOrgAdd",
      "type": "event"
    },
    {
      "anonymous": false,
      "inputs": [],
      "name": "Pause",
      "type": "event"
    },
    {
      "anonymous": false,
      "inputs": [],
      "name": "Unpause",
      "type": "event"
    },
    {
      "anonymous": false,
      "inputs": [
        {
          "indexed": true,
          "name": "previousOwner",
          "type": "address"
        },
        {
          "indexed": true,
          "name": "newOwner",
          "type": "address"
        }
      ],
      "name": "OwnershipTransferred",
      "type": "event"
    },
    {
      "constant": false,
      "inputs": [
        {
          "name": "_credentialLevel",
          "type": "bytes1"
        },
        {
          "name": "_credentialTitle",
          "type": "string"
        },
        {
          "name": "_credentialDivision",
          "type": "string"
        }
      ],
      "name": "createCredential",
      "outputs": [],
      "payable": false,
      "stateMutability": "nonpayable",
      "type": "function"
    },
    {
      "constant": false,
      "inputs": [
        {
          "name": "_credentialOrg",
          "type": "address"
        },
        {
          "name": "_credentialLevel",
          "type": "bytes1"
        },
        {
          "name": "_credentialTitle",
          "type": "string"
        },
        {
          "name": "_credentialDivision",
          "type": "string"
        }
      ],
      "name": "createCredentialByOwner",
      "outputs": [],
      "payable": false,
      "stateMutability": "nonpayable",
      "type": "function"
    },
    {
      "constant": true,
      "inputs": [
        {
          "name": "_credentialPosition",
          "type": "uint32"
        }
      ],
      "name": "selectCredential",
      "outputs": [
        {
          "name": "credentialLevel",
          "type": "bytes1"
        },
        {
          "name": "credentialTitle",
          "type": "string"
        },
        {
          "name": "credentialDivision",
          "type": "string"
        },
        {
          "name": "credentialInsertDate",
          "type": "uint32"
        },
        {
          "name": "isActive",
          "type": "bool"
        }
      ],
      "payable": false,
      "stateMutability": "view",
      "type": "function"
    },
    {
      "constant": false,
      "inputs": [
        {
          "name": "_position",
          "type": "uint256"
        }
      ],
      "name": "setCredentialInactiveFlag",
      "outputs": [],
      "payable": false,
      "stateMutability": "nonpayable",
      "type": "function"
    },
    {
      "constant": false,
      "inputs": [
        {
          "name": "_position",
          "type": "uint256"
        }
      ],
      "name": "setCredentialActiveFlag",
      "outputs": [],
      "payable": false,
      "stateMutability": "nonpayable",
      "type": "function"
    },
    {
      "constant": true,
      "inputs": [],
      "name": "SelectCredentialCount",
      "outputs": [
        {
          "name": "returnCredentialCount",
          "type": "uint32"
        }
      ],
      "payable": false,
      "stateMutability": "view",
      "type": "function"
    },
    {
      "constant": true,
      "inputs": [
        {
          "name": "_position",
          "type": "uint256"
        }
      ],
      "name": "isCredentialActive",
      "outputs": [
        {
          "name": "activeState",
          "type": "bool"
        }
      ],
      "payable": false,
      "stateMutability": "view",
      "type": "function"
    }
  ],
  "bytecode": "0x608060405260008060146101000a81548160ff0219169083151502179055503480156200002b57600080fd5b50336000806101000a81548173ffffffffffffffffffffffffffffffffffffffff021916908373ffffffffffffffffffffffffffffffffffffffff1602179055506000600360006101000a81548163ffffffff021916908363ffffffff160217905550620001417f494e49545245434f5244000000000000000000000000000000000000000000006000809054906101000a900473ffffffffffffffffffffffffffffffffffffffff167f30303030303000000000000000000000000000000000000000000000000000006040805190810160405280602081526020017f496e697469616c697a6174696f6e205265636f726420666f72206f776e65722e81525062000300640100000000026401000000009004565b50620001e87f4243440000000000000000000000000000000000000000000000000000000000735a186b7fec36909678211f69beb67ec3b1e4ffbb7f30303030303000000000000000000000000000000000000000000000000000006040805190810160405280601881526020017f20426173655265636f7264466f72204163636f756e742041000000000000000081525062000300640100000000026401000000009004565b506000600860006101000a81548163ffffffff021916908363ffffffff160217905550620002fa6000809054906101000a900473ffffffffffffffffffffffffffffffffffffffff167f4100000000000000000000000000000000000000000000000000000000000000606060405190810160405280602281526020017f4173736f63696174652044656772656520696e204261736b657420576561766981526020017f6e670000000000000000000000000000000000000000000000000000000000008152506040805190810160405280600981526020017f4241202d20417274730000000000000000000000000000000000000000000000815250620007cf640100000000026401000000009004565b62000fd0565b60007fd269155c21749744b1d4aa8db9212a1c95a65f3baa13728e9d0cc0b6433b2cea85856040518083600019166000191681526020018273ffffffffffffffffffffffffffffffffffffffff1673ffffffffffffffffffffffffffffffffffffffff16815260200180602001828103825260118152602001807f4e6577204f726720416464202850524529000000000000000000000000000000815250602001935050505060405180910390a16000602060ff16118015620003da575060008473ffffffffffffffffffffffffffffffffffffffff1614155b8015620003ea575060068060ff16145b8015620003f8575060008251115b801562000406575060468251105b15156200041257600080fd5b6004608060405190810160405280876000191681526020018579ffffffffffffffffffffffffffffffffffffffffffffffffffff191681526020018481526020018673ffffffffffffffffffffffffffffffffffffffff16815250908060018154018082558091505090600182039060005260206000209060040201600090919290919091506000820151816000019060001916905560208201518160010160006101000a81548165ffffffffffff02191690837a0100000000000000000000000000000000000000000000000000009004021790555060408201518160020190805190602001906200050792919062000f21565b5060608201518160030160006101000a81548173ffffffffffffffffffffffffffffffffffffffff021916908373ffffffffffffffffffffffffffffffffffffffff1602179055505050905060008163ffffffff161115620007565783600160008363ffffffff1663ffffffff16815260200190815260200160002060006101000a81548173ffffffffffffffffffffffffffffffffffffffff021916908373ffffffffffffffffffffffffffffffffffffffff160217905550620005eb60018263ffffffff1662000ed0640100000000026200322d179091906401000000009004565b600260008673ffffffffffffffffffffffffffffffffffffffff1673ffffffffffffffffffffffffffffffffffffffff16815260200190815260200160002060006101000a81548163ffffffff021916908363ffffffff160217905550620006846001600360009054906101000a900463ffffffff1663ffffffff1662000ef66401000000000262003252179091906401000000009004565b600360006101000a81548163ffffffff021916908363ffffffff1602179055507fd269155c21749744b1d4aa8db9212a1c95a65f3baa13728e9d0cc0b6433b2cea85856040518083600019166000191681526020018273ffffffffffffffffffffffffffffffffffffffff1673ffffffffffffffffffffffffffffffffffffffff16815260200180602001828103825260158152602001807f4e6577204f726720416464202853554343455353290000000000000000000000815250602001935050505060405180910390a1620007c4565b6040517f08c379a00000000000000000000000000000000000000000000000000000000081526004018080602001828103825260128152602001807f4e6577204f72672041646420284641494c29000000000000000000000000000081525060200191505060405180910390fd5b809050949350505050565b60008060009054906101000a900473ffffffffffffffffffffffffffffffffffffffff1673ffffffffffffffffffffffffffffffffffffffff163373ffffffffffffffffffffffffffffffffffffffff161415156200082d57600080fd5b7f22efaf0cb3bd642425e7be86b531b1a553c2d7a83936239ee16e9f7fdb8fa37d8584604051808373ffffffffffffffffffffffffffffffffffffffff1673ffffffffffffffffffffffffffffffffffffffff1681526020018060200180602001838103835284818151815260200191508051906020019080838360005b83811015620008c8578082015181840152602081019050620008ab565b50505050905090810190601f168015620008f65780820380516001836020036101000a031916815260200191505b508381038252601c8152602001807f4e65772043726564656e7469616c204164642028415454454d5054290000000081525060200194505050505060405180910390a1600083511180156200094c575060468351105b1515620009e7576040517f08c379a000000000000000000000000000000000000000000000000000000000815260040180806020018281038252602e8152602001807f63726561746543726564656e7469616c42794f776e6572202d205469746c652081526020017f6c656e6774682070726f626c656d00000000000000000000000000000000000081525060400191505060405180910390fd5b6000825110158015620009fb575060328251105b151562000a96576040517f08c379a00000000000000000000000000000000000000000000000000000000081526004018080602001828103825260318152602001807f63726561746543726564656e7469616c42794f776e6572202d2044697669736981526020017f6f6e206c656e6774682070726f626c656d00000000000000000000000000000081525060400191505060405180910390fd5b600760c0604051908101604052808773ffffffffffffffffffffffffffffffffffffffff168152602001867effffffffffffffffffffffffffffffffffffffffffffffffffffffffffffff191681526020018581526020018481526020014263ffffffff168152602001600115158152509080600181540180825580915050906001820390600052602060002090600402016000909192909190915060008201518160000160006101000a81548173ffffffffffffffffffffffffffffffffffffffff021916908373ffffffffffffffffffffffffffffffffffffffff16021790555060208201518160000160146101000a81548160ff02191690837f010000000000000000000000000000000000000000000000000000000000000090040217905550604082015181600101908051906020019062000bd892919062000f21565b50606082015181600201908051906020019062000bf792919062000f21565b5060808201518160030160006101000a81548163ffffffff021916908363ffffffff16021790555060a08201518160030160046101000a81548160ff0219169083151502179055505050905060008110151562000dbc5762000c8a6001600860009054906101000a900463ffffffff1663ffffffff1662000ef66401000000000262003252179091906401000000009004565b600860006101000a81548163ffffffff021916908363ffffffff1602179055507f22efaf0cb3bd642425e7be86b531b1a553c2d7a83936239ee16e9f7fdb8fa37d8584604051808373ffffffffffffffffffffffffffffffffffffffff1673ffffffffffffffffffffffffffffffffffffffff1681526020018060200180602001838103835284818151815260200191508051906020019080838360005b8381101562000d4557808201518184015260208101905062000d28565b50505050905090810190601f16801562000d735780820380516001836020036101000a031916815260200191505b508381038252601d8152602001807f4e65772043726564656e7469616c20416464202853554343434553532900000081525060200194505050505060405180910390a162000ec9565b7f22efaf0cb3bd642425e7be86b531b1a553c2d7a83936239ee16e9f7fdb8fa37d8584604051808373ffffffffffffffffffffffffffffffffffffffff1673ffffffffffffffffffffffffffffffffffffffff1681526020018060200180602001838103835284818151815260200191508051906020019080838360005b8381101562000e5757808201518184015260208101905062000e3a565b50505050905090810190601f16801562000e855780820380516001836020036101000a031916815260200191505b508381038252601b8152602001807f4e65772043726564656e7469616c2041646420284641494c454429000000000081525060200194505050505060405180910390a15b5050505050565b60008263ffffffff168263ffffffff161115151562000eeb57fe5b818303905092915050565b60008082840190508363ffffffff168163ffffffff161015151562000f1757fe5b8091505092915050565b828054600181600116156101000203166002900490600052602060002090601f016020900481019282601f1062000f6457805160ff191683800117855562000f95565b8280016001018555821562000f95579182015b8281111562000f9457825182559160200191906001019062000f77565b5b50905062000fa4919062000fa8565b5090565b62000fcd91905b8082111562000fc957600081600090555060010162000faf565b5090565b90565b61334d8062000fe06000396000f3006080604052600436106100e6576000357c0100000000000000000000000000000000000000000000000000000000900463ffffffff16806325aed137146100eb5780632b83acac1461026c5780633f4ba83a14610299578063459bdfd9146102b05780634afab74c146102f557806352e23f89146103d3578063554ee0431461040a5780635c975abb146104415780636a13edc0146104705780638456cb591461056b5780638da5cb5b14610582578063b9572c3e146105d9578063bd9ca90a14610606578063e1eaee4214610735578063f2fde38b14610790578063fdf3f908146107d3575b600080fd5b3480156100f757600080fd5b5061011c600480360381019080803563ffffffff1690602001909291905050506108ae565b60405180867effffffffffffffffffffffffffffffffffffffffffffffffffffffffffffff19167effffffffffffffffffffffffffffffffffffffffffffffffffffffffffffff1916815260200180602001806020018563ffffffff1663ffffffff16815260200184151515158152602001838103835287818151815260200191508051906020019080838360005b838110156101c65780820151818401526020810190506101ab565b50505050905090810190601f1680156101f35780820380516001836020036101000a031916815260200191505b50838103825286818151815260200191508051906020019080838360005b8381101561022c578082015181840152602081019050610211565b50505050905090810190601f1680156102595780820380516001836020036101000a031916815260200191505b5097505050505050505060405180910390f35b34801561027857600080fd5b5061029760048036038101908080359060200190929190505050610bb3565b005b3480156102a557600080fd5b506102ae611117565b005b3480156102bc57600080fd5b506102db600480360381019080803590602001909291905050506111d5565b604051808215151515815260200191505060405180910390f35b34801561030157600080fd5b506103b16004803603810190808035600019169060200190929190803573ffffffffffffffffffffffffffffffffffffffff169060200190929190803579ffffffffffffffffffffffffffffffffffffffffffffffffffff19169060200190929190803590602001908201803590602001908080601f0160208091040260200160405190810160405280939291908181526020018383808284378201915050505050509192919290505050611252565b604051808263ffffffff1663ffffffff16815260200191505060405180910390f35b3480156103df57600080fd5b506103e86116f8565b604051808263ffffffff1663ffffffff16815260200191505060405180910390f35b34801561041657600080fd5b5061041f611715565b604051808263ffffffff1663ffffffff16815260200191505060405180910390f35b34801561044d57600080fd5b50610456611732565b604051808215151515815260200191505060405180910390f35b34801561047c57600080fd5b50610569600480360381019080803573ffffffffffffffffffffffffffffffffffffffff16906020019092919080357effffffffffffffffffffffffffffffffffffffffffffffffffffffffffffff19169060200190929190803590602001908201803590602001908080601f0160208091040260200160405190810160405280939291908181526020018383808284378201915050505050509192919290803590602001908201803590602001908080601f0160208091040260200160405190810160405280939291908181526020018383808284378201915050505050509192919290505050611745565b005b34801561057757600080fd5b50610580611e22565b005b34801561058e57600080fd5b50610597611ee2565b604051808273ffffffffffffffffffffffffffffffffffffffff1673ffffffffffffffffffffffffffffffffffffffff16815260200191505060405180910390f35b3480156105e557600080fd5b5061060460048036038101908080359060200190929190505050611f07565b005b34801561061257600080fd5b50610637600480360381019080803563ffffffff16906020019092919050505061246b565b6040518085600019166000191681526020018479ffffffffffffffffffffffffffffffffffffffffffffffffffff191679ffffffffffffffffffffffffffffffffffffffffffffffffffff19168152602001806020018373ffffffffffffffffffffffffffffffffffffffff1673ffffffffffffffffffffffffffffffffffffffff168152602001828103825284818151815260200191508051906020019080838360005b838110156106f75780820151818401526020810190506106dc565b50505050905090810190601f1680156107245780820380516001836020036101000a031916815260200191505b509550505050505060405180910390f35b34801561074157600080fd5b50610776600480360381019080803573ffffffffffffffffffffffffffffffffffffffff16906020019092919050505061263d565b604051808215151515815260200191505060405180910390f35b34801561079c57600080fd5b506107d1600480360381019080803573ffffffffffffffffffffffffffffffffffffffff169060200190929190505050612793565b005b3480156107df57600080fd5b506108ac60048036038101908080357effffffffffffffffffffffffffffffffffffffffffffffffffffffffffffff19169060200190929190803590602001908201803590602001908080601f0160208091040260200160405190810160405280939291908181526020018383808284378201915050505050509192919290803590602001908201803590602001908080601f01602080910402602001604051908101604052809392919081815260200183838082843782019150505050505091929192905050506128e8565b005b600060608060008060008663ffffffff16101580156108ea5750600860009054906101000a900463ffffffff1663ffffffff168663ffffffff16105b151561095e576040517f08c379a00000000000000000000000000000000000000000000000000000000081526004018080602001828103825260178152602001807f43726564656e7469616c20426f756e6473204572726f7200000000000000000081525060200191505060405180910390fd5b60078663ffffffff1681548110151561097357fe5b906000526020600020906004020160000160149054906101000a90047f01000000000000000000000000000000000000000000000000000000000000000260078763ffffffff168154811015156109c657fe5b906000526020600020906004020160010160078863ffffffff168154811015156109ec57fe5b906000526020600020906004020160020160078963ffffffff16815481101515610a1257fe5b906000526020600020906004020160030160009054906101000a900463ffffffff1660078a63ffffffff16815481101515610a4957fe5b906000526020600020906004020160030160049054906101000a900460ff16838054600181600116156101000203166002900480601f016020809104026020016040519081016040528092919081815260200182805460018160011615610100020316600290048015610afd5780601f10610ad257610100808354040283529160200191610afd565b820191906000526020600020905b815481529060010190602001808311610ae057829003601f168201915b50505050509350828054600181600116156101000203166002900480601f016020809104026020016040519081016040528092919081815260200182805460018160011615610100020316600290048015610b995780601f10610b6e57610100808354040283529160200191610b99565b820191906000526020600020905b815481529060010190602001808311610b7c57829003601f168201915b505050505092509450945094509450945091939590929450565b3360008060009150600090505b600360009054906101000a900463ffffffff1663ffffffff168163ffffffff161015610c6b57600160008263ffffffff1663ffffffff16815260200190815260200160002060009054906101000a900473ffffffffffffffffffffffffffffffffffffffff1673ffffffffffffffffffffffffffffffffffffffff163373ffffffffffffffffffffffffffffffffffffffff161415610c5e57600191505b8080600101915050610bc0565b60008263ffffffff161415610ce8576040517f08c379a000000000000000000000000000000000000000000000000000000000815260040180806020018281038252600e8152602001807f4e6f7420417574686f72697a656400000000000000000000000000000000000081525060200191505060405180910390fd5b60008410158015610d6457503373ffffffffffffffffffffffffffffffffffffffff16600785815481101515610d1a57fe5b906000526020600020906004020160000160009054906101000a900473ffffffffffffffffffffffffffffffffffffffff1673ffffffffffffffffffffffffffffffffffffffff16145b1515610dfe576040517f08c379a00000000000000000000000000000000000000000000000000000000081526004018080602001828103825260328152602001807f73657443726564656e7469616c496e616374697665466c61673a20706f73697481526020017f696f6e206f72204f7267206661696c757265000000000000000000000000000081525060400191505060405180910390fd5b60011515600785815481101515610e1157fe5b906000526020600020906004020160030160049054906101000a900460ff161515141515610ea7576040517f08c379a00000000000000000000000000000000000000000000000000000000081526004018080602001828103825260188152602001807f43726564656e7469616c206973206e6f7420416374697665000000000000000081525060200191505060405180910390fd5b6000600785815481101515610eb857fe5b906000526020600020906004020160030160046101000a81548160ff021916908315150217905550610f496001600660003373ffffffffffffffffffffffffffffffffffffffff1673ffffffffffffffffffffffffffffffffffffffff16815260200190815260200160002060009054906101000a900463ffffffff1663ffffffff1661322d90919063ffffffff16565b600660003373ffffffffffffffffffffffffffffffffffffffff1673ffffffffffffffffffffffffffffffffffffffff16815260200190815260200160002060006101000a81548163ffffffff021916908363ffffffff1602179055507f22efaf0cb3bd642425e7be86b531b1a553c2d7a83936239ee16e9f7fdb8fa37d33600786815481101515610fd757fe5b9060005260206000209060040201600101604051808373ffffffffffffffffffffffffffffffffffffffff1673ffffffffffffffffffffffffffffffffffffffff16815260200180602001806020018381038352848181546001816001161561010002031660029004815260200191508054600181600116156101000203166002900480156110a75780601f1061107c576101008083540402835291602001916110a7565b820191906000526020600020905b81548152906001019060200180831161108a57829003601f168201915b5050838103825260268152602001807f53657443726564656e7469616c4973416374697665202d202853657420496e6181526020017f637469766529000000000000000000000000000000000000000000000000000081525060400194505050505060405180910390a150505050565b6000809054906101000a900473ffffffffffffffffffffffffffffffffffffffff1673ffffffffffffffffffffffffffffffffffffffff163373ffffffffffffffffffffffffffffffffffffffff1614151561117257600080fd5b600060149054906101000a900460ff16151561118d57600080fd5b60008060146101000a81548160ff0219169083151502179055507f7805862f689e2f13df9f062ff482ad3ad112aca9e0847911ed832e158c525b3360405160405180910390a1565b6000809050600082101515156111ea57600080fd5b600860009054906101000a900463ffffffff1663ffffffff1682101561124a576001151560078381548110151561121d57fe5b906000526020600020906004020160030160049054906101000a900460ff161515141561124957600190505b5b809050919050565b60007fd269155c21749744b1d4aa8db9212a1c95a65f3baa13728e9d0cc0b6433b2cea85856040518083600019166000191681526020018273ffffffffffffffffffffffffffffffffffffffff1673ffffffffffffffffffffffffffffffffffffffff16815260200180602001828103825260118152602001807f4e6577204f726720416464202850524529000000000000000000000000000000815250602001935050505060405180910390a16000602060ff1611801561132b575060008473ffffffffffffffffffffffffffffffffffffffff1614155b801561133a575060068060ff16145b8015611347575060008251115b8015611354575060468251105b151561135f57600080fd5b6004608060405190810160405280876000191681526020018579ffffffffffffffffffffffffffffffffffffffffffffffffffff191681526020018481526020018673ffffffffffffffffffffffffffffffffffffffff16815250908060018154018082558091505090600182039060005260206000209060040201600090919290919091506000820151816000019060001916905560208201518160010160006101000a81548165ffffffffffff02191690837a01000000000000000000000000000000000000000000000000000090040217905550604082015181600201908051906020019061145292919061327c565b5060608201518160030160006101000a81548173ffffffffffffffffffffffffffffffffffffffff021916908373ffffffffffffffffffffffffffffffffffffffff1602179055505050905060008163ffffffff16111561167f5783600160008363ffffffff1663ffffffff16815260200190815260200160002060006101000a81548173ffffffffffffffffffffffffffffffffffffffff021916908373ffffffffffffffffffffffffffffffffffffffff16021790555061152560018263ffffffff1661322d90919063ffffffff16565b600260008673ffffffffffffffffffffffffffffffffffffffff1673ffffffffffffffffffffffffffffffffffffffff16815260200190815260200160002060006101000a81548163ffffffff021916908363ffffffff1602179055506115ae6001600360009054906101000a900463ffffffff1663ffffffff1661325290919063ffffffff16565b600360006101000a81548163ffffffff021916908363ffffffff1602179055507fd269155c21749744b1d4aa8db9212a1c95a65f3baa13728e9d0cc0b6433b2cea85856040518083600019166000191681526020018273ffffffffffffffffffffffffffffffffffffffff1673ffffffffffffffffffffffffffffffffffffffff16815260200180602001828103825260158152602001807f4e6577204f726720416464202853554343455353290000000000000000000000815250602001935050505060405180910390a16116ed565b6040517f08c379a00000000000000000000000000000000000000000000000000000000081526004018080602001828103825260128152602001807f4e6577204f72672041646420284641494c29000000000000000000000000000081525060200191505060405180910390fd5b809050949350505050565b6000600860009054906101000a900463ffffffff16905080905090565b6000600360009054906101000a900463ffffffff16905080905090565b600060149054906101000a900460ff1681565b60008060009054906101000a900473ffffffffffffffffffffffffffffffffffffffff1673ffffffffffffffffffffffffffffffffffffffff163373ffffffffffffffffffffffffffffffffffffffff161415156117a257600080fd5b7f22efaf0cb3bd642425e7be86b531b1a553c2d7a83936239ee16e9f7fdb8fa37d8584604051808373ffffffffffffffffffffffffffffffffffffffff1673ffffffffffffffffffffffffffffffffffffffff1681526020018060200180602001838103835284818151815260200191508051906020019080838360005b8381101561183b578082015181840152602081019050611820565b50505050905090810190601f1680156118685780820380516001836020036101000a031916815260200191505b508381038252601c8152602001807f4e65772043726564656e7469616c204164642028415454454d5054290000000081525060200194505050505060405180910390a1600083511180156118bd575060468351105b1515611957576040517f08c379a000000000000000000000000000000000000000000000000000000000815260040180806020018281038252602e8152602001807f63726561746543726564656e7469616c42794f776e6572202d205469746c652081526020017f6c656e6774682070726f626c656d00000000000000000000000000000000000081525060400191505060405180910390fd5b600082511015801561196a575060328251105b1515611a04576040517f08c379a00000000000000000000000000000000000000000000000000000000081526004018080602001828103825260318152602001807f63726561746543726564656e7469616c42794f776e6572202d2044697669736981526020017f6f6e206c656e6774682070726f626c656d00000000000000000000000000000081525060400191505060405180910390fd5b600760c0604051908101604052808773ffffffffffffffffffffffffffffffffffffffff168152602001867effffffffffffffffffffffffffffffffffffffffffffffffffffffffffffff191681526020018581526020018481526020014263ffffffff168152602001600115158152509080600181540180825580915050906001820390600052602060002090600402016000909192909190915060008201518160000160006101000a81548173ffffffffffffffffffffffffffffffffffffffff021916908373ffffffffffffffffffffffffffffffffffffffff16021790555060208201518160000160146101000a81548160ff02191690837f0100000000000000000000000000000000000000000000000000000000000000900402179055506040820151816001019080519060200190611b4492919061327c565b506060820151816002019080519060200190611b6192919061327c565b5060808201518160030160006101000a81548163ffffffff021916908363ffffffff16021790555060a08201518160030160046101000a81548160ff02191690831515021790555050509050600081101515611d1157611be36001600860009054906101000a900463ffffffff1663ffffffff1661325290919063ffffffff16565b600860006101000a81548163ffffffff021916908363ffffffff1602179055507f22efaf0cb3bd642425e7be86b531b1a553c2d7a83936239ee16e9f7fdb8fa37d8584604051808373ffffffffffffffffffffffffffffffffffffffff1673ffffffffffffffffffffffffffffffffffffffff1681526020018060200180602001838103835284818151815260200191508051906020019080838360005b83811015611c9c578082015181840152602081019050611c81565b50505050905090810190601f168015611cc95780820380516001836020036101000a031916815260200191505b508381038252601d8152602001807f4e65772043726564656e7469616c20416464202853554343434553532900000081525060200194505050505060405180910390a1611e1b565b7f22efaf0cb3bd642425e7be86b531b1a553c2d7a83936239ee16e9f7fdb8fa37d8584604051808373ffffffffffffffffffffffffffffffffffffffff1673ffffffffffffffffffffffffffffffffffffffff1681526020018060200180602001838103835284818151815260200191508051906020019080838360005b83811015611daa578082015181840152602081019050611d8f565b50505050905090810190601f168015611dd75780820380516001836020036101000a031916815260200191505b508381038252601b8152602001807f4e65772043726564656e7469616c2041646420284641494c454429000000000081525060200194505050505060405180910390a15b5050505050565b6000809054906101000a900473ffffffffffffffffffffffffffffffffffffffff1673ffffffffffffffffffffffffffffffffffffffff163373ffffffffffffffffffffffffffffffffffffffff16141515611e7d57600080fd5b600060149054906101000a900460ff16151515611e9957600080fd5b6001600060146101000a81548160ff0219169083151502179055507f6985a02210a168e66602d3235cb6db0e70f92b3ba4d376a33c0f3d9434bff62560405160405180910390a1565b6000809054906101000a900473ffffffffffffffffffffffffffffffffffffffff1681565b3360008060009150600090505b600360009054906101000a900463ffffffff1663ffffffff168163ffffffff161015611fbf57600160008263ffffffff1663ffffffff16815260200190815260200160002060009054906101000a900473ffffffffffffffffffffffffffffffffffffffff1673ffffffffffffffffffffffffffffffffffffffff163373ffffffffffffffffffffffffffffffffffffffff161415611fb257600191505b8080600101915050611f14565b60008263ffffffff16141561203c576040517f08c379a000000000000000000000000000000000000000000000000000000000815260040180806020018281038252600e8152602001807f4e6f7420417574686f72697a656400000000000000000000000000000000000081525060200191505060405180910390fd5b600084101580156120b857503373ffffffffffffffffffffffffffffffffffffffff1660078581548110151561206e57fe5b906000526020600020906004020160000160009054906101000a900473ffffffffffffffffffffffffffffffffffffffff1673ffffffffffffffffffffffffffffffffffffffff16145b1515612152576040517f08c379a00000000000000000000000000000000000000000000000000000000081526004018080602001828103825260308152602001807f73657443726564656e7469616c416374697665466c61673a20706f736974696f81526020017f6e206f72204f7267206661696c7572650000000000000000000000000000000081525060400191505060405180910390fd5b6000151560078581548110151561216557fe5b906000526020600020906004020160030160049054906101000a900460ff1615151415156121fb576040517f08c379a000000000000000000000000000000000000000000000000000000000815260040180806020018281038252601c8152602001807f43726564656e7469616c20697320616c7265616479204163746976650000000081525060200191505060405180910390fd5b600160078581548110151561220c57fe5b906000526020600020906004020160030160046101000a81548160ff02191690831515021790555061229d6001600660003373ffffffffffffffffffffffffffffffffffffffff1673ffffffffffffffffffffffffffffffffffffffff16815260200190815260200160002060009054906101000a900463ffffffff1663ffffffff1661325290919063ffffffff16565b600660003373ffffffffffffffffffffffffffffffffffffffff1673ffffffffffffffffffffffffffffffffffffffff16815260200190815260200160002060006101000a81548163ffffffff021916908363ffffffff1602179055507f22efaf0cb3bd642425e7be86b531b1a553c2d7a83936239ee16e9f7fdb8fa37d3360078681548110151561232b57fe5b9060005260206000209060040201600101604051808373ffffffffffffffffffffffffffffffffffffffff1673ffffffffffffffffffffffffffffffffffffffff16815260200180602001806020018381038352848181546001816001161561010002031660029004815260200191508054600181600116156101000203166002900480156123fb5780601f106123d0576101008083540402835291602001916123fb565b820191906000526020600020905b8154815290600101906020018083116123de57829003601f168201915b5050838103825260248152602001807f53657443726564656e7469616c4973416374697665202d20285365742041637481526020017f697665290000000000000000000000000000000000000000000000000000000081525060400194505050505060405180910390a150505050565b60008060606000808563ffffffff16101580156124a55750600360009054906101000a900463ffffffff1663ffffffff168563ffffffff16105b15156124b057600080fd5b60048563ffffffff168154811015156124c557fe5b90600052602060002090600402016000015460048663ffffffff168154811015156124ec57fe5b906000526020600020906004020160010160009054906101000a90047a0100000000000000000000000000000000000000000000000000000260048763ffffffff1681548110151561253a57fe5b906000526020600020906004020160020160048863ffffffff1681548110151561256057fe5b906000526020600020906004020160030160009054906101000a900473ffffffffffffffffffffffffffffffffffffffff16818054600181600116156101000203166002900480601f0160208091040260200160405190810160405280929190818152602001828054600181600116156101000203166002900480156126275780601f106125fc57610100808354040283529160200191612627565b820191906000526020600020905b81548152906001019060200180831161260a57829003601f168201915b5050505050915093509350935093509193509193565b6000806000915060008373ffffffffffffffffffffffffffffffffffffffff16141515156126d3576040517f08c379a00000000000000000000000000000000000000000000000000000000081526004018080602001828103825260188152602001807f5a65726f2041646472657373204e6f7420416c6c6f776564000000000000000081525060200191505060405180910390fd5b600090505b600360009054906101000a900463ffffffff1663ffffffff168163ffffffff16101561278a578273ffffffffffffffffffffffffffffffffffffffff1660048263ffffffff1681548110151561272a57fe5b906000526020600020906004020160030160009054906101000a900473ffffffffffffffffffffffffffffffffffffffff1673ffffffffffffffffffffffffffffffffffffffff16141561277d57600191505b80806001019150506126d8565b81915050919050565b6000809054906101000a900473ffffffffffffffffffffffffffffffffffffffff1673ffffffffffffffffffffffffffffffffffffffff163373ffffffffffffffffffffffffffffffffffffffff161415156127ee57600080fd5b600073ffffffffffffffffffffffffffffffffffffffff168173ffffffffffffffffffffffffffffffffffffffff161415151561282a57600080fd5b8073ffffffffffffffffffffffffffffffffffffffff166000809054906101000a900473ffffffffffffffffffffffffffffffffffffffff1673ffffffffffffffffffffffffffffffffffffffff167f8be0079c531659141344cd1fd0a4f28419497f9722a3daafe3b4186f6b6457e060405160405180910390a3806000806101000a81548173ffffffffffffffffffffffffffffffffffffffff021916908373ffffffffffffffffffffffffffffffffffffffff16021790555050565b60003360008060009150600090505b600360009054906101000a900463ffffffff1663ffffffff168163ffffffff1610156129a257600160008263ffffffff1663ffffffff16815260200190815260200160002060009054906101000a900473ffffffffffffffffffffffffffffffffffffffff1673ffffffffffffffffffffffffffffffffffffffff163373ffffffffffffffffffffffffffffffffffffffff16141561299557600191505b80806001019150506128f7565b60008263ffffffff161415612a1f576040517f08c379a000000000000000000000000000000000000000000000000000000000815260040180806020018281038252600e8152602001807f4e6f7420417574686f72697a656400000000000000000000000000000000000081525060200191505060405180910390fd5b7f22efaf0cb3bd642425e7be86b531b1a553c2d7a83936239ee16e9f7fdb8fa37d3387604051808373ffffffffffffffffffffffffffffffffffffffff1673ffffffffffffffffffffffffffffffffffffffff1681526020018060200180602001838103835284818151815260200191508051906020019080838360005b83811015612ab8578082015181840152602081019050612a9d565b50505050905090810190601f168015612ae55780820380516001836020036101000a031916815260200191505b508381038252601c8152602001807f4e65772043726564656e7469616c204164642028415454454d5054290000000081525060200194505050505060405180910390a160008651118015612b3a575060468651105b1515612bd4576040517f08c379a00000000000000000000000000000000000000000000000000000000081526004018080602001828103825260278152602001807f63726561746543726564656e7469616c202d205469746c65206c656e6774682081526020017f70726f626c656d0000000000000000000000000000000000000000000000000081525060400191505060405180910390fd5b6000855110158015612be7575060328551105b1515612c81576040517f08c379a000000000000000000000000000000000000000000000000000000000815260040180806020018281038252602a8152602001807f63726561746543726564656e7469616c202d204469766973696f6e206c656e6781526020017f74682070726f626c656d0000000000000000000000000000000000000000000081525060400191505060405180910390fd5b600760c0604051908101604052803373ffffffffffffffffffffffffffffffffffffffff168152602001897effffffffffffffffffffffffffffffffffffffffffffffffffffffffffffff191681526020018881526020018781526020014263ffffffff168152602001600115158152509080600181540180825580915050906001820390600052602060002090600402016000909192909190915060008201518160000160006101000a81548173ffffffffffffffffffffffffffffffffffffffff021916908373ffffffffffffffffffffffffffffffffffffffff16021790555060208201518160000160146101000a81548160ff02191690837f0100000000000000000000000000000000000000000000000000000000000000900402179055506040820151816001019080519060200190612dc192919061327c565b506060820151816002019080519060200190612dde92919061327c565b5060808201518160030160006101000a81548163ffffffff021916908363ffffffff16021790555060a08201518160030160046101000a81548160ff0219169083151502179055505050935060008410151561311a57612e606001600860009054906101000a900463ffffffff1663ffffffff1661325290919063ffffffff16565b600860006101000a81548163ffffffff021916908363ffffffff160217905550612ee96001600660003373ffffffffffffffffffffffffffffffffffffffff1673ffffffffffffffffffffffffffffffffffffffff16815260200190815260200160002060009054906101000a900463ffffffff1663ffffffff1661325290919063ffffffff16565b600660003373ffffffffffffffffffffffffffffffffffffffff1673ffffffffffffffffffffffffffffffffffffffff16815260200190815260200160002060006101000a81548163ffffffff021916908363ffffffff160217905550612faf6001600560003373ffffffffffffffffffffffffffffffffffffffff1673ffffffffffffffffffffffffffffffffffffffff16815260200190815260200160002060009054906101000a900463ffffffff1663ffffffff1661325290919063ffffffff16565b600560003373ffffffffffffffffffffffffffffffffffffffff1673ffffffffffffffffffffffffffffffffffffffff16815260200190815260200160002060006101000a81548163ffffffff021916908363ffffffff1602179055507f22efaf0cb3bd642425e7be86b531b1a553c2d7a83936239ee16e9f7fdb8fa37d3387604051808373ffffffffffffffffffffffffffffffffffffffff1673ffffffffffffffffffffffffffffffffffffffff1681526020018060200180602001838103835284818151815260200191508051906020019080838360005b838110156130a557808201518184015260208101905061308a565b50505050905090810190601f1680156130d25780820380516001836020036101000a031916815260200191505b508381038252601d8152602001807f4e65772043726564656e7469616c20416464202853554343434553532900000081525060200194505050505060405180910390a1613224565b7f22efaf0cb3bd642425e7be86b531b1a553c2d7a83936239ee16e9f7fdb8fa37d3387604051808373ffffffffffffffffffffffffffffffffffffffff1673ffffffffffffffffffffffffffffffffffffffff1681526020018060200180602001838103835284818151815260200191508051906020019080838360005b838110156131b3578082015181840152602081019050613198565b50505050905090810190601f1680156131e05780820380516001836020036101000a031916815260200191505b508381038252601b8152602001807f4e65772043726564656e7469616c2041646420284641494c454429000000000081525060200194505050505060405180910390a15b50505050505050565b60008263ffffffff168263ffffffff161115151561324757fe5b818303905092915050565b60008082840190508363ffffffff168163ffffffff161015151561327257fe5b8091505092915050565b828054600181600116156101000203166002900490600052602060002090601f016020900481019282601f106132bd57805160ff19168380011785556132eb565b828001600101855582156132eb579182015b828111156132ea5782518255916020019190600101906132cf565b5b5090506132f891906132fc565b5090565b61331e91905b8082111561331a576000816000905550600101613302565b5090565b905600a165627a7a72305820a69afd96503830dc79306158ecb979b94018b5f0475ef1d78568f6689a96218a0029",
  "source": "pragma solidity ^0.4.21;\r\nimport \"./CredentialOrgFactory.sol\";\r\n/**\r\n * @title CredentialFactory\r\n * @dev The CredentialFactory allows the credentialOrgs to add/lookup credentials\r\n */\r\ncontract CredentialFactory is CredentialOrgFactory{\r\n    \r\n    using SafeMath32 for uint32;\r\n    // events\r\n    event CredentialFactoryActivity(address credentialOrg, string credentialTitle, string detail);\r\n\r\n    // mapping\r\n    mapping (address => uint32) addressToCredentialCount;\r\n    mapping (address => uint32) addressToActiveCredentialCount;\r\n\r\n    // structs\r\n    struct Credential {\r\n        address credentialOrg;      // CredentialOwnerAddress\r\n        bytes1 credentialLevel;     // single byte string \r\n        string credentialTitle;     // 70 or less string\r\n        string credentialDivision;  // 50 or less string\r\n        uint32 credentialInsertDate;// Credential Insert timestamp\r\n        bool isActive;              // is CredentialActive for use\r\n    }\r\n    Credential[] private credentials;\r\n    uint32 private credentialCount;\r\n    \r\n    // constructor\r\n    constructor () public {\r\n        credentialCount = 0;\r\n        createCredentialByOwner(owner, \"A\", \"Associate Degree in Basket Weaving\", \"BA - Arts\");\r\n        //createCredentialByOwner(0x14723A09ACff6D2A60DcdF7aA4AFf308FDDC160C, \"A\", \"Associate Degree in Basket Weaving\", \"BA - Arts\");\r\n        //createCredentialByOwner(0x4B0897b0513fdC7C541B6d9D7E929C4e5364D2dB, \"A\", \"Associate Degree in Basket Weaving\", \"BA - Arts\");\r\n    }\r\n    \r\n    // functions\r\n    /**\r\n    * @dev allows credentialing Orgs to create new credentials\r\n    * @param _credentialLevel Credential Level\r\n    * @param _credentialTitle CredentialTitle\r\n    * @param _credentialDivision Credential Division\r\n    */\r\n    function createCredential(bytes1 _credentialLevel, string _credentialTitle, string _credentialDivision) \r\n    public onlyBy(msg.sender)\r\n    {\r\n        emit CredentialFactoryActivity(msg.sender, _credentialTitle, \"New Credential Add (ATTEMPT)\");\r\n        require(bytes(_credentialTitle).length > 0 && bytes(_credentialTitle).length < 70, \"createCredential - Title length problem\");\r\n        require(bytes(_credentialDivision).length >= 0 && bytes(_credentialDivision).length < 50, \"createCredential - Division length problem\");\r\n        uint position = credentials.push(Credential(msg.sender, _credentialLevel, _credentialTitle, _credentialDivision, uint32(block.timestamp), true));\r\n        if(position >= 0){\r\n            credentialCount = credentialCount.add(1);\r\n            addressToActiveCredentialCount[msg.sender] = addressToActiveCredentialCount[msg.sender].add(1);\r\n            addressToCredentialCount[msg.sender] = addressToCredentialCount[msg.sender].add(1);\r\n            emit CredentialFactoryActivity(msg.sender, _credentialTitle, \"New Credential Add (SUCCCESS)\");\r\n        } else {\r\n            emit CredentialFactoryActivity(msg.sender, _credentialTitle, \"New Credential Add (FAILED)\");\r\n        }\r\n    }\r\n\r\n    /**\r\n    * @dev allows owner to create new credentials\r\n    * @param _credentialLevel Credential Level\r\n    * @param _credentialTitle CredentialTitle\r\n    * @param _credentialDivision Credential Division\r\n    */\r\n    function createCredentialByOwner(address _credentialOrg, bytes1 _credentialLevel, string _credentialTitle, string _credentialDivision) \r\n    public onlyOwner\r\n    {\r\n        emit CredentialFactoryActivity(_credentialOrg, _credentialTitle, \"New Credential Add (ATTEMPT)\");\r\n        require(bytes(_credentialTitle).length > 0 && bytes(_credentialTitle).length < 70, \"createCredentialByOwner - Title length problem\");\r\n        require(bytes(_credentialDivision).length >= 0 && bytes(_credentialDivision).length < 50, \"createCredentialByOwner - Division length problem\");\r\n        uint position = credentials.push(Credential(_credentialOrg, _credentialLevel, _credentialTitle, _credentialDivision, uint32(block.timestamp), true));\r\n        if(position >= 0){\r\n            credentialCount = credentialCount.add(1);\r\n            emit CredentialFactoryActivity(_credentialOrg, _credentialTitle, \"New Credential Add (SUCCCESS)\");\r\n        } else {\r\n            emit CredentialFactoryActivity(_credentialOrg, _credentialTitle, \"New Credential Add (FAILED)\");\r\n        }\r\n    }\r\n\r\n    /**\r\n    * @dev allows selection of credential based on position.\r\n    * @param _credentialPosition allows selection of credentialing orgs details.\r\n    */\r\n    function selectCredential(uint32 _credentialPosition) \r\n    public view\r\n    returns (bytes1 credentialLevel, string credentialTitle, string credentialDivision, uint32 credentialInsertDate, bool isActive)\r\n    {\r\n        require(_credentialPosition >= 0 && _credentialPosition < credentialCount, \"Credential Bounds Error\");\r\n        return (credentials[_credentialPosition].credentialLevel, credentials[_credentialPosition].credentialTitle, credentials[_credentialPosition].credentialDivision, credentials[_credentialPosition].credentialInsertDate,credentials[_credentialPosition].isActive);\r\n    }\r\n\r\n    /**\r\n    * @dev allows setting credential inactive by it's owner\r\n    * @param _position Credential position in array\r\n    */\r\n    function setCredentialInactiveFlag(uint _position)\r\n    public onlyBy(msg.sender)\r\n    {\r\n        require(_position >= 0 && credentials[_position].credentialOrg == msg.sender, \"setCredentialInactiveFlag: position or Org failure\");\r\n        require(credentials[_position].isActive == true, \"Credential is not Active\");\r\n        credentials[_position].isActive = false;\r\n        addressToActiveCredentialCount[msg.sender] = addressToActiveCredentialCount[msg.sender].sub(1);\r\n        emit CredentialFactoryActivity(msg.sender, credentials[_position].credentialTitle, \"SetCredentialIsActive - (Set Inactive)\");\r\n    }\r\n\r\n    /**\r\n    * @dev allows setting credential inactive by it's credentialing org.\r\n    * @param _position Credential position in array\r\n    */\r\n    function setCredentialActiveFlag(uint _position)\r\n    public onlyBy(msg.sender)\r\n    {\r\n        require(_position >= 0 && credentials[_position].credentialOrg == msg.sender, \"setCredentialActiveFlag: position or Org failure\");\r\n        require(credentials[_position].isActive == false, \"Credential is already Active\");\r\n        credentials[_position].isActive = true;\r\n        addressToActiveCredentialCount[msg.sender] = addressToActiveCredentialCount[msg.sender].add(1);\r\n        emit CredentialFactoryActivity(msg.sender, credentials[_position].credentialTitle, \"SetCredentialIsActive - (Set Active)\");\r\n    }\r\n\r\n    /**\r\n    * @dev allows checking of CredentialCount\r\n    */\r\n    function SelectCredentialCount()\r\n    public view\r\n    returns (uint32 returnCredentialCount)\r\n    {\r\n        returnCredentialCount = credentialCount;\r\n        return (returnCredentialCount);\r\n    }\r\n\r\n    /**\r\n    * @dev allows checking of isActive flag for credential\r\n    * @param _position Credential position in array\r\n    */\r\n    function isCredentialActive(uint _position)\r\n    public view\r\n    returns (bool activeState)\r\n    {\r\n        activeState = false;\r\n        require(_position >= 0);\r\n        if (_position < credentialCount){\r\n            if (credentials[_position].isActive == true){\r\n                activeState = true;\r\n            }\r\n        }\r\n        return (activeState);\r\n    }\r\n}",
  "sourcePath": "E:\\Projects\\CredentialVerify\\contracts\\CredentialFactory.sol",
  "compiler": {
    "name": "solc",
    "version": "0.4.24+commit.e67f0147.Emscripten.clang"
  },
  "schemaVersion": "2.0.1",
  "updatedAt": "2018-08-06T04:21:44.727Z"
}