{
  "contractName": "CredentialFactory",
  "abi": [
    {
      "constant": false,
      "inputs": [],
      "name": "unpause",
      "outputs": [],
      "payable": false,
      "stateMutability": "nonpayable",
      "type": "function"
    },
    {
      "constant": true,
      "inputs": [],
      "name": "selectOrgCount",
      "outputs": [
        {
          "name": "returnOrgCount",
          "type": "uint32"
        }
      ],
      "payable": false,
      "stateMutability": "view",
      "type": "function"
    },
    {
      "constant": true,
      "inputs": [],
      "name": "paused",
      "outputs": [
        {
          "name": "",
          "type": "bool"
        }
      ],
      "payable": false,
      "stateMutability": "view",
      "type": "function"
    },
    {
      "constant": true,
      "inputs": [
        {
          "name": "_credentialOrgPosition",
          "type": "uint32"
        }
      ],
      "name": "selectCredentialOrgByPosition",
      "outputs": [
        {
          "name": "shortName",
          "type": "bytes32"
        },
        {
          "name": "schoolCode",
          "type": "bytes6"
        },
        {
          "name": "officialSchoolName",
          "type": "string"
        },
        {
          "name": "schoolAddress",
          "type": "address"
        }
      ],
      "payable": false,
      "stateMutability": "view",
      "type": "function"
    },
    {
      "constant": false,
      "inputs": [],
      "name": "pause",
      "outputs": [],
      "payable": false,
      "stateMutability": "nonpayable",
      "type": "function"
    },
    {
      "constant": true,
      "inputs": [],
      "name": "owner",
      "outputs": [
        {
          "name": "",
          "type": "address"
        }
      ],
      "payable": false,
      "stateMutability": "view",
      "type": "function"
    },
    {
      "constant": true,
      "inputs": [
        {
          "name": "_credentialOrgAddress",
          "type": "address"
        }
      ],
      "name": "selectCredentialOrgByAddress",
      "outputs": [
        {
          "name": "shortName",
          "type": "bytes32"
        },
        {
          "name": "schoolCode",
          "type": "bytes6"
        },
        {
          "name": "officialSchoolName",
          "type": "string"
        },
        {
          "name": "schoolAddress",
          "type": "address"
        }
      ],
      "payable": false,
      "stateMutability": "view",
      "type": "function"
    },
    {
      "constant": false,
      "inputs": [
        {
          "name": "_shortName",
          "type": "bytes32"
        },
        {
          "name": "_schoolCode",
          "type": "bytes6"
        },
        {
          "name": "_officialSchoolName",
          "type": "string"
        }
      ],
      "name": "createCredentialOrg",
      "outputs": [
        {
          "name": "position",
          "type": "uint32"
        }
      ],
      "payable": false,
      "stateMutability": "nonpayable",
      "type": "function"
    },
    {
      "constant": true,
      "inputs": [
        {
          "name": "_credentialOrgAddress",
          "type": "address"
        }
      ],
      "name": "isCredentialOrg",
      "outputs": [
        {
          "name": "IsOrgAddress",
          "type": "bool"
        }
      ],
      "payable": false,
      "stateMutability": "view",
      "type": "function"
    },
    {
      "constant": false,
      "inputs": [
        {
          "name": "newOwner",
          "type": "address"
        }
      ],
      "name": "transferOwnership",
      "outputs": [],
      "payable": false,
      "stateMutability": "nonpayable",
      "type": "function"
    },
    {
      "inputs": [],
      "payable": false,
      "stateMutability": "nonpayable",
      "type": "constructor"
    },
    {
      "anonymous": false,
      "inputs": [
        {
          "indexed": false,
          "name": "credentialOrg",
          "type": "address"
        },
        {
          "indexed": false,
          "name": "credentialTitle",
          "type": "string"
        },
        {
          "indexed": false,
          "name": "detail",
          "type": "string"
        }
      ],
      "name": "CredentialFactoryActivity",
      "type": "event"
    },
    {
      "anonymous": false,
      "inputs": [
        {
          "indexed": false,
          "name": "shortName",
          "type": "bytes32"
        },
        {
          "indexed": false,
          "name": "schoolAddress",
          "type": "address"
        },
        {
          "indexed": false,
          "name": "detail",
          "type": "string"
        }
      ],
      "name": "CredentialOrgCreateEvent",
      "type": "event"
    },
    {
      "anonymous": false,
      "inputs": [
        {
          "indexed": false,
          "name": "schoolAddress",
          "type": "address"
        },
        {
          "indexed": false,
          "name": "detail",
          "type": "string"
        }
      ],
      "name": "CredentialOrgEvent",
      "type": "event"
    },
    {
      "anonymous": false,
      "inputs": [],
      "name": "Pause",
      "type": "event"
    },
    {
      "anonymous": false,
      "inputs": [],
      "name": "Unpause",
      "type": "event"
    },
    {
      "anonymous": false,
      "inputs": [
        {
          "indexed": true,
          "name": "previousOwner",
          "type": "address"
        },
        {
          "indexed": true,
          "name": "newOwner",
          "type": "address"
        }
      ],
      "name": "OwnershipTransferred",
      "type": "event"
    },
    {
      "constant": false,
      "inputs": [
        {
          "name": "_credentialLevel",
          "type": "bytes1"
        },
        {
          "name": "_credentialTitle",
          "type": "string"
        },
        {
          "name": "_credentialDivision",
          "type": "string"
        }
      ],
      "name": "createCredential",
      "outputs": [],
      "payable": false,
      "stateMutability": "nonpayable",
      "type": "function"
    },
    {
      "constant": true,
      "inputs": [
        {
          "name": "_credentialOrgAddress",
          "type": "address"
        },
        {
          "name": "_position",
          "type": "uint32"
        }
      ],
      "name": "selectCredential",
      "outputs": [
        {
          "name": "credentialLevel",
          "type": "bytes1"
        },
        {
          "name": "credentialTitle",
          "type": "string"
        },
        {
          "name": "credentialDivision",
          "type": "string"
        },
        {
          "name": "credentialInsertDate",
          "type": "uint32"
        },
        {
          "name": "isActive",
          "type": "bool"
        }
      ],
      "payable": false,
      "stateMutability": "view",
      "type": "function"
    },
    {
      "constant": false,
      "inputs": [
        {
          "name": "_position",
          "type": "uint256"
        }
      ],
      "name": "setCredentialInactiveFlag",
      "outputs": [],
      "payable": false,
      "stateMutability": "nonpayable",
      "type": "function"
    },
    {
      "constant": false,
      "inputs": [
        {
          "name": "_position",
          "type": "uint256"
        }
      ],
      "name": "setCredentialActiveFlag",
      "outputs": [],
      "payable": false,
      "stateMutability": "nonpayable",
      "type": "function"
    },
    {
      "constant": true,
      "inputs": [
        {
          "name": "_credentialOrgAddress",
          "type": "address"
        }
      ],
      "name": "SelectOrgCredentialActiveCount",
      "outputs": [
        {
          "name": "returnCredentialCount",
          "type": "uint32"
        }
      ],
      "payable": false,
      "stateMutability": "view",
      "type": "function"
    },
    {
      "constant": true,
      "inputs": [
        {
          "name": "_credentialOrgAddress",
          "type": "address"
        }
      ],
      "name": "SelectOrgCredentialCount",
      "outputs": [
        {
          "name": "returnCredentialCount",
          "type": "uint32"
        }
      ],
      "payable": false,
      "stateMutability": "view",
      "type": "function"
    },
    {
      "constant": true,
      "inputs": [
        {
          "name": "_credentialOrgAddress",
          "type": "address"
        },
        {
          "name": "_position",
          "type": "uint256"
        }
      ],
      "name": "isCredentialActive",
      "outputs": [
        {
          "name": "activeState",
          "type": "bool"
        }
      ],
      "payable": false,
      "stateMutability": "view",
      "type": "function"
    }
  ],
  "bytecode": "0x608060405260008060146101000a81548160ff0219169083151502179055503480156200002b57600080fd5b50336000806101000a81548173ffffffffffffffffffffffffffffffffffffffff021916908373ffffffffffffffffffffffffffffffffffffffff1602179055506000600360006101000a81548163ffffffff021916908363ffffffff1602179055506200011f7f494e49545245434f5244000000000000000000000000000000000000000000007f30303030303000000000000000000000000000000000000000000000000000006040805190810160405280602081526020017f496e697469616c697a6174696f6e205265636f726420666f72206f776e65722e815250620001f3640100000000026401000000009004565b50620001ed7f4100000000000000000000000000000000000000000000000000000000000000606060405190810160405280602281526020017f4173736f63696174652044656772656520696e204261736b657420576561766981526020017f6e670000000000000000000000000000000000000000000000000000000000008152506040805190810160405280600981526020017f4241202d20417274730000000000000000000000000000000000000000000000815250620007d2640100000000026401000000009004565b62001466565b60007f6480db5eb12fe3227eace7f150fa46f3a44dfebd8ea96d17acf257d2d2da06a984336040518083600019166000191681526020018273ffffffffffffffffffffffffffffffffffffffff1673ffffffffffffffffffffffffffffffffffffffff16815260200180602001828103825260118152602001807f4e6577204f726720416464202850524529000000000000000000000000000000815250602001935050505060405180910390a16000602060ff16118015620002cd575060003373ffffffffffffffffffffffffffffffffffffffff1614155b8015620002dd575060068060ff16145b8015620002eb575060008251115b8015620002f9575060468251105b15156200030557600080fd5b6004608060405190810160405280866000191681526020018579ffffffffffffffffffffffffffffffffffffffffffffffffffff191681526020018481526020013373ffffffffffffffffffffffffffffffffffffffff16815250908060018154018082558091505090600182039060005260206000209060040201600090919290919091506000820151816000019060001916905560208201518160010160006101000a81548165ffffffffffff02191690837a010000000000000000000000000000000000000000000000000000900402179055506040820151816002019080519060200190620003fa92919062001329565b5060608201518160030160006101000a81548173ffffffffffffffffffffffffffffffffffffffff021916908373ffffffffffffffffffffffffffffffffffffffff1602179055505050905060008163ffffffff1611156200075a5733600160008363ffffffff1663ffffffff16815260200190815260200160002060006101000a81548173ffffffffffffffffffffffffffffffffffffffff021916908373ffffffffffffffffffffffffffffffffffffffff1602179055506004620004e060018363ffffffff16620010ff6401000000000262003888179091906401000000009004565b63ffffffff16815481101515620004f357fe5b9060005260206000209060040201600260003373ffffffffffffffffffffffffffffffffffffffff1673ffffffffffffffffffffffffffffffffffffffff168152602001908152602001600020600082015481600001906000191690556001820160009054906101000a90047a010000000000000000000000000000000000000000000000000000028160010160006101000a81548165ffffffffffff02191690837a0100000000000000000000000000000000000000000000000000009004021790555060028201816002019080546001816001161561010002031660029004620005e1929190620013b0565b506003820160009054906101000a900473ffffffffffffffffffffffffffffffffffffffff168160030160006101000a81548173ffffffffffffffffffffffffffffffffffffffff021916908373ffffffffffffffffffffffffffffffffffffffff160217905550905050620006886001600360009054906101000a900463ffffffff1663ffffffff166200112564010000000002620038ad179091906401000000009004565b600360006101000a81548163ffffffff021916908363ffffffff1602179055507f6480db5eb12fe3227eace7f150fa46f3a44dfebd8ea96d17acf257d2d2da06a984336040518083600019166000191681526020018273ffffffffffffffffffffffffffffffffffffffff1673ffffffffffffffffffffffffffffffffffffffff168152602001806020018281038252601d8152602001807f63726561746543726564656e7469616c4f726720285355434345535329000000815250602001935050505060405180910390a1620007c8565b6040517f08c379a00000000000000000000000000000000000000000000000000000000081526004018080602001828103825260128152602001807f4e6577204f72672041646420284641494c29000000000000000000000000000081525060200191505060405180910390fd5b8090509392505050565b60007f22efaf0cb3bd642425e7be86b531b1a553c2d7a83936239ee16e9f7fdb8fa37d3384604051808373ffffffffffffffffffffffffffffffffffffffff1673ffffffffffffffffffffffffffffffffffffffff1681526020018060200180602001838103835284818151815260200191508051906020019080838360005b838110156200086f57808201518184015260208101905062000852565b50505050905090810190601f1680156200089d5780820380516001836020036101000a031916815260200191505b508381038252601c8152602001807f4e65772043726564656e7469616c204164642028415454454d5054290000000081525060200194505050505060405180910390a1620008fa3362001150640100000000026401000000009004565b1562000fc6576000835111801562000913575060468351105b1515620009ae576040517f08c379a00000000000000000000000000000000000000000000000000000000081526004018080602001828103825260278152602001807f63726561746543726564656e7469616c202d205469746c65206c656e6774682081526020017f70726f626c656d0000000000000000000000000000000000000000000000000081525060400191505060405180910390fd5b6000825110158015620009c2575060328251105b151562000a5d576040517f08c379a000000000000000000000000000000000000000000000000000000000815260040180806020018281038252602a8152602001807f63726561746543726564656e7469616c202d204469766973696f6e206c656e6781526020017f74682070726f626c656d0000000000000000000000000000000000000000000081525060400191505060405180910390fd5b600560003373ffffffffffffffffffffffffffffffffffffffff1673ffffffffffffffffffffffffffffffffffffffff16815260200190815260200160002060a060405190810160405280867effffffffffffffffffffffffffffffffffffffffffffffffffffffffffffff191681526020018581526020018481526020014263ffffffff168152602001600115158152509080600181540180825580915050906001820390600052602060002090600402016000909192909190915060008201518160000160006101000a81548160ff02191690837f010000000000000000000000000000000000000000000000000000000000000090040217905550602082015181600101908051906020019062000b7992919062001329565b50604082015181600201908051906020019062000b9892919062001329565b5060608201518160030160006101000a81548163ffffffff021916908363ffffffff16021790555060808201518160030160046101000a81548160ff0219169083151502179055505050905060008163ffffffff1610151562000eb35762000c6e6001600660003373ffffffffffffffffffffffffffffffffffffffff1673ffffffffffffffffffffffffffffffffffffffff16815260200190815260200160002060009054906101000a900463ffffffff1663ffffffff166200112564010000000002620038ad179091906401000000009004565b600660003373ffffffffffffffffffffffffffffffffffffffff1673ffffffffffffffffffffffffffffffffffffffff16815260200190815260200160002060006101000a81548163ffffffff021916908363ffffffff16021790555062000d446001600760003373ffffffffffffffffffffffffffffffffffffffff1673ffffffffffffffffffffffffffffffffffffffff16815260200190815260200160002060009054906101000a900463ffffffff1663ffffffff166200112564010000000002620038ad179091906401000000009004565b600760003373ffffffffffffffffffffffffffffffffffffffff1673ffffffffffffffffffffffffffffffffffffffff16815260200190815260200160002060006101000a81548163ffffffff021916908363ffffffff1602179055507f22efaf0cb3bd642425e7be86b531b1a553c2d7a83936239ee16e9f7fdb8fa37d3384604051808373ffffffffffffffffffffffffffffffffffffffff1673ffffffffffffffffffffffffffffffffffffffff1681526020018060200180602001838103835284818151815260200191508051906020019080838360005b8381101562000e3c57808201518184015260208101905062000e1f565b50505050905090810190601f16801562000e6a5780820380516001836020036101000a031916815260200191505b508381038252601d8152602001807f4e65772043726564656e7469616c20416464202853554343434553532900000081525060200194505050505060405180910390a162000fc0565b7f22efaf0cb3bd642425e7be86b531b1a553c2d7a83936239ee16e9f7fdb8fa37d3384604051808373ffffffffffffffffffffffffffffffffffffffff1673ffffffffffffffffffffffffffffffffffffffff1681526020018060200180602001838103835284818151815260200191508051906020019080838360005b8381101562000f4e57808201518184015260208101905062000f31565b50505050905090810190601f16801562000f7c5780820380516001836020036101000a031916815260200191505b508381038252601b8152602001807f4e65772043726564656e7469616c2041646420284641494c454429000000000081525060200194505050505060405180910390a15b620010f9565b7f22efaf0cb3bd642425e7be86b531b1a553c2d7a83936239ee16e9f7fdb8fa37d3384604051808373ffffffffffffffffffffffffffffffffffffffff1673ffffffffffffffffffffffffffffffffffffffff1681526020018060200180602001838103835284818151815260200191508051906020019080838360005b838110156200106157808201518184015260208101905062001044565b50505050905090810190601f1680156200108f5780820380516001836020036101000a031916815260200191505b508381038252602e8152602001807f4e65772043726564656e7469616c2041646420284641494c4544292c204e6f7481526020017f2043726564656e7469616c4f726700000000000000000000000000000000000081525060400194505050505060405180910390a15b50505050565b60008263ffffffff168263ffffffff16111515156200111a57fe5b818303905092915050565b60008082840190508363ffffffff168163ffffffff16101515156200114657fe5b8091505092915050565b60008060009150600260008473ffffffffffffffffffffffffffffffffffffffff1673ffffffffffffffffffffffffffffffffffffffff168152602001908152602001600020905060008160030160009054906101000a900473ffffffffffffffffffffffffffffffffffffffff1673ffffffffffffffffffffffffffffffffffffffff161415156200128357600191507f4e21dd52bcce287e8c74281919f77b5fe01a9761789a160d0bc2d8116703142f33604051808273ffffffffffffffffffffffffffffffffffffffff1673ffffffffffffffffffffffffffffffffffffffff168152602001806020018281038252601b8152602001807f697343726564656e7469616c4f7267202d2028535543434553532900000000008152506020019250505060405180910390a162001320565b7f4e21dd52bcce287e8c74281919f77b5fe01a9761789a160d0bc2d8116703142f33604051808273ffffffffffffffffffffffffffffffffffffffff1673ffffffffffffffffffffffffffffffffffffffff16815260200180602001828103825260188152602001807f697343726564656e7469616c4f7267202d20284641494c2900000000000000008152506020019250505060405180910390a15b81915050919050565b828054600181600116156101000203166002900490600052602060002090601f016020900481019282601f106200136c57805160ff19168380011785556200139d565b828001600101855582156200139d579182015b828111156200139c5782518255916020019190600101906200137f565b5b509050620013ac91906200143e565b5090565b828054600181600116156101000203166002900490600052602060002090601f016020900481019282601f10620013eb57805485556200142b565b828001600101855582156200142b57600052602060002091601f016020900482015b828111156200142a5782548255916001019190600101906200140d565b5b5090506200143a91906200143e565b5090565b6200146391905b808211156200145f57600081600090555060010162001445565b5090565b90565b613a2f80620014766000396000f3006080604052600436106100f1576000357c0100000000000000000000000000000000000000000000000000000000900463ffffffff1680632b83acac146100f65780633f4ba83a14610123578063477d02c51461013a578063554ee0431461019f5780635c975abb146101d65780637795e209146102055780638456cb59146103345780638da5cb5b1461034b578063a821a340146103a2578063b9572c3e14610405578063bbee2dfe14610432578063bd8fbbe914610571578063db7acb3b146105d4578063e1eaee4214610692578063e7c32593146106ed578063f2fde38b1461088e578063fdf3f908146108d1575b600080fd5b34801561010257600080fd5b50610121600480360381019080803590602001909291905050506109ac565b005b34801561012f57600080fd5b50610138610fd4565b005b34801561014657600080fd5b50610185600480360381019080803573ffffffffffffffffffffffffffffffffffffffff16906020019092919080359060200190929190505050611092565b604051808215151515815260200191505060405180910390f35b3480156101ab57600080fd5b506101b461118a565b604051808263ffffffff1663ffffffff16815260200191505060405180910390f35b3480156101e257600080fd5b506101eb611243565b604051808215151515815260200191505060405180910390f35b34801561021157600080fd5b50610236600480360381019080803563ffffffff169060200190929190505050611256565b6040518085600019166000191681526020018479ffffffffffffffffffffffffffffffffffffffffffffffffffff191679ffffffffffffffffffffffffffffffffffffffffffffffffffff19168152602001806020018373ffffffffffffffffffffffffffffffffffffffff1673ffffffffffffffffffffffffffffffffffffffff168152602001828103825284818151815260200191508051906020019080838360005b838110156102f65780820151818401526020810190506102db565b50505050905090810190601f1680156103235780820380516001836020036101000a031916815260200191505b509550505050505060405180910390f35b34801561034057600080fd5b50610349611669565b005b34801561035757600080fd5b50610360611729565b604051808273ffffffffffffffffffffffffffffffffffffffff1673ffffffffffffffffffffffffffffffffffffffff16815260200191505060405180910390f35b3480156103ae57600080fd5b506103e3600480360381019080803573ffffffffffffffffffffffffffffffffffffffff16906020019092919050505061174e565b604051808263ffffffff1663ffffffff16815260200191505060405180910390f35b34801561041157600080fd5b50610430600480360381019080803590602001909291905050506117aa565b005b34801561043e57600080fd5b50610473600480360381019080803573ffffffffffffffffffffffffffffffffffffffff169060200190929190505050611dd2565b6040518085600019166000191681526020018479ffffffffffffffffffffffffffffffffffffffffffffffffffff191679ffffffffffffffffffffffffffffffffffffffffffffffffffff19168152602001806020018373ffffffffffffffffffffffffffffffffffffffff1673ffffffffffffffffffffffffffffffffffffffff168152602001828103825284818151815260200191508051906020019080838360005b83811015610533578082015181840152602081019050610518565b50505050905090810190601f1680156105605780820380516001836020036101000a031916815260200191505b509550505050505060405180910390f35b34801561057d57600080fd5b506105b2600480360381019080803573ffffffffffffffffffffffffffffffffffffffff1690602001909291905050506121cf565b604051808263ffffffff1663ffffffff16815260200191505060405180910390f35b3480156105e057600080fd5b506106706004803603810190808035600019169060200190929190803579ffffffffffffffffffffffffffffffffffffffffffffffffffff19169060200190929190803590602001908201803590602001908080601f016020809104026020016040519081016040528093929190818152602001838380828437820191505050505050919291929050505061222b565b604051808263ffffffff1663ffffffff16815260200191505060405180910390f35b34801561069e57600080fd5b506106d3600480360381019080803573ffffffffffffffffffffffffffffffffffffffff1690602001909291905050506127de565b604051808215151515815260200191505060405180910390f35b3480156106f957600080fd5b5061073e600480360381019080803573ffffffffffffffffffffffffffffffffffffffff169060200190929190803563ffffffff1690602001909291905050506129b5565b60405180867effffffffffffffffffffffffffffffffffffffffffffffffffffffffffffff19167effffffffffffffffffffffffffffffffffffffffffffffffffffffffffffff1916815260200180602001806020018563ffffffff1663ffffffff16815260200184151515158152602001838103835287818151815260200191508051906020019080838360005b838110156107e85780820151818401526020810190506107cd565b50505050905090810190601f1680156108155780820380516001836020036101000a031916815260200191505b50838103825286818151815260200191508051906020019080838360005b8381101561084e578082015181840152602081019050610833565b50505050905090810190601f16801561087b5780820380516001836020036101000a031916815260200191505b5097505050505050505060405180910390f35b34801561089a57600080fd5b506108cf600480360381019080803573ffffffffffffffffffffffffffffffffffffffff169060200190929190505050612e4f565b005b3480156108dd57600080fd5b506109aa60048036038101908080357effffffffffffffffffffffffffffffffffffffffffffffffffffffffffffff19169060200190929190803590602001908201803590602001908080601f0160208091040260200160405190810160405280939291908181526020018383808284378201915050505050509192919290803590602001908201803590602001908080601f0160208091040260200160405190810160405280939291908181526020018383808284378201915050505050509192919290505050612fa4565b005b6109b5336127de565b15610e285760008110151515610a59576040517f08c379a00000000000000000000000000000000000000000000000000000000081526004018080602001828103825260328152602001807f73657443726564656e7469616c496e616374697665466c61673a20506f73697481526020017f696f6e206f72204f7267206661696c757265000000000000000000000000000081525060400191505060405180910390fd5b60011515600560003373ffffffffffffffffffffffffffffffffffffffff1673ffffffffffffffffffffffffffffffffffffffff16815260200190815260200160002082815481101515610aa957fe5b906000526020600020906004020160030160049054906101000a900460ff161515141515610b3f576040517f08c379a00000000000000000000000000000000000000000000000000000000081526004018080602001828103825260188152602001807f43726564656e7469616c206973204e4f5420416374697665000000000000000081525060200191505060405180910390fd5b6000600560003373ffffffffffffffffffffffffffffffffffffffff1673ffffffffffffffffffffffffffffffffffffffff16815260200190815260200160002082815481101515610b8d57fe5b906000526020600020906004020160030160046101000a81548160ff021916908315150217905550610c1e6001600760003373ffffffffffffffffffffffffffffffffffffffff1673ffffffffffffffffffffffffffffffffffffffff16815260200190815260200160002060009054906101000a900463ffffffff1663ffffffff1661388890919063ffffffff16565b600760003373ffffffffffffffffffffffffffffffffffffffff1673ffffffffffffffffffffffffffffffffffffffff16815260200190815260200160002060006101000a81548163ffffffff021916908363ffffffff1602179055507f22efaf0cb3bd642425e7be86b531b1a553c2d7a83936239ee16e9f7fdb8fa37d33600560003373ffffffffffffffffffffffffffffffffffffffff1673ffffffffffffffffffffffffffffffffffffffff16815260200190815260200160002083815481101515610ce957fe5b9060005260206000209060040201600101604051808373ffffffffffffffffffffffffffffffffffffffff1673ffffffffffffffffffffffffffffffffffffffff1681526020018060200180602001838103835284818154600181600116156101000203166002900481526020019150805460018160011615610100020316600290048015610db95780601f10610d8e57610100808354040283529160200191610db9565b820191906000526020600020905b815481529060010190602001808311610d9c57829003601f168201915b5050838103825260268152602001807f53657443726564656e7469616c4973416374697665202d202853657420496e6181526020017f637469766529000000000000000000000000000000000000000000000000000081525060400194505050505060405180910390a1610fd1565b7f22efaf0cb3bd642425e7be86b531b1a553c2d7a83936239ee16e9f7fdb8fa37d33600560003373ffffffffffffffffffffffffffffffffffffffff1673ffffffffffffffffffffffffffffffffffffffff16815260200190815260200160002083815481101515610e9657fe5b9060005260206000209060040201600101604051808373ffffffffffffffffffffffffffffffffffffffff1673ffffffffffffffffffffffffffffffffffffffff1681526020018060200180602001838103835284818154600181600116156101000203166002900481526020019150805460018160011615610100020316600290048015610f665780601f10610f3b57610100808354040283529160200191610f66565b820191906000526020600020905b815481529060010190602001808311610f4957829003601f168201915b5050838103825260308152602001807f53657443726564656e7469616c4973416374697665202d20284641494c29206e81526020017f6f742043726564656e7469616c4f72670000000000000000000000000000000081525060400194505050505060405180910390a15b50565b6000809054906101000a900473ffffffffffffffffffffffffffffffffffffffff1673ffffffffffffffffffffffffffffffffffffffff163373ffffffffffffffffffffffffffffffffffffffff1614151561102f57600080fd5b600060149054906101000a900460ff16151561104a57600080fd5b60008060146101000a81548160ff0219169083151502179055507f7805862f689e2f13df9f062ff482ad3ad112aca9e0847911ed832e158c525b3360405160405180910390a1565b6000809050600082101515156110a757600080fd5b600660008473ffffffffffffffffffffffffffffffffffffffff1673ffffffffffffffffffffffffffffffffffffffff16815260200190815260200160002060009054906101000a900463ffffffff1663ffffffff168210156111815760011515600560008573ffffffffffffffffffffffffffffffffffffffff1673ffffffffffffffffffffffffffffffffffffffff1681526020019081526020016000208381548110151561115457fe5b906000526020600020906004020160030160049054906101000a900460ff161515141561118057600190505b5b80905092915050565b6000600360009054906101000a900463ffffffff1690507f4e21dd52bcce287e8c74281919f77b5fe01a9761789a160d0bc2d8116703142f33604051808273ffffffffffffffffffffffffffffffffffffffff1673ffffffffffffffffffffffffffffffffffffffff168152602001806020018281038252601a8152602001807f73656c6563744f7267436f756e74202d202853554343455353290000000000008152506020019250505060405180910390a180905090565b600060149054906101000a900460ff1681565b6000806060600080935060009250602060405190810160405280600081525091506000905060008563ffffffff1610151515611320576040517f08c379a000000000000000000000000000000000000000000000000000000000815260040180806020018281038252603f8152602001807f73656c65637443726564656e7469616c4f7267202d20706f736974696f6e206881526020017f616420746f2062652067726561746572206f7220657175616c20746f20302e0081525060400191505060405180910390fd5b600360009054906101000a900463ffffffff1663ffffffff168563ffffffff161015611593577f4e21dd52bcce287e8c74281919f77b5fe01a9761789a160d0bc2d8116703142f33604051808273ffffffffffffffffffffffffffffffffffffffff1673ffffffffffffffffffffffffffffffffffffffff16815260200180602001828103825260288152602001807f73656c65637443726564656e7469616c4f72677e706f736974696f6e202d202881526020017f53554343455353290000000000000000000000000000000000000000000000008152506040019250505060405180910390a160048563ffffffff1681548110151561141d57fe5b90600052602060002090600402016000015460048663ffffffff1681548110151561144457fe5b906000526020600020906004020160010160009054906101000a90047a0100000000000000000000000000000000000000000000000000000260048763ffffffff1681548110151561149257fe5b906000526020600020906004020160020160048863ffffffff168154811015156114b857fe5b906000526020600020906004020160030160009054906101000a900473ffffffffffffffffffffffffffffffffffffffff16818054600181600116156101000203166002900480601f01602080910402602001604051908101604052809291908181526020018280546001816001161561010002031660029004801561157f5780601f106115545761010080835404028352916020019161157f565b820191906000526020600020905b81548152906001019060200180831161156257829003601f168201915b505050505091509350935093509350611662565b7f4e21dd52bcce287e8c74281919f77b5fe01a9761789a160d0bc2d8116703142f33604051808273ffffffffffffffffffffffffffffffffffffffff1673ffffffffffffffffffffffffffffffffffffffff168152602001806020018281038252603b8152602001807f73656c65637443726564656e7469616c4f72677e706f736974696f6e202d202881526020017f4641494c2920746f7020626f756e6472792065786365656465642e00000000008152506040019250505060405180910390a18383838393509350935093505b9193509193565b6000809054906101000a900473ffffffffffffffffffffffffffffffffffffffff1673ffffffffffffffffffffffffffffffffffffffff163373ffffffffffffffffffffffffffffffffffffffff161415156116c457600080fd5b600060149054906101000a900460ff161515156116e057600080fd5b6001600060146101000a81548160ff0219169083151502179055507f6985a02210a168e66602d3235cb6db0e70f92b3ba4d376a33c0f3d9434bff62560405160405180910390a1565b6000809054906101000a900473ffffffffffffffffffffffffffffffffffffffff1681565b6000600760008373ffffffffffffffffffffffffffffffffffffffff1673ffffffffffffffffffffffffffffffffffffffff16815260200190815260200160002060009054906101000a900463ffffffff169050809050919050565b6117b3336127de565b15611c265760008110151515611857576040517f08c379a00000000000000000000000000000000000000000000000000000000081526004018080602001828103825260308152602001807f73657443726564656e7469616c416374697665466c61673a20706f736974696f81526020017f6e206c6f6f6b7570206661696c7572650000000000000000000000000000000081525060400191505060405180910390fd5b60001515600560003373ffffffffffffffffffffffffffffffffffffffff1673ffffffffffffffffffffffffffffffffffffffff168152602001908152602001600020828154811015156118a757fe5b906000526020600020906004020160030160049054906101000a900460ff16151514151561193d576040517f08c379a000000000000000000000000000000000000000000000000000000000815260040180806020018281038252601c8152602001807f43726564656e7469616c20697320616c7265616479204163746976650000000081525060200191505060405180910390fd5b6001600560003373ffffffffffffffffffffffffffffffffffffffff1673ffffffffffffffffffffffffffffffffffffffff1681526020019081526020016000208281548110151561198b57fe5b906000526020600020906004020160030160046101000a81548160ff021916908315150217905550611a1c6001600760003373ffffffffffffffffffffffffffffffffffffffff1673ffffffffffffffffffffffffffffffffffffffff16815260200190815260200160002060009054906101000a900463ffffffff1663ffffffff166138ad90919063ffffffff16565b600760003373ffffffffffffffffffffffffffffffffffffffff1673ffffffffffffffffffffffffffffffffffffffff16815260200190815260200160002060006101000a81548163ffffffff021916908363ffffffff1602179055507f22efaf0cb3bd642425e7be86b531b1a553c2d7a83936239ee16e9f7fdb8fa37d33600560003373ffffffffffffffffffffffffffffffffffffffff1673ffffffffffffffffffffffffffffffffffffffff16815260200190815260200160002083815481101515611ae757fe5b9060005260206000209060040201600101604051808373ffffffffffffffffffffffffffffffffffffffff1673ffffffffffffffffffffffffffffffffffffffff1681526020018060200180602001838103835284818154600181600116156101000203166002900481526020019150805460018160011615610100020316600290048015611bb75780601f10611b8c57610100808354040283529160200191611bb7565b820191906000526020600020905b815481529060010190602001808311611b9a57829003601f168201915b5050838103825260248152602001807f53657443726564656e7469616c4973416374697665202d20285365742041637481526020017f697665290000000000000000000000000000000000000000000000000000000081525060400194505050505060405180910390a1611dcf565b7f22efaf0cb3bd642425e7be86b531b1a553c2d7a83936239ee16e9f7fdb8fa37d33600560003373ffffffffffffffffffffffffffffffffffffffff1673ffffffffffffffffffffffffffffffffffffffff16815260200190815260200160002083815481101515611c9457fe5b9060005260206000209060040201600101604051808373ffffffffffffffffffffffffffffffffffffffff1673ffffffffffffffffffffffffffffffffffffffff1681526020018060200180602001838103835284818154600181600116156101000203166002900481526020019150805460018160011615610100020316600290048015611d645780601f10611d3957610100808354040283529160200191611d64565b820191906000526020600020905b815481529060010190602001808311611d4757829003601f168201915b50508381038252602e8152602001807f53657443726564656e7469616c416374697665202d20284641494c29206e6f7481526020017f2043726564656e7469616c4f726700000000000000000000000000000000000081525060400194505050505060405180910390a15b50565b600080606060008060008673ffffffffffffffffffffffffffffffffffffffff1614151515611e8f576040517f08c379a00000000000000000000000000000000000000000000000000000000081526004018080602001828103825260298152602001807f73656c65637443726564656e7469616c4f7267202d204164647265737320302081526020017f6e6f742076616c6964000000000000000000000000000000000000000000000081525060400191505060405180910390fd5b60009450600093506020604051908101604052806000815250925060009150600260008773ffffffffffffffffffffffffffffffffffffffff1673ffffffffffffffffffffffffffffffffffffffff168152602001908152602001600020905060008160030160009054906101000a900473ffffffffffffffffffffffffffffffffffffffff1673ffffffffffffffffffffffffffffffffffffffff161415156120f8577f4e21dd52bcce287e8c74281919f77b5fe01a9761789a160d0bc2d8116703142f33604051808273ffffffffffffffffffffffffffffffffffffffff1673ffffffffffffffffffffffffffffffffffffffff16815260200180602001828103825260278152602001807f73656c65637443726564656e7469616c4f72677e61646472657373202d20285381526020017f55434345535329000000000000000000000000000000000000000000000000008152506040019250505060405180910390a180600001548160010160009054906101000a90047a01000000000000000000000000000000000000000000000000000002826002018360030160009054906101000a900473ffffffffffffffffffffffffffffffffffffffff16818054600181600116156101000203166002900480601f0160208091040260200160405190810160405280929190818152602001828054600181600116156101000203166002900480156120e45780601f106120b9576101008083540402835291602001916120e4565b820191906000526020600020905b8154815290600101906020018083116120c757829003601f168201915b5050505050915094509450945094506121c7565b7f4e21dd52bcce287e8c74281919f77b5fe01a9761789a160d0bc2d8116703142f33604051808273ffffffffffffffffffffffffffffffffffffffff1673ffffffffffffffffffffffffffffffffffffffff16815260200180602001828103825260248152602001807f73656c65637443726564656e7469616c4f72677e61646472657373202d20284681526020017f41494c29000000000000000000000000000000000000000000000000000000008152506040019250505060405180910390a18484848494509450945094505b509193509193565b6000600660008373ffffffffffffffffffffffffffffffffffffffff1673ffffffffffffffffffffffffffffffffffffffff16815260200190815260200160002060009054906101000a900463ffffffff169050809050919050565b60007f6480db5eb12fe3227eace7f150fa46f3a44dfebd8ea96d17acf257d2d2da06a984336040518083600019166000191681526020018273ffffffffffffffffffffffffffffffffffffffff1673ffffffffffffffffffffffffffffffffffffffff16815260200180602001828103825260118152602001807f4e6577204f726720416464202850524529000000000000000000000000000000815250602001935050505060405180910390a16000602060ff16118015612304575060003373ffffffffffffffffffffffffffffffffffffffff1614155b8015612313575060068060ff16145b8015612320575060008251115b801561232d575060468251105b151561233857600080fd5b6004608060405190810160405280866000191681526020018579ffffffffffffffffffffffffffffffffffffffffffffffffffff191681526020018481526020013373ffffffffffffffffffffffffffffffffffffffff16815250908060018154018082558091505090600182039060005260206000209060040201600090919290919091506000820151816000019060001916905560208201518160010160006101000a81548165ffffffffffff02191690837a01000000000000000000000000000000000000000000000000000090040217905550604082015181600201908051906020019061242b9291906138d7565b5060608201518160030160006101000a81548173ffffffffffffffffffffffffffffffffffffffff021916908373ffffffffffffffffffffffffffffffffffffffff1602179055505050905060008163ffffffff1611156127665733600160008363ffffffff1663ffffffff16815260200190815260200160002060006101000a81548173ffffffffffffffffffffffffffffffffffffffff021916908373ffffffffffffffffffffffffffffffffffffffff160217905550600461250060018363ffffffff1661388890919063ffffffff16565b63ffffffff1681548110151561251257fe5b9060005260206000209060040201600260003373ffffffffffffffffffffffffffffffffffffffff1673ffffffffffffffffffffffffffffffffffffffff168152602001908152602001600020600082015481600001906000191690556001820160009054906101000a90047a010000000000000000000000000000000000000000000000000000028160010160006101000a81548165ffffffffffff02191690837a01000000000000000000000000000000000000000000000000000090040217905550600282018160020190805460018160011615610100020316600290046125fe929190613957565b506003820160009054906101000a900473ffffffffffffffffffffffffffffffffffffffff168160030160006101000a81548173ffffffffffffffffffffffffffffffffffffffff021916908373ffffffffffffffffffffffffffffffffffffffff1602179055509050506126956001600360009054906101000a900463ffffffff1663ffffffff166138ad90919063ffffffff16565b600360006101000a81548163ffffffff021916908363ffffffff1602179055507f6480db5eb12fe3227eace7f150fa46f3a44dfebd8ea96d17acf257d2d2da06a984336040518083600019166000191681526020018273ffffffffffffffffffffffffffffffffffffffff1673ffffffffffffffffffffffffffffffffffffffff168152602001806020018281038252601d8152602001807f63726561746543726564656e7469616c4f726720285355434345535329000000815250602001935050505060405180910390a16127d4565b6040517f08c379a00000000000000000000000000000000000000000000000000000000081526004018080602001828103825260128152602001807f4e6577204f72672041646420284641494c29000000000000000000000000000081525060200191505060405180910390fd5b8090509392505050565b60008060009150600260008473ffffffffffffffffffffffffffffffffffffffff1673ffffffffffffffffffffffffffffffffffffffff168152602001908152602001600020905060008160030160009054906101000a900473ffffffffffffffffffffffffffffffffffffffff1673ffffffffffffffffffffffffffffffffffffffff1614151561290f57600191507f4e21dd52bcce287e8c74281919f77b5fe01a9761789a160d0bc2d8116703142f33604051808273ffffffffffffffffffffffffffffffffffffffff1673ffffffffffffffffffffffffffffffffffffffff168152602001806020018281038252601b8152602001807f697343726564656e7469616c4f7267202d2028535543434553532900000000008152506020019250505060405180910390a16129ac565b7f4e21dd52bcce287e8c74281919f77b5fe01a9761789a160d0bc2d8116703142f33604051808273ffffffffffffffffffffffffffffffffffffffff1673ffffffffffffffffffffffffffffffffffffffff16815260200180602001828103825260188152602001807f697343726564656e7469616c4f7267202d20284641494c2900000000000000008152506020019250505060405180910390a15b81915050919050565b600060608060008060008663ffffffff1610158015612a2e5750600660003373ffffffffffffffffffffffffffffffffffffffff1673ffffffffffffffffffffffffffffffffffffffff16815260200190815260200160002060009054906101000a900463ffffffff1663ffffffff168663ffffffff16105b1515612ac8576040517f08c379a00000000000000000000000000000000000000000000000000000000081526004018080602001828103825260298152602001807f73656c65637443726564656e7469616c3a2043726564656e7469616c20426f7581526020017f6e6473204572726f72000000000000000000000000000000000000000000000081525060400191505060405180910390fd5b600560003373ffffffffffffffffffffffffffffffffffffffff1673ffffffffffffffffffffffffffffffffffffffff1681526020019081526020016000208663ffffffff16815481101515612b1a57fe5b906000526020600020906004020160000160009054906101000a90047f010000000000000000000000000000000000000000000000000000000000000002600560003373ffffffffffffffffffffffffffffffffffffffff1673ffffffffffffffffffffffffffffffffffffffff1681526020019081526020016000208763ffffffff16815481101515612baa57fe5b9060005260206000209060040201600101600560003373ffffffffffffffffffffffffffffffffffffffff1673ffffffffffffffffffffffffffffffffffffffff1681526020019081526020016000208863ffffffff16815481101515612c0d57fe5b9060005260206000209060040201600201600560003373ffffffffffffffffffffffffffffffffffffffff1673ffffffffffffffffffffffffffffffffffffffff1681526020019081526020016000208963ffffffff16815481101515612c7057fe5b906000526020600020906004020160030160009054906101000a900463ffffffff16600560003373ffffffffffffffffffffffffffffffffffffffff1673ffffffffffffffffffffffffffffffffffffffff1681526020019081526020016000208a63ffffffff16815481101515612ce457fe5b906000526020600020906004020160030160049054906101000a900460ff16838054600181600116156101000203166002900480601f016020809104026020016040519081016040528092919081815260200182805460018160011615610100020316600290048015612d985780601f10612d6d57610100808354040283529160200191612d98565b820191906000526020600020905b815481529060010190602001808311612d7b57829003601f168201915b50505050509350828054600181600116156101000203166002900480601f016020809104026020016040519081016040528092919081815260200182805460018160011615610100020316600290048015612e345780601f10612e0957610100808354040283529160200191612e34565b820191906000526020600020905b815481529060010190602001808311612e1757829003601f168201915b50505050509250945094509450945094509295509295909350565b6000809054906101000a900473ffffffffffffffffffffffffffffffffffffffff1673ffffffffffffffffffffffffffffffffffffffff163373ffffffffffffffffffffffffffffffffffffffff16141515612eaa57600080fd5b600073ffffffffffffffffffffffffffffffffffffffff168173ffffffffffffffffffffffffffffffffffffffff1614151515612ee657600080fd5b8073ffffffffffffffffffffffffffffffffffffffff166000809054906101000a900473ffffffffffffffffffffffffffffffffffffffff1673ffffffffffffffffffffffffffffffffffffffff167f8be0079c531659141344cd1fd0a4f28419497f9722a3daafe3b4186f6b6457e060405160405180910390a3806000806101000a81548173ffffffffffffffffffffffffffffffffffffffff021916908373ffffffffffffffffffffffffffffffffffffffff16021790555050565b60007f22efaf0cb3bd642425e7be86b531b1a553c2d7a83936239ee16e9f7fdb8fa37d3384604051808373ffffffffffffffffffffffffffffffffffffffff1673ffffffffffffffffffffffffffffffffffffffff1681526020018060200180602001838103835284818151815260200191508051906020019080838360005b8381101561303f578082015181840152602081019050613024565b50505050905090810190601f16801561306c5780820380516001836020036101000a031916815260200191505b508381038252601c8152602001807f4e65772043726564656e7469616c204164642028415454454d5054290000000081525060200194505050505060405180910390a16130b8336127de565b1561375257600083511180156130cf575060468351105b1515613169576040517f08c379a00000000000000000000000000000000000000000000000000000000081526004018080602001828103825260278152602001807f63726561746543726564656e7469616c202d205469746c65206c656e6774682081526020017f70726f626c656d0000000000000000000000000000000000000000000000000081525060400191505060405180910390fd5b600082511015801561317c575060328251105b1515613216576040517f08c379a000000000000000000000000000000000000000000000000000000000815260040180806020018281038252602a8152602001807f63726561746543726564656e7469616c202d204469766973696f6e206c656e6781526020017f74682070726f626c656d0000000000000000000000000000000000000000000081525060400191505060405180910390fd5b600560003373ffffffffffffffffffffffffffffffffffffffff1673ffffffffffffffffffffffffffffffffffffffff16815260200190815260200160002060a060405190810160405280867effffffffffffffffffffffffffffffffffffffffffffffffffffffffffffff191681526020018581526020018481526020014263ffffffff168152602001600115158152509080600181540180825580915050906001820390600052602060002090600402016000909192909190915060008201518160000160006101000a81548160ff02191690837f01000000000000000000000000000000000000000000000000000000000000009004021790555060208201518160010190805190602001906133309291906138d7565b50604082015181600201908051906020019061334d9291906138d7565b5060608201518160030160006101000a81548163ffffffff021916908363ffffffff16021790555060808201518160030160046101000a81548160ff0219169083151502179055505050905060008163ffffffff16101515613643576134126001600660003373ffffffffffffffffffffffffffffffffffffffff1673ffffffffffffffffffffffffffffffffffffffff16815260200190815260200160002060009054906101000a900463ffffffff1663ffffffff166138ad90919063ffffffff16565b600660003373ffffffffffffffffffffffffffffffffffffffff1673ffffffffffffffffffffffffffffffffffffffff16815260200190815260200160002060006101000a81548163ffffffff021916908363ffffffff1602179055506134d86001600760003373ffffffffffffffffffffffffffffffffffffffff1673ffffffffffffffffffffffffffffffffffffffff16815260200190815260200160002060009054906101000a900463ffffffff1663ffffffff166138ad90919063ffffffff16565b600760003373ffffffffffffffffffffffffffffffffffffffff1673ffffffffffffffffffffffffffffffffffffffff16815260200190815260200160002060006101000a81548163ffffffff021916908363ffffffff1602179055507f22efaf0cb3bd642425e7be86b531b1a553c2d7a83936239ee16e9f7fdb8fa37d3384604051808373ffffffffffffffffffffffffffffffffffffffff1673ffffffffffffffffffffffffffffffffffffffff1681526020018060200180602001838103835284818151815260200191508051906020019080838360005b838110156135ce5780820151818401526020810190506135b3565b50505050905090810190601f1680156135fb5780820380516001836020036101000a031916815260200191505b508381038252601d8152602001807f4e65772043726564656e7469616c20416464202853554343434553532900000081525060200194505050505060405180910390a161374d565b7f22efaf0cb3bd642425e7be86b531b1a553c2d7a83936239ee16e9f7fdb8fa37d3384604051808373ffffffffffffffffffffffffffffffffffffffff1673ffffffffffffffffffffffffffffffffffffffff1681526020018060200180602001838103835284818151815260200191508051906020019080838360005b838110156136dc5780820151818401526020810190506136c1565b50505050905090810190601f1680156137095780820380516001836020036101000a031916815260200191505b508381038252601b8152602001807f4e65772043726564656e7469616c2041646420284641494c454429000000000081525060200194505050505060405180910390a15b613882565b7f22efaf0cb3bd642425e7be86b531b1a553c2d7a83936239ee16e9f7fdb8fa37d3384604051808373ffffffffffffffffffffffffffffffffffffffff1673ffffffffffffffffffffffffffffffffffffffff1681526020018060200180602001838103835284818151815260200191508051906020019080838360005b838110156137eb5780820151818401526020810190506137d0565b50505050905090810190601f1680156138185780820380516001836020036101000a031916815260200191505b508381038252602e8152602001807f4e65772043726564656e7469616c2041646420284641494c4544292c204e6f7481526020017f2043726564656e7469616c4f726700000000000000000000000000000000000081525060400194505050505060405180910390a15b50505050565b60008263ffffffff168263ffffffff16111515156138a257fe5b818303905092915050565b60008082840190508363ffffffff168163ffffffff16101515156138cd57fe5b8091505092915050565b828054600181600116156101000203166002900490600052602060002090601f016020900481019282601f1061391857805160ff1916838001178555613946565b82800160010185558215613946579182015b8281111561394557825182559160200191906001019061392a565b5b50905061395391906139de565b5090565b828054600181600116156101000203166002900490600052602060002090601f016020900481019282601f1061399057805485556139cd565b828001600101855582156139cd57600052602060002091601f016020900482015b828111156139cc5782548255916001019190600101906139b1565b5b5090506139da91906139de565b5090565b613a0091905b808211156139fc5760008160009055506001016139e4565b5090565b905600a165627a7a7230582037b4bd7033ca186fc46b502665301f5e04ea80e338d8a3082d826076cfba9fef0029",
  "source": "pragma solidity ^0.4.21;\r\nimport \"./CredentialOrgFactory.sol\";\r\n/**\r\n * @title CredentialFactory\r\n * @dev The CredentialFactory allows the credentialOrgs to add/lookup credentials\r\n */\r\ncontract CredentialFactory is CredentialOrgFactory{\r\n    \r\n    using SafeMath32 for uint32;\r\n    // events\r\n    event CredentialFactoryActivity(address credentialOrg, string credentialTitle, string detail);\r\n\r\n    // mapping\r\n    mapping (address => Credential[]) orgAddressToCredentials;\r\n    mapping (address => uint32) orgAddressToCredentialTotalCount;\r\n    mapping (address => uint32) orgAddressToActiveCredentialCount;\r\n\r\n    // structs\r\n    struct Credential {\r\n        //address credentialOrg;      // CredentialOwnerAddress\r\n        bytes1 credentialLevel;     // single byte string \r\n        string credentialTitle;     // 70 or less string\r\n        string credentialDivision;  // 50 or less string\r\n        uint32 credentialInsertDate;// Credential Insert timestamp\r\n        bool isActive;              // is CredentialActive for use\r\n    }\r\n   \r\n    // constructor\r\n    constructor () public {\r\n        //credentialCount = 0;\r\n        createCredential(\"A\", \"Associate Degree in Basket Weaving\", \"BA - Arts\");\r\n        //createCredentialByOwner(0x14723A09ACff6D2A60DcdF7aA4AFf308FDDC160C, \"A\", \"Associate Degree in Basket Weaving\", \"BA - Arts\");\r\n        //createCredentialByOwner(0x4B0897b0513fdC7C541B6d9D7E929C4e5364D2dB, \"A\", \"Associate Degree in Basket Weaving\", \"BA - Arts\");\r\n    }\r\n    \r\n    // functions\r\n    /**\r\n    * @dev allows credentialing Orgs to create new credentials\r\n    * @param _credentialLevel Credential Level\r\n    * @param _credentialTitle CredentialTitle\r\n    * @param _credentialDivision Credential Division\r\n    */\r\n    function createCredential(bytes1 _credentialLevel, string _credentialTitle, string _credentialDivision) \r\n    public //onlyBy(msg.sender)\r\n    {\r\n        emit CredentialFactoryActivity(msg.sender, _credentialTitle, \"New Credential Add (ATTEMPT)\");\r\n        if (isCredentialOrg(msg.sender)){\r\n            require(bytes(_credentialTitle).length > 0 && bytes(_credentialTitle).length < 70, \"createCredential - Title length problem\");\r\n            require(bytes(_credentialDivision).length >= 0 && bytes(_credentialDivision).length < 50, \"createCredential - Division length problem\");\r\n            //CredentialOrgCredentials credOrgHolder = addressToCredentialOrgCredentials[msg.sender];\r\n            uint32 position = uint32(orgAddressToCredentials[msg.sender].push(Credential( _credentialLevel, _credentialTitle, _credentialDivision, uint32(block.timestamp), true)));\r\n            //uint32(addressToCredentialOrgCredentials[msg.sender].credentials.push(Credential( _credentialLevel, _credentialTitle, _credentialDivision, uint32(block.timestamp), true)));\r\n\r\n            if(position >= 0){\r\n                orgAddressToCredentialTotalCount[msg.sender] = orgAddressToCredentialTotalCount[msg.sender].add(1);\r\n                orgAddressToActiveCredentialCount[msg.sender] = orgAddressToActiveCredentialCount[msg.sender].add(1);\r\n                emit CredentialFactoryActivity(msg.sender, _credentialTitle, \"New Credential Add (SUCCCESS)\");\r\n            } else {\r\n                emit CredentialFactoryActivity(msg.sender, _credentialTitle, \"New Credential Add (FAILED)\");\r\n            }\r\n        } else {\r\n            emit CredentialFactoryActivity(msg.sender, _credentialTitle, \"New Credential Add (FAILED), Not CredentialOrg\");\r\n        }\r\n    }\r\n\r\n    /**\r\n    * @dev allows selection of credential based on position.\r\n    * @param _credentialOrgAddress credentialOrg Address\r\n    * @param _position allows selection of credentialing orgs details.\r\n    */\r\n    function selectCredential(address _credentialOrgAddress, uint32 _position) \r\n    public view\r\n    returns (bytes1 credentialLevel, string credentialTitle, string credentialDivision, uint32 credentialInsertDate, bool isActive)\r\n    {\r\n        require(_position >= 0 && _position < orgAddressToCredentialTotalCount[msg.sender], \"selectCredential: Credential Bounds Error\");\r\n        return (orgAddressToCredentials[msg.sender][_position].credentialLevel,orgAddressToCredentials[msg.sender][_position].credentialTitle, orgAddressToCredentials[msg.sender][_position].credentialDivision, orgAddressToCredentials[msg.sender][_position].credentialInsertDate,orgAddressToCredentials[msg.sender][_position].isActive);\r\n    }\r\n\r\n    /**\r\n    * @dev allows setting credential inactive by it's owner\r\n    * @param _position Credential position in array\r\n    */\r\n    function setCredentialInactiveFlag(uint _position)\r\n    public //onlyBy(msg.sender)\r\n    {\r\n        if (isCredentialOrg(msg.sender)){\r\n            require(_position >= 0, \"setCredentialInactiveFlag: Position or Org failure\");\r\n            require(orgAddressToCredentials[msg.sender][_position].isActive == true, \"Credential is NOT Active\");\r\n            orgAddressToCredentials[msg.sender][_position].isActive = false;\r\n            orgAddressToActiveCredentialCount[msg.sender] = orgAddressToActiveCredentialCount[msg.sender].sub(1);\r\n            emit CredentialFactoryActivity(msg.sender, orgAddressToCredentials[msg.sender][_position].credentialTitle, \"SetCredentialIsActive - (Set Inactive)\");\r\n        } else {\r\n            emit CredentialFactoryActivity(msg.sender, orgAddressToCredentials[msg.sender][_position].credentialTitle, \"SetCredentialIsActive - (FAIL) not CredentialOrg\");\r\n        }\r\n    }\r\n\r\n    /**\r\n    * @dev allows setting credential inactive by it's credentialing org.\r\n    * @param _position Credential position in array\r\n    */\r\n    function setCredentialActiveFlag(uint _position)\r\n    public //onlyBy(msg.sender)\r\n    {\r\n        if (isCredentialOrg(msg.sender)){\r\n            require(_position >= 0 , \"setCredentialActiveFlag: position lookup failure\");\r\n            require(orgAddressToCredentials[msg.sender][_position].isActive == false, \"Credential is already Active\");\r\n            orgAddressToCredentials[msg.sender][_position].isActive = true;\r\n            orgAddressToActiveCredentialCount[msg.sender] = orgAddressToActiveCredentialCount[msg.sender].add(1);\r\n            emit CredentialFactoryActivity(msg.sender, orgAddressToCredentials[msg.sender][_position].credentialTitle, \"SetCredentialIsActive - (Set Active)\");\r\n        } else {\r\n            emit CredentialFactoryActivity(msg.sender, orgAddressToCredentials[msg.sender][_position].credentialTitle, \"SetCredentialActive - (FAIL) not CredentialOrg\");\r\n        }\r\n    }\r\n\r\n    /**\r\n    * @dev allows checking of CredentialCount\r\n    */\r\n    function SelectOrgCredentialActiveCount(address _credentialOrgAddress)\r\n    public view\r\n    returns (uint32 returnCredentialCount)\r\n    {\r\n        returnCredentialCount = orgAddressToActiveCredentialCount[_credentialOrgAddress];\r\n        return (returnCredentialCount);\r\n    }\r\n\r\n    /**\r\n    * @dev allows checking of CredentialCount\r\n    */\r\n    function SelectOrgCredentialCount(address _credentialOrgAddress)\r\n    public view\r\n    returns (uint32 returnCredentialCount)\r\n    {\r\n        returnCredentialCount = orgAddressToCredentialTotalCount[_credentialOrgAddress];\r\n        return (returnCredentialCount);\r\n    }\r\n\r\n\r\n    /**\r\n    * @dev allows checking of isActive flag for credential\r\n    * @param _position Credential position in array\r\n    */\r\n    function isCredentialActive(address _credentialOrgAddress, uint _position)\r\n    public view\r\n    returns (bool activeState)\r\n    {\r\n        activeState = false;\r\n        require(_position >= 0);\r\n        if (_position < orgAddressToCredentialTotalCount[_credentialOrgAddress]){\r\n            if (orgAddressToCredentials[_credentialOrgAddress][_position].isActive == true){\r\n                activeState = true;\r\n            }\r\n        }\r\n        return (activeState);\r\n    }\r\n}",
  "sourcePath": "E:\\Projects\\CredentialVerify\\contracts\\CredentialFactory.sol",
  "compiler": {
    "name": "solc",
    "version": "0.4.24+commit.e67f0147.Emscripten.clang"
  },
  "schemaVersion": "2.0.1",
  "updatedAt": "2018-08-09T03:03:30.764Z"
}