{
  "contractName": "CredentialFactory",
  "abi": [
    {
      "constant": false,
      "inputs": [],
      "name": "unpause",
      "outputs": [],
      "payable": false,
      "stateMutability": "nonpayable",
      "type": "function"
    },
    {
      "constant": false,
      "inputs": [
        {
          "name": "_shortName",
          "type": "bytes32"
        },
        {
          "name": "_schoolAddress",
          "type": "address"
        },
        {
          "name": "_schoolCode",
          "type": "bytes6"
        },
        {
          "name": "_officialSchoolName",
          "type": "string"
        }
      ],
      "name": "createCredentialOrg",
      "outputs": [
        {
          "name": "position",
          "type": "uint32"
        }
      ],
      "payable": false,
      "stateMutability": "nonpayable",
      "type": "function"
    },
    {
      "constant": true,
      "inputs": [],
      "name": "selectOrgCount",
      "outputs": [
        {
          "name": "returnOrgCount",
          "type": "uint32"
        }
      ],
      "payable": false,
      "stateMutability": "view",
      "type": "function"
    },
    {
      "constant": true,
      "inputs": [],
      "name": "paused",
      "outputs": [
        {
          "name": "",
          "type": "bool"
        }
      ],
      "payable": false,
      "stateMutability": "view",
      "type": "function"
    },
    {
      "constant": false,
      "inputs": [],
      "name": "pause",
      "outputs": [],
      "payable": false,
      "stateMutability": "nonpayable",
      "type": "function"
    },
    {
      "constant": true,
      "inputs": [],
      "name": "owner",
      "outputs": [
        {
          "name": "",
          "type": "address"
        }
      ],
      "payable": false,
      "stateMutability": "view",
      "type": "function"
    },
    {
      "constant": true,
      "inputs": [
        {
          "name": "_credentialPosition",
          "type": "uint32"
        }
      ],
      "name": "selectCredentialOrg",
      "outputs": [
        {
          "name": "shortName",
          "type": "bytes32"
        },
        {
          "name": "schoolCode",
          "type": "bytes6"
        },
        {
          "name": "officialSchoolName",
          "type": "string"
        },
        {
          "name": "schoolAddress",
          "type": "address"
        }
      ],
      "payable": false,
      "stateMutability": "view",
      "type": "function"
    },
    {
      "constant": true,
      "inputs": [
        {
          "name": "_credentialOrgAddress",
          "type": "address"
        }
      ],
      "name": "isCredentialOrg",
      "outputs": [
        {
          "name": "IsOrgAddress",
          "type": "bool"
        }
      ],
      "payable": false,
      "stateMutability": "view",
      "type": "function"
    },
    {
      "constant": false,
      "inputs": [
        {
          "name": "newOwner",
          "type": "address"
        }
      ],
      "name": "transferOwnership",
      "outputs": [],
      "payable": false,
      "stateMutability": "nonpayable",
      "type": "function"
    },
    {
      "inputs": [],
      "payable": false,
      "stateMutability": "nonpayable",
      "type": "constructor"
    },
    {
      "anonymous": false,
      "inputs": [
        {
          "indexed": false,
          "name": "credentialOrg",
          "type": "address"
        },
        {
          "indexed": false,
          "name": "credentialTitle",
          "type": "string"
        },
        {
          "indexed": false,
          "name": "detail",
          "type": "string"
        }
      ],
      "name": "CredentialFactoryActivity",
      "type": "event"
    },
    {
      "anonymous": false,
      "inputs": [
        {
          "indexed": false,
          "name": "shortName",
          "type": "bytes32"
        },
        {
          "indexed": false,
          "name": "schoolAddress",
          "type": "address"
        },
        {
          "indexed": false,
          "name": "detail",
          "type": "string"
        }
      ],
      "name": "NewOrgAdd",
      "type": "event"
    },
    {
      "anonymous": false,
      "inputs": [],
      "name": "Pause",
      "type": "event"
    },
    {
      "anonymous": false,
      "inputs": [],
      "name": "Unpause",
      "type": "event"
    },
    {
      "anonymous": false,
      "inputs": [
        {
          "indexed": true,
          "name": "previousOwner",
          "type": "address"
        },
        {
          "indexed": true,
          "name": "newOwner",
          "type": "address"
        }
      ],
      "name": "OwnershipTransferred",
      "type": "event"
    },
    {
      "constant": false,
      "inputs": [
        {
          "name": "_credentialLevel",
          "type": "bytes1"
        },
        {
          "name": "_credentialTitle",
          "type": "string"
        },
        {
          "name": "_credentialDivision",
          "type": "string"
        },
        {
          "name": "_insertDate",
          "type": "bytes8"
        }
      ],
      "name": "createCredential",
      "outputs": [],
      "payable": false,
      "stateMutability": "nonpayable",
      "type": "function"
    },
    {
      "constant": false,
      "inputs": [
        {
          "name": "_credentialOrg",
          "type": "address"
        },
        {
          "name": "_credentialLevel",
          "type": "bytes1"
        },
        {
          "name": "_credentialTitle",
          "type": "string"
        },
        {
          "name": "_credentialDivision",
          "type": "string"
        },
        {
          "name": "_insertDate",
          "type": "bytes8"
        }
      ],
      "name": "createCredentialByOwner",
      "outputs": [],
      "payable": false,
      "stateMutability": "nonpayable",
      "type": "function"
    },
    {
      "constant": false,
      "inputs": [
        {
          "name": "_position",
          "type": "uint256"
        },
        {
          "name": "_isActive",
          "type": "bool"
        }
      ],
      "name": "setCredentialInactiveFlag",
      "outputs": [],
      "payable": false,
      "stateMutability": "nonpayable",
      "type": "function"
    },
    {
      "constant": true,
      "inputs": [],
      "name": "SelectCredentialCount",
      "outputs": [
        {
          "name": "returnCredentialCount",
          "type": "uint256"
        }
      ],
      "payable": false,
      "stateMutability": "view",
      "type": "function"
    },
    {
      "constant": true,
      "inputs": [
        {
          "name": "_position",
          "type": "uint256"
        }
      ],
      "name": "isCredentialActive",
      "outputs": [
        {
          "name": "activeState",
          "type": "bool"
        }
      ],
      "payable": false,
      "stateMutability": "view",
      "type": "function"
    }
  ],
  "bytecode": "0x608060405260008060146101000a81548160ff0219169083151502179055503480156200002b57600080fd5b50336000806101000a81548173ffffffffffffffffffffffffffffffffffffffff021916908373ffffffffffffffffffffffffffffffffffffffff1602179055506000600360006101000a81548163ffffffff021916908363ffffffff160217905550620001417f494e49545245434f5244000000000000000000000000000000000000000000006000809054906101000a900473ffffffffffffffffffffffffffffffffffffffff167f30303030303000000000000000000000000000000000000000000000000000006040805190810160405280602081526020017f496e697469616c697a6174696f6e205265636f726420666f72206f776e65722e8152506200050d640100000000026401000000009004565b50620001e87f4243440000000000000000000000000000000000000000000000000000000000735a186b7fec36909678211f69beb67ec3b1e4ffbb7f30303030303000000000000000000000000000000000000000000000000000006040805190810160405280601881526020017f20426173655265636f7264466f72204163636f756e74204100000000000000008152506200050d640100000000026401000000009004565b506000600681905550620003016000809054906101000a900473ffffffffffffffffffffffffffffffffffffffff167f4100000000000000000000000000000000000000000000000000000000000000606060405190810160405280602281526020017f4173736f63696174652044656772656520696e204261736b657420576561766981526020017f6e670000000000000000000000000000000000000000000000000000000000008152506040805190810160405280600981526020017f4241202d204172747300000000000000000000000000000000000000000000008152507f3230313830373033000000000000000000000000000000000000000000000000620009dc640100000000026401000000009004565b620004047314723a09acff6d2a60dcdf7aa4aff308fddc160c7f4100000000000000000000000000000000000000000000000000000000000000606060405190810160405280602281526020017f4173736f63696174652044656772656520696e204261736b657420576561766981526020017f6e670000000000000000000000000000000000000000000000000000000000008152506040805190810160405280600981526020017f4241202d204172747300000000000000000000000000000000000000000000008152507f3230313830373033000000000000000000000000000000000000000000000000620009dc640100000000026401000000009004565b62000507734b0897b0513fdc7c541b6d9d7e929c4e5364d2db7f4100000000000000000000000000000000000000000000000000000000000000606060405190810160405280602281526020017f4173736f63696174652044656772656520696e204261736b657420576561766981526020017f6e670000000000000000000000000000000000000000000000000000000000008152506040805190810160405280600981526020017f4241202d204172747300000000000000000000000000000000000000000000008152507f3230313830373033000000000000000000000000000000000000000000000000620009dc640100000000026401000000009004565b620010b6565b60007fd269155c21749744b1d4aa8db9212a1c95a65f3baa13728e9d0cc0b6433b2cea85856040518083600019166000191681526020018273ffffffffffffffffffffffffffffffffffffffff1673ffffffffffffffffffffffffffffffffffffffff16815260200180602001828103825260118152602001807f4e6577204f726720416464202850524529000000000000000000000000000000815250602001935050505060405180910390a16000602060ff16118015620005e7575060008473ffffffffffffffffffffffffffffffffffffffff1614155b8015620005f7575060068060ff16145b801562000605575060008251115b801562000613575060468251105b15156200061f57600080fd5b6004608060405190810160405280876000191681526020018579ffffffffffffffffffffffffffffffffffffffffffffffffffff191681526020018481526020018673ffffffffffffffffffffffffffffffffffffffff16815250908060018154018082558091505090600182039060005260206000209060040201600090919290919091506000820151816000019060001916905560208201518160010160006101000a81548165ffffffffffff02191690837a0100000000000000000000000000000000000000000000000000009004021790555060408201518160020190805190602001906200071492919062001007565b5060608201518160030160006101000a81548173ffffffffffffffffffffffffffffffffffffffff021916908373ffffffffffffffffffffffffffffffffffffffff1602179055505050905060008163ffffffff161115620009635783600160008363ffffffff1663ffffffff16815260200190815260200160002060006101000a81548173ffffffffffffffffffffffffffffffffffffffff021916908373ffffffffffffffffffffffffffffffffffffffff160217905550620007f860018263ffffffff1662000fb66401000000000262002400179091906401000000009004565b600260008673ffffffffffffffffffffffffffffffffffffffff1673ffffffffffffffffffffffffffffffffffffffff16815260200190815260200160002060006101000a81548163ffffffff021916908363ffffffff160217905550620008916001600360009054906101000a900463ffffffff1663ffffffff1662000fdc6401000000000262002425179091906401000000009004565b600360006101000a81548163ffffffff021916908363ffffffff1602179055507fd269155c21749744b1d4aa8db9212a1c95a65f3baa13728e9d0cc0b6433b2cea85856040518083600019166000191681526020018273ffffffffffffffffffffffffffffffffffffffff1673ffffffffffffffffffffffffffffffffffffffff16815260200180602001828103825260158152602001807f4e6577204f726720416464202853554343455353290000000000000000000000815250602001935050505060405180910390a1620009d1565b6040517f08c379a00000000000000000000000000000000000000000000000000000000081526004018080602001828103825260128152602001807f4e6577204f72672041646420284641494c29000000000000000000000000000081525060200191505060405180910390fd5b809050949350505050565b60008060009054906101000a900473ffffffffffffffffffffffffffffffffffffffff1673ffffffffffffffffffffffffffffffffffffffff163373ffffffffffffffffffffffffffffffffffffffff1614151562000a3a57600080fd5b7f22efaf0cb3bd642425e7be86b531b1a553c2d7a83936239ee16e9f7fdb8fa37d8685604051808373ffffffffffffffffffffffffffffffffffffffff1673ffffffffffffffffffffffffffffffffffffffff1681526020018060200180602001838103835284818151815260200191508051906020019080838360005b8381101562000ad557808201518184015260208101905062000ab8565b50505050905090810190601f16801562000b035780820380516001836020036101000a031916815260200191505b508381038252601c8152602001807f4e65772043726564656e7469616c204164642028415454454d5054290000000081525060200194505050505060405180910390a160018060ff1614801562000b5b575060008451115b801562000b69575060468451105b801562000b7857506000835110155b801562000b86575060328351105b151562000b9257600080fd5b600560c0604051908101604052808873ffffffffffffffffffffffffffffffffffffffff168152602001877effffffffffffffffffffffffffffffffffffffffffffffffffffffffffffff191681526020018681526020018581526020018477ffffffffffffffffffffffffffffffffffffffffffffffff19168152602001600115158152509080600181540180825580915050906001820390600052602060002090600402016000909192909190915060008201518160000160006101000a81548173ffffffffffffffffffffffffffffffffffffffff021916908373ffffffffffffffffffffffffffffffffffffffff16021790555060208201518160000160146101000a81548160ff02191690837f010000000000000000000000000000000000000000000000000000000000000090040217905550604082015181600101908051906020019062000ce992919062001007565b50606082015181600201908051906020019062000d0892919062001007565b5060808201518160030160006101000a81548167ffffffffffffffff021916908378010000000000000000000000000000000000000000000000009004021790555060a08201518160030160086101000a81548160ff0219169083151502179055505050905060008110151562000e9d576006600081548092919060010191905055507f22efaf0cb3bd642425e7be86b531b1a553c2d7a83936239ee16e9f7fdb8fa37d8685604051808373ffffffffffffffffffffffffffffffffffffffff1673ffffffffffffffffffffffffffffffffffffffff1681526020018060200180602001838103835284818151815260200191508051906020019080838360005b8381101562000e2657808201518184015260208101905062000e09565b50505050905090810190601f16801562000e545780820380516001836020036101000a031916815260200191505b508381038252601d8152602001807f4e65772043726564656e7469616c20416464202853554343434553532900000081525060200194505050505060405180910390a162000fae565b7f22efaf0cb3bd642425e7be86b531b1a553c2d7a83936239ee16e9f7fdb8fa37d8685604051808373ffffffffffffffffffffffffffffffffffffffff1673ffffffffffffffffffffffffffffffffffffffff1681526020018060200180602001838103835284818151815260200191508051906020019080838360005b8381101562000f3857808201518184015260208101905062000f1b565b50505050905090810190601f16801562000f665780820380516001836020036101000a031916815260200191505b508381038252601b8152602001807f4e65772043726564656e7469616c2041646420284641494c454429000000000081525060200194505050505060405180910390a1600080fd5b505050505050565b60008263ffffffff168263ffffffff161115151562000fd157fe5b818303905092915050565b60008082840190508363ffffffff168163ffffffff161015151562000ffd57fe5b8091505092915050565b828054600181600116156101000203166002900490600052602060002090601f016020900481019282601f106200104a57805160ff19168380011785556200107b565b828001600101855582156200107b579182015b828111156200107a5782518255916020019190600101906200105d565b5b5090506200108a91906200108e565b5090565b620010b391905b80821115620010af57600081600090555060010162001095565b5090565b90565b61252080620010c66000396000f3006080604052600436106100d0576000357c0100000000000000000000000000000000000000000000000000000000900463ffffffff1680633f4ba83a146100d5578063459bdfd9146100ec5780634afab74c1461013157806352e23f891461020f578063554ee0431461023a5780635c975abb146102715780637c973ddc146102a05780638456cb59146102d95780638da5cb5b146102f0578063bd9ca90a14610347578063c9307ff914610476578063d850daa314610576578063e1eaee4214610696578063f2fde38b146106f1575b600080fd5b3480156100e157600080fd5b506100ea610734565b005b3480156100f857600080fd5b50610117600480360381019080803590602001909291905050506107f2565b604051808215151515815260200191505060405180910390f35b34801561013d57600080fd5b506101ed6004803603810190808035600019169060200190929190803573ffffffffffffffffffffffffffffffffffffffff169060200190929190803579ffffffffffffffffffffffffffffffffffffffffffffffffffff19169060200190929190803590602001908201803590602001908080601f0160208091040260200160405190810160405280939291908181526020018383808284378201915050505050509192919290505050610859565b604051808263ffffffff1663ffffffff16815260200191505060405180910390f35b34801561021b57600080fd5b50610224610cff565b6040518082815260200191505060405180910390f35b34801561024657600080fd5b5061024f610d0c565b604051808263ffffffff1663ffffffff16815260200191505060405180910390f35b34801561027d57600080fd5b50610286610d29565b604051808215151515815260200191505060405180910390f35b3480156102ac57600080fd5b506102d760048036038101908080359060200190929190803515159060200190929190505050610d3c565b005b3480156102e557600080fd5b506102ee611238565b005b3480156102fc57600080fd5b506103056112f8565b604051808273ffffffffffffffffffffffffffffffffffffffff1673ffffffffffffffffffffffffffffffffffffffff16815260200191505060405180910390f35b34801561035357600080fd5b50610378600480360381019080803563ffffffff16906020019092919050505061131d565b6040518085600019166000191681526020018479ffffffffffffffffffffffffffffffffffffffffffffffffffff191679ffffffffffffffffffffffffffffffffffffffffffffffffffff19168152602001806020018373ffffffffffffffffffffffffffffffffffffffff1673ffffffffffffffffffffffffffffffffffffffff168152602001828103825284818151815260200191508051906020019080838360005b8381101561043857808201518184015260208101905061041d565b50505050905090810190601f1680156104655780820380516001836020036101000a031916815260200191505b509550505050505060405180910390f35b34801561048257600080fd5b5061057460048036038101908080357effffffffffffffffffffffffffffffffffffffffffffffffffffffffffffff19169060200190929190803590602001908201803590602001908080601f0160208091040260200160405190810160405280939291908181526020018383808284378201915050505050509192919290803590602001908201803590602001908080601f0160208091040260200160405190810160405280939291908181526020018383808284378201915050505050509192919290803577ffffffffffffffffffffffffffffffffffffffffffffffff191690602001909291905050506114ef565b005b34801561058257600080fd5b50610694600480360381019080803573ffffffffffffffffffffffffffffffffffffffff16906020019092919080357effffffffffffffffffffffffffffffffffffffffffffffffffffffffffffff19169060200190929190803590602001908201803590602001908080601f0160208091040260200160405190810160405280939291908181526020018383808284378201915050505050509192919290803590602001908201803590602001908080601f0160208091040260200160405190810160405280939291908181526020018383808284378201915050505050509192919290803577ffffffffffffffffffffffffffffffffffffffffffffffff19169060200190929190505050611b90565b005b3480156106a257600080fd5b506106d7600480360381019080803573ffffffffffffffffffffffffffffffffffffffff169060200190929190505050612155565b604051808215151515815260200191505060405180910390f35b3480156106fd57600080fd5b50610732600480360381019080803573ffffffffffffffffffffffffffffffffffffffff1690602001909291905050506122ab565b005b6000809054906101000a900473ffffffffffffffffffffffffffffffffffffffff1673ffffffffffffffffffffffffffffffffffffffff163373ffffffffffffffffffffffffffffffffffffffff1614151561078f57600080fd5b600060149054906101000a900460ff1615156107aa57600080fd5b60008060146101000a81548160ff0219169083151502179055507f7805862f689e2f13df9f062ff482ad3ad112aca9e0847911ed832e158c525b3360405160405180910390a1565b60008090506000821015151561080757600080fd5b600654821015610851576001151560058381548110151561082457fe5b906000526020600020906004020160030160089054906101000a900460ff161515141561085057600190505b5b809050919050565b60007fd269155c21749744b1d4aa8db9212a1c95a65f3baa13728e9d0cc0b6433b2cea85856040518083600019166000191681526020018273ffffffffffffffffffffffffffffffffffffffff1673ffffffffffffffffffffffffffffffffffffffff16815260200180602001828103825260118152602001807f4e6577204f726720416464202850524529000000000000000000000000000000815250602001935050505060405180910390a16000602060ff16118015610932575060008473ffffffffffffffffffffffffffffffffffffffff1614155b8015610941575060068060ff16145b801561094e575060008251115b801561095b575060468251105b151561096657600080fd5b6004608060405190810160405280876000191681526020018579ffffffffffffffffffffffffffffffffffffffffffffffffffff191681526020018481526020018673ffffffffffffffffffffffffffffffffffffffff16815250908060018154018082558091505090600182039060005260206000209060040201600090919290919091506000820151816000019060001916905560208201518160010160006101000a81548165ffffffffffff02191690837a010000000000000000000000000000000000000000000000000000900402179055506040820151816002019080519060200190610a5992919061244f565b5060608201518160030160006101000a81548173ffffffffffffffffffffffffffffffffffffffff021916908373ffffffffffffffffffffffffffffffffffffffff1602179055505050905060008163ffffffff161115610c865783600160008363ffffffff1663ffffffff16815260200190815260200160002060006101000a81548173ffffffffffffffffffffffffffffffffffffffff021916908373ffffffffffffffffffffffffffffffffffffffff160217905550610b2c60018263ffffffff1661240090919063ffffffff16565b600260008673ffffffffffffffffffffffffffffffffffffffff1673ffffffffffffffffffffffffffffffffffffffff16815260200190815260200160002060006101000a81548163ffffffff021916908363ffffffff160217905550610bb56001600360009054906101000a900463ffffffff1663ffffffff1661242590919063ffffffff16565b600360006101000a81548163ffffffff021916908363ffffffff1602179055507fd269155c21749744b1d4aa8db9212a1c95a65f3baa13728e9d0cc0b6433b2cea85856040518083600019166000191681526020018273ffffffffffffffffffffffffffffffffffffffff1673ffffffffffffffffffffffffffffffffffffffff16815260200180602001828103825260158152602001807f4e6577204f726720416464202853554343455353290000000000000000000000815250602001935050505060405180910390a1610cf4565b6040517f08c379a00000000000000000000000000000000000000000000000000000000081526004018080602001828103825260128152602001807f4e6577204f72672041646420284641494c29000000000000000000000000000081525060200191505060405180910390fd5b809050949350505050565b6000600654905080905090565b6000600360009054906101000a900463ffffffff16905080905090565b600060149054906101000a900460ff1681565b3360008060009150600090505b600360009054906101000a900463ffffffff1663ffffffff168163ffffffff161015610df457600160008263ffffffff1663ffffffff16815260200190815260200160002060009054906101000a900473ffffffffffffffffffffffffffffffffffffffff1673ffffffffffffffffffffffffffffffffffffffff163373ffffffffffffffffffffffffffffffffffffffff161415610de757600191505b8080600101915050610d49565b60008263ffffffff161415610e71576040517f08c379a000000000000000000000000000000000000000000000000000000000815260040180806020018281038252600e8152602001807f4e6f7420417574686f72697a656400000000000000000000000000000000000081525060200191505060405180910390fd5b60008510158015610eed57503373ffffffffffffffffffffffffffffffffffffffff16600586815481101515610ea357fe5b906000526020600020906004020160000160009054906101000a900473ffffffffffffffffffffffffffffffffffffffff1673ffffffffffffffffffffffffffffffffffffffff16145b8015610f0c5750600115158415151480610f0b575060001515841515145b5b1515610f1757600080fd5b83600586815481101515610f2757fe5b906000526020600020906004020160030160086101000a81548160ff02191690831515021790555083156110c5577f22efaf0cb3bd642425e7be86b531b1a553c2d7a83936239ee16e9f7fdb8fa37d33600587815481101515610f8657fe5b9060005260206000209060040201600101604051808373ffffffffffffffffffffffffffffffffffffffff1673ffffffffffffffffffffffffffffffffffffffff16815260200180602001806020018381038352848181546001816001161561010002031660029004815260200191508054600181600116156101000203166002900480156110565780601f1061102b57610100808354040283529160200191611056565b820191906000526020600020905b81548152906001019060200180831161103957829003601f168201915b5050838103825260248152602001807f53657443726564656e7469616c4973416374697665202d20285365742041637481526020017f697665290000000000000000000000000000000000000000000000000000000081525060400194505050505060405180910390a1611231565b7f22efaf0cb3bd642425e7be86b531b1a553c2d7a83936239ee16e9f7fdb8fa37d336005878154811015156110f657fe5b9060005260206000209060040201600101604051808373ffffffffffffffffffffffffffffffffffffffff1673ffffffffffffffffffffffffffffffffffffffff16815260200180602001806020018381038352848181546001816001161561010002031660029004815260200191508054600181600116156101000203166002900480156111c65780601f1061119b576101008083540402835291602001916111c6565b820191906000526020600020905b8154815290600101906020018083116111a957829003601f168201915b5050838103825260268152602001807f53657443726564656e7469616c4973416374697665202d202853657420496e6181526020017f637469766529000000000000000000000000000000000000000000000000000081525060400194505050505060405180910390a15b5050505050565b6000809054906101000a900473ffffffffffffffffffffffffffffffffffffffff1673ffffffffffffffffffffffffffffffffffffffff163373ffffffffffffffffffffffffffffffffffffffff1614151561129357600080fd5b600060149054906101000a900460ff161515156112af57600080fd5b6001600060146101000a81548160ff0219169083151502179055507f6985a02210a168e66602d3235cb6db0e70f92b3ba4d376a33c0f3d9434bff62560405160405180910390a1565b6000809054906101000a900473ffffffffffffffffffffffffffffffffffffffff1681565b60008060606000808563ffffffff16101580156113575750600360009054906101000a900463ffffffff1663ffffffff168563ffffffff16105b151561136257600080fd5b60048563ffffffff1681548110151561137757fe5b90600052602060002090600402016000015460048663ffffffff1681548110151561139e57fe5b906000526020600020906004020160010160009054906101000a90047a0100000000000000000000000000000000000000000000000000000260048763ffffffff168154811015156113ec57fe5b906000526020600020906004020160020160048863ffffffff1681548110151561141257fe5b906000526020600020906004020160030160009054906101000a900473ffffffffffffffffffffffffffffffffffffffff16818054600181600116156101000203166002900480601f0160208091040260200160405190810160405280929190818152602001828054600181600116156101000203166002900480156114d95780601f106114ae576101008083540402835291602001916114d9565b820191906000526020600020905b8154815290600101906020018083116114bc57829003601f168201915b5050505050915093509350935093509193509193565b60003360008060009150600090505b600360009054906101000a900463ffffffff1663ffffffff168163ffffffff1610156115a957600160008263ffffffff1663ffffffff16815260200190815260200160002060009054906101000a900473ffffffffffffffffffffffffffffffffffffffff1673ffffffffffffffffffffffffffffffffffffffff163373ffffffffffffffffffffffffffffffffffffffff16141561159c57600191505b80806001019150506114fe565b60008263ffffffff161415611626576040517f08c379a000000000000000000000000000000000000000000000000000000000815260040180806020018281038252600e8152602001807f4e6f7420417574686f72697a656400000000000000000000000000000000000081525060200191505060405180910390fd5b7f22efaf0cb3bd642425e7be86b531b1a553c2d7a83936239ee16e9f7fdb8fa37d3388604051808373ffffffffffffffffffffffffffffffffffffffff1673ffffffffffffffffffffffffffffffffffffffff1681526020018060200180602001838103835284818151815260200191508051906020019080838360005b838110156116bf5780820151818401526020810190506116a4565b50505050905090810190601f1680156116ec5780820380516001836020036101000a031916815260200191505b508381038252601c8152602001807f4e65772043726564656e7469616c204164642028415454454d5054290000000081525060200194505050505060405180910390a160018060ff16148015611743575060008751115b8015611750575060468751105b801561175e57506000865110155b801561176b575060328651105b151561177657600080fd5b600560c0604051908101604052803373ffffffffffffffffffffffffffffffffffffffff1681526020018a7effffffffffffffffffffffffffffffffffffffffffffffffffffffffffffff191681526020018981526020018881526020018777ffffffffffffffffffffffffffffffffffffffffffffffff19168152602001600115158152509080600181540180825580915050906001820390600052602060002090600402016000909192909190915060008201518160000160006101000a81548173ffffffffffffffffffffffffffffffffffffffff021916908373ffffffffffffffffffffffffffffffffffffffff16021790555060208201518160000160146101000a81548160ff02191690837f01000000000000000000000000000000000000000000000000000000000000009004021790555060408201518160010190805190602001906118cb92919061244f565b5060608201518160020190805190602001906118e892919061244f565b5060808201518160030160006101000a81548167ffffffffffffffff021916908378010000000000000000000000000000000000000000000000009004021790555060a08201518160030160086101000a81548160ff02191690831515021790555050509350600084101515611a78576006600081548092919060010191905055507f22efaf0cb3bd642425e7be86b531b1a553c2d7a83936239ee16e9f7fdb8fa37d3388604051808373ffffffffffffffffffffffffffffffffffffffff1673ffffffffffffffffffffffffffffffffffffffff1681526020018060200180602001838103835284818151815260200191508051906020019080838360005b83811015611a035780820151818401526020810190506119e8565b50505050905090810190601f168015611a305780820380516001836020036101000a031916815260200191505b508381038252601d8152602001807f4e65772043726564656e7469616c20416464202853554343434553532900000081525060200194505050505060405180910390a1611b86565b7f22efaf0cb3bd642425e7be86b531b1a553c2d7a83936239ee16e9f7fdb8fa37d3388604051808373ffffffffffffffffffffffffffffffffffffffff1673ffffffffffffffffffffffffffffffffffffffff1681526020018060200180602001838103835284818151815260200191508051906020019080838360005b83811015611b11578082015181840152602081019050611af6565b50505050905090810190601f168015611b3e5780820380516001836020036101000a031916815260200191505b508381038252601b8152602001807f4e65772043726564656e7469616c2041646420284641494c454429000000000081525060200194505050505060405180910390a1600080fd5b5050505050505050565b60008060009054906101000a900473ffffffffffffffffffffffffffffffffffffffff1673ffffffffffffffffffffffffffffffffffffffff163373ffffffffffffffffffffffffffffffffffffffff16141515611bed57600080fd5b7f22efaf0cb3bd642425e7be86b531b1a553c2d7a83936239ee16e9f7fdb8fa37d8685604051808373ffffffffffffffffffffffffffffffffffffffff1673ffffffffffffffffffffffffffffffffffffffff1681526020018060200180602001838103835284818151815260200191508051906020019080838360005b83811015611c86578082015181840152602081019050611c6b565b50505050905090810190601f168015611cb35780820380516001836020036101000a031916815260200191505b508381038252601c8152602001807f4e65772043726564656e7469616c204164642028415454454d5054290000000081525060200194505050505060405180910390a160018060ff16148015611d0a575060008451115b8015611d17575060468451105b8015611d2557506000835110155b8015611d32575060328351105b1515611d3d57600080fd5b600560c0604051908101604052808873ffffffffffffffffffffffffffffffffffffffff168152602001877effffffffffffffffffffffffffffffffffffffffffffffffffffffffffffff191681526020018681526020018581526020018477ffffffffffffffffffffffffffffffffffffffffffffffff19168152602001600115158152509080600181540180825580915050906001820390600052602060002090600402016000909192909190915060008201518160000160006101000a81548173ffffffffffffffffffffffffffffffffffffffff021916908373ffffffffffffffffffffffffffffffffffffffff16021790555060208201518160000160146101000a81548160ff02191690837f0100000000000000000000000000000000000000000000000000000000000000900402179055506040820151816001019080519060200190611e9292919061244f565b506060820151816002019080519060200190611eaf92919061244f565b5060808201518160030160006101000a81548167ffffffffffffffff021916908378010000000000000000000000000000000000000000000000009004021790555060a08201518160030160086101000a81548160ff0219169083151502179055505050905060008110151561203f576006600081548092919060010191905055507f22efaf0cb3bd642425e7be86b531b1a553c2d7a83936239ee16e9f7fdb8fa37d8685604051808373ffffffffffffffffffffffffffffffffffffffff1673ffffffffffffffffffffffffffffffffffffffff1681526020018060200180602001838103835284818151815260200191508051906020019080838360005b83811015611fca578082015181840152602081019050611faf565b50505050905090810190601f168015611ff75780820380516001836020036101000a031916815260200191505b508381038252601d8152602001807f4e65772043726564656e7469616c20416464202853554343434553532900000081525060200194505050505060405180910390a161214d565b7f22efaf0cb3bd642425e7be86b531b1a553c2d7a83936239ee16e9f7fdb8fa37d8685604051808373ffffffffffffffffffffffffffffffffffffffff1673ffffffffffffffffffffffffffffffffffffffff1681526020018060200180602001838103835284818151815260200191508051906020019080838360005b838110156120d85780820151818401526020810190506120bd565b50505050905090810190601f1680156121055780820380516001836020036101000a031916815260200191505b508381038252601b8152602001807f4e65772043726564656e7469616c2041646420284641494c454429000000000081525060200194505050505060405180910390a1600080fd5b505050505050565b6000806000915060008373ffffffffffffffffffffffffffffffffffffffff16141515156121eb576040517f08c379a00000000000000000000000000000000000000000000000000000000081526004018080602001828103825260188152602001807f5a65726f2041646472657373204e6f7420416c6c6f776564000000000000000081525060200191505060405180910390fd5b600090505b600360009054906101000a900463ffffffff1663ffffffff168163ffffffff1610156122a2578273ffffffffffffffffffffffffffffffffffffffff1660048263ffffffff1681548110151561224257fe5b906000526020600020906004020160030160009054906101000a900473ffffffffffffffffffffffffffffffffffffffff1673ffffffffffffffffffffffffffffffffffffffff16141561229557600191505b80806001019150506121f0565b81915050919050565b6000809054906101000a900473ffffffffffffffffffffffffffffffffffffffff1673ffffffffffffffffffffffffffffffffffffffff163373ffffffffffffffffffffffffffffffffffffffff1614151561230657600080fd5b600073ffffffffffffffffffffffffffffffffffffffff168173ffffffffffffffffffffffffffffffffffffffff161415151561234257600080fd5b8073ffffffffffffffffffffffffffffffffffffffff166000809054906101000a900473ffffffffffffffffffffffffffffffffffffffff1673ffffffffffffffffffffffffffffffffffffffff167f8be0079c531659141344cd1fd0a4f28419497f9722a3daafe3b4186f6b6457e060405160405180910390a3806000806101000a81548173ffffffffffffffffffffffffffffffffffffffff021916908373ffffffffffffffffffffffffffffffffffffffff16021790555050565b60008263ffffffff168263ffffffff161115151561241a57fe5b818303905092915050565b60008082840190508363ffffffff168163ffffffff161015151561244557fe5b8091505092915050565b828054600181600116156101000203166002900490600052602060002090601f016020900481019282601f1061249057805160ff19168380011785556124be565b828001600101855582156124be579182015b828111156124bd5782518255916020019190600101906124a2565b5b5090506124cb91906124cf565b5090565b6124f191905b808211156124ed5760008160009055506001016124d5565b5090565b905600a165627a7a723058209f2f7ebc2ca2e96b5231327d8d67e23c86f11d21589c0a746fa8d286ca0f5ce60029",
  "source": "pragma solidity ^0.4.21;\r\nimport \"./CredentialOrgFactory.sol\";\r\n/**\r\n * @title CredentialFactory\r\n * @dev The CredentialFactory allows the credentialOrgs to add/lookup credentials\r\n */\r\ncontract CredentialFactory is CredentialOrgFactory{\r\n    \r\n    // events\r\n    event CredentialFactoryActivity(address credentialOrg, string credentialTitle, string detail);\r\n\r\n    // structs\r\n    struct Credential {\r\n        address credentialOrg;      // CredentialOwnerAddress\r\n        bytes1 credentialLevel;     // single byte string \r\n        string credentialTitle;     // 70 or less string\r\n        string credentialDivision;  // 50 or less string\r\n        bytes8 credentialInsertDate;// Credential InsertDate YYYYMMDD\r\n        bool isActive;              // is CredentialActive for use\r\n    }\r\n    Credential[] private credentials;\r\n    uint256 private credentialCount;\r\n    \r\n    // constructor\r\n    constructor () public {\r\n        credentialCount=0;\r\n        createCredentialByOwner(owner, \"A\", \"Associate Degree in Basket Weaving\", \"BA - Arts\", \"20180703\");\r\n        createCredentialByOwner(0x14723A09ACff6D2A60DcdF7aA4AFf308FDDC160C, \"A\", \"Associate Degree in Basket Weaving\", \"BA - Arts\", \"20180703\");\r\n        createCredentialByOwner(0x4B0897b0513fdC7C541B6d9D7E929C4e5364D2dB, \"A\", \"Associate Degree in Basket Weaving\", \"BA - Arts\", \"20180703\");\r\n    }\r\n    \r\n    // functions\r\n    /**\r\n    * @dev allows credentialing Orgs to create new credentials\r\n    * @param _credentialLevel Credential Level\r\n    * @param _credentialTitle CredentialTitle\r\n    * @param _credentialDivision Credential Division\r\n    * @param _insertDate Credential InsertDate (YYYYMMDD)\r\n    */\r\n    function createCredential(bytes1 _credentialLevel, string _credentialTitle, string _credentialDivision, bytes8 _insertDate) \r\n    public onlyBy(msg.sender)\r\n    {\r\n        emit CredentialFactoryActivity(msg.sender, _credentialTitle, \"New Credential Add (ATTEMPT)\");\r\n        require(_credentialLevel.length == 1 && bytes(_credentialTitle).length > 0 && bytes(_credentialTitle).length < 70 && bytes(_credentialDivision).length >= 0 && bytes(_credentialDivision).length < 50);\r\n        uint position = credentials.push(Credential(msg.sender, _credentialLevel, _credentialTitle, _credentialDivision, _insertDate, true));\r\n        if(position >= 0){\r\n            credentialCount++;\r\n            emit CredentialFactoryActivity(msg.sender, _credentialTitle, \"New Credential Add (SUCCCESS)\");\r\n        } else {\r\n            emit CredentialFactoryActivity(msg.sender, _credentialTitle, \"New Credential Add (FAILED)\");\r\n            revert();\r\n        }\r\n    }\r\n\r\n    /**\r\n    * @dev allows owner to create new credentials\r\n    * @param _credentialLevel Credential Level\r\n    * @param _credentialTitle CredentialTitle\r\n    * @param _credentialDivision Credential Division\r\n    * @param _insertDate Credential InsertDate (YYYYMMDD)\r\n    */\r\n    function createCredentialByOwner(address _credentialOrg, bytes1 _credentialLevel, string _credentialTitle, string _credentialDivision, bytes8 _insertDate) \r\n    public onlyOwner\r\n    {\r\n        emit CredentialFactoryActivity(_credentialOrg, _credentialTitle, \"New Credential Add (ATTEMPT)\");\r\n        require(_credentialLevel.length == 1 && bytes(_credentialTitle).length > 0 && bytes(_credentialTitle).length < 70 && bytes(_credentialDivision).length >= 0 && bytes(_credentialDivision).length < 50);\r\n        uint position = credentials.push(Credential(_credentialOrg, _credentialLevel, _credentialTitle, _credentialDivision, _insertDate, true));\r\n        if(position >= 0){\r\n            credentialCount++;\r\n            emit CredentialFactoryActivity(_credentialOrg, _credentialTitle, \"New Credential Add (SUCCCESS)\");\r\n        } else {\r\n            emit CredentialFactoryActivity(_credentialOrg, _credentialTitle, \"New Credential Add (FAILED)\");\r\n            revert();\r\n        }\r\n    }\r\n\r\n    /**\r\n    * @dev allows setting credential active or inactive\r\n    * @param _position Credential position in array\r\n    * @param _isActive bool value for set.\r\n    */\r\n    function setCredentialInactiveFlag(uint _position, bool _isActive)\r\n    public onlyBy(msg.sender)\r\n    {\r\n        require(_position >= 0 && credentials[_position].credentialOrg == msg.sender && (_isActive == true || _isActive == false));\r\n        credentials[_position].isActive = _isActive;\r\n        if (_isActive){\r\n            emit CredentialFactoryActivity(msg.sender, credentials[_position].credentialTitle, \"SetCredentialIsActive - (Set Active)\");\r\n        } else {\r\n            emit CredentialFactoryActivity(msg.sender, credentials[_position].credentialTitle, \"SetCredentialIsActive - (Set Inactive)\");\r\n        }\r\n    }\r\n\r\n    /**\r\n    * @dev allows checking of CredentialCount\r\n    */\r\n    function SelectCredentialCount()\r\n    public view\r\n    returns (uint256 returnCredentialCount)\r\n    {\r\n        returnCredentialCount = credentialCount;\r\n        return (returnCredentialCount);\r\n    }\r\n\r\n    /**\r\n    * @dev allows checking of isActive flag for credential\r\n    * @param _position Credential position in array\r\n    */\r\n    function isCredentialActive(uint _position)\r\n    public view\r\n    returns (bool activeState)\r\n    {\r\n        activeState = false;\r\n        require(_position >= 0);\r\n        if (_position < credentialCount){\r\n            if (credentials[_position].isActive == true){\r\n                activeState = true;\r\n            }\r\n        }\r\n        return (activeState);\r\n    }\r\n}",
  "sourcePath": "E:\\Projects\\CredentialVerify\\contracts\\CredentialFactory.sol",
  "compiler": {
    "name": "solc",
    "version": "0.4.24+commit.e67f0147.Emscripten.clang"
  },
  "schemaVersion": "2.0.1",
  "updatedAt": "2018-08-06T03:07:55.003Z"
}