{
  "contractName": "CredentialOrgFactory",
  "abi": [
    {
      "constant": false,
      "inputs": [],
      "name": "unpause",
      "outputs": [],
      "payable": false,
      "stateMutability": "nonpayable",
      "type": "function"
    },
    {
      "constant": true,
      "inputs": [],
      "name": "paused",
      "outputs": [
        {
          "name": "",
          "type": "bool"
        }
      ],
      "payable": false,
      "stateMutability": "view",
      "type": "function"
    },
    {
      "constant": false,
      "inputs": [],
      "name": "pause",
      "outputs": [],
      "payable": false,
      "stateMutability": "nonpayable",
      "type": "function"
    },
    {
      "constant": true,
      "inputs": [],
      "name": "owner",
      "outputs": [
        {
          "name": "",
          "type": "address"
        }
      ],
      "payable": false,
      "stateMutability": "view",
      "type": "function"
    },
    {
      "constant": false,
      "inputs": [
        {
          "name": "newOwner",
          "type": "address"
        }
      ],
      "name": "transferOwnership",
      "outputs": [],
      "payable": false,
      "stateMutability": "nonpayable",
      "type": "function"
    },
    {
      "inputs": [],
      "payable": false,
      "stateMutability": "nonpayable",
      "type": "constructor"
    },
    {
      "anonymous": false,
      "inputs": [
        {
          "indexed": false,
          "name": "shortName",
          "type": "bytes32"
        },
        {
          "indexed": false,
          "name": "schoolAddress",
          "type": "address"
        },
        {
          "indexed": false,
          "name": "detail",
          "type": "string"
        }
      ],
      "name": "NewOrgAdd",
      "type": "event"
    },
    {
      "anonymous": false,
      "inputs": [],
      "name": "Pause",
      "type": "event"
    },
    {
      "anonymous": false,
      "inputs": [],
      "name": "Unpause",
      "type": "event"
    },
    {
      "anonymous": false,
      "inputs": [
        {
          "indexed": true,
          "name": "previousOwner",
          "type": "address"
        },
        {
          "indexed": true,
          "name": "newOwner",
          "type": "address"
        }
      ],
      "name": "OwnershipTransferred",
      "type": "event"
    },
    {
      "constant": false,
      "inputs": [
        {
          "name": "_shortName",
          "type": "bytes32"
        },
        {
          "name": "_schoolAddress",
          "type": "address"
        },
        {
          "name": "_schoolCode",
          "type": "bytes6"
        },
        {
          "name": "_officialSchoolName",
          "type": "string"
        }
      ],
      "name": "createCredentialOrg",
      "outputs": [
        {
          "name": "position",
          "type": "uint32"
        }
      ],
      "payable": false,
      "stateMutability": "nonpayable",
      "type": "function"
    },
    {
      "constant": true,
      "inputs": [
        {
          "name": "_credentialOrgPosition",
          "type": "uint32"
        }
      ],
      "name": "selectCredentialOrg",
      "outputs": [
        {
          "name": "shortName",
          "type": "bytes32"
        },
        {
          "name": "schoolCode",
          "type": "bytes6"
        },
        {
          "name": "officialSchoolName",
          "type": "string"
        },
        {
          "name": "schoolAddress",
          "type": "address"
        }
      ],
      "payable": false,
      "stateMutability": "view",
      "type": "function"
    },
    {
      "constant": true,
      "inputs": [
        {
          "name": "_credentialOrgAddress",
          "type": "address"
        }
      ],
      "name": "isCredentialOrg",
      "outputs": [
        {
          "name": "IsOrgAddress",
          "type": "bool"
        }
      ],
      "payable": false,
      "stateMutability": "view",
      "type": "function"
    },
    {
      "constant": true,
      "inputs": [],
      "name": "selectOrgCount",
      "outputs": [
        {
          "name": "returnOrgCount",
          "type": "uint32"
        }
      ],
      "payable": false,
      "stateMutability": "view",
      "type": "function"
    }
  ],
  "bytecode": "0x608060405260008060146101000a81548160ff0219169083151502179055503480156200002b57600080fd5b50336000806101000a81548173ffffffffffffffffffffffffffffffffffffffff021916908373ffffffffffffffffffffffffffffffffffffffff1602179055506000600360006101000a81548163ffffffff021916908363ffffffff160217905550620001417f494e49545245434f5244000000000000000000000000000000000000000000006000809054906101000a900473ffffffffffffffffffffffffffffffffffffffff167f30303030303000000000000000000000000000000000000000000000000000006040805190810160405280602081526020017f496e697469616c697a6174696f6e205265636f726420666f72206f776e65722e815250620001ef640100000000026401000000009004565b50620001e87f4243440000000000000000000000000000000000000000000000000000000000735a186b7fec36909678211f69beb67ec3b1e4ffbb7f30303030303000000000000000000000000000000000000000000000000000006040805190810160405280601881526020017f20426173655265636f7264466f72204163636f756e7420410000000000000000815250620001ef640100000000026401000000009004565b50620007be565b60007fd269155c21749744b1d4aa8db9212a1c95a65f3baa13728e9d0cc0b6433b2cea85856040518083600019166000191681526020018273ffffffffffffffffffffffffffffffffffffffff1673ffffffffffffffffffffffffffffffffffffffff16815260200180602001828103825260118152602001807f4e6577204f726720416464202850524529000000000000000000000000000000815250602001935050505060405180910390a16000602060ff16118015620002c9575060008473ffffffffffffffffffffffffffffffffffffffff1614155b8015620002d9575060068060ff16145b8015620002e7575060008251115b8015620002f5575060468251105b15156200030157600080fd5b6004608060405190810160405280876000191681526020018579ffffffffffffffffffffffffffffffffffffffffffffffffffff191681526020018481526020018673ffffffffffffffffffffffffffffffffffffffff16815250908060018154018082558091505090600182039060005260206000209060040201600090919290919091506000820151816000019060001916905560208201518160010160006101000a81548165ffffffffffff02191690837a010000000000000000000000000000000000000000000000000000900402179055506040820151816002019080519060200190620003f69291906200070f565b5060608201518160030160006101000a81548173ffffffffffffffffffffffffffffffffffffffff021916908373ffffffffffffffffffffffffffffffffffffffff1602179055505050905060008163ffffffff161115620006455783600160008363ffffffff1663ffffffff16815260200190815260200160002060006101000a81548173ffffffffffffffffffffffffffffffffffffffff021916908373ffffffffffffffffffffffffffffffffffffffff160217905550620004da60018263ffffffff16620006be6401000000000262000f2a179091906401000000009004565b600260008673ffffffffffffffffffffffffffffffffffffffff1673ffffffffffffffffffffffffffffffffffffffff16815260200190815260200160002060006101000a81548163ffffffff021916908363ffffffff160217905550620005736001600360009054906101000a900463ffffffff1663ffffffff16620006e46401000000000262000f4f179091906401000000009004565b600360006101000a81548163ffffffff021916908363ffffffff1602179055507fd269155c21749744b1d4aa8db9212a1c95a65f3baa13728e9d0cc0b6433b2cea85856040518083600019166000191681526020018273ffffffffffffffffffffffffffffffffffffffff1673ffffffffffffffffffffffffffffffffffffffff16815260200180602001828103825260158152602001807f4e6577204f726720416464202853554343455353290000000000000000000000815250602001935050505060405180910390a1620006b3565b6040517f08c379a00000000000000000000000000000000000000000000000000000000081526004018080602001828103825260128152602001807f4e6577204f72672041646420284641494c29000000000000000000000000000081525060200191505060405180910390fd5b809050949350505050565b60008263ffffffff168263ffffffff1611151515620006d957fe5b818303905092915050565b60008082840190508363ffffffff168163ffffffff16101515156200070557fe5b8091505092915050565b828054600181600116156101000203166002900490600052602060002090601f016020900481019282601f106200075257805160ff191683800117855562000783565b8280016001018555821562000783579182015b828111156200078257825182559160200191906001019062000765565b5b50905062000792919062000796565b5090565b620007bb91905b80821115620007b75760008160009055506001016200079d565b5090565b90565b61104a80620007ce6000396000f300608060405260043610610099576000357c0100000000000000000000000000000000000000000000000000000000900463ffffffff1680633f4ba83a1461009e5780634afab74c146100b5578063554ee043146101935780635c975abb146101ca5780638456cb59146101f95780638da5cb5b14610210578063bd9ca90a14610267578063e1eaee4214610396578063f2fde38b146103f1575b600080fd5b3480156100aa57600080fd5b506100b3610434565b005b3480156100c157600080fd5b506101716004803603810190808035600019169060200190929190803573ffffffffffffffffffffffffffffffffffffffff169060200190929190803579ffffffffffffffffffffffffffffffffffffffffffffffffffff19169060200190929190803590602001908201803590602001908080601f01602080910402602001604051908101604052809392919081815260200183838082843782019150505050505091929192905050506104f2565b604051808263ffffffff1663ffffffff16815260200191505060405180910390f35b34801561019f57600080fd5b506101a8610998565b604051808263ffffffff1663ffffffff16815260200191505060405180910390f35b3480156101d657600080fd5b506101df6109b5565b604051808215151515815260200191505060405180910390f35b34801561020557600080fd5b5061020e6109c8565b005b34801561021c57600080fd5b50610225610a88565b604051808273ffffffffffffffffffffffffffffffffffffffff1673ffffffffffffffffffffffffffffffffffffffff16815260200191505060405180910390f35b34801561027357600080fd5b50610298600480360381019080803563ffffffff169060200190929190505050610aad565b6040518085600019166000191681526020018479ffffffffffffffffffffffffffffffffffffffffffffffffffff191679ffffffffffffffffffffffffffffffffffffffffffffffffffff19168152602001806020018373ffffffffffffffffffffffffffffffffffffffff1673ffffffffffffffffffffffffffffffffffffffff168152602001828103825284818151815260200191508051906020019080838360005b8381101561035857808201518184015260208101905061033d565b50505050905090810190601f1680156103855780820380516001836020036101000a031916815260200191505b509550505050505060405180910390f35b3480156103a257600080fd5b506103d7600480360381019080803573ffffffffffffffffffffffffffffffffffffffff169060200190929190505050610c7f565b604051808215151515815260200191505060405180910390f35b3480156103fd57600080fd5b50610432600480360381019080803573ffffffffffffffffffffffffffffffffffffffff169060200190929190505050610dd5565b005b6000809054906101000a900473ffffffffffffffffffffffffffffffffffffffff1673ffffffffffffffffffffffffffffffffffffffff163373ffffffffffffffffffffffffffffffffffffffff1614151561048f57600080fd5b600060149054906101000a900460ff1615156104aa57600080fd5b60008060146101000a81548160ff0219169083151502179055507f7805862f689e2f13df9f062ff482ad3ad112aca9e0847911ed832e158c525b3360405160405180910390a1565b60007fd269155c21749744b1d4aa8db9212a1c95a65f3baa13728e9d0cc0b6433b2cea85856040518083600019166000191681526020018273ffffffffffffffffffffffffffffffffffffffff1673ffffffffffffffffffffffffffffffffffffffff16815260200180602001828103825260118152602001807f4e6577204f726720416464202850524529000000000000000000000000000000815250602001935050505060405180910390a16000602060ff161180156105cb575060008473ffffffffffffffffffffffffffffffffffffffff1614155b80156105da575060068060ff16145b80156105e7575060008251115b80156105f4575060468251105b15156105ff57600080fd5b6004608060405190810160405280876000191681526020018579ffffffffffffffffffffffffffffffffffffffffffffffffffff191681526020018481526020018673ffffffffffffffffffffffffffffffffffffffff16815250908060018154018082558091505090600182039060005260206000209060040201600090919290919091506000820151816000019060001916905560208201518160010160006101000a81548165ffffffffffff02191690837a0100000000000000000000000000000000000000000000000000009004021790555060408201518160020190805190602001906106f2929190610f79565b5060608201518160030160006101000a81548173ffffffffffffffffffffffffffffffffffffffff021916908373ffffffffffffffffffffffffffffffffffffffff1602179055505050905060008163ffffffff16111561091f5783600160008363ffffffff1663ffffffff16815260200190815260200160002060006101000a81548173ffffffffffffffffffffffffffffffffffffffff021916908373ffffffffffffffffffffffffffffffffffffffff1602179055506107c560018263ffffffff16610f2a90919063ffffffff16565b600260008673ffffffffffffffffffffffffffffffffffffffff1673ffffffffffffffffffffffffffffffffffffffff16815260200190815260200160002060006101000a81548163ffffffff021916908363ffffffff16021790555061084e6001600360009054906101000a900463ffffffff1663ffffffff16610f4f90919063ffffffff16565b600360006101000a81548163ffffffff021916908363ffffffff1602179055507fd269155c21749744b1d4aa8db9212a1c95a65f3baa13728e9d0cc0b6433b2cea85856040518083600019166000191681526020018273ffffffffffffffffffffffffffffffffffffffff1673ffffffffffffffffffffffffffffffffffffffff16815260200180602001828103825260158152602001807f4e6577204f726720416464202853554343455353290000000000000000000000815250602001935050505060405180910390a161098d565b6040517f08c379a00000000000000000000000000000000000000000000000000000000081526004018080602001828103825260128152602001807f4e6577204f72672041646420284641494c29000000000000000000000000000081525060200191505060405180910390fd5b809050949350505050565b6000600360009054906101000a900463ffffffff16905080905090565b600060149054906101000a900460ff1681565b6000809054906101000a900473ffffffffffffffffffffffffffffffffffffffff1673ffffffffffffffffffffffffffffffffffffffff163373ffffffffffffffffffffffffffffffffffffffff16141515610a2357600080fd5b600060149054906101000a900460ff16151515610a3f57600080fd5b6001600060146101000a81548160ff0219169083151502179055507f6985a02210a168e66602d3235cb6db0e70f92b3ba4d376a33c0f3d9434bff62560405160405180910390a1565b6000809054906101000a900473ffffffffffffffffffffffffffffffffffffffff1681565b60008060606000808563ffffffff1610158015610ae75750600360009054906101000a900463ffffffff1663ffffffff168563ffffffff16105b1515610af257600080fd5b60048563ffffffff16815481101515610b0757fe5b90600052602060002090600402016000015460048663ffffffff16815481101515610b2e57fe5b906000526020600020906004020160010160009054906101000a90047a0100000000000000000000000000000000000000000000000000000260048763ffffffff16815481101515610b7c57fe5b906000526020600020906004020160020160048863ffffffff16815481101515610ba257fe5b906000526020600020906004020160030160009054906101000a900473ffffffffffffffffffffffffffffffffffffffff16818054600181600116156101000203166002900480601f016020809104026020016040519081016040528092919081815260200182805460018160011615610100020316600290048015610c695780601f10610c3e57610100808354040283529160200191610c69565b820191906000526020600020905b815481529060010190602001808311610c4c57829003601f168201915b5050505050915093509350935093509193509193565b6000806000915060008373ffffffffffffffffffffffffffffffffffffffff1614151515610d15576040517f08c379a00000000000000000000000000000000000000000000000000000000081526004018080602001828103825260188152602001807f5a65726f2041646472657373204e6f7420416c6c6f776564000000000000000081525060200191505060405180910390fd5b600090505b600360009054906101000a900463ffffffff1663ffffffff168163ffffffff161015610dcc578273ffffffffffffffffffffffffffffffffffffffff1660048263ffffffff16815481101515610d6c57fe5b906000526020600020906004020160030160009054906101000a900473ffffffffffffffffffffffffffffffffffffffff1673ffffffffffffffffffffffffffffffffffffffff161415610dbf57600191505b8080600101915050610d1a565b81915050919050565b6000809054906101000a900473ffffffffffffffffffffffffffffffffffffffff1673ffffffffffffffffffffffffffffffffffffffff163373ffffffffffffffffffffffffffffffffffffffff16141515610e3057600080fd5b600073ffffffffffffffffffffffffffffffffffffffff168173ffffffffffffffffffffffffffffffffffffffff1614151515610e6c57600080fd5b8073ffffffffffffffffffffffffffffffffffffffff166000809054906101000a900473ffffffffffffffffffffffffffffffffffffffff1673ffffffffffffffffffffffffffffffffffffffff167f8be0079c531659141344cd1fd0a4f28419497f9722a3daafe3b4186f6b6457e060405160405180910390a3806000806101000a81548173ffffffffffffffffffffffffffffffffffffffff021916908373ffffffffffffffffffffffffffffffffffffffff16021790555050565b60008263ffffffff168263ffffffff1611151515610f4457fe5b818303905092915050565b60008082840190508363ffffffff168163ffffffff1610151515610f6f57fe5b8091505092915050565b828054600181600116156101000203166002900490600052602060002090601f016020900481019282601f10610fba57805160ff1916838001178555610fe8565b82800160010185558215610fe8579182015b82811115610fe7578251825591602001919060010190610fcc565b5b509050610ff59190610ff9565b5090565b61101b91905b80821115611017576000816000905550600101610fff565b5090565b905600a165627a7a723058203eef8edd7903417d701c45b6e38e534e3621b5f3af5d79a534e311961da2fa330029",
  "source": "pragma solidity ^0.4.21;\r\n\r\n/**\r\n * @title CredentialOrgFactory\r\n * @dev The CredentialOrgFactory allows the contract owner to add new credentialing orgs\r\n */\r\nimport \"./Pausable.sol\";\r\nimport \"./SafeMath.sol\";\r\n\r\ncontract CredentialOrgFactory is Pausable {\r\n\r\n    using SafeMath32 for uint32;\r\n\r\n    mapping(uint32 => address) orgPositionToAddress;\r\n    mapping(address => uint32) addressToOrgPosition;\r\n    \r\n    event NewOrgAdd(bytes32 shortName, address schoolAddress, string detail);\r\n\r\n    uint32 private orgCount;\r\n\r\n    struct CredentialOrg {\r\n        bytes32 shortName;  // School shortName\r\n        bytes6 schoolCode; // Dept of Education \"FICE\" code\r\n        string officialSchoolName; // official school shortName (70 or less)\r\n        address schoolAddress;\r\n    }\r\n    \r\n    modifier onlyBy(address _account){\r\n        uint32 foundAccount = 0;\r\n        for(uint32 i = 0; i < orgCount; i++){\r\n            if (msg.sender == orgPositionToAddress[uint32(i)]){\r\n                foundAccount = 1;\r\n            }\r\n        }\r\n        if (foundAccount == 0) revert(\"Not Authorized\");\r\n        _;\r\n    }\r\n    \r\n    CredentialOrg[] private credentialOrgs; // array to hold Credentialing Orgs\r\n    /**\r\n    * @dev class constructor\r\n    */\r\n    constructor() public {\r\n        orgCount = 0;\r\n        createCredentialOrg(\"INITRECORD\", owner,\"000000\",\"Initialization Record for owner.\");\r\n        createCredentialOrg(\"BCD\", 0x5a186B7FeC36909678211F69beB67EC3b1E4fFBB, \"000000\",\" BaseRecordFor Account A\");\r\n        //createCredentialOrg(\"SCC\",0x14723A09ACff6D2A60DcdF7aA4AFf308FDDC160C,\"003793\",\"Spokane Community College\");\r\n        //createCredentialOrg(\"SFCC\",0x4B0897b0513fdC7C541B6d9D7E929C4e5364D2dB, \"009544\",\"Spokane Falls Community College\");\r\n    }\r\n    \r\n    /**\r\n    * @dev allows owner to create new credentialing orgs\r\n    * @param _shortName shortName of Credentialing orgs\r\n    * @param _schoolAddress Credentialling orgAddress\r\n    * @param _schoolCode Credentialing FICE School Code\r\n    * @param _officialSchoolName official School Name\r\n    */\r\n    function createCredentialOrg(bytes32 _shortName, address _schoolAddress, bytes6 _schoolCode, string _officialSchoolName) \r\n    public\r\n    returns (uint32 position)\r\n    {\r\n        emit NewOrgAdd(_shortName, _schoolAddress, \"New Org Add (PRE)\");\r\n        require(_shortName.length > 0 && _schoolAddress != 0 && _schoolCode.length == 6 && bytes(_officialSchoolName).length > 0 && bytes(_officialSchoolName).length < 70);\r\n        position = uint32(credentialOrgs.push(CredentialOrg(_shortName, _schoolCode, _officialSchoolName, _schoolAddress)));\r\n        if (position > 0){\r\n            orgPositionToAddress[position] = _schoolAddress;\r\n            addressToOrgPosition[_schoolAddress] = position.sub(1);\r\n            orgCount = orgCount.add(1);\r\n            emit NewOrgAdd(_shortName, _schoolAddress, \"New Org Add (SUCCESS)\");\r\n        } else {\r\n            revert(\"New Org Add (FAIL)\");\r\n            emit NewOrgAdd(_shortName, _schoolAddress, \"New Org Add (FAIL)\");\r\n        }\r\n        return (position);\r\n    }\r\n\r\n    /**\r\n    * @dev allows selection of a credentialingOrg by position\r\n    * @param _credentialOrgPosition allows selection of credentialing orgs details.\r\n    */\r\n    function selectCredentialOrg(uint32 _credentialOrgPosition) \r\n    public view\r\n    returns (bytes32 shortName, bytes6 schoolCode, string officialSchoolName, address schoolAddress)\r\n    {\r\n        require(_credentialOrgPosition >= 0 && _credentialOrgPosition < orgCount);\r\n        return (credentialOrgs[_credentialOrgPosition].shortName, credentialOrgs[_credentialOrgPosition].schoolCode, credentialOrgs[_credentialOrgPosition].officialSchoolName, credentialOrgs[_credentialOrgPosition].schoolAddress);\r\n    }\r\n    \r\n    /**\r\n    * @dev allows checking if credentialOrg exists\r\n    * @param _credentialOrgAddress function returns bool if an address is a credentialingOrg\r\n    */\r\n    function isCredentialOrg(address _credentialOrgAddress) \r\n    public view\r\n    returns (bool IsOrgAddress)\r\n    {\r\n        IsOrgAddress = false;\r\n        require(_credentialOrgAddress != 0, \"Zero Address Not Allowed\");\r\n        for (uint32 i = 0; i < orgCount; i++){\r\n            if (credentialOrgs[i].schoolAddress == _credentialOrgAddress){\r\n                IsOrgAddress = true;\r\n            }\r\n        }\r\n        return (IsOrgAddress);\r\n    }\r\n\r\n    /**\r\n    * @dev returns the orgCount\r\n    */\r\n    function selectOrgCount()\r\n    public view\r\n    returns (uint32 returnOrgCount)\r\n    {\r\n        returnOrgCount = orgCount;\r\n        return (returnOrgCount);\r\n    }\r\n\r\n}",
  "sourcePath": "E:\\Projects\\CredentialVerify\\contracts\\CredentialOrgFactory.sol",
  "compiler": {
    "name": "solc",
    "version": "0.4.24+commit.e67f0147.Emscripten.clang"
  },
  "schemaVersion": "2.0.1",
  "updatedAt": "2018-08-06T04:21:44.714Z"
}