{
  "contractName": "CredentialOrgFactory",
  "abi": [
    {
      "constant": false,
      "inputs": [],
      "name": "unpause",
      "outputs": [],
      "payable": false,
      "stateMutability": "nonpayable",
      "type": "function"
    },
    {
      "constant": true,
      "inputs": [],
      "name": "paused",
      "outputs": [
        {
          "name": "",
          "type": "bool"
        }
      ],
      "payable": false,
      "stateMutability": "view",
      "type": "function"
    },
    {
      "constant": false,
      "inputs": [],
      "name": "pause",
      "outputs": [],
      "payable": false,
      "stateMutability": "nonpayable",
      "type": "function"
    },
    {
      "constant": true,
      "inputs": [],
      "name": "owner",
      "outputs": [
        {
          "name": "",
          "type": "address"
        }
      ],
      "payable": false,
      "stateMutability": "view",
      "type": "function"
    },
    {
      "constant": false,
      "inputs": [
        {
          "name": "newOwner",
          "type": "address"
        }
      ],
      "name": "transferOwnership",
      "outputs": [],
      "payable": false,
      "stateMutability": "nonpayable",
      "type": "function"
    },
    {
      "inputs": [],
      "payable": false,
      "stateMutability": "nonpayable",
      "type": "constructor"
    },
    {
      "anonymous": false,
      "inputs": [
        {
          "indexed": false,
          "name": "shortName",
          "type": "bytes32"
        },
        {
          "indexed": false,
          "name": "schoolAddress",
          "type": "address"
        },
        {
          "indexed": false,
          "name": "detail",
          "type": "string"
        }
      ],
      "name": "NewOrgAdd",
      "type": "event"
    },
    {
      "anonymous": false,
      "inputs": [],
      "name": "Pause",
      "type": "event"
    },
    {
      "anonymous": false,
      "inputs": [],
      "name": "Unpause",
      "type": "event"
    },
    {
      "anonymous": false,
      "inputs": [
        {
          "indexed": true,
          "name": "previousOwner",
          "type": "address"
        },
        {
          "indexed": true,
          "name": "newOwner",
          "type": "address"
        }
      ],
      "name": "OwnershipTransferred",
      "type": "event"
    },
    {
      "constant": false,
      "inputs": [
        {
          "name": "_shortName",
          "type": "bytes32"
        },
        {
          "name": "_schoolAddress",
          "type": "address"
        },
        {
          "name": "_schoolCode",
          "type": "bytes6"
        },
        {
          "name": "_officialSchoolName",
          "type": "string"
        }
      ],
      "name": "createCredentialOrg",
      "outputs": [
        {
          "name": "position",
          "type": "uint32"
        }
      ],
      "payable": false,
      "stateMutability": "nonpayable",
      "type": "function"
    },
    {
      "constant": true,
      "inputs": [
        {
          "name": "_credentialPosition",
          "type": "uint32"
        }
      ],
      "name": "selectCredentialOrg",
      "outputs": [
        {
          "name": "shortName",
          "type": "bytes32"
        },
        {
          "name": "schoolCode",
          "type": "bytes6"
        },
        {
          "name": "officialSchoolName",
          "type": "string"
        },
        {
          "name": "schoolAddress",
          "type": "address"
        }
      ],
      "payable": false,
      "stateMutability": "view",
      "type": "function"
    },
    {
      "constant": true,
      "inputs": [
        {
          "name": "_credentialOrgAddress",
          "type": "address"
        }
      ],
      "name": "isCredentialOrg",
      "outputs": [
        {
          "name": "IsOrgAddress",
          "type": "bool"
        }
      ],
      "payable": false,
      "stateMutability": "view",
      "type": "function"
    },
    {
      "constant": true,
      "inputs": [],
      "name": "selectOrgCount",
      "outputs": [
        {
          "name": "returnOrgCount",
          "type": "uint32"
        }
      ],
      "payable": false,
      "stateMutability": "view",
      "type": "function"
    }
  ],
  "bytecode": "0x608060405260008060146101000a81548160ff0219169083151502179055503480156200002b57600080fd5b50336000806101000a81548173ffffffffffffffffffffffffffffffffffffffff021916908373ffffffffffffffffffffffffffffffffffffffff1602179055506000600360006101000a81548163ffffffff021916908363ffffffff160217905550620001417f41424300000000000000000000000000000000000000000000000000000000006000809054906101000a900473ffffffffffffffffffffffffffffffffffffffff167f30303030303000000000000000000000000000000000000000000000000000006040805190810160405280601281526020017f426173655265636f7264666f724f776e6572000000000000000000000000000081525062000296640100000000026401000000009004565b50620001e87f53434300000000000000000000000000000000000000000000000000000000007314723a09acff6d2a60dcdf7aa4aff308fddc160c7f30303337393300000000000000000000000000000000000000000000000000006040805190810160405280601981526020017f53706f6b616e6520436f6d6d756e69747920436f6c6c6567650000000000000081525062000296640100000000026401000000009004565b506200028f7f5346434300000000000000000000000000000000000000000000000000000000734b0897b0513fdc7c541b6d9d7e929c4e5364d2db7f30303935343400000000000000000000000000000000000000000000000000006040805190810160405280601f81526020017f53706f6b616e652046616c6c7320436f6d6d756e69747920436f6c6c6567650081525062000296640100000000026401000000009004565b50620007cd565b60007fd269155c21749744b1d4aa8db9212a1c95a65f3baa13728e9d0cc0b6433b2cea85856040518083600019166000191681526020018273ffffffffffffffffffffffffffffffffffffffff1673ffffffffffffffffffffffffffffffffffffffff16815260200180602001828103825260118152602001807f4e6577204f726720416464202850524529000000000000000000000000000000815250602001935050505060405180910390a16000602060ff1611801562000370575060008473ffffffffffffffffffffffffffffffffffffffff1614155b801562000380575060068060ff16145b80156200038e575060008251115b80156200039c575060468251105b1515620003a857600080fd5b6004608060405190810160405280876000191681526020018579ffffffffffffffffffffffffffffffffffffffffffffffffffff191681526020018481526020018673ffffffffffffffffffffffffffffffffffffffff16815250908060018154018082558091505090600182039060005260206000209060040201600090919290919091506000820151816000019060001916905560208201518160010160006101000a81548165ffffffffffff02191690837a0100000000000000000000000000000000000000000000000000009004021790555060408201518160020190805190602001906200049d9291906200071e565b5060608201518160030160006101000a81548173ffffffffffffffffffffffffffffffffffffffff021916908373ffffffffffffffffffffffffffffffffffffffff1602179055505050905060008163ffffffff161115620006a55783600160008363ffffffff1663ffffffff16815260200190815260200160002060006101000a81548173ffffffffffffffffffffffffffffffffffffffff021916908373ffffffffffffffffffffffffffffffffffffffff16021790555060018103600260008673ffffffffffffffffffffffffffffffffffffffff1673ffffffffffffffffffffffffffffffffffffffff16815260200190815260200160002060006101000a81548163ffffffff021916908363ffffffff1602179055506003600081819054906101000a900463ffffffff168092919060010191906101000a81548163ffffffff021916908363ffffffff160217905550507fd269155c21749744b1d4aa8db9212a1c95a65f3baa13728e9d0cc0b6433b2cea85856040518083600019166000191681526020018273ffffffffffffffffffffffffffffffffffffffff1673ffffffffffffffffffffffffffffffffffffffff16815260200180602001828103825260158152602001807f4e6577204f726720416464202853554343455353290000000000000000000000815250602001935050505060405180910390a162000713565b6040517f08c379a00000000000000000000000000000000000000000000000000000000081526004018080602001828103825260128152602001807f4e6577204f72672041646420284641494c29000000000000000000000000000081525060200191505060405180910390fd5b809050949350505050565b828054600181600116156101000203166002900490600052602060002090601f016020900481019282601f106200076157805160ff191683800117855562000792565b8280016001018555821562000792579182015b828111156200079157825182559160200191906001019062000774565b5b509050620007a19190620007a5565b5090565b620007ca91905b80821115620007c6576000816000905550600101620007ac565b5090565b90565b610f6b80620007dd6000396000f300608060405260043610610099576000357c0100000000000000000000000000000000000000000000000000000000900463ffffffff1680633f4ba83a1461009e5780634afab74c146100b5578063554ee043146101935780635c975abb146101ca5780638456cb59146101f95780638da5cb5b14610210578063bd9ca90a14610267578063e1eaee4214610396578063f2fde38b146103f1575b600080fd5b3480156100aa57600080fd5b506100b3610434565b005b3480156100c157600080fd5b506101716004803603810190808035600019169060200190929190803573ffffffffffffffffffffffffffffffffffffffff169060200190929190803579ffffffffffffffffffffffffffffffffffffffffffffffffffff19169060200190929190803590602001908201803590602001908080601f01602080910402602001604051908101604052809392919081815260200183838082843782019150505050505091929192905050506104f2565b604051808263ffffffff1663ffffffff16815260200191505060405180910390f35b34801561019f57600080fd5b506101a8610971565b604051808263ffffffff1663ffffffff16815260200191505060405180910390f35b3480156101d657600080fd5b506101df61098e565b604051808215151515815260200191505060405180910390f35b34801561020557600080fd5b5061020e6109a1565b005b34801561021c57600080fd5b50610225610a61565b604051808273ffffffffffffffffffffffffffffffffffffffff1673ffffffffffffffffffffffffffffffffffffffff16815260200191505060405180910390f35b34801561027357600080fd5b50610298600480360381019080803563ffffffff169060200190929190505050610a86565b6040518085600019166000191681526020018479ffffffffffffffffffffffffffffffffffffffffffffffffffff191679ffffffffffffffffffffffffffffffffffffffffffffffffffff19168152602001806020018373ffffffffffffffffffffffffffffffffffffffff1673ffffffffffffffffffffffffffffffffffffffff168152602001828103825284818151815260200191508051906020019080838360005b8381101561035857808201518184015260208101905061033d565b50505050905090810190601f1680156103855780820380516001836020036101000a031916815260200191505b509550505050505060405180910390f35b3480156103a257600080fd5b506103d7600480360381019080803573ffffffffffffffffffffffffffffffffffffffff169060200190929190505050610c58565b604051808215151515815260200191505060405180910390f35b3480156103fd57600080fd5b50610432600480360381019080803573ffffffffffffffffffffffffffffffffffffffff169060200190929190505050610d45565b005b6000809054906101000a900473ffffffffffffffffffffffffffffffffffffffff1673ffffffffffffffffffffffffffffffffffffffff163373ffffffffffffffffffffffffffffffffffffffff1614151561048f57600080fd5b600060149054906101000a900460ff1615156104aa57600080fd5b60008060146101000a81548160ff0219169083151502179055507f7805862f689e2f13df9f062ff482ad3ad112aca9e0847911ed832e158c525b3360405160405180910390a1565b60007fd269155c21749744b1d4aa8db9212a1c95a65f3baa13728e9d0cc0b6433b2cea85856040518083600019166000191681526020018273ffffffffffffffffffffffffffffffffffffffff1673ffffffffffffffffffffffffffffffffffffffff16815260200180602001828103825260118152602001807f4e6577204f726720416464202850524529000000000000000000000000000000815250602001935050505060405180910390a16000602060ff161180156105cb575060008473ffffffffffffffffffffffffffffffffffffffff1614155b80156105da575060068060ff16145b80156105e7575060008251115b80156105f4575060468251105b15156105ff57600080fd5b6004608060405190810160405280876000191681526020018579ffffffffffffffffffffffffffffffffffffffffffffffffffff191681526020018481526020018673ffffffffffffffffffffffffffffffffffffffff16815250908060018154018082558091505090600182039060005260206000209060040201600090919290919091506000820151816000019060001916905560208201518160010160006101000a81548165ffffffffffff02191690837a0100000000000000000000000000000000000000000000000000009004021790555060408201518160020190805190602001906106f2929190610e9a565b5060608201518160030160006101000a81548173ffffffffffffffffffffffffffffffffffffffff021916908373ffffffffffffffffffffffffffffffffffffffff1602179055505050905060008163ffffffff1611156108f85783600160008363ffffffff1663ffffffff16815260200190815260200160002060006101000a81548173ffffffffffffffffffffffffffffffffffffffff021916908373ffffffffffffffffffffffffffffffffffffffff16021790555060018103600260008673ffffffffffffffffffffffffffffffffffffffff1673ffffffffffffffffffffffffffffffffffffffff16815260200190815260200160002060006101000a81548163ffffffff021916908363ffffffff1602179055506003600081819054906101000a900463ffffffff168092919060010191906101000a81548163ffffffff021916908363ffffffff160217905550507fd269155c21749744b1d4aa8db9212a1c95a65f3baa13728e9d0cc0b6433b2cea85856040518083600019166000191681526020018273ffffffffffffffffffffffffffffffffffffffff1673ffffffffffffffffffffffffffffffffffffffff16815260200180602001828103825260158152602001807f4e6577204f726720416464202853554343455353290000000000000000000000815250602001935050505060405180910390a1610966565b6040517f08c379a00000000000000000000000000000000000000000000000000000000081526004018080602001828103825260128152602001807f4e6577204f72672041646420284641494c29000000000000000000000000000081525060200191505060405180910390fd5b809050949350505050565b6000600360009054906101000a900463ffffffff16905080905090565b600060149054906101000a900460ff1681565b6000809054906101000a900473ffffffffffffffffffffffffffffffffffffffff1673ffffffffffffffffffffffffffffffffffffffff163373ffffffffffffffffffffffffffffffffffffffff161415156109fc57600080fd5b600060149054906101000a900460ff16151515610a1857600080fd5b6001600060146101000a81548160ff0219169083151502179055507f6985a02210a168e66602d3235cb6db0e70f92b3ba4d376a33c0f3d9434bff62560405160405180910390a1565b6000809054906101000a900473ffffffffffffffffffffffffffffffffffffffff1681565b60008060606000808563ffffffff1610158015610ac05750600360009054906101000a900463ffffffff1663ffffffff168563ffffffff16105b1515610acb57600080fd5b60048563ffffffff16815481101515610ae057fe5b90600052602060002090600402016000015460048663ffffffff16815481101515610b0757fe5b906000526020600020906004020160010160009054906101000a90047a0100000000000000000000000000000000000000000000000000000260048763ffffffff16815481101515610b5557fe5b906000526020600020906004020160020160048863ffffffff16815481101515610b7b57fe5b906000526020600020906004020160030160009054906101000a900473ffffffffffffffffffffffffffffffffffffffff16818054600181600116156101000203166002900480601f016020809104026020016040519081016040528092919081815260200182805460018160011615610100020316600290048015610c425780601f10610c1757610100808354040283529160200191610c42565b820191906000526020600020905b815481529060010190602001808311610c2557829003601f168201915b5050505050915093509350935093509193509193565b6000806000915060008373ffffffffffffffffffffffffffffffffffffffff1614151515610c8557600080fd5b600090505b600360009054906101000a900463ffffffff1663ffffffff168163ffffffff161015610d3c578273ffffffffffffffffffffffffffffffffffffffff1660048263ffffffff16815481101515610cdc57fe5b906000526020600020906004020160030160009054906101000a900473ffffffffffffffffffffffffffffffffffffffff1673ffffffffffffffffffffffffffffffffffffffff161415610d2f57600191505b8080600101915050610c8a565b81915050919050565b6000809054906101000a900473ffffffffffffffffffffffffffffffffffffffff1673ffffffffffffffffffffffffffffffffffffffff163373ffffffffffffffffffffffffffffffffffffffff16141515610da057600080fd5b600073ffffffffffffffffffffffffffffffffffffffff168173ffffffffffffffffffffffffffffffffffffffff1614151515610ddc57600080fd5b8073ffffffffffffffffffffffffffffffffffffffff166000809054906101000a900473ffffffffffffffffffffffffffffffffffffffff1673ffffffffffffffffffffffffffffffffffffffff167f8be0079c531659141344cd1fd0a4f28419497f9722a3daafe3b4186f6b6457e060405160405180910390a3806000806101000a81548173ffffffffffffffffffffffffffffffffffffffff021916908373ffffffffffffffffffffffffffffffffffffffff16021790555050565b828054600181600116156101000203166002900490600052602060002090601f016020900481019282601f10610edb57805160ff1916838001178555610f09565b82800160010185558215610f09579182015b82811115610f08578251825591602001919060010190610eed565b5b509050610f169190610f1a565b5090565b610f3c91905b80821115610f38576000816000905550600101610f20565b5090565b905600a165627a7a72305820a3f27faed833fb497ab0a52ad352b78200f11d3e5588c179056b7939a37ff5d70029",
  "source": "pragma solidity ^0.4.21;\r\n\r\n/**\r\n * @title CredentialOrgFactory\r\n * @dev The CredentialOrgFactory allows the contract owner to add new credentialing orgs\r\n */\r\nimport \"./Pausable.sol\";\r\nimport \"./SafeMath.sol\";\r\n\r\ncontract CredentialOrgFactory is Pausable {\r\n\r\n    using SafeMath32 for uint32;\r\n\r\n    mapping(uint32 => address) orgPositionToAddress;\r\n    mapping(address => uint32) addressToOrgPosition;\r\n    \r\n    event NewOrgAdd(bytes32 shortName, address schoolAddress, string detail);\r\n\r\n    uint32 private orgCount;\r\n\r\n    struct CredentialOrg {\r\n        bytes32 shortName;  // School shortName\r\n        bytes6 schoolCode; // Dept of Education \"FICE\" code\r\n        string officialSchoolName; // official school shortName (70 or less)\r\n        address schoolAddress;\r\n    }\r\n    \r\n    modifier onlyBy(address _account){\r\n        uint32 foundAccount = 0;\r\n        for(uint32 i = 0; i < orgCount; i++){\r\n            if (msg.sender == orgPositionToAddress[uint32(i)]){\r\n                foundAccount = 1;\r\n            }\r\n        }\r\n        if (foundAccount == 0) revert(\"Not Authorized\");\r\n        _;\r\n    }\r\n    \r\n    CredentialOrg[] private credentialOrgs; // array to hold Credentialing Orgs\r\n    /**\r\n    * @dev class constructor\r\n    */\r\n    constructor() public {\r\n        orgCount = 0;\r\n        createCredentialOrg(\"ABC\", owner,\"000000\",\"BaseRecordforOwner\");\r\n        createCredentialOrg(\"SCC\",0x14723A09ACff6D2A60DcdF7aA4AFf308FDDC160C,\"003793\",\"Spokane Community College\");\r\n        createCredentialOrg(\"SFCC\",0x4B0897b0513fdC7C541B6d9D7E929C4e5364D2dB, \"009544\",\"Spokane Falls Community College\");\r\n    }\r\n    \r\n    /**\r\n    * @dev allows owner to create new credentialing orgs\r\n    * @param _shortName shortName of Credentialing orgs\r\n    * @param _schoolAddress Credentialling orgAddress\r\n    * @param _schoolCode Credentialing FICE School Code\r\n    * @param _officialSchoolName official School Name\r\n    */\r\n    function createCredentialOrg(bytes32 _shortName, address _schoolAddress, bytes6 _schoolCode, string _officialSchoolName) \r\n    public\r\n    returns (uint32 position)\r\n    {\r\n        emit NewOrgAdd(_shortName, _schoolAddress, \"New Org Add (PRE)\");\r\n        require(_shortName.length > 0 && _schoolAddress != 0 && _schoolCode.length == 6 && bytes(_officialSchoolName).length > 0 && bytes(_officialSchoolName).length < 70);\r\n        position = uint32(credentialOrgs.push(CredentialOrg(_shortName, _schoolCode, _officialSchoolName, _schoolAddress)));\r\n        if (position > 0){\r\n            orgPositionToAddress[position] = _schoolAddress;\r\n            addressToOrgPosition[_schoolAddress] = position - 1;\r\n            orgCount++;\r\n            emit NewOrgAdd(_shortName, _schoolAddress, \"New Org Add (SUCCESS)\");\r\n        } else {\r\n            revert(\"New Org Add (FAIL)\");\r\n            emit NewOrgAdd(_shortName, _schoolAddress, \"New Org Add (FAIL)\");\r\n        }\r\n        return (position);\r\n    }\r\n    /**\r\n    * @dev allows owner to create new credentialing orgs\r\n    * @param _credentialPosition allows selection of credentialing orgs details.\r\n    */\r\n    function selectCredentialOrg(uint32 _credentialPosition) \r\n    public view\r\n    returns (bytes32 shortName, bytes6 schoolCode, string officialSchoolName, address schoolAddress)\r\n    {\r\n        require(_credentialPosition >= 0 && _credentialPosition < orgCount);\r\n        return (credentialOrgs[_credentialPosition].shortName, credentialOrgs[_credentialPosition].schoolCode, credentialOrgs[_credentialPosition].officialSchoolName, credentialOrgs[_credentialPosition].schoolAddress);\r\n    }\r\n    \r\n    /**\r\n    * @dev allows checking if credentialOrg exists\r\n    * @param _credentialOrgAddress function returns bool if an address is a credentialingOrg\r\n    */\r\n    function isCredentialOrg(address _credentialOrgAddress) \r\n    public view\r\n    returns (bool IsOrgAddress)\r\n    {\r\n        IsOrgAddress = false;\r\n        require(_credentialOrgAddress != 0);\r\n        for (uint32 i = 0; i < orgCount; i++){\r\n            if (credentialOrgs[i].schoolAddress == _credentialOrgAddress){\r\n                IsOrgAddress = true;\r\n            }\r\n        }\r\n        return (IsOrgAddress);\r\n    }\r\n\r\n    /**\r\n    * @dev returns the orgCount\r\n    */\r\n    function selectOrgCount()\r\n    public view\r\n    returns (uint32 returnOrgCount)\r\n    {\r\n        returnOrgCount = orgCount;\r\n        return (returnOrgCount);\r\n    }\r\n\r\n}",
  "sourcePath": "E:\\Projects\\CredentialVerify\\contracts\\CredentialOrgFactory.sol",
  "compiler": {
    "name": "solc",
    "version": "0.4.24+commit.e67f0147.Emscripten.clang"
  },
  "schemaVersion": "2.0.1",
  "updatedAt": "2018-08-06T01:06:15.313Z"
}