{
  "contractName": "CredentialFactory",
  "abi": [
    {
      "constant": false,
      "inputs": [],
      "name": "unpause",
      "outputs": [],
      "payable": false,
      "stateMutability": "nonpayable",
      "type": "function"
    },
    {
      "constant": false,
      "inputs": [
        {
          "name": "_shortName",
          "type": "bytes32"
        },
        {
          "name": "_schoolAddress",
          "type": "address"
        },
        {
          "name": "_schoolCode",
          "type": "bytes6"
        },
        {
          "name": "_officialSchoolName",
          "type": "string"
        }
      ],
      "name": "createCredentialOrg",
      "outputs": [
        {
          "name": "position",
          "type": "uint32"
        }
      ],
      "payable": false,
      "stateMutability": "nonpayable",
      "type": "function"
    },
    {
      "constant": true,
      "inputs": [],
      "name": "selectOrgCount",
      "outputs": [
        {
          "name": "returnOrgCount",
          "type": "uint32"
        }
      ],
      "payable": false,
      "stateMutability": "view",
      "type": "function"
    },
    {
      "constant": true,
      "inputs": [],
      "name": "paused",
      "outputs": [
        {
          "name": "",
          "type": "bool"
        }
      ],
      "payable": false,
      "stateMutability": "view",
      "type": "function"
    },
    {
      "constant": false,
      "inputs": [],
      "name": "pause",
      "outputs": [],
      "payable": false,
      "stateMutability": "nonpayable",
      "type": "function"
    },
    {
      "constant": true,
      "inputs": [],
      "name": "owner",
      "outputs": [
        {
          "name": "",
          "type": "address"
        }
      ],
      "payable": false,
      "stateMutability": "view",
      "type": "function"
    },
    {
      "constant": true,
      "inputs": [
        {
          "name": "_credentialOrgPosition",
          "type": "uint32"
        }
      ],
      "name": "selectCredentialOrg",
      "outputs": [
        {
          "name": "shortName",
          "type": "bytes32"
        },
        {
          "name": "schoolCode",
          "type": "bytes6"
        },
        {
          "name": "officialSchoolName",
          "type": "string"
        },
        {
          "name": "schoolAddress",
          "type": "address"
        }
      ],
      "payable": false,
      "stateMutability": "view",
      "type": "function"
    },
    {
      "constant": true,
      "inputs": [
        {
          "name": "_credentialOrgAddress",
          "type": "address"
        }
      ],
      "name": "isCredentialOrg",
      "outputs": [
        {
          "name": "IsOrgAddress",
          "type": "bool"
        }
      ],
      "payable": false,
      "stateMutability": "view",
      "type": "function"
    },
    {
      "constant": false,
      "inputs": [
        {
          "name": "newOwner",
          "type": "address"
        }
      ],
      "name": "transferOwnership",
      "outputs": [],
      "payable": false,
      "stateMutability": "nonpayable",
      "type": "function"
    },
    {
      "inputs": [],
      "payable": false,
      "stateMutability": "nonpayable",
      "type": "constructor"
    },
    {
      "anonymous": false,
      "inputs": [
        {
          "indexed": false,
          "name": "credentialOrg",
          "type": "address"
        },
        {
          "indexed": false,
          "name": "credentialTitle",
          "type": "string"
        },
        {
          "indexed": false,
          "name": "detail",
          "type": "string"
        }
      ],
      "name": "CredentialFactoryActivity",
      "type": "event"
    },
    {
      "anonymous": false,
      "inputs": [
        {
          "indexed": false,
          "name": "shortName",
          "type": "bytes32"
        },
        {
          "indexed": false,
          "name": "schoolAddress",
          "type": "address"
        },
        {
          "indexed": false,
          "name": "detail",
          "type": "string"
        }
      ],
      "name": "NewOrgAdd",
      "type": "event"
    },
    {
      "anonymous": false,
      "inputs": [],
      "name": "Pause",
      "type": "event"
    },
    {
      "anonymous": false,
      "inputs": [],
      "name": "Unpause",
      "type": "event"
    },
    {
      "anonymous": false,
      "inputs": [
        {
          "indexed": true,
          "name": "previousOwner",
          "type": "address"
        },
        {
          "indexed": true,
          "name": "newOwner",
          "type": "address"
        }
      ],
      "name": "OwnershipTransferred",
      "type": "event"
    },
    {
      "constant": false,
      "inputs": [
        {
          "name": "_credentialLevel",
          "type": "bytes1"
        },
        {
          "name": "_credentialTitle",
          "type": "string"
        },
        {
          "name": "_credentialDivision",
          "type": "string"
        },
        {
          "name": "_insertDate",
          "type": "bytes8"
        }
      ],
      "name": "createCredential",
      "outputs": [],
      "payable": false,
      "stateMutability": "nonpayable",
      "type": "function"
    },
    {
      "constant": false,
      "inputs": [
        {
          "name": "_credentialOrg",
          "type": "address"
        },
        {
          "name": "_credentialLevel",
          "type": "bytes1"
        },
        {
          "name": "_credentialTitle",
          "type": "string"
        },
        {
          "name": "_credentialDivision",
          "type": "string"
        },
        {
          "name": "_insertDate",
          "type": "bytes8"
        }
      ],
      "name": "createCredentialByOwner",
      "outputs": [],
      "payable": false,
      "stateMutability": "nonpayable",
      "type": "function"
    },
    {
      "constant": true,
      "inputs": [
        {
          "name": "_credentialPosition",
          "type": "uint32"
        }
      ],
      "name": "selectCredential",
      "outputs": [
        {
          "name": "credentialLevel",
          "type": "bytes1"
        },
        {
          "name": "credentialTitle",
          "type": "string"
        },
        {
          "name": "credentialDivision",
          "type": "string"
        },
        {
          "name": "credentialInsertDate",
          "type": "bytes8"
        },
        {
          "name": "isActive",
          "type": "bool"
        }
      ],
      "payable": false,
      "stateMutability": "view",
      "type": "function"
    },
    {
      "constant": false,
      "inputs": [
        {
          "name": "_position",
          "type": "uint256"
        }
      ],
      "name": "setCredentialInactiveFlag",
      "outputs": [],
      "payable": false,
      "stateMutability": "nonpayable",
      "type": "function"
    },
    {
      "constant": false,
      "inputs": [
        {
          "name": "_position",
          "type": "uint256"
        }
      ],
      "name": "setCredentialActiveFlag",
      "outputs": [],
      "payable": false,
      "stateMutability": "nonpayable",
      "type": "function"
    },
    {
      "constant": true,
      "inputs": [],
      "name": "SelectCredentialCount",
      "outputs": [
        {
          "name": "returnCredentialCount",
          "type": "uint32"
        }
      ],
      "payable": false,
      "stateMutability": "view",
      "type": "function"
    },
    {
      "constant": true,
      "inputs": [
        {
          "name": "_position",
          "type": "uint256"
        }
      ],
      "name": "isCredentialActive",
      "outputs": [
        {
          "name": "activeState",
          "type": "bool"
        }
      ],
      "payable": false,
      "stateMutability": "view",
      "type": "function"
    }
  ],
  "bytecode": "0x608060405260008060146101000a81548160ff0219169083151502179055503480156200002b57600080fd5b50336000806101000a81548173ffffffffffffffffffffffffffffffffffffffff021916908373ffffffffffffffffffffffffffffffffffffffff1602179055506000600360006101000a81548163ffffffff021916908363ffffffff160217905550620001417f494e49545245434f5244000000000000000000000000000000000000000000006000809054906101000a900473ffffffffffffffffffffffffffffffffffffffff167f30303030303000000000000000000000000000000000000000000000000000006040805190810160405280602081526020017f496e697469616c697a6174696f6e205265636f726420666f72206f776e65722e81525062000321640100000000026401000000009004565b50620001e87f4243440000000000000000000000000000000000000000000000000000000000735a186b7fec36909678211f69beb67ec3b1e4ffbb7f30303030303000000000000000000000000000000000000000000000000000006040805190810160405280601881526020017f20426173655265636f7264466f72204163636f756e742041000000000000000081525062000321640100000000026401000000009004565b506000600860006101000a81548163ffffffff021916908363ffffffff1602179055506200031b6000809054906101000a900473ffffffffffffffffffffffffffffffffffffffff167f4100000000000000000000000000000000000000000000000000000000000000606060405190810160405280602281526020017f4173736f63696174652044656772656520696e204261736b657420576561766981526020017f6e670000000000000000000000000000000000000000000000000000000000008152506040805190810160405280600981526020017f4241202d204172747300000000000000000000000000000000000000000000008152507f3230313830373033000000000000000000000000000000000000000000000000620007f0640100000000026401000000009004565b62000f14565b60007fd269155c21749744b1d4aa8db9212a1c95a65f3baa13728e9d0cc0b6433b2cea85856040518083600019166000191681526020018273ffffffffffffffffffffffffffffffffffffffff1673ffffffffffffffffffffffffffffffffffffffff16815260200180602001828103825260118152602001807f4e6577204f726720416464202850524529000000000000000000000000000000815250602001935050505060405180910390a16000602060ff16118015620003fb575060008473ffffffffffffffffffffffffffffffffffffffff1614155b80156200040b575060068060ff16145b801562000419575060008251115b801562000427575060468251105b15156200043357600080fd5b6004608060405190810160405280876000191681526020018579ffffffffffffffffffffffffffffffffffffffffffffffffffff191681526020018481526020018673ffffffffffffffffffffffffffffffffffffffff16815250908060018154018082558091505090600182039060005260206000209060040201600090919290919091506000820151816000019060001916905560208201518160010160006101000a81548165ffffffffffff02191690837a0100000000000000000000000000000000000000000000000000009004021790555060408201518160020190805190602001906200052892919062000e65565b5060608201518160030160006101000a81548173ffffffffffffffffffffffffffffffffffffffff021916908373ffffffffffffffffffffffffffffffffffffffff1602179055505050905060008163ffffffff161115620007775783600160008363ffffffff1663ffffffff16815260200190815260200160002060006101000a81548173ffffffffffffffffffffffffffffffffffffffff021916908373ffffffffffffffffffffffffffffffffffffffff1602179055506200060c60018263ffffffff1662000e146401000000000262002c91179091906401000000009004565b600260008673ffffffffffffffffffffffffffffffffffffffff1673ffffffffffffffffffffffffffffffffffffffff16815260200190815260200160002060006101000a81548163ffffffff021916908363ffffffff160217905550620006a56001600360009054906101000a900463ffffffff1663ffffffff1662000e3a6401000000000262002cb6179091906401000000009004565b600360006101000a81548163ffffffff021916908363ffffffff1602179055507fd269155c21749744b1d4aa8db9212a1c95a65f3baa13728e9d0cc0b6433b2cea85856040518083600019166000191681526020018273ffffffffffffffffffffffffffffffffffffffff1673ffffffffffffffffffffffffffffffffffffffff16815260200180602001828103825260158152602001807f4e6577204f726720416464202853554343455353290000000000000000000000815250602001935050505060405180910390a1620007e5565b6040517f08c379a00000000000000000000000000000000000000000000000000000000081526004018080602001828103825260128152602001807f4e6577204f72672041646420284641494c29000000000000000000000000000081525060200191505060405180910390fd5b809050949350505050565b60008060009054906101000a900473ffffffffffffffffffffffffffffffffffffffff1673ffffffffffffffffffffffffffffffffffffffff163373ffffffffffffffffffffffffffffffffffffffff161415156200084e57600080fd5b7f22efaf0cb3bd642425e7be86b531b1a553c2d7a83936239ee16e9f7fdb8fa37d8685604051808373ffffffffffffffffffffffffffffffffffffffff1673ffffffffffffffffffffffffffffffffffffffff1681526020018060200180602001838103835284818151815260200191508051906020019080838360005b83811015620008e9578082015181840152602081019050620008cc565b50505050905090810190601f168015620009175780820380516001836020036101000a031916815260200191505b508381038252601c8152602001807f4e65772043726564656e7469616c204164642028415454454d5054290000000081525060200194505050505060405180910390a160018060ff161480156200096f575060008451115b80156200097d575060468451105b80156200098c57506000835110155b80156200099a575060328351105b1515620009a657600080fd5b600760c0604051908101604052808873ffffffffffffffffffffffffffffffffffffffff168152602001877effffffffffffffffffffffffffffffffffffffffffffffffffffffffffffff191681526020018681526020018581526020018477ffffffffffffffffffffffffffffffffffffffffffffffff19168152602001600115158152509080600181540180825580915050906001820390600052602060002090600402016000909192909190915060008201518160000160006101000a81548173ffffffffffffffffffffffffffffffffffffffff021916908373ffffffffffffffffffffffffffffffffffffffff16021790555060208201518160000160146101000a81548160ff02191690837f010000000000000000000000000000000000000000000000000000000000000090040217905550604082015181600101908051906020019062000afd92919062000e65565b50606082015181600201908051906020019062000b1c92919062000e65565b5060808201518160030160006101000a81548167ffffffffffffffff021916908378010000000000000000000000000000000000000000000000009004021790555060a08201518160030160086101000a81548160ff0219169083151502179055505050905060008110151562000cfb5762000bc96001600860009054906101000a900463ffffffff1663ffffffff1662000e3a6401000000000262002cb6179091906401000000009004565b600860006101000a81548163ffffffff021916908363ffffffff1602179055507f22efaf0cb3bd642425e7be86b531b1a553c2d7a83936239ee16e9f7fdb8fa37d8685604051808373ffffffffffffffffffffffffffffffffffffffff1673ffffffffffffffffffffffffffffffffffffffff1681526020018060200180602001838103835284818151815260200191508051906020019080838360005b8381101562000c8457808201518184015260208101905062000c67565b50505050905090810190601f16801562000cb25780820380516001836020036101000a031916815260200191505b508381038252601d8152602001807f4e65772043726564656e7469616c20416464202853554343434553532900000081525060200194505050505060405180910390a162000e0c565b7f22efaf0cb3bd642425e7be86b531b1a553c2d7a83936239ee16e9f7fdb8fa37d8685604051808373ffffffffffffffffffffffffffffffffffffffff1673ffffffffffffffffffffffffffffffffffffffff1681526020018060200180602001838103835284818151815260200191508051906020019080838360005b8381101562000d9657808201518184015260208101905062000d79565b50505050905090810190601f16801562000dc45780820380516001836020036101000a031916815260200191505b508381038252601b8152602001807f4e65772043726564656e7469616c2041646420284641494c454429000000000081525060200194505050505060405180910390a1600080fd5b505050505050565b60008263ffffffff168263ffffffff161115151562000e2f57fe5b818303905092915050565b60008082840190508363ffffffff168163ffffffff161015151562000e5b57fe5b8091505092915050565b828054600181600116156101000203166002900490600052602060002090601f016020900481019282601f1062000ea857805160ff191683800117855562000ed9565b8280016001018555821562000ed9579182015b8281111562000ed857825182559160200191906001019062000ebb565b5b50905062000ee8919062000eec565b5090565b62000f1191905b8082111562000f0d57600081600090555060010162000ef3565b5090565b90565b612db18062000f246000396000f3006080604052600436106100e6576000357c0100000000000000000000000000000000000000000000000000000000900463ffffffff16806325aed137146100eb5780632b83acac146102965780633f4ba83a146102c3578063459bdfd9146102da5780634afab74c1461031f57806352e23f89146103fd578063554ee043146104345780635c975abb1461046b5780638456cb591461049a5780638da5cb5b146104b1578063b9572c3e14610508578063bd9ca90a14610535578063c9307ff914610664578063d850daa314610764578063e1eaee4214610884578063f2fde38b146108df575b600080fd5b3480156100f757600080fd5b5061011c600480360381019080803563ffffffff169060200190929190505050610922565b60405180867effffffffffffffffffffffffffffffffffffffffffffffffffffffffffffff19167effffffffffffffffffffffffffffffffffffffffffffffffffffffffffffff1916815260200180602001806020018577ffffffffffffffffffffffffffffffffffffffffffffffff191677ffffffffffffffffffffffffffffffffffffffffffffffff1916815260200184151515158152602001838103835287818151815260200191508051906020019080838360005b838110156101f05780820151818401526020810190506101d5565b50505050905090810190601f16801561021d5780820380516001836020036101000a031916815260200191505b50838103825286818151815260200191508051906020019080838360005b8381101561025657808201518184015260208101905061023b565b50505050905090810190601f1680156102835780820380516001836020036101000a031916815260200191505b5097505050505050505060405180910390f35b3480156102a257600080fd5b506102c160048036038101908080359060200190929190505050610bd3565b005b3480156102cf57600080fd5b506102d8610f39565b005b3480156102e657600080fd5b5061030560048036038101908080359060200190929190505050610ff7565b604051808215151515815260200191505060405180910390f35b34801561032b57600080fd5b506103db6004803603810190808035600019169060200190929190803573ffffffffffffffffffffffffffffffffffffffff169060200190929190803579ffffffffffffffffffffffffffffffffffffffffffffffffffff19169060200190929190803590602001908201803590602001908080601f0160208091040260200160405190810160405280939291908181526020018383808284378201915050505050509192919290505050611074565b604051808263ffffffff1663ffffffff16815260200191505060405180910390f35b34801561040957600080fd5b5061041261151a565b604051808263ffffffff1663ffffffff16815260200191505060405180910390f35b34801561044057600080fd5b50610449611537565b604051808263ffffffff1663ffffffff16815260200191505060405180910390f35b34801561047757600080fd5b50610480611554565b604051808215151515815260200191505060405180910390f35b3480156104a657600080fd5b506104af611567565b005b3480156104bd57600080fd5b506104c6611627565b604051808273ffffffffffffffffffffffffffffffffffffffff1673ffffffffffffffffffffffffffffffffffffffff16815260200191505060405180910390f35b34801561051457600080fd5b506105336004803603810190808035906020019092919050505061164c565b005b34801561054157600080fd5b50610566600480360381019080803563ffffffff1690602001909291905050506119b2565b6040518085600019166000191681526020018479ffffffffffffffffffffffffffffffffffffffffffffffffffff191679ffffffffffffffffffffffffffffffffffffffffffffffffffff19168152602001806020018373ffffffffffffffffffffffffffffffffffffffff1673ffffffffffffffffffffffffffffffffffffffff168152602001828103825284818151815260200191508051906020019080838360005b8381101561062657808201518184015260208101905061060b565b50505050905090810190601f1680156106535780820380516001836020036101000a031916815260200191505b509550505050505060405180910390f35b34801561067057600080fd5b5061076260048036038101908080357effffffffffffffffffffffffffffffffffffffffffffffffffffffffffffff19169060200190929190803590602001908201803590602001908080601f0160208091040260200160405190810160405280939291908181526020018383808284378201915050505050509192919290803590602001908201803590602001908080601f0160208091040260200160405190810160405280939291908181526020018383808284378201915050505050509192919290803577ffffffffffffffffffffffffffffffffffffffffffffffff19169060200190929190505050611b84565b005b34801561077057600080fd5b50610882600480360381019080803573ffffffffffffffffffffffffffffffffffffffff16906020019092919080357effffffffffffffffffffffffffffffffffffffffffffffffffffffffffffff19169060200190929190803590602001908201803590602001908080601f0160208091040260200160405190810160405280939291908181526020018383808284378201915050505050509192919290803590602001908201803590602001908080601f0160208091040260200160405190810160405280939291908181526020018383808284378201915050505050509192919290803577ffffffffffffffffffffffffffffffffffffffffffffffff191690602001909291905050506123e7565b005b34801561089057600080fd5b506108c5600480360381019080803573ffffffffffffffffffffffffffffffffffffffff1690602001909291905050506129e6565b604051808215151515815260200191505060405180910390f35b3480156108eb57600080fd5b50610920600480360381019080803573ffffffffffffffffffffffffffffffffffffffff169060200190929190505050612b3c565b005b600060608060008060008663ffffffff161015801561095e5750600860009054906101000a900463ffffffff1663ffffffff168663ffffffff16105b151561096957600080fd5b60078663ffffffff1681548110151561097e57fe5b906000526020600020906004020160000160149054906101000a90047f01000000000000000000000000000000000000000000000000000000000000000260078763ffffffff168154811015156109d157fe5b906000526020600020906004020160010160078863ffffffff168154811015156109f757fe5b906000526020600020906004020160020160078963ffffffff16815481101515610a1d57fe5b906000526020600020906004020160030160009054906101000a900478010000000000000000000000000000000000000000000000000260078a63ffffffff16815481101515610a6957fe5b906000526020600020906004020160030160089054906101000a900460ff16838054600181600116156101000203166002900480601f016020809104026020016040519081016040528092919081815260200182805460018160011615610100020316600290048015610b1d5780601f10610af257610100808354040283529160200191610b1d565b820191906000526020600020905b815481529060010190602001808311610b0057829003601f168201915b50505050509350828054600181600116156101000203166002900480601f016020809104026020016040519081016040528092919081815260200182805460018160011615610100020316600290048015610bb95780601f10610b8e57610100808354040283529160200191610bb9565b820191906000526020600020905b815481529060010190602001808311610b9c57829003601f168201915b505050505092509450945094509450945091939590929450565b3360008060009150600090505b600360009054906101000a900463ffffffff1663ffffffff168163ffffffff161015610c8b57600160008263ffffffff1663ffffffff16815260200190815260200160002060009054906101000a900473ffffffffffffffffffffffffffffffffffffffff1673ffffffffffffffffffffffffffffffffffffffff163373ffffffffffffffffffffffffffffffffffffffff161415610c7e57600191505b8080600101915050610be0565b60008263ffffffff161415610d08576040517f08c379a000000000000000000000000000000000000000000000000000000000815260040180806020018281038252600e8152602001807f4e6f7420417574686f72697a656400000000000000000000000000000000000081525060200191505060405180910390fd5b60008410158015610d8457503373ffffffffffffffffffffffffffffffffffffffff16600785815481101515610d3a57fe5b906000526020600020906004020160000160009054906101000a900473ffffffffffffffffffffffffffffffffffffffff1673ffffffffffffffffffffffffffffffffffffffff16145b1515610d8f57600080fd5b6000600785815481101515610da057fe5b906000526020600020906004020160030160086101000a81548160ff0219169083151502179055507f22efaf0cb3bd642425e7be86b531b1a553c2d7a83936239ee16e9f7fdb8fa37d33600786815481101515610df957fe5b9060005260206000209060040201600101604051808373ffffffffffffffffffffffffffffffffffffffff1673ffffffffffffffffffffffffffffffffffffffff1681526020018060200180602001838103835284818154600181600116156101000203166002900481526020019150805460018160011615610100020316600290048015610ec95780601f10610e9e57610100808354040283529160200191610ec9565b820191906000526020600020905b815481529060010190602001808311610eac57829003601f168201915b5050838103825260268152602001807f53657443726564656e7469616c4973416374697665202d202853657420496e6181526020017f637469766529000000000000000000000000000000000000000000000000000081525060400194505050505060405180910390a150505050565b6000809054906101000a900473ffffffffffffffffffffffffffffffffffffffff1673ffffffffffffffffffffffffffffffffffffffff163373ffffffffffffffffffffffffffffffffffffffff16141515610f9457600080fd5b600060149054906101000a900460ff161515610faf57600080fd5b60008060146101000a81548160ff0219169083151502179055507f7805862f689e2f13df9f062ff482ad3ad112aca9e0847911ed832e158c525b3360405160405180910390a1565b60008090506000821015151561100c57600080fd5b600860009054906101000a900463ffffffff1663ffffffff1682101561106c576001151560078381548110151561103f57fe5b906000526020600020906004020160030160089054906101000a900460ff161515141561106b57600190505b5b809050919050565b60007fd269155c21749744b1d4aa8db9212a1c95a65f3baa13728e9d0cc0b6433b2cea85856040518083600019166000191681526020018273ffffffffffffffffffffffffffffffffffffffff1673ffffffffffffffffffffffffffffffffffffffff16815260200180602001828103825260118152602001807f4e6577204f726720416464202850524529000000000000000000000000000000815250602001935050505060405180910390a16000602060ff1611801561114d575060008473ffffffffffffffffffffffffffffffffffffffff1614155b801561115c575060068060ff16145b8015611169575060008251115b8015611176575060468251105b151561118157600080fd5b6004608060405190810160405280876000191681526020018579ffffffffffffffffffffffffffffffffffffffffffffffffffff191681526020018481526020018673ffffffffffffffffffffffffffffffffffffffff16815250908060018154018082558091505090600182039060005260206000209060040201600090919290919091506000820151816000019060001916905560208201518160010160006101000a81548165ffffffffffff02191690837a010000000000000000000000000000000000000000000000000000900402179055506040820151816002019080519060200190611274929190612ce0565b5060608201518160030160006101000a81548173ffffffffffffffffffffffffffffffffffffffff021916908373ffffffffffffffffffffffffffffffffffffffff1602179055505050905060008163ffffffff1611156114a15783600160008363ffffffff1663ffffffff16815260200190815260200160002060006101000a81548173ffffffffffffffffffffffffffffffffffffffff021916908373ffffffffffffffffffffffffffffffffffffffff16021790555061134760018263ffffffff16612c9190919063ffffffff16565b600260008673ffffffffffffffffffffffffffffffffffffffff1673ffffffffffffffffffffffffffffffffffffffff16815260200190815260200160002060006101000a81548163ffffffff021916908363ffffffff1602179055506113d06001600360009054906101000a900463ffffffff1663ffffffff16612cb690919063ffffffff16565b600360006101000a81548163ffffffff021916908363ffffffff1602179055507fd269155c21749744b1d4aa8db9212a1c95a65f3baa13728e9d0cc0b6433b2cea85856040518083600019166000191681526020018273ffffffffffffffffffffffffffffffffffffffff1673ffffffffffffffffffffffffffffffffffffffff16815260200180602001828103825260158152602001807f4e6577204f726720416464202853554343455353290000000000000000000000815250602001935050505060405180910390a161150f565b6040517f08c379a00000000000000000000000000000000000000000000000000000000081526004018080602001828103825260128152602001807f4e6577204f72672041646420284641494c29000000000000000000000000000081525060200191505060405180910390fd5b809050949350505050565b6000600860009054906101000a900463ffffffff16905080905090565b6000600360009054906101000a900463ffffffff16905080905090565b600060149054906101000a900460ff1681565b6000809054906101000a900473ffffffffffffffffffffffffffffffffffffffff1673ffffffffffffffffffffffffffffffffffffffff163373ffffffffffffffffffffffffffffffffffffffff161415156115c257600080fd5b600060149054906101000a900460ff161515156115de57600080fd5b6001600060146101000a81548160ff0219169083151502179055507f6985a02210a168e66602d3235cb6db0e70f92b3ba4d376a33c0f3d9434bff62560405160405180910390a1565b6000809054906101000a900473ffffffffffffffffffffffffffffffffffffffff1681565b3360008060009150600090505b600360009054906101000a900463ffffffff1663ffffffff168163ffffffff16101561170457600160008263ffffffff1663ffffffff16815260200190815260200160002060009054906101000a900473ffffffffffffffffffffffffffffffffffffffff1673ffffffffffffffffffffffffffffffffffffffff163373ffffffffffffffffffffffffffffffffffffffff1614156116f757600191505b8080600101915050611659565b60008263ffffffff161415611781576040517f08c379a000000000000000000000000000000000000000000000000000000000815260040180806020018281038252600e8152602001807f4e6f7420417574686f72697a656400000000000000000000000000000000000081525060200191505060405180910390fd5b600084101580156117fd57503373ffffffffffffffffffffffffffffffffffffffff166007858154811015156117b357fe5b906000526020600020906004020160000160009054906101000a900473ffffffffffffffffffffffffffffffffffffffff1673ffffffffffffffffffffffffffffffffffffffff16145b151561180857600080fd5b600160078581548110151561181957fe5b906000526020600020906004020160030160086101000a81548160ff0219169083151502179055507f22efaf0cb3bd642425e7be86b531b1a553c2d7a83936239ee16e9f7fdb8fa37d3360078681548110151561187257fe5b9060005260206000209060040201600101604051808373ffffffffffffffffffffffffffffffffffffffff1673ffffffffffffffffffffffffffffffffffffffff16815260200180602001806020018381038352848181546001816001161561010002031660029004815260200191508054600181600116156101000203166002900480156119425780601f1061191757610100808354040283529160200191611942565b820191906000526020600020905b81548152906001019060200180831161192557829003601f168201915b5050838103825260248152602001807f53657443726564656e7469616c4973416374697665202d20285365742041637481526020017f697665290000000000000000000000000000000000000000000000000000000081525060400194505050505060405180910390a150505050565b60008060606000808563ffffffff16101580156119ec5750600360009054906101000a900463ffffffff1663ffffffff168563ffffffff16105b15156119f757600080fd5b60048563ffffffff16815481101515611a0c57fe5b90600052602060002090600402016000015460048663ffffffff16815481101515611a3357fe5b906000526020600020906004020160010160009054906101000a90047a0100000000000000000000000000000000000000000000000000000260048763ffffffff16815481101515611a8157fe5b906000526020600020906004020160020160048863ffffffff16815481101515611aa757fe5b906000526020600020906004020160030160009054906101000a900473ffffffffffffffffffffffffffffffffffffffff16818054600181600116156101000203166002900480601f016020809104026020016040519081016040528092919081815260200182805460018160011615610100020316600290048015611b6e5780601f10611b4357610100808354040283529160200191611b6e565b820191906000526020600020905b815481529060010190602001808311611b5157829003601f168201915b5050505050915093509350935093509193509193565b60003360008060009150600090505b600360009054906101000a900463ffffffff1663ffffffff168163ffffffff161015611c3e57600160008263ffffffff1663ffffffff16815260200190815260200160002060009054906101000a900473ffffffffffffffffffffffffffffffffffffffff1673ffffffffffffffffffffffffffffffffffffffff163373ffffffffffffffffffffffffffffffffffffffff161415611c3157600191505b8080600101915050611b93565b60008263ffffffff161415611cbb576040517f08c379a000000000000000000000000000000000000000000000000000000000815260040180806020018281038252600e8152602001807f4e6f7420417574686f72697a656400000000000000000000000000000000000081525060200191505060405180910390fd5b7f22efaf0cb3bd642425e7be86b531b1a553c2d7a83936239ee16e9f7fdb8fa37d3388604051808373ffffffffffffffffffffffffffffffffffffffff1673ffffffffffffffffffffffffffffffffffffffff1681526020018060200180602001838103835284818151815260200191508051906020019080838360005b83811015611d54578082015181840152602081019050611d39565b50505050905090810190601f168015611d815780820380516001836020036101000a031916815260200191505b508381038252601c8152602001807f4e65772043726564656e7469616c204164642028415454454d5054290000000081525060200194505050505060405180910390a160018060ff16148015611dd8575060008751115b8015611de5575060468751105b8015611df357506000865110155b8015611e00575060328651105b1515611e0b57600080fd5b600760c0604051908101604052803373ffffffffffffffffffffffffffffffffffffffff1681526020018a7effffffffffffffffffffffffffffffffffffffffffffffffffffffffffffff191681526020018981526020018881526020018777ffffffffffffffffffffffffffffffffffffffffffffffff19168152602001600115158152509080600181540180825580915050906001820390600052602060002090600402016000909192909190915060008201518160000160006101000a81548173ffffffffffffffffffffffffffffffffffffffff021916908373ffffffffffffffffffffffffffffffffffffffff16021790555060208201518160000160146101000a81548160ff02191690837f0100000000000000000000000000000000000000000000000000000000000000900402179055506040820151816001019080519060200190611f60929190612ce0565b506060820151816002019080519060200190611f7d929190612ce0565b5060808201518160030160006101000a81548167ffffffffffffffff021916908378010000000000000000000000000000000000000000000000009004021790555060a08201518160030160086101000a81548160ff021916908315150217905550505093506000841015156122d3576120196001600860009054906101000a900463ffffffff1663ffffffff16612cb690919063ffffffff16565b600860006101000a81548163ffffffff021916908363ffffffff1602179055506120a26001600660003373ffffffffffffffffffffffffffffffffffffffff1673ffffffffffffffffffffffffffffffffffffffff16815260200190815260200160002060009054906101000a900463ffffffff1663ffffffff16612cb690919063ffffffff16565b600660003373ffffffffffffffffffffffffffffffffffffffff1673ffffffffffffffffffffffffffffffffffffffff16815260200190815260200160002060006101000a81548163ffffffff021916908363ffffffff1602179055506121686001600560003373ffffffffffffffffffffffffffffffffffffffff1673ffffffffffffffffffffffffffffffffffffffff16815260200190815260200160002060009054906101000a900463ffffffff1663ffffffff16612cb690919063ffffffff16565b600560003373ffffffffffffffffffffffffffffffffffffffff1673ffffffffffffffffffffffffffffffffffffffff16815260200190815260200160002060006101000a81548163ffffffff021916908363ffffffff1602179055507f22efaf0cb3bd642425e7be86b531b1a553c2d7a83936239ee16e9f7fdb8fa37d3388604051808373ffffffffffffffffffffffffffffffffffffffff1673ffffffffffffffffffffffffffffffffffffffff1681526020018060200180602001838103835284818151815260200191508051906020019080838360005b8381101561225e578082015181840152602081019050612243565b50505050905090810190601f16801561228b5780820380516001836020036101000a031916815260200191505b508381038252601d8152602001807f4e65772043726564656e7469616c20416464202853554343434553532900000081525060200194505050505060405180910390a16123dd565b7f22efaf0cb3bd642425e7be86b531b1a553c2d7a83936239ee16e9f7fdb8fa37d3388604051808373ffffffffffffffffffffffffffffffffffffffff1673ffffffffffffffffffffffffffffffffffffffff1681526020018060200180602001838103835284818151815260200191508051906020019080838360005b8381101561236c578082015181840152602081019050612351565b50505050905090810190601f1680156123995780820380516001836020036101000a031916815260200191505b508381038252601b8152602001807f4e65772043726564656e7469616c2041646420284641494c454429000000000081525060200194505050505060405180910390a15b5050505050505050565b60008060009054906101000a900473ffffffffffffffffffffffffffffffffffffffff1673ffffffffffffffffffffffffffffffffffffffff163373ffffffffffffffffffffffffffffffffffffffff1614151561244457600080fd5b7f22efaf0cb3bd642425e7be86b531b1a553c2d7a83936239ee16e9f7fdb8fa37d8685604051808373ffffffffffffffffffffffffffffffffffffffff1673ffffffffffffffffffffffffffffffffffffffff1681526020018060200180602001838103835284818151815260200191508051906020019080838360005b838110156124dd5780820151818401526020810190506124c2565b50505050905090810190601f16801561250a5780820380516001836020036101000a031916815260200191505b508381038252601c8152602001807f4e65772043726564656e7469616c204164642028415454454d5054290000000081525060200194505050505060405180910390a160018060ff16148015612561575060008451115b801561256e575060468451105b801561257c57506000835110155b8015612589575060328351105b151561259457600080fd5b600760c0604051908101604052808873ffffffffffffffffffffffffffffffffffffffff168152602001877effffffffffffffffffffffffffffffffffffffffffffffffffffffffffffff191681526020018681526020018581526020018477ffffffffffffffffffffffffffffffffffffffffffffffff19168152602001600115158152509080600181540180825580915050906001820390600052602060002090600402016000909192909190915060008201518160000160006101000a81548173ffffffffffffffffffffffffffffffffffffffff021916908373ffffffffffffffffffffffffffffffffffffffff16021790555060208201518160000160146101000a81548160ff02191690837f01000000000000000000000000000000000000000000000000000000000000009004021790555060408201518160010190805190602001906126e9929190612ce0565b506060820151816002019080519060200190612706929190612ce0565b5060808201518160030160006101000a81548167ffffffffffffffff021916908378010000000000000000000000000000000000000000000000009004021790555060a08201518160030160086101000a81548160ff021916908315150217905550505090506000811015156128d0576127a26001600860009054906101000a900463ffffffff1663ffffffff16612cb690919063ffffffff16565b600860006101000a81548163ffffffff021916908363ffffffff1602179055507f22efaf0cb3bd642425e7be86b531b1a553c2d7a83936239ee16e9f7fdb8fa37d8685604051808373ffffffffffffffffffffffffffffffffffffffff1673ffffffffffffffffffffffffffffffffffffffff1681526020018060200180602001838103835284818151815260200191508051906020019080838360005b8381101561285b578082015181840152602081019050612840565b50505050905090810190601f1680156128885780820380516001836020036101000a031916815260200191505b508381038252601d8152602001807f4e65772043726564656e7469616c20416464202853554343434553532900000081525060200194505050505060405180910390a16129de565b7f22efaf0cb3bd642425e7be86b531b1a553c2d7a83936239ee16e9f7fdb8fa37d8685604051808373ffffffffffffffffffffffffffffffffffffffff1673ffffffffffffffffffffffffffffffffffffffff1681526020018060200180602001838103835284818151815260200191508051906020019080838360005b8381101561296957808201518184015260208101905061294e565b50505050905090810190601f1680156129965780820380516001836020036101000a031916815260200191505b508381038252601b8152602001807f4e65772043726564656e7469616c2041646420284641494c454429000000000081525060200194505050505060405180910390a1600080fd5b505050505050565b6000806000915060008373ffffffffffffffffffffffffffffffffffffffff1614151515612a7c576040517f08c379a00000000000000000000000000000000000000000000000000000000081526004018080602001828103825260188152602001807f5a65726f2041646472657373204e6f7420416c6c6f776564000000000000000081525060200191505060405180910390fd5b600090505b600360009054906101000a900463ffffffff1663ffffffff168163ffffffff161015612b33578273ffffffffffffffffffffffffffffffffffffffff1660048263ffffffff16815481101515612ad357fe5b906000526020600020906004020160030160009054906101000a900473ffffffffffffffffffffffffffffffffffffffff1673ffffffffffffffffffffffffffffffffffffffff161415612b2657600191505b8080600101915050612a81565b81915050919050565b6000809054906101000a900473ffffffffffffffffffffffffffffffffffffffff1673ffffffffffffffffffffffffffffffffffffffff163373ffffffffffffffffffffffffffffffffffffffff16141515612b9757600080fd5b600073ffffffffffffffffffffffffffffffffffffffff168173ffffffffffffffffffffffffffffffffffffffff1614151515612bd357600080fd5b8073ffffffffffffffffffffffffffffffffffffffff166000809054906101000a900473ffffffffffffffffffffffffffffffffffffffff1673ffffffffffffffffffffffffffffffffffffffff167f8be0079c531659141344cd1fd0a4f28419497f9722a3daafe3b4186f6b6457e060405160405180910390a3806000806101000a81548173ffffffffffffffffffffffffffffffffffffffff021916908373ffffffffffffffffffffffffffffffffffffffff16021790555050565b60008263ffffffff168263ffffffff1611151515612cab57fe5b818303905092915050565b60008082840190508363ffffffff168163ffffffff1610151515612cd657fe5b8091505092915050565b828054600181600116156101000203166002900490600052602060002090601f016020900481019282601f10612d2157805160ff1916838001178555612d4f565b82800160010185558215612d4f579182015b82811115612d4e578251825591602001919060010190612d33565b5b509050612d5c9190612d60565b5090565b612d8291905b80821115612d7e576000816000905550600101612d66565b5090565b905600a165627a7a7230582052d9034abe3a87f5f707437bdf2c90ce137c117623c5650e48c6334fce87b1180029",
  "source": "pragma solidity ^0.4.21;\r\nimport \"./CredentialOrgFactory.sol\";\r\n/**\r\n * @title CredentialFactory\r\n * @dev The CredentialFactory allows the credentialOrgs to add/lookup credentials\r\n */\r\ncontract CredentialFactory is CredentialOrgFactory{\r\n    \r\n    using SafeMath32 for uint32;\r\n    // events\r\n    event CredentialFactoryActivity(address credentialOrg, string credentialTitle, string detail);\r\n\r\n    // mapping\r\n    mapping (address => uint32) addressToCredentialCount;\r\n    mapping (address => uint32) addressToActiveCredentialCount;\r\n\r\n    // structs\r\n    struct Credential {\r\n        address credentialOrg;      // CredentialOwnerAddress\r\n        bytes1 credentialLevel;     // single byte string \r\n        string credentialTitle;     // 70 or less string\r\n        string credentialDivision;  // 50 or less string\r\n        bytes8 credentialInsertDate;// Credential InsertDate YYYYMMDD\r\n        bool isActive;              // is CredentialActive for use\r\n    }\r\n    Credential[] private credentials;\r\n    uint32 private credentialCount;\r\n    \r\n    // constructor\r\n    constructor () public {\r\n        credentialCount = 0;\r\n        createCredentialByOwner(owner, \"A\", \"Associate Degree in Basket Weaving\", \"BA - Arts\", \"20180703\");\r\n        //createCredentialByOwner(0x14723A09ACff6D2A60DcdF7aA4AFf308FDDC160C, \"A\", \"Associate Degree in Basket Weaving\", \"BA - Arts\", \"20180703\");\r\n        //createCredentialByOwner(0x4B0897b0513fdC7C541B6d9D7E929C4e5364D2dB, \"A\", \"Associate Degree in Basket Weaving\", \"BA - Arts\", \"20180703\");\r\n    }\r\n    \r\n    // functions\r\n    /**\r\n    * @dev allows credentialing Orgs to create new credentials\r\n    * @param _credentialLevel Credential Level\r\n    * @param _credentialTitle CredentialTitle\r\n    * @param _credentialDivision Credential Division\r\n    * @param _insertDate Credential InsertDate (YYYYMMDD)\r\n    */\r\n    function createCredential(bytes1 _credentialLevel, string _credentialTitle, string _credentialDivision, bytes8 _insertDate) \r\n    public onlyBy(msg.sender)\r\n    {\r\n        emit CredentialFactoryActivity(msg.sender, _credentialTitle, \"New Credential Add (ATTEMPT)\");\r\n        require(_credentialLevel.length == 1 && bytes(_credentialTitle).length > 0 && bytes(_credentialTitle).length < 70 && bytes(_credentialDivision).length >= 0 && bytes(_credentialDivision).length < 50);\r\n        uint position = credentials.push(Credential(msg.sender, _credentialLevel, _credentialTitle, _credentialDivision, _insertDate, true));\r\n        if(position >= 0){\r\n            credentialCount = credentialCount.add(1);\r\n            addressToActiveCredentialCount[msg.sender] = addressToActiveCredentialCount[msg.sender].add(1);\r\n            addressToCredentialCount[msg.sender] = addressToCredentialCount[msg.sender].add(1);\r\n            emit CredentialFactoryActivity(msg.sender, _credentialTitle, \"New Credential Add (SUCCCESS)\");\r\n        } else {\r\n            emit CredentialFactoryActivity(msg.sender, _credentialTitle, \"New Credential Add (FAILED)\");\r\n        }\r\n    }\r\n\r\n    /**\r\n    * @dev allows owner to create new credentials\r\n    * @param _credentialLevel Credential Level\r\n    * @param _credentialTitle CredentialTitle\r\n    * @param _credentialDivision Credential Division\r\n    * @param _insertDate Credential InsertDate (YYYYMMDD)\r\n    */\r\n    function createCredentialByOwner(address _credentialOrg, bytes1 _credentialLevel, string _credentialTitle, string _credentialDivision, bytes8 _insertDate) \r\n    public onlyOwner\r\n    {\r\n        emit CredentialFactoryActivity(_credentialOrg, _credentialTitle, \"New Credential Add (ATTEMPT)\");\r\n        require(_credentialLevel.length == 1 && bytes(_credentialTitle).length > 0 && bytes(_credentialTitle).length < 70 && bytes(_credentialDivision).length >= 0 && bytes(_credentialDivision).length < 50);\r\n        uint position = credentials.push(Credential(_credentialOrg, _credentialLevel, _credentialTitle, _credentialDivision, _insertDate, true));\r\n        if(position >= 0){\r\n            credentialCount = credentialCount.add(1);\r\n            emit CredentialFactoryActivity(_credentialOrg, _credentialTitle, \"New Credential Add (SUCCCESS)\");\r\n        } else {\r\n            emit CredentialFactoryActivity(_credentialOrg, _credentialTitle, \"New Credential Add (FAILED)\");\r\n            revert();\r\n        }\r\n    }\r\n\r\n    /**\r\n    * @dev allows selection of credential based on position.\r\n    * @param _credentialPosition allows selection of credentialing orgs details.\r\n    */\r\n    function selectCredential(uint32 _credentialPosition) \r\n    public view\r\n    returns (bytes1 credentialLevel, string credentialTitle, string credentialDivision, bytes8 credentialInsertDate, bool isActive)\r\n    {\r\n        require(_credentialPosition >= 0 && _credentialPosition < credentialCount);\r\n        return (credentials[_credentialPosition].credentialLevel, credentials[_credentialPosition].credentialTitle, credentials[_credentialPosition].credentialDivision, credentials[_credentialPosition].credentialInsertDate,credentials[_credentialPosition].isActive);\r\n    }\r\n\r\n    /**\r\n    * @dev allows setting credential inactive by it's owner\r\n    * @param _position Credential position in array\r\n    */\r\n    function setCredentialInactiveFlag(uint _position)\r\n    public onlyBy(msg.sender)\r\n    {\r\n        require(_position >= 0 && credentials[_position].credentialOrg == msg.sender);\r\n        credentials[_position].isActive = false;\r\n        emit CredentialFactoryActivity(msg.sender, credentials[_position].credentialTitle, \"SetCredentialIsActive - (Set Inactive)\");\r\n    }\r\n\r\n    /**\r\n    * @dev allows setting credential inactive by it's credentialing org.\r\n    * @param _position Credential position in array\r\n    */\r\n    function setCredentialActiveFlag(uint _position)\r\n    public onlyBy(msg.sender)\r\n    {\r\n        require(_position >= 0 && credentials[_position].credentialOrg == msg.sender);\r\n        credentials[_position].isActive = true;\r\n        emit CredentialFactoryActivity(msg.sender, credentials[_position].credentialTitle, \"SetCredentialIsActive - (Set Active)\");\r\n    }\r\n\r\n    /**\r\n    * @dev allows checking of CredentialCount\r\n    */\r\n    function SelectCredentialCount()\r\n    public view\r\n    returns (uint32 returnCredentialCount)\r\n    {\r\n        returnCredentialCount = credentialCount;\r\n        return (returnCredentialCount);\r\n    }\r\n\r\n    /**\r\n    * @dev allows checking of isActive flag for credential\r\n    * @param _position Credential position in array\r\n    */\r\n    function isCredentialActive(uint _position)\r\n    public view\r\n    returns (bool activeState)\r\n    {\r\n        activeState = false;\r\n        require(_position >= 0);\r\n        if (_position < credentialCount){\r\n            if (credentials[_position].isActive == true){\r\n                activeState = true;\r\n            }\r\n        }\r\n        return (activeState);\r\n    }\r\n}",
  "sourcePath": "E:\\Projects\\CredentialVerify\\contracts\\CredentialFactory.sol",
  "compiler": {
    "name": "solc",
    "version": "0.4.24+commit.e67f0147.Emscripten.clang"
  },
  "schemaVersion": "2.0.1",
  "updatedAt": "2018-08-06T03:43:43.072Z"
}