{
  "contractName": "CredentialFactory",
  "abi": [
    {
      "constant": false,
      "inputs": [],
      "name": "unpause",
      "outputs": [],
      "payable": false,
      "stateMutability": "nonpayable",
      "type": "function"
    },
    {
      "constant": true,
      "inputs": [],
      "name": "paused",
      "outputs": [
        {
          "name": "",
          "type": "bool"
        }
      ],
      "payable": false,
      "stateMutability": "view",
      "type": "function"
    },
    {
      "constant": false,
      "inputs": [],
      "name": "pause",
      "outputs": [],
      "payable": false,
      "stateMutability": "nonpayable",
      "type": "function"
    },
    {
      "constant": true,
      "inputs": [],
      "name": "owner",
      "outputs": [
        {
          "name": "",
          "type": "address"
        }
      ],
      "payable": false,
      "stateMutability": "view",
      "type": "function"
    },
    {
      "constant": true,
      "inputs": [],
      "name": "credentialCount",
      "outputs": [
        {
          "name": "",
          "type": "uint32"
        }
      ],
      "payable": false,
      "stateMutability": "view",
      "type": "function"
    },
    {
      "constant": true,
      "inputs": [],
      "name": "credentialOrgContractAddress",
      "outputs": [
        {
          "name": "",
          "type": "address"
        }
      ],
      "payable": false,
      "stateMutability": "view",
      "type": "function"
    },
    {
      "constant": false,
      "inputs": [
        {
          "name": "newOwner",
          "type": "address"
        }
      ],
      "name": "transferOwnership",
      "outputs": [],
      "payable": false,
      "stateMutability": "nonpayable",
      "type": "function"
    },
    {
      "inputs": [],
      "payable": false,
      "stateMutability": "nonpayable",
      "type": "constructor"
    },
    {
      "anonymous": false,
      "inputs": [
        {
          "indexed": false,
          "name": "credentialOrg",
          "type": "address"
        },
        {
          "indexed": false,
          "name": "credentialTitle",
          "type": "string"
        },
        {
          "indexed": false,
          "name": "detail",
          "type": "string"
        }
      ],
      "name": "CredentialFactoryActivity",
      "type": "event"
    },
    {
      "anonymous": false,
      "inputs": [],
      "name": "Pause",
      "type": "event"
    },
    {
      "anonymous": false,
      "inputs": [],
      "name": "Unpause",
      "type": "event"
    },
    {
      "anonymous": false,
      "inputs": [
        {
          "indexed": true,
          "name": "previousOwner",
          "type": "address"
        },
        {
          "indexed": true,
          "name": "newOwner",
          "type": "address"
        }
      ],
      "name": "OwnershipTransferred",
      "type": "event"
    },
    {
      "constant": false,
      "inputs": [
        {
          "name": "_credentialOrgContractAddress",
          "type": "address"
        }
      ],
      "name": "setAddress",
      "outputs": [],
      "payable": false,
      "stateMutability": "nonpayable",
      "type": "function"
    },
    {
      "constant": false,
      "inputs": [
        {
          "name": "_credentialLevel",
          "type": "bytes1"
        },
        {
          "name": "_credentialTitle",
          "type": "string"
        },
        {
          "name": "_credentialDivision",
          "type": "string"
        }
      ],
      "name": "createCredential",
      "outputs": [],
      "payable": false,
      "stateMutability": "nonpayable",
      "type": "function"
    },
    {
      "constant": true,
      "inputs": [
        {
          "name": "_credentialOrgAddress",
          "type": "address"
        },
        {
          "name": "_position",
          "type": "uint32"
        }
      ],
      "name": "selectCredential",
      "outputs": [
        {
          "name": "credentialLevel",
          "type": "bytes1"
        },
        {
          "name": "credentialTitle",
          "type": "string"
        },
        {
          "name": "credentialDivision",
          "type": "string"
        },
        {
          "name": "credentialInsertDate",
          "type": "uint32"
        },
        {
          "name": "isActive",
          "type": "bool"
        }
      ],
      "payable": false,
      "stateMutability": "view",
      "type": "function"
    },
    {
      "constant": false,
      "inputs": [
        {
          "name": "_position",
          "type": "uint256"
        }
      ],
      "name": "setCredentialInactiveFlag",
      "outputs": [],
      "payable": false,
      "stateMutability": "nonpayable",
      "type": "function"
    },
    {
      "constant": false,
      "inputs": [
        {
          "name": "_position",
          "type": "uint256"
        }
      ],
      "name": "setCredentialActiveFlag",
      "outputs": [],
      "payable": false,
      "stateMutability": "nonpayable",
      "type": "function"
    },
    {
      "constant": true,
      "inputs": [
        {
          "name": "_credentialOrgAddress",
          "type": "address"
        }
      ],
      "name": "SelectOrgCredentialActiveCount",
      "outputs": [
        {
          "name": "returnCredentialCount",
          "type": "uint32"
        }
      ],
      "payable": false,
      "stateMutability": "view",
      "type": "function"
    },
    {
      "constant": true,
      "inputs": [
        {
          "name": "_credentialOrgAddress",
          "type": "address"
        }
      ],
      "name": "SelectOrgCredentialCount",
      "outputs": [
        {
          "name": "returnCredentialCount",
          "type": "uint32"
        }
      ],
      "payable": false,
      "stateMutability": "view",
      "type": "function"
    },
    {
      "constant": true,
      "inputs": [
        {
          "name": "_credentialOrgAddress",
          "type": "address"
        },
        {
          "name": "_position",
          "type": "uint256"
        }
      ],
      "name": "isCredentialActive",
      "outputs": [
        {
          "name": "activeState",
          "type": "bool"
        }
      ],
      "payable": false,
      "stateMutability": "view",
      "type": "function"
    }
  ],
  "bytecode": "0x608060405260008060146101000a81548160ff0219169083151502179055503480156200002b57600080fd5b50336000806101000a81548173ffffffffffffffffffffffffffffffffffffffff021916908373ffffffffffffffffffffffffffffffffffffffff1602179055506000600460006101000a81548163ffffffff021916908363ffffffff1602179055506200015b7f4100000000000000000000000000000000000000000000000000000000000000606060405190810160405280602281526020017f4173736f63696174652044656772656520696e204261736b657420576561766981526020017f6e670000000000000000000000000000000000000000000000000000000000008152506040805190810160405280600981526020017f4241202d2041727473000000000000000000000000000000000000000000000081525062000161640100000000026401000000009004565b62000d0c565b6000807f22efaf0cb3bd642425e7be86b531b1a553c2d7a83936239ee16e9f7fdb8fa37d3385604051808373ffffffffffffffffffffffffffffffffffffffff1673ffffffffffffffffffffffffffffffffffffffff1681526020018060200180602001838103835284818151815260200191508051906020019080838360005b83811015620001ff578082015181840152602081019050620001e2565b50505050905090810190601f1680156200022d5780820380516001836020036101000a031916815260200191505b508381038252601c8152602001807f4e65772043726564656e7469616c204164642028415454454d5054290000000081525060200194505050505060405180910390a16004809054906101000a900473ffffffffffffffffffffffffffffffffffffffff1691508173ffffffffffffffffffffffffffffffffffffffff1663e1eaee42336040518263ffffffff167c0100000000000000000000000000000000000000000000000000000000028152600401808273ffffffffffffffffffffffffffffffffffffffff1673ffffffffffffffffffffffffffffffffffffffff168152602001915050602060405180830381600087803b1580156200033057600080fd5b505af115801562000345573d6000803e3d6000fd5b505050506040513d60208110156200035c57600080fd5b81019080805190602001909291905050501562000af8576000845111801562000386575060468451105b151562000421576040517f08c379a00000000000000000000000000000000000000000000000000000000081526004018080602001828103825260278152602001807f63726561746543726564656e7469616c202d205469746c65206c656e6774682081526020017f70726f626c656d0000000000000000000000000000000000000000000000000081525060400191505060405180910390fd5b600083511015801562000435575060328351105b1515620004d0576040517f08c379a000000000000000000000000000000000000000000000000000000000815260040180806020018281038252602a8152602001807f63726561746543726564656e7469616c202d204469766973696f6e206c656e6781526020017f74682070726f626c656d0000000000000000000000000000000000000000000081525060400191505060405180910390fd5b600160003373ffffffffffffffffffffffffffffffffffffffff1673ffffffffffffffffffffffffffffffffffffffff16815260200190815260200160002060c0604051908101604052803373ffffffffffffffffffffffffffffffffffffffff168152602001877effffffffffffffffffffffffffffffffffffffffffffffffffffffffffffff191681526020018681526020018581526020014263ffffffff168152602001600115158152509080600181540180825580915050906001820390600052602060002090600402016000909192909190915060008201518160000160006101000a81548173ffffffffffffffffffffffffffffffffffffffff021916908373ffffffffffffffffffffffffffffffffffffffff16021790555060208201518160000160146101000a81548160ff02191690837f01000000000000000000000000000000000000000000000000000000000000009004021790555060408201518160010190805190602001906200064f92919062000c5d565b5060608201518160020190805190602001906200066e92919062000c5d565b5060808201518160030160006101000a81548163ffffffff021916908363ffffffff16021790555060a08201518160030160046101000a81548160ff0219169083151502179055505050905060008163ffffffff16101515620009e557620007076001600460009054906101000a900463ffffffff1663ffffffff1662000c3264010000000002620026e0179091906401000000009004565b600460006101000a81548163ffffffff021916908363ffffffff160217905550620007a06001600260003373ffffffffffffffffffffffffffffffffffffffff1673ffffffffffffffffffffffffffffffffffffffff16815260200190815260200160002060009054906101000a900463ffffffff1663ffffffff1662000c3264010000000002620026e0179091906401000000009004565b600260003373ffffffffffffffffffffffffffffffffffffffff1673ffffffffffffffffffffffffffffffffffffffff16815260200190815260200160002060006101000a81548163ffffffff021916908363ffffffff160217905550620008766001600360003373ffffffffffffffffffffffffffffffffffffffff1673ffffffffffffffffffffffffffffffffffffffff16815260200190815260200160002060009054906101000a900463ffffffff1663ffffffff1662000c3264010000000002620026e0179091906401000000009004565b600360003373ffffffffffffffffffffffffffffffffffffffff1673ffffffffffffffffffffffffffffffffffffffff16815260200190815260200160002060006101000a81548163ffffffff021916908363ffffffff1602179055507f22efaf0cb3bd642425e7be86b531b1a553c2d7a83936239ee16e9f7fdb8fa37d3385604051808373ffffffffffffffffffffffffffffffffffffffff1673ffffffffffffffffffffffffffffffffffffffff1681526020018060200180602001838103835284818151815260200191508051906020019080838360005b838110156200096e57808201518184015260208101905062000951565b50505050905090810190601f1680156200099c5780820380516001836020036101000a031916815260200191505b508381038252601d8152602001807f4e65772043726564656e7469616c20416464202853554343434553532900000081525060200194505050505060405180910390a162000af2565b7f22efaf0cb3bd642425e7be86b531b1a553c2d7a83936239ee16e9f7fdb8fa37d3385604051808373ffffffffffffffffffffffffffffffffffffffff1673ffffffffffffffffffffffffffffffffffffffff1681526020018060200180602001838103835284818151815260200191508051906020019080838360005b8381101562000a8057808201518184015260208101905062000a63565b50505050905090810190601f16801562000aae5780820380516001836020036101000a031916815260200191505b508381038252601b8152602001807f4e65772043726564656e7469616c2041646420284641494c454429000000000081525060200194505050505060405180910390a15b62000c2b565b7f22efaf0cb3bd642425e7be86b531b1a553c2d7a83936239ee16e9f7fdb8fa37d3385604051808373ffffffffffffffffffffffffffffffffffffffff1673ffffffffffffffffffffffffffffffffffffffff1681526020018060200180602001838103835284818151815260200191508051906020019080838360005b8381101562000b9357808201518184015260208101905062000b76565b50505050905090810190601f16801562000bc15780820380516001836020036101000a031916815260200191505b508381038252602e8152602001807f4e65772043726564656e7469616c2041646420284641494c4544292c204e6f7481526020017f2043726564656e7469616c4f726700000000000000000000000000000000000081525060400194505050505060405180910390a15b5050505050565b60008082840190508363ffffffff168163ffffffff161015151562000c5357fe5b8091505092915050565b828054600181600116156101000203166002900490600052602060002090601f016020900481019282601f1062000ca057805160ff191683800117855562000cd1565b8280016001018555821562000cd1579182015b8281111562000cd057825182559160200191906001019062000cb3565b5b50905062000ce0919062000ce4565b5090565b62000d0991905b8082111562000d0557600081600090555060010162000ceb565b5090565b90565b6127db8062000d1c6000396000f3006080604052600436106100db576000357c0100000000000000000000000000000000000000000000000000000000900463ffffffff1680632b83acac146100e05780633f4ba83a1461010d578063477d02c5146101245780635c975abb146101895780638456cb59146101b85780638da5cb5b146101cf578063a821a34014610226578063b9572c3e14610289578063bd8fbbe9146102b6578063cd0e35b914610319578063ce2855ac14610350578063e30081a0146103a7578063e7c32593146103ea578063f2fde38b1461058b578063fdf3f908146105ce575b600080fd5b3480156100ec57600080fd5b5061010b600480360381019080803590602001909291905050506106a9565b005b34801561011957600080fd5b50610122610c5b565b005b34801561013057600080fd5b5061016f600480360381019080803573ffffffffffffffffffffffffffffffffffffffff16906020019092919080359060200190929190505050610d19565b604051808215151515815260200191505060405180910390f35b34801561019557600080fd5b5061019e610e11565b604051808215151515815260200191505060405180910390f35b3480156101c457600080fd5b506101cd610e24565b005b3480156101db57600080fd5b506101e4610ee4565b604051808273ffffffffffffffffffffffffffffffffffffffff1673ffffffffffffffffffffffffffffffffffffffff16815260200191505060405180910390f35b34801561023257600080fd5b50610267600480360381019080803573ffffffffffffffffffffffffffffffffffffffff169060200190929190505050610f09565b604051808263ffffffff1663ffffffff16815260200191505060405180910390f35b34801561029557600080fd5b506102b460048036038101908080359060200190929190505050610f65565b005b3480156102c257600080fd5b506102f7600480360381019080803573ffffffffffffffffffffffffffffffffffffffff169060200190929190505050611516565b604051808263ffffffff1663ffffffff16815260200191505060405180910390f35b34801561032557600080fd5b5061032e611572565b604051808263ffffffff1663ffffffff16815260200191505060405180910390f35b34801561035c57600080fd5b50610365611588565b604051808273ffffffffffffffffffffffffffffffffffffffff1673ffffffffffffffffffffffffffffffffffffffff16815260200191505060405180910390f35b3480156103b357600080fd5b506103e8600480360381019080803573ffffffffffffffffffffffffffffffffffffffff1690602001909291905050506115ad565b005b3480156103f657600080fd5b5061043b600480360381019080803573ffffffffffffffffffffffffffffffffffffffff169060200190929190803563ffffffff169060200190929190505050611646565b60405180867effffffffffffffffffffffffffffffffffffffffffffffffffffffffffffff19167effffffffffffffffffffffffffffffffffffffffffffffffffffffffffffff1916815260200180602001806020018563ffffffff1663ffffffff16815260200184151515158152602001838103835287818151815260200191508051906020019080838360005b838110156104e55780820151818401526020810190506104ca565b50505050905090810190601f1680156105125780820380516001836020036101000a031916815260200191505b50838103825286818151815260200191508051906020019080838360005b8381101561054b578082015181840152602081019050610530565b50505050905090810190601f1680156105785780820380516001836020036101000a031916815260200191505b5097505050505050505060405180910390f35b34801561059757600080fd5b506105cc600480360381019080803573ffffffffffffffffffffffffffffffffffffffff169060200190929190505050611ae0565b005b3480156105da57600080fd5b506106a760048036038101908080357effffffffffffffffffffffffffffffffffffffffffffffffffffffffffffff19169060200190929190803590602001908201803590602001908080601f0160208091040260200160405190810160405280939291908181526020018383808284378201915050505050509192919290803590602001908201803590602001908080601f0160208091040260200160405190810160405280939291908181526020018383808284378201915050505050509192919290505050611c35565b005b600160003373ffffffffffffffffffffffffffffffffffffffff1673ffffffffffffffffffffffffffffffffffffffff168152602001908152602001600020818154811015156106f557fe5b906000526020600020906004020160000160009054906101000a900473ffffffffffffffffffffffffffffffffffffffff1673ffffffffffffffffffffffffffffffffffffffff163373ffffffffffffffffffffffffffffffffffffffff161415156107ef576040517f08c379a000000000000000000000000000000000000000000000000000000000815260040180806020018281038252602d8152602001807f7365744372656465656e7469616c496e616374697665666c6167202d2028464181526020017f494c29206e6f74206f776e65720000000000000000000000000000000000000081525060400191505060405180910390fd5b6000811015151561088e576040517f08c379a00000000000000000000000000000000000000000000000000000000081526004018080602001828103825260328152602001807f73657443726564656e7469616c496e616374697665466c61673a20506f73697481526020017f696f6e206f72204f7267206661696c757265000000000000000000000000000081525060400191505060405180910390fd5b60011515600160003373ffffffffffffffffffffffffffffffffffffffff1673ffffffffffffffffffffffffffffffffffffffff168152602001908152602001600020828154811015156108de57fe5b906000526020600020906004020160030160049054906101000a900460ff161515141515610974576040517f08c379a00000000000000000000000000000000000000000000000000000000081526004018080602001828103825260188152602001807f43726564656e7469616c206973204e4f5420416374697665000000000000000081525060200191505060405180910390fd5b6000600160003373ffffffffffffffffffffffffffffffffffffffff1673ffffffffffffffffffffffffffffffffffffffff168152602001908152602001600020828154811015156109c257fe5b906000526020600020906004020160030160046101000a81548160ff021916908315150217905550610a536001600360003373ffffffffffffffffffffffffffffffffffffffff1673ffffffffffffffffffffffffffffffffffffffff16815260200190815260200160002060009054906101000a900463ffffffff1663ffffffff166126bb90919063ffffffff16565b600360003373ffffffffffffffffffffffffffffffffffffffff1673ffffffffffffffffffffffffffffffffffffffff16815260200190815260200160002060006101000a81548163ffffffff021916908363ffffffff1602179055507f22efaf0cb3bd642425e7be86b531b1a553c2d7a83936239ee16e9f7fdb8fa37d33600160003373ffffffffffffffffffffffffffffffffffffffff1673ffffffffffffffffffffffffffffffffffffffff16815260200190815260200160002083815481101515610b1e57fe5b9060005260206000209060040201600101604051808373ffffffffffffffffffffffffffffffffffffffff1673ffffffffffffffffffffffffffffffffffffffff1681526020018060200180602001838103835284818154600181600116156101000203166002900481526020019150805460018160011615610100020316600290048015610bee5780601f10610bc357610100808354040283529160200191610bee565b820191906000526020600020905b815481529060010190602001808311610bd157829003601f168201915b5050838103825260268152602001807f53657443726564656e7469616c4973416374697665202d202853657420496e6181526020017f637469766529000000000000000000000000000000000000000000000000000081525060400194505050505060405180910390a150565b6000809054906101000a900473ffffffffffffffffffffffffffffffffffffffff1673ffffffffffffffffffffffffffffffffffffffff163373ffffffffffffffffffffffffffffffffffffffff16141515610cb657600080fd5b600060149054906101000a900460ff161515610cd157600080fd5b60008060146101000a81548160ff0219169083151502179055507f7805862f689e2f13df9f062ff482ad3ad112aca9e0847911ed832e158c525b3360405160405180910390a1565b600080905060008210151515610d2e57600080fd5b600260008473ffffffffffffffffffffffffffffffffffffffff1673ffffffffffffffffffffffffffffffffffffffff16815260200190815260200160002060009054906101000a900463ffffffff1663ffffffff16821015610e085760011515600160008573ffffffffffffffffffffffffffffffffffffffff1673ffffffffffffffffffffffffffffffffffffffff16815260200190815260200160002083815481101515610ddb57fe5b906000526020600020906004020160030160049054906101000a900460ff1615151415610e0757600190505b5b80905092915050565b600060149054906101000a900460ff1681565b6000809054906101000a900473ffffffffffffffffffffffffffffffffffffffff1673ffffffffffffffffffffffffffffffffffffffff163373ffffffffffffffffffffffffffffffffffffffff16141515610e7f57600080fd5b600060149054906101000a900460ff16151515610e9b57600080fd5b6001600060146101000a81548160ff0219169083151502179055507f6985a02210a168e66602d3235cb6db0e70f92b3ba4d376a33c0f3d9434bff62560405160405180910390a1565b6000809054906101000a900473ffffffffffffffffffffffffffffffffffffffff1681565b6000600360008373ffffffffffffffffffffffffffffffffffffffff1673ffffffffffffffffffffffffffffffffffffffff16815260200190815260200160002060009054906101000a900463ffffffff169050809050919050565b600160003373ffffffffffffffffffffffffffffffffffffffff1673ffffffffffffffffffffffffffffffffffffffff16815260200190815260200160002081815481101515610fb157fe5b906000526020600020906004020160000160009054906101000a900473ffffffffffffffffffffffffffffffffffffffff1673ffffffffffffffffffffffffffffffffffffffff163373ffffffffffffffffffffffffffffffffffffffff161415156110ab576040517f08c379a000000000000000000000000000000000000000000000000000000000815260040180806020018281038252602d8152602001807f7365744372656465656e7469616c496e616374697665666c6167202d2028464181526020017f494c29206e6f74206f776e65720000000000000000000000000000000000000081525060400191505060405180910390fd5b6000811015151561114a576040517f08c379a00000000000000000000000000000000000000000000000000000000081526004018080602001828103825260308152602001807f73657443726564656e7469616c416374697665466c61673a20706f736974696f81526020017f6e206c6f6f6b7570206661696c7572650000000000000000000000000000000081525060400191505060405180910390fd5b60001515600160003373ffffffffffffffffffffffffffffffffffffffff1673ffffffffffffffffffffffffffffffffffffffff1681526020019081526020016000208281548110151561119a57fe5b906000526020600020906004020160030160049054906101000a900460ff161515141515611230576040517f08c379a000000000000000000000000000000000000000000000000000000000815260040180806020018281038252601c8152602001807f43726564656e7469616c20697320616c7265616479204163746976650000000081525060200191505060405180910390fd5b60018060003373ffffffffffffffffffffffffffffffffffffffff1673ffffffffffffffffffffffffffffffffffffffff1681526020019081526020016000208281548110151561127d57fe5b906000526020600020906004020160030160046101000a81548160ff02191690831515021790555061130e6001600360003373ffffffffffffffffffffffffffffffffffffffff1673ffffffffffffffffffffffffffffffffffffffff16815260200190815260200160002060009054906101000a900463ffffffff1663ffffffff166126e090919063ffffffff16565b600360003373ffffffffffffffffffffffffffffffffffffffff1673ffffffffffffffffffffffffffffffffffffffff16815260200190815260200160002060006101000a81548163ffffffff021916908363ffffffff1602179055507f22efaf0cb3bd642425e7be86b531b1a553c2d7a83936239ee16e9f7fdb8fa37d33600160003373ffffffffffffffffffffffffffffffffffffffff1673ffffffffffffffffffffffffffffffffffffffff168152602001908152602001600020838154811015156113d957fe5b9060005260206000209060040201600101604051808373ffffffffffffffffffffffffffffffffffffffff1673ffffffffffffffffffffffffffffffffffffffff16815260200180602001806020018381038352848181546001816001161561010002031660029004815260200191508054600181600116156101000203166002900480156114a95780601f1061147e576101008083540402835291602001916114a9565b820191906000526020600020905b81548152906001019060200180831161148c57829003601f168201915b5050838103825260248152602001807f53657443726564656e7469616c4973416374697665202d20285365742041637481526020017f697665290000000000000000000000000000000000000000000000000000000081525060400194505050505060405180910390a150565b6000600260008373ffffffffffffffffffffffffffffffffffffffff1673ffffffffffffffffffffffffffffffffffffffff16815260200190815260200160002060009054906101000a900463ffffffff169050809050919050565b600460009054906101000a900463ffffffff1681565b6004809054906101000a900473ffffffffffffffffffffffffffffffffffffffff1681565b6000809054906101000a900473ffffffffffffffffffffffffffffffffffffffff1673ffffffffffffffffffffffffffffffffffffffff163373ffffffffffffffffffffffffffffffffffffffff16141561164357806004806101000a81548173ffffffffffffffffffffffffffffffffffffffff021916908373ffffffffffffffffffffffffffffffffffffffff1602179055505b50565b600060608060008060008663ffffffff16101580156116bf5750600260003373ffffffffffffffffffffffffffffffffffffffff1673ffffffffffffffffffffffffffffffffffffffff16815260200190815260200160002060009054906101000a900463ffffffff1663ffffffff168663ffffffff16105b1515611759576040517f08c379a00000000000000000000000000000000000000000000000000000000081526004018080602001828103825260298152602001807f73656c65637443726564656e7469616c3a2043726564656e7469616c20426f7581526020017f6e6473204572726f72000000000000000000000000000000000000000000000081525060400191505060405180910390fd5b600160008873ffffffffffffffffffffffffffffffffffffffff1673ffffffffffffffffffffffffffffffffffffffff1681526020019081526020016000208663ffffffff168154811015156117ab57fe5b906000526020600020906004020160000160149054906101000a90047f010000000000000000000000000000000000000000000000000000000000000002600160008973ffffffffffffffffffffffffffffffffffffffff1673ffffffffffffffffffffffffffffffffffffffff1681526020019081526020016000208763ffffffff1681548110151561183b57fe5b9060005260206000209060040201600101600160008a73ffffffffffffffffffffffffffffffffffffffff1673ffffffffffffffffffffffffffffffffffffffff1681526020019081526020016000208863ffffffff1681548110151561189e57fe5b9060005260206000209060040201600201600160008b73ffffffffffffffffffffffffffffffffffffffff1673ffffffffffffffffffffffffffffffffffffffff1681526020019081526020016000208963ffffffff1681548110151561190157fe5b906000526020600020906004020160030160009054906101000a900463ffffffff16600160008c73ffffffffffffffffffffffffffffffffffffffff1673ffffffffffffffffffffffffffffffffffffffff1681526020019081526020016000208a63ffffffff1681548110151561197557fe5b906000526020600020906004020160030160049054906101000a900460ff16838054600181600116156101000203166002900480601f016020809104026020016040519081016040528092919081815260200182805460018160011615610100020316600290048015611a295780601f106119fe57610100808354040283529160200191611a29565b820191906000526020600020905b815481529060010190602001808311611a0c57829003601f168201915b50505050509350828054600181600116156101000203166002900480601f016020809104026020016040519081016040528092919081815260200182805460018160011615610100020316600290048015611ac55780601f10611a9a57610100808354040283529160200191611ac5565b820191906000526020600020905b815481529060010190602001808311611aa857829003601f168201915b50505050509250945094509450945094509295509295909350565b6000809054906101000a900473ffffffffffffffffffffffffffffffffffffffff1673ffffffffffffffffffffffffffffffffffffffff163373ffffffffffffffffffffffffffffffffffffffff16141515611b3b57600080fd5b600073ffffffffffffffffffffffffffffffffffffffff168173ffffffffffffffffffffffffffffffffffffffff1614151515611b7757600080fd5b8073ffffffffffffffffffffffffffffffffffffffff166000809054906101000a900473ffffffffffffffffffffffffffffffffffffffff1673ffffffffffffffffffffffffffffffffffffffff167f8be0079c531659141344cd1fd0a4f28419497f9722a3daafe3b4186f6b6457e060405160405180910390a3806000806101000a81548173ffffffffffffffffffffffffffffffffffffffff021916908373ffffffffffffffffffffffffffffffffffffffff16021790555050565b6000807f22efaf0cb3bd642425e7be86b531b1a553c2d7a83936239ee16e9f7fdb8fa37d3385604051808373ffffffffffffffffffffffffffffffffffffffff1673ffffffffffffffffffffffffffffffffffffffff1681526020018060200180602001838103835284818151815260200191508051906020019080838360005b83811015611cd1578082015181840152602081019050611cb6565b50505050905090810190601f168015611cfe5780820380516001836020036101000a031916815260200191505b508381038252601c8152602001807f4e65772043726564656e7469616c204164642028415454454d5054290000000081525060200194505050505060405180910390a16004809054906101000a900473ffffffffffffffffffffffffffffffffffffffff1691508173ffffffffffffffffffffffffffffffffffffffff1663e1eaee42336040518263ffffffff167c0100000000000000000000000000000000000000000000000000000000028152600401808273ffffffffffffffffffffffffffffffffffffffff1673ffffffffffffffffffffffffffffffffffffffff168152602001915050602060405180830381600087803b158015611e0057600080fd5b505af1158015611e14573d6000803e3d6000fd5b505050506040513d6020811015611e2a57600080fd5b8101908080519060200190929190505050156125845760008451118015611e52575060468451105b1515611eec576040517f08c379a00000000000000000000000000000000000000000000000000000000081526004018080602001828103825260278152602001807f63726561746543726564656e7469616c202d205469746c65206c656e6774682081526020017f70726f626c656d0000000000000000000000000000000000000000000000000081525060400191505060405180910390fd5b6000835110158015611eff575060328351105b1515611f99576040517f08c379a000000000000000000000000000000000000000000000000000000000815260040180806020018281038252602a8152602001807f63726561746543726564656e7469616c202d204469766973696f6e206c656e6781526020017f74682070726f626c656d0000000000000000000000000000000000000000000081525060400191505060405180910390fd5b600160003373ffffffffffffffffffffffffffffffffffffffff1673ffffffffffffffffffffffffffffffffffffffff16815260200190815260200160002060c0604051908101604052803373ffffffffffffffffffffffffffffffffffffffff168152602001877effffffffffffffffffffffffffffffffffffffffffffffffffffffffffffff191681526020018681526020018581526020014263ffffffff168152602001600115158152509080600181540180825580915050906001820390600052602060002090600402016000909192909190915060008201518160000160006101000a81548173ffffffffffffffffffffffffffffffffffffffff021916908373ffffffffffffffffffffffffffffffffffffffff16021790555060208201518160000160146101000a81548160ff02191690837f010000000000000000000000000000000000000000000000000000000000000090040217905550604082015181600101908051906020019061211692919061270a565b50606082015181600201908051906020019061213392919061270a565b5060808201518160030160006101000a81548163ffffffff021916908363ffffffff16021790555060a08201518160030160046101000a81548160ff0219169083151502179055505050905060008163ffffffff16101515612475576121bb6001600460009054906101000a900463ffffffff1663ffffffff166126e090919063ffffffff16565b600460006101000a81548163ffffffff021916908363ffffffff1602179055506122446001600260003373ffffffffffffffffffffffffffffffffffffffff1673ffffffffffffffffffffffffffffffffffffffff16815260200190815260200160002060009054906101000a900463ffffffff1663ffffffff166126e090919063ffffffff16565b600260003373ffffffffffffffffffffffffffffffffffffffff1673ffffffffffffffffffffffffffffffffffffffff16815260200190815260200160002060006101000a81548163ffffffff021916908363ffffffff16021790555061230a6001600360003373ffffffffffffffffffffffffffffffffffffffff1673ffffffffffffffffffffffffffffffffffffffff16815260200190815260200160002060009054906101000a900463ffffffff1663ffffffff166126e090919063ffffffff16565b600360003373ffffffffffffffffffffffffffffffffffffffff1673ffffffffffffffffffffffffffffffffffffffff16815260200190815260200160002060006101000a81548163ffffffff021916908363ffffffff1602179055507f22efaf0cb3bd642425e7be86b531b1a553c2d7a83936239ee16e9f7fdb8fa37d3385604051808373ffffffffffffffffffffffffffffffffffffffff1673ffffffffffffffffffffffffffffffffffffffff1681526020018060200180602001838103835284818151815260200191508051906020019080838360005b838110156124005780820151818401526020810190506123e5565b50505050905090810190601f16801561242d5780820380516001836020036101000a031916815260200191505b508381038252601d8152602001807f4e65772043726564656e7469616c20416464202853554343434553532900000081525060200194505050505060405180910390a161257f565b7f22efaf0cb3bd642425e7be86b531b1a553c2d7a83936239ee16e9f7fdb8fa37d3385604051808373ffffffffffffffffffffffffffffffffffffffff1673ffffffffffffffffffffffffffffffffffffffff1681526020018060200180602001838103835284818151815260200191508051906020019080838360005b8381101561250e5780820151818401526020810190506124f3565b50505050905090810190601f16801561253b5780820380516001836020036101000a031916815260200191505b508381038252601b8152602001807f4e65772043726564656e7469616c2041646420284641494c454429000000000081525060200194505050505060405180910390a15b6126b4565b7f22efaf0cb3bd642425e7be86b531b1a553c2d7a83936239ee16e9f7fdb8fa37d3385604051808373ffffffffffffffffffffffffffffffffffffffff1673ffffffffffffffffffffffffffffffffffffffff1681526020018060200180602001838103835284818151815260200191508051906020019080838360005b8381101561261d578082015181840152602081019050612602565b50505050905090810190601f16801561264a5780820380516001836020036101000a031916815260200191505b508381038252602e8152602001807f4e65772043726564656e7469616c2041646420284641494c4544292c204e6f7481526020017f2043726564656e7469616c4f726700000000000000000000000000000000000081525060400194505050505060405180910390a15b5050505050565b60008263ffffffff168263ffffffff16111515156126d557fe5b818303905092915050565b60008082840190508363ffffffff168163ffffffff161015151561270057fe5b8091505092915050565b828054600181600116156101000203166002900490600052602060002090601f016020900481019282601f1061274b57805160ff1916838001178555612779565b82800160010185558215612779579182015b8281111561277857825182559160200191906001019061275d565b5b509050612786919061278a565b5090565b6127ac91905b808211156127a8576000816000905550600101612790565b5090565b905600a165627a7a72305820869f5b0c6d878dd12fec806ee7539322ea985942958d679a00df3e3b3970509c0029",
  "source": "pragma solidity ^0.4.21;\r\nimport \"./Pausable.sol\";\r\nimport \"./SafeMath32.sol\";\r\n/**\r\n * @title CredentialFactory\r\n * @dev The CredentialFactory allows the credentialOrgs to add/lookup credentials\r\n */\r\ninterface CredentialOrgFactory{\r\n    function isCredentialOrg(address _credentialOrgAddress) external view returns (bool IsOrgAddress);\r\n}\r\n\r\n\r\ncontract CredentialFactory is Pausable{\r\n    \r\n    using SafeMath32 for uint32;\r\n    // events\r\n    event CredentialFactoryActivity(address credentialOrg, string credentialTitle, string detail);\r\n\r\n    // mapping\r\n    mapping (address => Credential[]) orgAddressToCredentials;\r\n    mapping (address => uint32) orgAddressToCredentialTotalCount;\r\n    mapping (address => uint32) orgAddressToActiveCredentialCount;\r\n\r\n    // structs\r\n    struct Credential {\r\n        address credentialOrg;      // CredentialOwnerAddress\r\n        bytes1 credentialLevel;     // single byte string \r\n        string credentialTitle;     // 70 or less string\r\n        string credentialDivision;  // 50 or less string\r\n        uint32 credentialInsertDate;// Credential Insert timestamp\r\n        bool isActive;              // is CredentialActive for use\r\n    }\r\n    uint32 public credentialCount;\r\n    address public credentialOrgContractAddress;\r\n    \r\n    // constructor\r\n    constructor () public {\r\n        credentialCount = 0;\r\n        //credentialOrgContractAddress = _credentialOrgAddress;\r\n        createCredential(\"A\", \"Associate Degree in Basket Weaving\", \"BA - Arts\");\r\n        //createCredentialByOwner(0x14723A09ACff6D2A60DcdF7aA4AFf308FDDC160C, \"A\", \"Associate Degree in Basket Weaving\", \"BA - Arts\");\r\n        //createCredentialByOwner(0x4B0897b0513fdC7C541B6d9D7E929C4e5364D2dB, \"A\", \"Associate Degree in Basket Weaving\", \"BA - Arts\");\r\n    }\r\n    // functions\r\n    function setAddress(address _credentialOrgContractAddress) public {\r\n        if (msg.sender == owner){\r\n            credentialOrgContractAddress = _credentialOrgContractAddress;\r\n        }\r\n    }\r\n\r\n\r\n    /**\r\n    * @dev allows credentialing Orgs to create new credentials\r\n    * @param _credentialLevel Credential Level\r\n    * @param _credentialTitle CredentialTitle\r\n    * @param _credentialDivision Credential Division\r\n    */\r\n    function createCredential(bytes1 _credentialLevel, string _credentialTitle, string _credentialDivision) \r\n    public //onlyBy(msg.sender)\r\n    {\r\n        emit CredentialFactoryActivity(msg.sender, _credentialTitle, \"New Credential Add (ATTEMPT)\");\r\n        CredentialOrgFactory cof = CredentialOrgFactory(credentialOrgContractAddress);\r\n        if (cof.isCredentialOrg(msg.sender)){\r\n            require(bytes(_credentialTitle).length > 0 && bytes(_credentialTitle).length < 70, \"createCredential - Title length problem\");\r\n            require(bytes(_credentialDivision).length >= 0 && bytes(_credentialDivision).length < 50, \"createCredential - Division length problem\");\r\n            uint32 position = uint32(orgAddressToCredentials[msg.sender].push(Credential(msg.sender, _credentialLevel, _credentialTitle, _credentialDivision, uint32(block.timestamp), true)));\r\n            if(position >= 0){\r\n                credentialCount = credentialCount.add(1);\r\n                orgAddressToCredentialTotalCount[msg.sender] = orgAddressToCredentialTotalCount[msg.sender].add(1);\r\n                orgAddressToActiveCredentialCount[msg.sender] = orgAddressToActiveCredentialCount[msg.sender].add(1);\r\n                emit CredentialFactoryActivity(msg.sender, _credentialTitle, \"New Credential Add (SUCCCESS)\");\r\n            } else {\r\n                emit CredentialFactoryActivity(msg.sender, _credentialTitle, \"New Credential Add (FAILED)\");\r\n            }\r\n        } else {\r\n            emit CredentialFactoryActivity(msg.sender, _credentialTitle, \"New Credential Add (FAILED), Not CredentialOrg\");\r\n        }\r\n    }\r\n\r\n    /**\r\n    * @dev allows selection of credential based on position.\r\n    * @param _credentialOrgAddress credentialOrg Address\r\n    * @param _position allows selection of credentialing orgs details.\r\n    */\r\n    function selectCredential(address _credentialOrgAddress, uint32 _position) \r\n    public view\r\n    returns (bytes1 credentialLevel, string credentialTitle, string credentialDivision, uint32 credentialInsertDate, bool isActive)\r\n    {\r\n        require(_position >= 0 && _position < orgAddressToCredentialTotalCount[msg.sender], \"selectCredential: Credential Bounds Error\");\r\n        return (orgAddressToCredentials[_credentialOrgAddress][_position].credentialLevel,orgAddressToCredentials[_credentialOrgAddress][_position].credentialTitle, orgAddressToCredentials[_credentialOrgAddress][_position].credentialDivision, orgAddressToCredentials[_credentialOrgAddress][_position].credentialInsertDate,orgAddressToCredentials[_credentialOrgAddress][_position].isActive);\r\n    }\r\n\r\n    /**\r\n    * @dev allows setting credential inactive by it's owner\r\n    * @param _position Credential position in array\r\n    */\r\n    function setCredentialInactiveFlag(uint _position)\r\n    public //onlyBy(msg.sender)\r\n    {\r\n        require(msg.sender == orgAddressToCredentials[msg.sender][_position].credentialOrg, \"setCredeentialInactiveflag - (FAIL) not owner\");\r\n        require(_position >= 0, \"setCredentialInactiveFlag: Position or Org failure\");\r\n        require(orgAddressToCredentials[msg.sender][_position].isActive == true, \"Credential is NOT Active\");\r\n        orgAddressToCredentials[msg.sender][_position].isActive = false;\r\n        orgAddressToActiveCredentialCount[msg.sender] = orgAddressToActiveCredentialCount[msg.sender].sub(1);\r\n        emit CredentialFactoryActivity(msg.sender, orgAddressToCredentials[msg.sender][_position].credentialTitle, \"SetCredentialIsActive - (Set Inactive)\");\r\n    }\r\n\r\n    /**\r\n    * @dev allows setting credential inactive by it's credentialing org.\r\n    * @param _position Credential position in array\r\n    */\r\n    function setCredentialActiveFlag(uint _position)\r\n    public //onlyBy(msg.sender)\r\n    {\r\n        require(msg.sender == orgAddressToCredentials[msg.sender][_position].credentialOrg, \"setCredeentialInactiveflag - (FAIL) not owner\");\r\n        require(_position >= 0 , \"setCredentialActiveFlag: position lookup failure\");\r\n        require(orgAddressToCredentials[msg.sender][_position].isActive == false, \"Credential is already Active\");\r\n        orgAddressToCredentials[msg.sender][_position].isActive = true;\r\n        orgAddressToActiveCredentialCount[msg.sender] = orgAddressToActiveCredentialCount[msg.sender].add(1);\r\n        emit CredentialFactoryActivity(msg.sender, orgAddressToCredentials[msg.sender][_position].credentialTitle, \"SetCredentialIsActive - (Set Active)\");\r\n    }\r\n\r\n    /**\r\n    * @dev allows checking of CredentialCount\r\n    */\r\n    function SelectOrgCredentialActiveCount(address _credentialOrgAddress)\r\n    public view\r\n    returns (uint32 returnCredentialCount)\r\n    {\r\n        returnCredentialCount = orgAddressToActiveCredentialCount[_credentialOrgAddress];\r\n        return (returnCredentialCount);\r\n    }\r\n\r\n    /**\r\n    * @dev allows checking of CredentialCount\r\n    */\r\n    function SelectOrgCredentialCount(address _credentialOrgAddress)\r\n    public view\r\n    returns (uint32 returnCredentialCount)\r\n    {\r\n        returnCredentialCount = orgAddressToCredentialTotalCount[_credentialOrgAddress];\r\n        return (returnCredentialCount);\r\n    }\r\n\r\n    /**\r\n    * @dev allows checking of isActive flag for credential\r\n    * @param _position Credential position in array\r\n    */\r\n    function isCredentialActive(address _credentialOrgAddress, uint _position)\r\n    public view\r\n    returns (bool activeState)\r\n    {\r\n        activeState = false;\r\n        require(_position >= 0);\r\n        if (_position < orgAddressToCredentialTotalCount[_credentialOrgAddress]){\r\n            if (orgAddressToCredentials[_credentialOrgAddress][_position].isActive == true){\r\n                activeState = true;\r\n            }\r\n        }\r\n        return (activeState);\r\n    }\r\n}",
  "sourcePath": "E:\\Projects\\CredentialVerify\\contracts\\CredentialFactory.sol",
  "compiler": {
    "name": "solc",
    "version": "0.4.24+commit.e67f0147.Emscripten.clang"
  },
  "schemaVersion": "2.0.1",
  "updatedAt": "2018-08-10T15:34:39.768Z"
}