{
  "contractName": "CredentialOrgFactory",
  "abi": [
    {
      "constant": false,
      "inputs": [],
      "name": "unpause",
      "outputs": [],
      "payable": false,
      "stateMutability": "nonpayable",
      "type": "function"
    },
    {
      "constant": true,
      "inputs": [],
      "name": "paused",
      "outputs": [
        {
          "name": "",
          "type": "bool"
        }
      ],
      "payable": false,
      "stateMutability": "view",
      "type": "function"
    },
    {
      "constant": false,
      "inputs": [],
      "name": "pause",
      "outputs": [],
      "payable": false,
      "stateMutability": "nonpayable",
      "type": "function"
    },
    {
      "constant": true,
      "inputs": [],
      "name": "owner",
      "outputs": [
        {
          "name": "",
          "type": "address"
        }
      ],
      "payable": false,
      "stateMutability": "view",
      "type": "function"
    },
    {
      "constant": false,
      "inputs": [
        {
          "name": "newOwner",
          "type": "address"
        }
      ],
      "name": "transferOwnership",
      "outputs": [],
      "payable": false,
      "stateMutability": "nonpayable",
      "type": "function"
    },
    {
      "inputs": [],
      "payable": false,
      "stateMutability": "nonpayable",
      "type": "constructor"
    },
    {
      "anonymous": false,
      "inputs": [
        {
          "indexed": false,
          "name": "shortName",
          "type": "string"
        },
        {
          "indexed": false,
          "name": "schoolAddress",
          "type": "address"
        },
        {
          "indexed": false,
          "name": "detail",
          "type": "string"
        }
      ],
      "name": "CredentialOrgCreateEvent",
      "type": "event"
    },
    {
      "anonymous": false,
      "inputs": [
        {
          "indexed": false,
          "name": "schoolAddress",
          "type": "address"
        },
        {
          "indexed": false,
          "name": "detail",
          "type": "string"
        }
      ],
      "name": "CredentialOrgEvent",
      "type": "event"
    },
    {
      "anonymous": false,
      "inputs": [],
      "name": "Pause",
      "type": "event"
    },
    {
      "anonymous": false,
      "inputs": [],
      "name": "Unpause",
      "type": "event"
    },
    {
      "anonymous": false,
      "inputs": [
        {
          "indexed": true,
          "name": "previousOwner",
          "type": "address"
        },
        {
          "indexed": true,
          "name": "newOwner",
          "type": "address"
        }
      ],
      "name": "OwnershipTransferred",
      "type": "event"
    },
    {
      "constant": false,
      "inputs": [
        {
          "name": "_shortName",
          "type": "string"
        },
        {
          "name": "_officialSchoolName",
          "type": "string"
        },
        {
          "name": "_schoolAddress",
          "type": "address"
        }
      ],
      "name": "createCredentialOrg",
      "outputs": [
        {
          "name": "createStatus",
          "type": "bool"
        }
      ],
      "payable": false,
      "stateMutability": "nonpayable",
      "type": "function"
    },
    {
      "constant": true,
      "inputs": [
        {
          "name": "_credentialOrgPosition",
          "type": "uint32"
        }
      ],
      "name": "selectCredentialOrgByPosition",
      "outputs": [
        {
          "name": "shortName",
          "type": "string"
        },
        {
          "name": "officialSchoolName",
          "type": "string"
        },
        {
          "name": "schoolAddress",
          "type": "address"
        }
      ],
      "payable": false,
      "stateMutability": "view",
      "type": "function"
    },
    {
      "constant": true,
      "inputs": [
        {
          "name": "_credentialOrgAddress",
          "type": "address"
        }
      ],
      "name": "selectCredentialOrgByAddress",
      "outputs": [
        {
          "name": "shortName",
          "type": "string"
        },
        {
          "name": "officialSchoolName",
          "type": "string"
        },
        {
          "name": "schoolAddress",
          "type": "address"
        }
      ],
      "payable": false,
      "stateMutability": "view",
      "type": "function"
    },
    {
      "constant": true,
      "inputs": [
        {
          "name": "_credentialOrgAddress",
          "type": "address"
        }
      ],
      "name": "isCredentialOrg",
      "outputs": [
        {
          "name": "IsOrgAddress",
          "type": "bool"
        }
      ],
      "payable": false,
      "stateMutability": "view",
      "type": "function"
    },
    {
      "constant": true,
      "inputs": [],
      "name": "selectOrgCount",
      "outputs": [
        {
          "name": "returnOrgCount",
          "type": "uint32"
        }
      ],
      "payable": false,
      "stateMutability": "view",
      "type": "function"
    }
  ],
  "bytecode": "0x608060405260008060146101000a81548160ff02191690831515021790555034801561002a57600080fd5b50336000806101000a81548173ffffffffffffffffffffffffffffffffffffffff021916908373ffffffffffffffffffffffffffffffffffffffff1602179055506000600260006101000a81548163ffffffff021916908363ffffffff160217905550611f8c8061009c6000396000f3006080604052600436106100a4576000357c0100000000000000000000000000000000000000000000000000000000900463ffffffff1680633f4ba83a146100a9578063554ee043146100c05780635c975abb146100f7578063722d6fb3146101265780637795e2091461020d5780638456cb59146103585780638da5cb5b1461036f578063bbee2dfe146103c6578063e1eaee4214610521578063f2fde38b1461057c575b600080fd5b3480156100b557600080fd5b506100be6105bf565b005b3480156100cc57600080fd5b506100d561067d565b604051808263ffffffff1663ffffffff16815260200191505060405180910390f35b34801561010357600080fd5b5061010c610736565b604051808215151515815260200191505060405180910390f35b34801561013257600080fd5b506101f3600480360381019080803590602001908201803590602001908080601f0160208091040260200160405190810160405280939291908181526020018383808284378201915050505050509192919290803590602001908201803590602001908080601f0160208091040260200160405190810160405280939291908181526020018383808284378201915050505050509192919290803573ffffffffffffffffffffffffffffffffffffffff169060200190929190505050610749565b604051808215151515815260200191505060405180910390f35b34801561021957600080fd5b5061023e600480360381019080803563ffffffff169060200190929190505050610f01565b6040518080602001806020018473ffffffffffffffffffffffffffffffffffffffff1673ffffffffffffffffffffffffffffffffffffffff168152602001838103835286818151815260200191508051906020019080838360005b838110156102b4578082015181840152602081019050610299565b50505050905090810190601f1680156102e15780820380516001836020036101000a031916815260200191505b50838103825285818151815260200191508051906020019080838360005b8381101561031a5780820151818401526020810190506102ff565b50505050905090810190601f1680156103475780820380516001836020036101000a031916815260200191505b509550505050505060405180910390f35b34801561036457600080fd5b5061036d611366565b005b34801561037b57600080fd5b50610384611426565b604051808273ffffffffffffffffffffffffffffffffffffffff1673ffffffffffffffffffffffffffffffffffffffff16815260200191505060405180910390f35b3480156103d257600080fd5b50610407600480360381019080803573ffffffffffffffffffffffffffffffffffffffff16906020019092919050505061144b565b6040518080602001806020018473ffffffffffffffffffffffffffffffffffffffff1673ffffffffffffffffffffffffffffffffffffffff168152602001838103835286818151815260200191508051906020019080838360005b8381101561047d578082015181840152602081019050610462565b50505050905090810190601f1680156104aa5780820380516001836020036101000a031916815260200191505b50838103825285818151815260200191508051906020019080838360005b838110156104e35780820151818401526020810190506104c8565b50505050905090810190601f1680156105105780820380516001836020036101000a031916815260200191505b509550505050505060405180910390f35b34801561052d57600080fd5b50610562600480360381019080803573ffffffffffffffffffffffffffffffffffffffff1690602001909291905050506118f4565b604051808215151515815260200191505060405180910390f35b34801561058857600080fd5b506105bd600480360381019080803573ffffffffffffffffffffffffffffffffffffffff169060200190929190505050611c58565b005b6000809054906101000a900473ffffffffffffffffffffffffffffffffffffffff1673ffffffffffffffffffffffffffffffffffffffff163373ffffffffffffffffffffffffffffffffffffffff1614151561061a57600080fd5b600060149054906101000a900460ff16151561063557600080fd5b60008060146101000a81548160ff0219169083151502179055507f7805862f689e2f13df9f062ff482ad3ad112aca9e0847911ed832e158c525b3360405160405180910390a1565b6000600260009054906101000a900463ffffffff1690507f4e21dd52bcce287e8c74281919f77b5fe01a9761789a160d0bc2d8116703142f33604051808273ffffffffffffffffffffffffffffffffffffffff1673ffffffffffffffffffffffffffffffffffffffff168152602001806020018281038252601a8152602001807f73656c6563744f7267436f756e74202d202853554343455353290000000000008152506020019250505060405180910390a180905090565b600060149054906101000a900460ff1681565b6000807f8b0599e042fb4556abd2a977638d7039ecc31b0b99ae4a04957930913a85f326858460405180806020018373ffffffffffffffffffffffffffffffffffffffff1673ffffffffffffffffffffffffffffffffffffffff16815260200180602001838103835285818151815260200191508051906020019080838360005b838110156107e55780820151818401526020810190506107ca565b50505050905090810190601f1680156108125780820380516001836020036101000a031916815260200191505b50838103825260118152602001807f4e6577204f72672041646420285052452900000000000000000000000000000081525060200194505050505060405180910390a1600085511180156108675750601f8551105b1515610901576040517f08c379a00000000000000000000000000000000000000000000000000000000081526004018080602001828103825260258152602001807f63726561746543726564656e7469616c4f72672073686f72744e616d6520707281526020017f6f626c656d00000000000000000000000000000000000000000000000000000081525060400191505060405180910390fd5b60008451118015610913575060468451105b15156109ad576040517f08c379a00000000000000000000000000000000000000000000000000000000081526004018080602001828103825260348152602001807f63726561746543726564656e7469616c4f7267206f66666963616c5363686f6f81526020017f6c4e616d65206c656e6774682070726f626c656d00000000000000000000000081525060400191505060405180910390fd5b60008373ffffffffffffffffffffffffffffffffffffffff1614151515610a62576040517f08c379a00000000000000000000000000000000000000000000000000000000081526004018080602001828103825260368152602001807f63726561746543726564656e7469616c4f726720284641494c29207363686f6f81526020017f6c20416464726573732063616e206e6f7420626520300000000000000000000081525060400191505060405180910390fd5b6000915060036060604051908101604052808781526020018681526020018573ffffffffffffffffffffffffffffffffffffffff16815250908060018154018082558091505090600182039060005260206000209060030201600090919290919091506000820151816000019080519060200190610ae1929190611dfc565b506020820151816001019080519060200190610afe929190611dfc565b5060408201518160020160006101000a81548173ffffffffffffffffffffffffffffffffffffffff021916908373ffffffffffffffffffffffffffffffffffffffff1602179055505050905060008163ffffffff161115610dec576003610b7560018363ffffffff16611dad90919063ffffffff16565b63ffffffff16815481101515610b8757fe5b9060005260206000209060030201600160008573ffffffffffffffffffffffffffffffffffffffff1673ffffffffffffffffffffffffffffffffffffffff16815260200190815260200160002060008201816000019080546001816001161561010002031660029004610bfb929190611e7c565b5060018201816001019080546001816001161561010002031660029004610c23929190611e7c565b506002820160009054906101000a900473ffffffffffffffffffffffffffffffffffffffff168160020160006101000a81548173ffffffffffffffffffffffffffffffffffffffff021916908373ffffffffffffffffffffffffffffffffffffffff160217905550905050610cba6001600260009054906101000a900463ffffffff1663ffffffff16611dd290919063ffffffff16565b600260006101000a81548163ffffffff021916908363ffffffff160217905550600191507f8b0599e042fb4556abd2a977638d7039ecc31b0b99ae4a04957930913a85f326858460405180806020018373ffffffffffffffffffffffffffffffffffffffff1673ffffffffffffffffffffffffffffffffffffffff16815260200180602001838103835285818151815260200191508051906020019080838360005b83811015610d77578082015181840152602081019050610d5c565b50505050905090810190601f168015610da45780820380516001836020036101000a031916815260200191505b508381038252601d8152602001807f63726561746543726564656e7469616c4f72672028535543434553532900000081525060200194505050505060405180910390a1610ef6565b7f8b0599e042fb4556abd2a977638d7039ecc31b0b99ae4a04957930913a85f326858460405180806020018373ffffffffffffffffffffffffffffffffffffffff1673ffffffffffffffffffffffffffffffffffffffff16815260200180602001838103835285818151815260200191508051906020019080838360005b83811015610e85578082015181840152602081019050610e6a565b50505050905090810190601f168015610eb25780820380516001836020036101000a031916815260200191505b508381038252601a8152602001807f63726561746543726564656e7469616c4f726720284641494c2900000000000081525060200194505050505060405180910390a15b819150509392505050565b606080600060206040519081016040528060008152509250602060405190810160405280600081525091506000905060008463ffffffff1610151515610fd5576040517f08c379a000000000000000000000000000000000000000000000000000000000815260040180806020018281038252603f8152602001807f73656c65637443726564656e7469616c4f7267202d20706f736974696f6e206881526020017f616420746f2062652067726561746572206f7220657175616c20746f20302e0081525060400191505060405180910390fd5b600260009054906101000a900463ffffffff1663ffffffff168463ffffffff161015611293577f4e21dd52bcce287e8c74281919f77b5fe01a9761789a160d0bc2d8116703142f33604051808273ffffffffffffffffffffffffffffffffffffffff1673ffffffffffffffffffffffffffffffffffffffff16815260200180602001828103825260288152602001807f73656c65637443726564656e7469616c4f72677e706f736974696f6e202d202881526020017f53554343455353290000000000000000000000000000000000000000000000008152506040019250505060405180910390a160038463ffffffff168154811015156110d257fe5b906000526020600020906003020160000160038563ffffffff168154811015156110f857fe5b906000526020600020906003020160010160038663ffffffff1681548110151561111e57fe5b906000526020600020906003020160020160009054906101000a900473ffffffffffffffffffffffffffffffffffffffff16828054600181600116156101000203166002900480601f0160208091040260200160405190810160405280929190818152602001828054600181600116156101000203166002900480156111e55780601f106111ba576101008083540402835291602001916111e5565b820191906000526020600020905b8154815290600101906020018083116111c857829003601f168201915b50505050509250818054600181600116156101000203166002900480601f0160208091040260200160405190810160405280929190818152602001828054600181600116156101000203166002900480156112815780601f1061125657610100808354040283529160200191611281565b820191906000526020600020905b81548152906001019060200180831161126457829003601f168201915b5050505050915092509250925061135f565b7f4e21dd52bcce287e8c74281919f77b5fe01a9761789a160d0bc2d8116703142f33604051808273ffffffffffffffffffffffffffffffffffffffff1673ffffffffffffffffffffffffffffffffffffffff168152602001806020018281038252603b8152602001807f73656c65637443726564656e7469616c4f72677e706f736974696f6e202d202881526020017f4641494c2920746f7020626f756e6472792065786365656465642e00000000008152506040019250505060405180910390a18282829250925092505b9193909250565b6000809054906101000a900473ffffffffffffffffffffffffffffffffffffffff1673ffffffffffffffffffffffffffffffffffffffff163373ffffffffffffffffffffffffffffffffffffffff161415156113c157600080fd5b600060149054906101000a900460ff161515156113dd57600080fd5b6001600060146101000a81548160ff0219169083151502179055507f6985a02210a168e66602d3235cb6db0e70f92b3ba4d376a33c0f3d9434bff62560405160405180910390a1565b6000809054906101000a900473ffffffffffffffffffffffffffffffffffffffff1681565b6060806000611458611f03565b60008573ffffffffffffffffffffffffffffffffffffffff161415151561150d576040517f08c379a00000000000000000000000000000000000000000000000000000000081526004018080602001828103825260298152602001807f73656c65637443726564656e7469616c4f7267202d204164647265737320302081526020017f6e6f742076616c6964000000000000000000000000000000000000000000000081525060400191505060405180910390fd5b600160008673ffffffffffffffffffffffffffffffffffffffff1673ffffffffffffffffffffffffffffffffffffffff16815260200190815260200160002060606040519081016040529081600082018054600181600116156101000203166002900480601f0160208091040260200160405190810160405280929190818152602001828054600181600116156101000203166002900480156115f15780601f106115c6576101008083540402835291602001916115f1565b820191906000526020600020905b8154815290600101906020018083116115d457829003601f168201915b50505050508152602001600182018054600181600116156101000203166002900480601f0160208091040260200160405190810160405280929190818152602001828054600181600116156101000203166002900480156116935780601f1061166857610100808354040283529160200191611693565b820191906000526020600020905b81548152906001019060200180831161167657829003601f168201915b505050505081526020016002820160009054906101000a900473ffffffffffffffffffffffffffffffffffffffff1673ffffffffffffffffffffffffffffffffffffffff1673ffffffffffffffffffffffffffffffffffffffff168152505090506000816040015173ffffffffffffffffffffffffffffffffffffffff161415156117fa577f4e21dd52bcce287e8c74281919f77b5fe01a9761789a160d0bc2d8116703142f33604051808273ffffffffffffffffffffffffffffffffffffffff1673ffffffffffffffffffffffffffffffffffffffff16815260200180602001828103825260278152602001807f73656c65637443726564656e7469616c4f72677e61646472657373202d20285381526020017f55434345535329000000000000000000000000000000000000000000000000008152506040019250505060405180910390a18060000151816020015182604001518292508191509350935093506118ec565b7f4e21dd52bcce287e8c74281919f77b5fe01a9761789a160d0bc2d8116703142f33604051808273ffffffffffffffffffffffffffffffffffffffff1673ffffffffffffffffffffffffffffffffffffffff16815260200180602001828103825260248152602001807f73656c65637443726564656e7469616c4f72677e61646472657373202d20284681526020017f41494c29000000000000000000000000000000000000000000000000000000008152506040019250505060405180910390a160006020604051908101604052806000815250906020604051908101604052806000815250908090509350935093505b509193909250565b60006118fe611f03565b60009150600160008473ffffffffffffffffffffffffffffffffffffffff1673ffffffffffffffffffffffffffffffffffffffff16815260200190815260200160002060606040519081016040529081600082018054600181600116156101000203166002900480601f0160208091040260200160405190810160405280929190818152602001828054600181600116156101000203166002900480156119e65780601f106119bb576101008083540402835291602001916119e6565b820191906000526020600020905b8154815290600101906020018083116119c957829003601f168201915b50505050508152602001600182018054600181600116156101000203166002900480601f016020809104026020016040519081016040528092919081815260200182805460018160011615610100020316600290048015611a885780601f10611a5d57610100808354040283529160200191611a88565b820191906000526020600020905b815481529060010190602001808311611a6b57829003601f168201915b505050505081526020016002820160009054906101000a900473ffffffffffffffffffffffffffffffffffffffff1673ffffffffffffffffffffffffffffffffffffffff1673ffffffffffffffffffffffffffffffffffffffff168152505090506000816040015173ffffffffffffffffffffffffffffffffffffffff16141515611bb257600191507f4e21dd52bcce287e8c74281919f77b5fe01a9761789a160d0bc2d8116703142f33604051808273ffffffffffffffffffffffffffffffffffffffff1673ffffffffffffffffffffffffffffffffffffffff168152602001806020018281038252601b8152602001807f697343726564656e7469616c4f7267202d2028535543434553532900000000008152506020019250505060405180910390a1611c4f565b7f4e21dd52bcce287e8c74281919f77b5fe01a9761789a160d0bc2d8116703142f33604051808273ffffffffffffffffffffffffffffffffffffffff1673ffffffffffffffffffffffffffffffffffffffff16815260200180602001828103825260188152602001807f697343726564656e7469616c4f7267202d20284641494c2900000000000000008152506020019250505060405180910390a15b81915050919050565b6000809054906101000a900473ffffffffffffffffffffffffffffffffffffffff1673ffffffffffffffffffffffffffffffffffffffff163373ffffffffffffffffffffffffffffffffffffffff16141515611cb357600080fd5b600073ffffffffffffffffffffffffffffffffffffffff168173ffffffffffffffffffffffffffffffffffffffff1614151515611cef57600080fd5b8073ffffffffffffffffffffffffffffffffffffffff166000809054906101000a900473ffffffffffffffffffffffffffffffffffffffff1673ffffffffffffffffffffffffffffffffffffffff167f8be0079c531659141344cd1fd0a4f28419497f9722a3daafe3b4186f6b6457e060405160405180910390a3806000806101000a81548173ffffffffffffffffffffffffffffffffffffffff021916908373ffffffffffffffffffffffffffffffffffffffff16021790555050565b60008263ffffffff168263ffffffff1611151515611dc757fe5b818303905092915050565b60008082840190508363ffffffff168163ffffffff1610151515611df257fe5b8091505092915050565b828054600181600116156101000203166002900490600052602060002090601f016020900481019282601f10611e3d57805160ff1916838001178555611e6b565b82800160010185558215611e6b579182015b82811115611e6a578251825591602001919060010190611e4f565b5b509050611e789190611f3b565b5090565b828054600181600116156101000203166002900490600052602060002090601f016020900481019282601f10611eb55780548555611ef2565b82800160010185558215611ef257600052602060002091601f016020900482015b82811115611ef1578254825591600101919060010190611ed6565b5b509050611eff9190611f3b565b5090565b6060604051908101604052806060815260200160608152602001600073ffffffffffffffffffffffffffffffffffffffff1681525090565b611f5d91905b80821115611f59576000816000905550600101611f41565b5090565b905600a165627a7a723058209f5deb176ff8f1c7ad7cb14527f23e326209c04d5631e16a43e7197870b113060029",
  "source": "pragma solidity ^0.4.21;\r\n\r\n/**\r\n * @title CredentialOrgFactory\r\n * @dev The CredentialOrgFactory allows the contract owner to add new credentialing orgs\r\n */\r\nimport \"./Pausable.sol\";\r\nimport \"./SafeMath32.sol\";\r\n\r\ncontract CredentialOrgFactory is Pausable {\r\n\r\n    /**\r\n    *  @dev Library useage for safemath for uint32\r\n    */\r\n    using SafeMath32 for uint32;\r\n\r\n    /**\r\n    * @dev mappings\r\n    */\r\n    mapping(address => CredentialOrg) addressToCredentialOrg;\r\n    \r\n    /**\r\n    * @dev events for contract\r\n    * One for the create CredentialOrg and one for the basic 'logging'.\r\n    */\r\n    event CredentialOrgCreateEvent(string shortName, address schoolAddress, string detail);\r\n    event CredentialOrgEvent(address schoolAddress, string detail);\r\n\r\n    /**\r\n    * @dev CredentialOrg Count\r\n    */\r\n    uint32 private credentialOrgCount;\r\n\r\n    /**\r\n    * @dev Primary CredentialOrg structure, and following array.\r\n    */\r\n    struct CredentialOrg {\r\n        string shortName;  // School shortName (len 30)\r\n        string officialSchoolName; // official school shortName (70 or less)\r\n        address schoolAddress;\r\n    }\r\n    \r\n    CredentialOrg[] private credentialOrgs; // array to hold Credentialing Orgs\r\n\r\n    /**\r\n    * @dev class constructor\r\n    */\r\n    constructor() public {\r\n        credentialOrgCount = 0;\r\n    }\r\n    \r\n    /**\r\n    * @dev allows owner to create new credentialing orgs\r\n    * @param _shortName shortName of Credentialing orgs\r\n    * @param _officialSchoolName official School Name\r\n    * @param _schoolAddress address of credential org.\r\n    */\r\n    function createCredentialOrg(string _shortName, string _officialSchoolName, address _schoolAddress) \r\n    public \r\n    returns (bool createStatus)\r\n    {\r\n        emit CredentialOrgCreateEvent(_shortName, _schoolAddress, \"New Org Add (PRE)\");\r\n        require(bytes(_shortName).length > 0 && bytes(_shortName).length < 31, \"createCredentialOrg shortName problem\");\r\n        require(bytes(_officialSchoolName).length > 0 && bytes(_officialSchoolName).length < 70, \"createCredentialOrg officalSchoolName length problem\");\r\n        require(_schoolAddress != 0, \"createCredentialOrg (FAIL) school Address can not be 0\");\r\n        createStatus = false;\r\n\r\n        uint32 position = uint32(credentialOrgs.push(CredentialOrg(_shortName, _officialSchoolName, _schoolAddress)));\r\n        if (position > 0){\r\n            addressToCredentialOrg[_schoolAddress] = credentialOrgs[position.sub(1)];\r\n            credentialOrgCount = credentialOrgCount.add(1);\r\n            createStatus = true;\r\n            emit CredentialOrgCreateEvent(_shortName, _schoolAddress, \"createCredentialOrg (SUCCESS)\");\r\n        } else {\r\n            emit CredentialOrgCreateEvent(_shortName, _schoolAddress, \"createCredentialOrg (FAIL)\");\r\n        }\r\n        return (createStatus);\r\n    }\r\n\r\n    /**\r\n    * @dev allows selection of a credentialingOrg by position\r\n    * @param _credentialOrgPosition allows selection of credentialing orgs details.\r\n    */\r\n    function selectCredentialOrgByPosition(uint32 _credentialOrgPosition) \r\n    public view\r\n    returns (string shortName, string officialSchoolName, address schoolAddress)\r\n    {\r\n        shortName = \"\";\r\n        officialSchoolName = \"\";\r\n        schoolAddress = 0;\r\n        require(_credentialOrgPosition >= 0, \"selectCredentialOrg - position had to be greater or equal to 0.\");\r\n        if (_credentialOrgPosition < credentialOrgCount){\r\n            emit CredentialOrgEvent(msg.sender, \"selectCredentialOrg~position - (SUCCESS)\");\r\n            return (credentialOrgs[_credentialOrgPosition].shortName, credentialOrgs[_credentialOrgPosition].officialSchoolName, credentialOrgs[_credentialOrgPosition].schoolAddress);\r\n        } else {\r\n            emit CredentialOrgEvent(msg.sender, \"selectCredentialOrg~position - (FAIL) top boundry exceeded.\");\r\n            return (shortName, officialSchoolName, schoolAddress);\r\n        }\r\n    }\r\n\r\n    /**\r\n    * @dev allows selection of a credentialingOrg by address\r\n    * @param _credentialOrgAddress allows selection of credentialing orgs details.\r\n    */\r\n    function selectCredentialOrgByAddress(address _credentialOrgAddress) \r\n    public view\r\n    returns (string shortName, string officialSchoolName, address schoolAddress)\r\n    {\r\n        require(_credentialOrgAddress != 0, \"selectCredentialOrg - Address 0 not valid\");\r\n        CredentialOrg memory testCred = addressToCredentialOrg[_credentialOrgAddress];\r\n        if (testCred.schoolAddress != 0){\r\n            emit CredentialOrgEvent(msg.sender, \"selectCredentialOrg~address - (SUCCESS)\");\r\n            return (testCred.shortName, testCred.officialSchoolName, testCred.schoolAddress);\r\n        } else {\r\n            emit CredentialOrgEvent(msg.sender, \"selectCredentialOrg~address - (FAIL)\");\r\n            return (\"\", \"\", 0);\r\n        }\r\n    }\r\n\r\n    /**\r\n    * @dev allows checking if credentialOrg exists\r\n    * @param _credentialOrgAddress function returns bool if an address is a credentialingOrg\r\n    */\r\n    function isCredentialOrg(address _credentialOrgAddress) \r\n    public view\r\n    returns (bool IsOrgAddress)\r\n    {\r\n        IsOrgAddress = false;\r\n        CredentialOrg memory testCredentialOrg = addressToCredentialOrg[_credentialOrgAddress];\r\n        if (testCredentialOrg.schoolAddress != 0){\r\n            IsOrgAddress = true;\r\n            emit CredentialOrgEvent(msg.sender, \"isCredentialOrg - (SUCCESS)\");\r\n        } else {\r\n            emit CredentialOrgEvent(msg.sender, \"isCredentialOrg - (FAIL)\");\r\n        }\r\n        return (IsOrgAddress);\r\n    }\r\n\r\n    /**\r\n    * @dev returns the credentialOrgCount\r\n    */\r\n    function selectOrgCount()\r\n    public view\r\n    returns (uint32 returnOrgCount)\r\n    {\r\n        returnOrgCount = credentialOrgCount;\r\n        emit CredentialOrgEvent(msg.sender, \"selectOrgCount - (SUCCESS)\");\r\n        return (returnOrgCount);\r\n    }\r\n\r\n}",
  "sourcePath": "E:\\Projects\\CredentialVerify\\contracts\\CredentialOrgFactory.sol",
  "compiler": {
    "name": "solc",
    "version": "0.4.24+commit.e67f0147.Emscripten.clang"
  },
  "schemaVersion": "2.0.1",
  "updatedAt": "2018-08-13T03:14:46.758Z"
}