{
  "contractName": "CredentialOrgFactory",
  "abi": [
    {
      "constant": false,
      "inputs": [],
      "name": "unpause",
      "outputs": [],
      "payable": false,
      "stateMutability": "nonpayable",
      "type": "function"
    },
    {
      "constant": true,
      "inputs": [],
      "name": "paused",
      "outputs": [
        {
          "name": "",
          "type": "bool"
        }
      ],
      "payable": false,
      "stateMutability": "view",
      "type": "function"
    },
    {
      "constant": false,
      "inputs": [],
      "name": "pause",
      "outputs": [],
      "payable": false,
      "stateMutability": "nonpayable",
      "type": "function"
    },
    {
      "constant": true,
      "inputs": [],
      "name": "owner",
      "outputs": [
        {
          "name": "",
          "type": "address"
        }
      ],
      "payable": false,
      "stateMutability": "view",
      "type": "function"
    },
    {
      "constant": false,
      "inputs": [
        {
          "name": "newOwner",
          "type": "address"
        }
      ],
      "name": "transferOwnership",
      "outputs": [],
      "payable": false,
      "stateMutability": "nonpayable",
      "type": "function"
    },
    {
      "inputs": [],
      "payable": false,
      "stateMutability": "nonpayable",
      "type": "constructor"
    },
    {
      "anonymous": false,
      "inputs": [
        {
          "indexed": false,
          "name": "shortName",
          "type": "bytes32"
        },
        {
          "indexed": false,
          "name": "schoolAddress",
          "type": "address"
        },
        {
          "indexed": false,
          "name": "detail",
          "type": "string"
        }
      ],
      "name": "CredentialOrgCreateEvent",
      "type": "event"
    },
    {
      "anonymous": false,
      "inputs": [
        {
          "indexed": false,
          "name": "schoolAddress",
          "type": "address"
        },
        {
          "indexed": false,
          "name": "detail",
          "type": "string"
        }
      ],
      "name": "CredentialOrgEvent",
      "type": "event"
    },
    {
      "anonymous": false,
      "inputs": [],
      "name": "Pause",
      "type": "event"
    },
    {
      "anonymous": false,
      "inputs": [],
      "name": "Unpause",
      "type": "event"
    },
    {
      "anonymous": false,
      "inputs": [
        {
          "indexed": true,
          "name": "previousOwner",
          "type": "address"
        },
        {
          "indexed": true,
          "name": "newOwner",
          "type": "address"
        }
      ],
      "name": "OwnershipTransferred",
      "type": "event"
    },
    {
      "constant": false,
      "inputs": [
        {
          "name": "_shortName",
          "type": "bytes32"
        },
        {
          "name": "_schoolCode",
          "type": "bytes6"
        },
        {
          "name": "_officialSchoolName",
          "type": "string"
        }
      ],
      "name": "createCredentialOrg",
      "outputs": [
        {
          "name": "position",
          "type": "uint32"
        }
      ],
      "payable": false,
      "stateMutability": "nonpayable",
      "type": "function"
    },
    {
      "constant": true,
      "inputs": [
        {
          "name": "_credentialOrgPosition",
          "type": "uint32"
        }
      ],
      "name": "selectCredentialOrgByPosition",
      "outputs": [
        {
          "name": "shortName",
          "type": "bytes32"
        },
        {
          "name": "schoolCode",
          "type": "bytes6"
        },
        {
          "name": "officialSchoolName",
          "type": "string"
        },
        {
          "name": "schoolAddress",
          "type": "address"
        }
      ],
      "payable": false,
      "stateMutability": "view",
      "type": "function"
    },
    {
      "constant": true,
      "inputs": [
        {
          "name": "_credentialOrgAddress",
          "type": "address"
        }
      ],
      "name": "selectCredentialOrgByAddress",
      "outputs": [
        {
          "name": "shortName",
          "type": "bytes32"
        },
        {
          "name": "schoolCode",
          "type": "bytes6"
        },
        {
          "name": "officialSchoolName",
          "type": "string"
        },
        {
          "name": "schoolAddress",
          "type": "address"
        }
      ],
      "payable": false,
      "stateMutability": "view",
      "type": "function"
    },
    {
      "constant": true,
      "inputs": [
        {
          "name": "_credentialOrgAddress",
          "type": "address"
        }
      ],
      "name": "isCredentialOrg",
      "outputs": [
        {
          "name": "IsOrgAddress",
          "type": "bool"
        }
      ],
      "payable": false,
      "stateMutability": "view",
      "type": "function"
    },
    {
      "constant": true,
      "inputs": [],
      "name": "selectOrgCount",
      "outputs": [
        {
          "name": "returnOrgCount",
          "type": "uint32"
        }
      ],
      "payable": false,
      "stateMutability": "view",
      "type": "function"
    }
  ],
  "bytecode": "0x608060405260008060146101000a81548160ff0219169083151502179055503480156200002b57600080fd5b50336000806101000a81548173ffffffffffffffffffffffffffffffffffffffff021916908373ffffffffffffffffffffffffffffffffffffffff1602179055506000600360006101000a81548163ffffffff021916908363ffffffff1602179055506200011f7f494e49545245434f5244000000000000000000000000000000000000000000007f30303030303000000000000000000000000000000000000000000000000000006040805190810160405280602081526020017f496e697469616c697a6174696f6e205265636f726420666f72206f776e65722e81525062000126640100000000026401000000009004565b5062000893565b60007f6480db5eb12fe3227eace7f150fa46f3a44dfebd8ea96d17acf257d2d2da06a984336040518083600019166000191681526020018273ffffffffffffffffffffffffffffffffffffffff1673ffffffffffffffffffffffffffffffffffffffff16815260200180602001828103825260118152602001807f4e6577204f726720416464202850524529000000000000000000000000000000815250602001935050505060405180910390a16000602060ff1611801562000200575060003373ffffffffffffffffffffffffffffffffffffffff1614155b801562000210575060068060ff16145b80156200021e575060008251115b80156200022c575060468251105b15156200023857600080fd5b6004608060405190810160405280866000191681526020018579ffffffffffffffffffffffffffffffffffffffffffffffffffff191681526020018481526020013373ffffffffffffffffffffffffffffffffffffffff16815250908060018154018082558091505090600182039060005260206000209060040201600090919290919091506000820151816000019060001916905560208201518160010160006101000a81548165ffffffffffff02191690837a0100000000000000000000000000000000000000000000000000009004021790555060408201518160020190805190602001906200032d92919062000756565b5060608201518160030160006101000a81548173ffffffffffffffffffffffffffffffffffffffff021916908373ffffffffffffffffffffffffffffffffffffffff1602179055505050905060008163ffffffff1611156200068d5733600160008363ffffffff1663ffffffff16815260200190815260200160002060006101000a81548173ffffffffffffffffffffffffffffffffffffffff021916908373ffffffffffffffffffffffffffffffffffffffff16021790555060046200041360018363ffffffff166200070564010000000002620018bc179091906401000000009004565b63ffffffff168154811015156200042657fe5b9060005260206000209060040201600260003373ffffffffffffffffffffffffffffffffffffffff1673ffffffffffffffffffffffffffffffffffffffff168152602001908152602001600020600082015481600001906000191690556001820160009054906101000a90047a010000000000000000000000000000000000000000000000000000028160010160006101000a81548165ffffffffffff02191690837a010000000000000000000000000000000000000000000000000000900402179055506002820181600201908054600181600116156101000203166002900462000514929190620007dd565b506003820160009054906101000a900473ffffffffffffffffffffffffffffffffffffffff168160030160006101000a81548173ffffffffffffffffffffffffffffffffffffffff021916908373ffffffffffffffffffffffffffffffffffffffff160217905550905050620005bb6001600360009054906101000a900463ffffffff1663ffffffff166200072b64010000000002620018e1179091906401000000009004565b600360006101000a81548163ffffffff021916908363ffffffff1602179055507f6480db5eb12fe3227eace7f150fa46f3a44dfebd8ea96d17acf257d2d2da06a984336040518083600019166000191681526020018273ffffffffffffffffffffffffffffffffffffffff1673ffffffffffffffffffffffffffffffffffffffff168152602001806020018281038252601d8152602001807f63726561746543726564656e7469616c4f726720285355434345535329000000815250602001935050505060405180910390a1620006fb565b6040517f08c379a00000000000000000000000000000000000000000000000000000000081526004018080602001828103825260128152602001807f4e6577204f72672041646420284641494c29000000000000000000000000000081525060200191505060405180910390fd5b8090509392505050565b60008263ffffffff168263ffffffff16111515156200072057fe5b818303905092915050565b60008082840190508363ffffffff168163ffffffff16101515156200074c57fe5b8091505092915050565b828054600181600116156101000203166002900490600052602060002090601f016020900481019282601f106200079957805160ff1916838001178555620007ca565b82800160010185558215620007ca579182015b82811115620007c9578251825591602001919060010190620007ac565b5b509050620007d991906200086b565b5090565b828054600181600116156101000203166002900490600052602060002090601f016020900481019282601f1062000818578054855562000858565b828001600101855582156200085857600052602060002091601f016020900482015b82811115620008575782548255916001019190600101906200083a565b5b5090506200086791906200086b565b5090565b6200089091905b808211156200088c57600081600090555060010162000872565b5090565b90565b611a6380620008a36000396000f3006080604052600436106100a4576000357c0100000000000000000000000000000000000000000000000000000000900463ffffffff1680633f4ba83a146100a9578063554ee043146100c05780635c975abb146100f75780637795e209146101265780638456cb59146102555780638da5cb5b1461026c578063bbee2dfe146102c3578063db7acb3b14610402578063e1eaee42146104c0578063f2fde38b1461051b575b600080fd5b3480156100b557600080fd5b506100be61055e565b005b3480156100cc57600080fd5b506100d561061c565b604051808263ffffffff1663ffffffff16815260200191505060405180910390f35b34801561010357600080fd5b5061010c6106d5565b604051808215151515815260200191505060405180910390f35b34801561013257600080fd5b50610157600480360381019080803563ffffffff1690602001909291905050506106e8565b6040518085600019166000191681526020018479ffffffffffffffffffffffffffffffffffffffffffffffffffff191679ffffffffffffffffffffffffffffffffffffffffffffffffffff19168152602001806020018373ffffffffffffffffffffffffffffffffffffffff1673ffffffffffffffffffffffffffffffffffffffff168152602001828103825284818151815260200191508051906020019080838360005b838110156102175780820151818401526020810190506101fc565b50505050905090810190601f1680156102445780820380516001836020036101000a031916815260200191505b509550505050505060405180910390f35b34801561026157600080fd5b5061026a610afb565b005b34801561027857600080fd5b50610281610bbb565b604051808273ffffffffffffffffffffffffffffffffffffffff1673ffffffffffffffffffffffffffffffffffffffff16815260200191505060405180910390f35b3480156102cf57600080fd5b50610304600480360381019080803573ffffffffffffffffffffffffffffffffffffffff169060200190929190505050610be0565b6040518085600019166000191681526020018479ffffffffffffffffffffffffffffffffffffffffffffffffffff191679ffffffffffffffffffffffffffffffffffffffffffffffffffff19168152602001806020018373ffffffffffffffffffffffffffffffffffffffff1673ffffffffffffffffffffffffffffffffffffffff168152602001828103825284818151815260200191508051906020019080838360005b838110156103c45780820151818401526020810190506103a9565b50505050905090810190601f1680156103f15780820380516001836020036101000a031916815260200191505b509550505050505060405180910390f35b34801561040e57600080fd5b5061049e6004803603810190808035600019169060200190929190803579ffffffffffffffffffffffffffffffffffffffffffffffffffff19169060200190929190803590602001908201803590602001908080601f0160208091040260200160405190810160405280939291908181526020018383808284378201915050505050509192919290505050610fdd565b604051808263ffffffff1663ffffffff16815260200191505060405180910390f35b3480156104cc57600080fd5b50610501600480360381019080803573ffffffffffffffffffffffffffffffffffffffff169060200190929190505050611590565b604051808215151515815260200191505060405180910390f35b34801561052757600080fd5b5061055c600480360381019080803573ffffffffffffffffffffffffffffffffffffffff169060200190929190505050611767565b005b6000809054906101000a900473ffffffffffffffffffffffffffffffffffffffff1673ffffffffffffffffffffffffffffffffffffffff163373ffffffffffffffffffffffffffffffffffffffff161415156105b957600080fd5b600060149054906101000a900460ff1615156105d457600080fd5b60008060146101000a81548160ff0219169083151502179055507f7805862f689e2f13df9f062ff482ad3ad112aca9e0847911ed832e158c525b3360405160405180910390a1565b6000600360009054906101000a900463ffffffff1690507f4e21dd52bcce287e8c74281919f77b5fe01a9761789a160d0bc2d8116703142f33604051808273ffffffffffffffffffffffffffffffffffffffff1673ffffffffffffffffffffffffffffffffffffffff168152602001806020018281038252601a8152602001807f73656c6563744f7267436f756e74202d202853554343455353290000000000008152506020019250505060405180910390a180905090565b600060149054906101000a900460ff1681565b6000806060600080935060009250602060405190810160405280600081525091506000905060008563ffffffff16101515156107b2576040517f08c379a000000000000000000000000000000000000000000000000000000000815260040180806020018281038252603f8152602001807f73656c65637443726564656e7469616c4f7267202d20706f736974696f6e206881526020017f616420746f2062652067726561746572206f7220657175616c20746f20302e0081525060400191505060405180910390fd5b600360009054906101000a900463ffffffff1663ffffffff168563ffffffff161015610a25577f4e21dd52bcce287e8c74281919f77b5fe01a9761789a160d0bc2d8116703142f33604051808273ffffffffffffffffffffffffffffffffffffffff1673ffffffffffffffffffffffffffffffffffffffff16815260200180602001828103825260288152602001807f73656c65637443726564656e7469616c4f72677e706f736974696f6e202d202881526020017f53554343455353290000000000000000000000000000000000000000000000008152506040019250505060405180910390a160048563ffffffff168154811015156108af57fe5b90600052602060002090600402016000015460048663ffffffff168154811015156108d657fe5b906000526020600020906004020160010160009054906101000a90047a0100000000000000000000000000000000000000000000000000000260048763ffffffff1681548110151561092457fe5b906000526020600020906004020160020160048863ffffffff1681548110151561094a57fe5b906000526020600020906004020160030160009054906101000a900473ffffffffffffffffffffffffffffffffffffffff16818054600181600116156101000203166002900480601f016020809104026020016040519081016040528092919081815260200182805460018160011615610100020316600290048015610a115780601f106109e657610100808354040283529160200191610a11565b820191906000526020600020905b8154815290600101906020018083116109f457829003601f168201915b505050505091509350935093509350610af4565b7f4e21dd52bcce287e8c74281919f77b5fe01a9761789a160d0bc2d8116703142f33604051808273ffffffffffffffffffffffffffffffffffffffff1673ffffffffffffffffffffffffffffffffffffffff168152602001806020018281038252603b8152602001807f73656c65637443726564656e7469616c4f72677e706f736974696f6e202d202881526020017f4641494c2920746f7020626f756e6472792065786365656465642e00000000008152506040019250505060405180910390a18383838393509350935093505b9193509193565b6000809054906101000a900473ffffffffffffffffffffffffffffffffffffffff1673ffffffffffffffffffffffffffffffffffffffff163373ffffffffffffffffffffffffffffffffffffffff16141515610b5657600080fd5b600060149054906101000a900460ff16151515610b7257600080fd5b6001600060146101000a81548160ff0219169083151502179055507f6985a02210a168e66602d3235cb6db0e70f92b3ba4d376a33c0f3d9434bff62560405160405180910390a1565b6000809054906101000a900473ffffffffffffffffffffffffffffffffffffffff1681565b600080606060008060008673ffffffffffffffffffffffffffffffffffffffff1614151515610c9d576040517f08c379a00000000000000000000000000000000000000000000000000000000081526004018080602001828103825260298152602001807f73656c65637443726564656e7469616c4f7267202d204164647265737320302081526020017f6e6f742076616c6964000000000000000000000000000000000000000000000081525060400191505060405180910390fd5b60009450600093506020604051908101604052806000815250925060009150600260008773ffffffffffffffffffffffffffffffffffffffff1673ffffffffffffffffffffffffffffffffffffffff168152602001908152602001600020905060008160030160009054906101000a900473ffffffffffffffffffffffffffffffffffffffff1673ffffffffffffffffffffffffffffffffffffffff16141515610f06577f4e21dd52bcce287e8c74281919f77b5fe01a9761789a160d0bc2d8116703142f33604051808273ffffffffffffffffffffffffffffffffffffffff1673ffffffffffffffffffffffffffffffffffffffff16815260200180602001828103825260278152602001807f73656c65637443726564656e7469616c4f72677e61646472657373202d20285381526020017f55434345535329000000000000000000000000000000000000000000000000008152506040019250505060405180910390a180600001548160010160009054906101000a90047a01000000000000000000000000000000000000000000000000000002826002018360030160009054906101000a900473ffffffffffffffffffffffffffffffffffffffff16818054600181600116156101000203166002900480601f016020809104026020016040519081016040528092919081815260200182805460018160011615610100020316600290048015610ef25780601f10610ec757610100808354040283529160200191610ef2565b820191906000526020600020905b815481529060010190602001808311610ed557829003601f168201915b505050505091509450945094509450610fd5565b7f4e21dd52bcce287e8c74281919f77b5fe01a9761789a160d0bc2d8116703142f33604051808273ffffffffffffffffffffffffffffffffffffffff1673ffffffffffffffffffffffffffffffffffffffff16815260200180602001828103825260248152602001807f73656c65637443726564656e7469616c4f72677e61646472657373202d20284681526020017f41494c29000000000000000000000000000000000000000000000000000000008152506040019250505060405180910390a18484848494509450945094505b509193509193565b60007f6480db5eb12fe3227eace7f150fa46f3a44dfebd8ea96d17acf257d2d2da06a984336040518083600019166000191681526020018273ffffffffffffffffffffffffffffffffffffffff1673ffffffffffffffffffffffffffffffffffffffff16815260200180602001828103825260118152602001807f4e6577204f726720416464202850524529000000000000000000000000000000815250602001935050505060405180910390a16000602060ff161180156110b6575060003373ffffffffffffffffffffffffffffffffffffffff1614155b80156110c5575060068060ff16145b80156110d2575060008251115b80156110df575060468251105b15156110ea57600080fd5b6004608060405190810160405280866000191681526020018579ffffffffffffffffffffffffffffffffffffffffffffffffffff191681526020018481526020013373ffffffffffffffffffffffffffffffffffffffff16815250908060018154018082558091505090600182039060005260206000209060040201600090919290919091506000820151816000019060001916905560208201518160010160006101000a81548165ffffffffffff02191690837a0100000000000000000000000000000000000000000000000000009004021790555060408201518160020190805190602001906111dd92919061190b565b5060608201518160030160006101000a81548173ffffffffffffffffffffffffffffffffffffffff021916908373ffffffffffffffffffffffffffffffffffffffff1602179055505050905060008163ffffffff1611156115185733600160008363ffffffff1663ffffffff16815260200190815260200160002060006101000a81548173ffffffffffffffffffffffffffffffffffffffff021916908373ffffffffffffffffffffffffffffffffffffffff16021790555060046112b260018363ffffffff166118bc90919063ffffffff16565b63ffffffff168154811015156112c457fe5b9060005260206000209060040201600260003373ffffffffffffffffffffffffffffffffffffffff1673ffffffffffffffffffffffffffffffffffffffff168152602001908152602001600020600082015481600001906000191690556001820160009054906101000a90047a010000000000000000000000000000000000000000000000000000028160010160006101000a81548165ffffffffffff02191690837a01000000000000000000000000000000000000000000000000000090040217905550600282018160020190805460018160011615610100020316600290046113b092919061198b565b506003820160009054906101000a900473ffffffffffffffffffffffffffffffffffffffff168160030160006101000a81548173ffffffffffffffffffffffffffffffffffffffff021916908373ffffffffffffffffffffffffffffffffffffffff1602179055509050506114476001600360009054906101000a900463ffffffff1663ffffffff166118e190919063ffffffff16565b600360006101000a81548163ffffffff021916908363ffffffff1602179055507f6480db5eb12fe3227eace7f150fa46f3a44dfebd8ea96d17acf257d2d2da06a984336040518083600019166000191681526020018273ffffffffffffffffffffffffffffffffffffffff1673ffffffffffffffffffffffffffffffffffffffff168152602001806020018281038252601d8152602001807f63726561746543726564656e7469616c4f726720285355434345535329000000815250602001935050505060405180910390a1611586565b6040517f08c379a00000000000000000000000000000000000000000000000000000000081526004018080602001828103825260128152602001807f4e6577204f72672041646420284641494c29000000000000000000000000000081525060200191505060405180910390fd5b8090509392505050565b60008060009150600260008473ffffffffffffffffffffffffffffffffffffffff1673ffffffffffffffffffffffffffffffffffffffff168152602001908152602001600020905060008160030160009054906101000a900473ffffffffffffffffffffffffffffffffffffffff1673ffffffffffffffffffffffffffffffffffffffff161415156116c157600191507f4e21dd52bcce287e8c74281919f77b5fe01a9761789a160d0bc2d8116703142f33604051808273ffffffffffffffffffffffffffffffffffffffff1673ffffffffffffffffffffffffffffffffffffffff168152602001806020018281038252601b8152602001807f697343726564656e7469616c4f7267202d2028535543434553532900000000008152506020019250505060405180910390a161175e565b7f4e21dd52bcce287e8c74281919f77b5fe01a9761789a160d0bc2d8116703142f33604051808273ffffffffffffffffffffffffffffffffffffffff1673ffffffffffffffffffffffffffffffffffffffff16815260200180602001828103825260188152602001807f697343726564656e7469616c4f7267202d20284641494c2900000000000000008152506020019250505060405180910390a15b81915050919050565b6000809054906101000a900473ffffffffffffffffffffffffffffffffffffffff1673ffffffffffffffffffffffffffffffffffffffff163373ffffffffffffffffffffffffffffffffffffffff161415156117c257600080fd5b600073ffffffffffffffffffffffffffffffffffffffff168173ffffffffffffffffffffffffffffffffffffffff16141515156117fe57600080fd5b8073ffffffffffffffffffffffffffffffffffffffff166000809054906101000a900473ffffffffffffffffffffffffffffffffffffffff1673ffffffffffffffffffffffffffffffffffffffff167f8be0079c531659141344cd1fd0a4f28419497f9722a3daafe3b4186f6b6457e060405160405180910390a3806000806101000a81548173ffffffffffffffffffffffffffffffffffffffff021916908373ffffffffffffffffffffffffffffffffffffffff16021790555050565b60008263ffffffff168263ffffffff16111515156118d657fe5b818303905092915050565b60008082840190508363ffffffff168163ffffffff161015151561190157fe5b8091505092915050565b828054600181600116156101000203166002900490600052602060002090601f016020900481019282601f1061194c57805160ff191683800117855561197a565b8280016001018555821561197a579182015b8281111561197957825182559160200191906001019061195e565b5b5090506119879190611a12565b5090565b828054600181600116156101000203166002900490600052602060002090601f016020900481019282601f106119c45780548555611a01565b82800160010185558215611a0157600052602060002091601f016020900482015b82811115611a005782548255916001019190600101906119e5565b5b509050611a0e9190611a12565b5090565b611a3491905b80821115611a30576000816000905550600101611a18565b5090565b905600a165627a7a72305820c6c738f758ea26cbb34a09216bd1df822365be249a40b6f7134139b86aac37b70029",
  "source": "pragma solidity ^0.4.21;\r\n\r\n/**\r\n * @title CredentialOrgFactory\r\n * @dev The CredentialOrgFactory allows the contract owner to add new credentialing orgs\r\n */\r\nimport \"./Pausable.sol\";\r\nimport \"./SafeMath.sol\";\r\n\r\ncontract CredentialOrgFactory is Pausable {\r\n\r\n    /**\r\n    *  @dev Library useage for safemath for uint32\r\n    */\r\n    using SafeMath32 for uint32;\r\n\r\n    /**\r\n    * @dev \r\n    */\r\n    // mappings\r\n    mapping(uint32 => address) orgPositionToAddress;\r\n    mapping(address => CredentialOrg) addressToCredentialOrg;\r\n    \r\n    /**\r\n    * @dev events for contract\r\n    * One for the create CredentialOrg and one for the basic 'logging'.\r\n    */\r\n    event CredentialOrgCreateEvent(bytes32 shortName, address schoolAddress, string detail);\r\n    event CredentialOrgEvent(address schoolAddress, string detail);\r\n\r\n    /**\r\n    * @dev CredentialOrg Count\r\n    */\r\n    uint32 private credentialOrgCount;\r\n\r\n    /**\r\n    * @dev Primary CredentialOrg structure, and following array.\r\n    */\r\n    struct CredentialOrg {\r\n        bytes32 shortName;  // School shortName\r\n        bytes6 schoolCode; // Dept of Education \"FICE\" code\r\n        string officialSchoolName; // official school shortName (70 or less)\r\n        address schoolAddress;\r\n    }\r\n    CredentialOrg[] private credentialOrgs; // array to hold Credentialing Orgs\r\n\r\n    /**\r\n    * @dev Modifer onlyBy for Access Control\r\n    */\r\n    modifier onlyBy(address _credentialOrgAddress){\r\n        uint32 foundAccount = 0;\r\n        CredentialOrg testCredentialOrg = addressToCredentialOrg[_credentialOrgAddress];\r\n        if (testCredentialOrg.schoolAddress != 0){\r\n            foundAccount = 1;\r\n        }\r\n        if (foundAccount == 0) revert(\"Not Authorized\");\r\n        _;\r\n    }\r\n    \r\n    /**\r\n    * @dev class constructor\r\n    */\r\n    constructor() public {\r\n        credentialOrgCount = 0;\r\n        createCredentialOrg(\"INITRECORD\", \"000000\",\"Initialization Record for owner.\");\r\n        //createCredentialOrg(\"BCD\", 0x5a186B7FeC36909678211F69beB67EC3b1E4fFBB, \"000000\",\" BaseRecordFor Account A\");\r\n        //createCredentialOrg(\"SCC\",0x14723A09ACff6D2A60DcdF7aA4AFf308FDDC160C,\"003793\",\"Spokane Community College\");\r\n        //createCredentialOrg(\"SFCC\",0x4B0897b0513fdC7C541B6d9D7E929C4e5364D2dB, \"009544\",\"Spokane Falls Community College\");\r\n    }\r\n    \r\n    /**\r\n    * @dev allows owner to create new credentialing orgs\r\n    * @param _shortName shortName of Credentialing orgs\r\n    * @param _schoolCode Credentialing FICE School Code\r\n    * @param _officialSchoolName official School Name\r\n    */\r\n    function createCredentialOrg(bytes32 _shortName, bytes6 _schoolCode, string _officialSchoolName) \r\n    public\r\n    returns (uint32 position)\r\n    {\r\n        emit CredentialOrgCreateEvent(_shortName, msg.sender, \"New Org Add (PRE)\");\r\n        require(_shortName.length > 0 && msg.sender != 0 && _schoolCode.length == 6 && bytes(_officialSchoolName).length > 0 && bytes(_officialSchoolName).length < 70);\r\n        position = uint32(credentialOrgs.push(CredentialOrg(_shortName, _schoolCode, _officialSchoolName, msg.sender)));\r\n        if (position > 0){\r\n            orgPositionToAddress[position] = msg.sender;\r\n            addressToCredentialOrg[msg.sender] = credentialOrgs[position.sub(1)];\r\n            credentialOrgCount = credentialOrgCount.add(1);\r\n            emit CredentialOrgCreateEvent(_shortName, msg.sender, \"createCredentialOrg (SUCCESS)\");\r\n        } else {\r\n            revert(\"New Org Add (FAIL)\");\r\n            emit CredentialOrgCreateEvent(_shortName, msg.sender, \"createCredentialOrg (FAIL)\");\r\n        }\r\n        return (position);\r\n    }\r\n\r\n    /**\r\n    * @dev allows selection of a credentialingOrg by position\r\n    * @param _credentialOrgPosition allows selection of credentialing orgs details.\r\n    */\r\n    function selectCredentialOrgByPosition(uint32 _credentialOrgPosition) \r\n    public view\r\n    returns (bytes32 shortName, bytes6 schoolCode, string officialSchoolName, address schoolAddress)\r\n    {\r\n        shortName = \"\";\r\n        schoolCode = \"\";\r\n        officialSchoolName = \"\";\r\n        schoolAddress = 0;\r\n        require(_credentialOrgPosition >= 0, \"selectCredentialOrg - position had to be greater or equal to 0.\");\r\n        if (_credentialOrgPosition < credentialOrgCount){\r\n            emit CredentialOrgEvent(msg.sender, \"selectCredentialOrg~position - (SUCCESS)\");\r\n            return (credentialOrgs[_credentialOrgPosition].shortName, credentialOrgs[_credentialOrgPosition].schoolCode, credentialOrgs[_credentialOrgPosition].officialSchoolName, credentialOrgs[_credentialOrgPosition].schoolAddress);\r\n        } else {\r\n            emit CredentialOrgEvent(msg.sender, \"selectCredentialOrg~position - (FAIL) top boundry exceeded.\");\r\n            return (shortName,schoolCode,officialSchoolName,schoolAddress);\r\n        }\r\n    }\r\n\r\n    /**\r\n    * @dev allows selection of a credentialingOrg by address\r\n    * @param _credentialOrgAddress allows selection of credentialing orgs details.\r\n    */\r\n    function selectCredentialOrgByAddress(address _credentialOrgAddress) \r\n    public view\r\n    returns (bytes32 shortName, bytes6 schoolCode, string officialSchoolName, address schoolAddress)\r\n    {\r\n        require(_credentialOrgAddress != 0, \"selectCredentialOrg - Address 0 not valid\");\r\n        shortName = \"\";\r\n        schoolCode = \"\";\r\n        officialSchoolName = \"\";\r\n        schoolAddress = 0;\r\n        CredentialOrg testCred = addressToCredentialOrg[_credentialOrgAddress];\r\n        if (testCred.schoolAddress != 0){\r\n            emit CredentialOrgEvent(msg.sender, \"selectCredentialOrg~address - (SUCCESS)\");\r\n            return (testCred.shortName, testCred.schoolCode, testCred.officialSchoolName, testCred.schoolAddress);\r\n        } else {\r\n            emit CredentialOrgEvent(msg.sender, \"selectCredentialOrg~address - (FAIL)\");\r\n            return (shortName, schoolCode, officialSchoolName, schoolAddress);\r\n        }\r\n        \r\n    }\r\n\r\n    /**\r\n    * @dev allows checking if credentialOrg exists\r\n    * @param _credentialOrgAddress function returns bool if an address is a credentialingOrg\r\n    */\r\n    function isCredentialOrg(address _credentialOrgAddress) \r\n    public view\r\n    returns (bool IsOrgAddress)\r\n    {\r\n        IsOrgAddress = false;\r\n        CredentialOrg testCredentialOrg = addressToCredentialOrg[_credentialOrgAddress];\r\n        if (testCredentialOrg.schoolAddress != 0){\r\n            IsOrgAddress = true;\r\n            emit CredentialOrgEvent(msg.sender, \"isCredentialOrg - (SUCCESS)\");\r\n        } else {\r\n            emit CredentialOrgEvent(msg.sender, \"isCredentialOrg - (FAIL)\");\r\n        }\r\n        return (IsOrgAddress);\r\n    }\r\n\r\n    /**\r\n    * @dev returns the credentialOrgCount\r\n    */\r\n    function selectOrgCount()\r\n    public view\r\n    returns (uint32 returnOrgCount)\r\n    {\r\n        returnOrgCount = credentialOrgCount;\r\n        emit CredentialOrgEvent(msg.sender, \"selectOrgCount - (SUCCESS)\");\r\n        return (returnOrgCount);\r\n    }\r\n\r\n}",
  "sourcePath": "C:\\Projects\\CredentialVerify\\contracts\\CredentialOrgFactory.sol",
  "compiler": {
    "name": "solc",
    "version": "0.4.24+commit.e67f0147.Emscripten.clang"
  },
  "schemaVersion": "2.0.1",
  "updatedAt": "2018-08-08T22:30:37.283Z"
}