{
  "contractName": "CredentialFactory",
  "abi": [
    {
      "constant": false,
      "inputs": [
        {
          "name": "_shortName",
          "type": "bytes32"
        },
        {
          "name": "_schoolAddress",
          "type": "address"
        },
        {
          "name": "_schoolCode",
          "type": "bytes6"
        },
        {
          "name": "_officialSchoolName",
          "type": "string"
        }
      ],
      "name": "createCredentialOrg",
      "outputs": [
        {
          "name": "position",
          "type": "uint256"
        }
      ],
      "payable": false,
      "stateMutability": "nonpayable",
      "type": "function"
    },
    {
      "constant": true,
      "inputs": [],
      "name": "selectOrgCount",
      "outputs": [
        {
          "name": "returnOrgCount",
          "type": "uint256"
        }
      ],
      "payable": false,
      "stateMutability": "view",
      "type": "function"
    },
    {
      "constant": true,
      "inputs": [],
      "name": "owner",
      "outputs": [
        {
          "name": "",
          "type": "address"
        }
      ],
      "payable": false,
      "stateMutability": "view",
      "type": "function"
    },
    {
      "constant": true,
      "inputs": [
        {
          "name": "_credentialOrgAddress",
          "type": "address"
        }
      ],
      "name": "isCredentialOrg",
      "outputs": [
        {
          "name": "IsOrgAddress",
          "type": "bool"
        }
      ],
      "payable": false,
      "stateMutability": "view",
      "type": "function"
    },
    {
      "constant": true,
      "inputs": [
        {
          "name": "_credentialPosition",
          "type": "uint256"
        }
      ],
      "name": "selectCredentialOrg",
      "outputs": [
        {
          "name": "shortName",
          "type": "bytes32"
        },
        {
          "name": "schoolCode",
          "type": "bytes6"
        },
        {
          "name": "officialSchoolName",
          "type": "string"
        },
        {
          "name": "schoolAddress",
          "type": "address"
        }
      ],
      "payable": false,
      "stateMutability": "view",
      "type": "function"
    },
    {
      "constant": false,
      "inputs": [
        {
          "name": "newOwner",
          "type": "address"
        }
      ],
      "name": "transferOwnership",
      "outputs": [],
      "payable": false,
      "stateMutability": "nonpayable",
      "type": "function"
    },
    {
      "inputs": [],
      "payable": false,
      "stateMutability": "nonpayable",
      "type": "constructor"
    },
    {
      "anonymous": false,
      "inputs": [
        {
          "indexed": false,
          "name": "credentialOrg",
          "type": "address"
        },
        {
          "indexed": false,
          "name": "credentialTitle",
          "type": "string"
        },
        {
          "indexed": false,
          "name": "detail",
          "type": "string"
        }
      ],
      "name": "CredentialFactoryActivity",
      "type": "event"
    },
    {
      "anonymous": false,
      "inputs": [
        {
          "indexed": false,
          "name": "shortName",
          "type": "bytes32"
        },
        {
          "indexed": false,
          "name": "schoolAddress",
          "type": "address"
        },
        {
          "indexed": false,
          "name": "detail",
          "type": "string"
        }
      ],
      "name": "NewOrgAdd",
      "type": "event"
    },
    {
      "anonymous": false,
      "inputs": [
        {
          "indexed": true,
          "name": "previousOwner",
          "type": "address"
        },
        {
          "indexed": true,
          "name": "newOwner",
          "type": "address"
        }
      ],
      "name": "OwnershipTransferred",
      "type": "event"
    },
    {
      "constant": false,
      "inputs": [
        {
          "name": "_credentialLevel",
          "type": "bytes1"
        },
        {
          "name": "_credentialTitle",
          "type": "string"
        },
        {
          "name": "_credentialDivision",
          "type": "string"
        },
        {
          "name": "_insertDate",
          "type": "bytes8"
        }
      ],
      "name": "createCredential",
      "outputs": [],
      "payable": false,
      "stateMutability": "nonpayable",
      "type": "function"
    },
    {
      "constant": false,
      "inputs": [
        {
          "name": "_credentialOrg",
          "type": "address"
        },
        {
          "name": "_credentialLevel",
          "type": "bytes1"
        },
        {
          "name": "_credentialTitle",
          "type": "string"
        },
        {
          "name": "_credentialDivision",
          "type": "string"
        },
        {
          "name": "_insertDate",
          "type": "bytes8"
        }
      ],
      "name": "createCredentialByOwner",
      "outputs": [],
      "payable": false,
      "stateMutability": "nonpayable",
      "type": "function"
    },
    {
      "constant": false,
      "inputs": [
        {
          "name": "_position",
          "type": "uint256"
        },
        {
          "name": "_isActive",
          "type": "bool"
        }
      ],
      "name": "setCredentialInactiveFlag",
      "outputs": [],
      "payable": false,
      "stateMutability": "nonpayable",
      "type": "function"
    },
    {
      "constant": true,
      "inputs": [],
      "name": "SelectCredentialCount",
      "outputs": [
        {
          "name": "returnCredentialCount",
          "type": "uint256"
        }
      ],
      "payable": false,
      "stateMutability": "view",
      "type": "function"
    },
    {
      "constant": true,
      "inputs": [
        {
          "name": "_position",
          "type": "uint256"
        }
      ],
      "name": "isCredentialActive",
      "outputs": [
        {
          "name": "activeState",
          "type": "bool"
        }
      ],
      "payable": false,
      "stateMutability": "view",
      "type": "function"
    }
  ],
  "bytecode": "0x60806040523480156200001157600080fd5b50336000806101000a81548173ffffffffffffffffffffffffffffffffffffffff021916908373ffffffffffffffffffffffffffffffffffffffff16021790555060006003819055506200010d7f41424300000000000000000000000000000000000000000000000000000000006000809054906101000a900473ffffffffffffffffffffffffffffffffffffffff167f30303030303000000000000000000000000000000000000000000000000000006040805190810160405280601281526020017f426173655265636f7264666f724f776e6572000000000000000000000000000081525062000580640100000000026401000000009004565b50620001b47f53434300000000000000000000000000000000000000000000000000000000007314723a09acff6d2a60dcdf7aa4aff308fddc160c7f30303337393300000000000000000000000000000000000000000000000000006040805190810160405280601981526020017f53706f6b616e6520436f6d6d756e69747920436f6c6c6567650000000000000081525062000580640100000000026401000000009004565b506200025b7f5346434300000000000000000000000000000000000000000000000000000000734b0897b0513fdc7c541b6d9d7e929c4e5364d2db7f30303935343400000000000000000000000000000000000000000000000000006040805190810160405280601f81526020017f53706f6b616e652046616c6c7320436f6d6d756e69747920436f6c6c6567650081525062000580640100000000026401000000009004565b506000600681905550620003746000809054906101000a900473ffffffffffffffffffffffffffffffffffffffff167f4100000000000000000000000000000000000000000000000000000000000000606060405190810160405280602281526020017f4173736f63696174652044656772656520696e204261736b657420576561766981526020017f6e670000000000000000000000000000000000000000000000000000000000008152506040805190810160405280600981526020017f4241202d204172747300000000000000000000000000000000000000000000008152507f3230313830373033000000000000000000000000000000000000000000000000620009a7640100000000026401000000009004565b620004777314723a09acff6d2a60dcdf7aa4aff308fddc160c7f4100000000000000000000000000000000000000000000000000000000000000606060405190810160405280602281526020017f4173736f63696174652044656772656520696e204261736b657420576561766981526020017f6e670000000000000000000000000000000000000000000000000000000000008152506040805190810160405280600981526020017f4241202d204172747300000000000000000000000000000000000000000000008152507f3230313830373033000000000000000000000000000000000000000000000000620009a7640100000000026401000000009004565b6200057a734b0897b0513fdc7c541b6d9d7e929c4e5364d2db7f4100000000000000000000000000000000000000000000000000000000000000606060405190810160405280602281526020017f4173736f63696174652044656772656520696e204261736b657420576561766981526020017f6e670000000000000000000000000000000000000000000000000000000000008152506040805190810160405280600981526020017f4241202d204172747300000000000000000000000000000000000000000000008152507f3230313830373033000000000000000000000000000000000000000000000000620009a7640100000000026401000000009004565b62001030565b60008060009054906101000a900473ffffffffffffffffffffffffffffffffffffffff1673ffffffffffffffffffffffffffffffffffffffff163373ffffffffffffffffffffffffffffffffffffffff16141515620005de57600080fd5b7fd269155c21749744b1d4aa8db9212a1c95a65f3baa13728e9d0cc0b6433b2cea85856040518083600019166000191681526020018273ffffffffffffffffffffffffffffffffffffffff1673ffffffffffffffffffffffffffffffffffffffff16815260200180602001828103825260118152602001807f4e6577204f726720416464202850524529000000000000000000000000000000815250602001935050505060405180910390a16000602060ff16118015620006b6575060008473ffffffffffffffffffffffffffffffffffffffff1614155b8015620006c6575060068060ff16145b8015620006d4575060008251115b8015620006e2575060468251105b1515620006ee57600080fd5b6004608060405190810160405280876000191681526020018579ffffffffffffffffffffffffffffffffffffffffffffffffffff191681526020018481526020018673ffffffffffffffffffffffffffffffffffffffff16815250908060018154018082558091505090600182039060005260206000209060040201600090919290919091506000820151816000019060001916905560208201518160010160006101000a81548165ffffffffffff02191690837a010000000000000000000000000000000000000000000000000000900402179055506040820151816002019080519060200190620007e392919062000f81565b5060608201518160030160006101000a81548173ffffffffffffffffffffffffffffffffffffffff021916908373ffffffffffffffffffffffffffffffffffffffff160217905550505090506000811015156200099757836001600083815260200190815260200160002060006101000a81548173ffffffffffffffffffffffffffffffffffffffff021916908373ffffffffffffffffffffffffffffffffffffffff16021790555060018103600260008673ffffffffffffffffffffffffffffffffffffffff1673ffffffffffffffffffffffffffffffffffffffff168152602001908152602001600020819055506003600081548092919060010191905055507fd269155c21749744b1d4aa8db9212a1c95a65f3baa13728e9d0cc0b6433b2cea85856040518083600019166000191681526020018273ffffffffffffffffffffffffffffffffffffffff1673ffffffffffffffffffffffffffffffffffffffff16815260200180602001828103825260158152602001807f4e6577204f726720416464202853554343455353290000000000000000000000815250602001935050505060405180910390a16200099c565b600080fd5b809050949350505050565b60008060009054906101000a900473ffffffffffffffffffffffffffffffffffffffff1673ffffffffffffffffffffffffffffffffffffffff163373ffffffffffffffffffffffffffffffffffffffff1614151562000a0557600080fd5b7f22efaf0cb3bd642425e7be86b531b1a553c2d7a83936239ee16e9f7fdb8fa37d8685604051808373ffffffffffffffffffffffffffffffffffffffff1673ffffffffffffffffffffffffffffffffffffffff1681526020018060200180602001838103835284818151815260200191508051906020019080838360005b8381101562000aa057808201518184015260208101905062000a83565b50505050905090810190601f16801562000ace5780820380516001836020036101000a031916815260200191505b508381038252601c8152602001807f4e65772043726564656e7469616c204164642028415454454d5054290000000081525060200194505050505060405180910390a160018060ff1614801562000b26575060008451115b801562000b34575060468451105b801562000b4357506000835110155b801562000b51575060328351105b151562000b5d57600080fd5b600560c0604051908101604052808873ffffffffffffffffffffffffffffffffffffffff168152602001877effffffffffffffffffffffffffffffffffffffffffffffffffffffffffffff191681526020018681526020018581526020018477ffffffffffffffffffffffffffffffffffffffffffffffff19168152602001600115158152509080600181540180825580915050906001820390600052602060002090600402016000909192909190915060008201518160000160006101000a81548173ffffffffffffffffffffffffffffffffffffffff021916908373ffffffffffffffffffffffffffffffffffffffff16021790555060208201518160000160146101000a81548160ff02191690837f010000000000000000000000000000000000000000000000000000000000000090040217905550604082015181600101908051906020019062000cb492919062000f81565b50606082015181600201908051906020019062000cd392919062000f81565b5060808201518160030160006101000a81548167ffffffffffffffff021916908378010000000000000000000000000000000000000000000000009004021790555060a08201518160030160086101000a81548160ff0219169083151502179055505050905060008110151562000e68576006600081548092919060010191905055507f22efaf0cb3bd642425e7be86b531b1a553c2d7a83936239ee16e9f7fdb8fa37d8685604051808373ffffffffffffffffffffffffffffffffffffffff1673ffffffffffffffffffffffffffffffffffffffff1681526020018060200180602001838103835284818151815260200191508051906020019080838360005b8381101562000df157808201518184015260208101905062000dd4565b50505050905090810190601f16801562000e1f5780820380516001836020036101000a031916815260200191505b508381038252601d8152602001807f4e65772043726564656e7469616c20416464202853554343434553532900000081525060200194505050505060405180910390a162000f79565b7f22efaf0cb3bd642425e7be86b531b1a553c2d7a83936239ee16e9f7fdb8fa37d8685604051808373ffffffffffffffffffffffffffffffffffffffff1673ffffffffffffffffffffffffffffffffffffffff1681526020018060200180602001838103835284818151815260200191508051906020019080838360005b8381101562000f0357808201518184015260208101905062000ee6565b50505050905090810190601f16801562000f315780820380516001836020036101000a031916815260200191505b508381038252601b8152602001807f4e65772043726564656e7469616c2041646420284641494c454429000000000081525060200194505050505060405180910390a1600080fd5b505050505050565b828054600181600116156101000203166002900490600052602060002090601f016020900481019282601f1062000fc457805160ff191683800117855562000ff5565b8280016001018555821562000ff5579182015b8281111562000ff457825182559160200191906001019062000fd7565b5b50905062001004919062001008565b5090565b6200102d91905b80821115620010295760008160009055506001016200100f565b5090565b90565b61201880620010406000396000f3006080604052600436106100af576000357c0100000000000000000000000000000000000000000000000000000000900463ffffffff168063459bdfd9146100b45780634afab74c146100f957806352e23f89146101cb578063554ee043146101f65780637c973ddc146102215780638da5cb5b1461025a578063c9307ff9146102b1578063d850daa3146103b1578063e1eaee42146104d1578063f18e49c61461052c578063f2fde38b14610655575b600080fd5b3480156100c057600080fd5b506100df60048036038101908080359060200190929190505050610698565b604051808215151515815260200191505060405180910390f35b34801561010557600080fd5b506101b56004803603810190808035600019169060200190929190803573ffffffffffffffffffffffffffffffffffffffff169060200190929190803579ffffffffffffffffffffffffffffffffffffffffffffffffffff19169060200190929190803590602001908201803590602001908080601f01602080910402602001604051908101604052809392919081815260200183838082843782019150505050505091929192905050506106ff565b6040518082815260200191505060405180910390f35b3480156101d757600080fd5b506101e0610b1c565b6040518082815260200191505060405180910390f35b34801561020257600080fd5b5061020b610b29565b6040518082815260200191505060405180910390f35b34801561022d57600080fd5b5061025860048036038101908080359060200190929190803515159060200190929190505050610b36565b005b34801561026657600080fd5b5061026f610f9b565b604051808273ffffffffffffffffffffffffffffffffffffffff1673ffffffffffffffffffffffffffffffffffffffff16815260200191505060405180910390f35b3480156102bd57600080fd5b506103af60048036038101908080357effffffffffffffffffffffffffffffffffffffffffffffffffffffffffffff19169060200190929190803590602001908201803590602001908080601f0160208091040260200160405190810160405280939291908181526020018383808284378201915050505050509192919290803590602001908201803590602001908080601f0160208091040260200160405190810160405280939291908181526020018383808284378201915050505050509192919290803577ffffffffffffffffffffffffffffffffffffffffffffffff19169060200190929190505050610fc0565b005b3480156103bd57600080fd5b506104cf600480360381019080803573ffffffffffffffffffffffffffffffffffffffff16906020019092919080357effffffffffffffffffffffffffffffffffffffffffffffffffffffffffffff19169060200190929190803590602001908201803590602001908080601f0160208091040260200160405190810160405280939291908181526020018383808284378201915050505050509192919290803590602001908201803590602001908080601f0160208091040260200160405190810160405280939291908181526020018383808284378201915050505050509192919290803577ffffffffffffffffffffffffffffffffffffffffffffffff191690602001909291905050506115ca565b005b3480156104dd57600080fd5b50610512600480360381019080803573ffffffffffffffffffffffffffffffffffffffff169060200190929190505050611b8f565b604051808215151515815260200191505060405180910390f35b34801561053857600080fd5b5061055760048036038101908080359060200190929190505050611c5a565b6040518085600019166000191681526020018479ffffffffffffffffffffffffffffffffffffffffffffffffffff191679ffffffffffffffffffffffffffffffffffffffffffffffffffff19168152602001806020018373ffffffffffffffffffffffffffffffffffffffff1673ffffffffffffffffffffffffffffffffffffffff168152602001828103825284818151815260200191508051906020019080838360005b838110156106175780820151818401526020810190506105fc565b50505050905090810190601f1680156106445780820380516001836020036101000a031916815260200191505b509550505050505060405180910390f35b34801561066157600080fd5b50610696600480360381019080803573ffffffffffffffffffffffffffffffffffffffff169060200190929190505050611df2565b005b6000809050600082101515156106ad57600080fd5b6006548210156106f757600115156005838154811015156106ca57fe5b906000526020600020906004020160030160089054906101000a900460ff16151514156106f657600190505b5b809050919050565b60008060009054906101000a900473ffffffffffffffffffffffffffffffffffffffff1673ffffffffffffffffffffffffffffffffffffffff163373ffffffffffffffffffffffffffffffffffffffff1614151561075c57600080fd5b7fd269155c21749744b1d4aa8db9212a1c95a65f3baa13728e9d0cc0b6433b2cea85856040518083600019166000191681526020018273ffffffffffffffffffffffffffffffffffffffff1673ffffffffffffffffffffffffffffffffffffffff16815260200180602001828103825260118152602001807f4e6577204f726720416464202850524529000000000000000000000000000000815250602001935050505060405180910390a16000602060ff16118015610833575060008473ffffffffffffffffffffffffffffffffffffffff1614155b8015610842575060068060ff16145b801561084f575060008251115b801561085c575060468251105b151561086757600080fd5b6004608060405190810160405280876000191681526020018579ffffffffffffffffffffffffffffffffffffffffffffffffffff191681526020018481526020018673ffffffffffffffffffffffffffffffffffffffff16815250908060018154018082558091505090600182039060005260206000209060040201600090919290919091506000820151816000019060001916905560208201518160010160006101000a81548165ffffffffffff02191690837a01000000000000000000000000000000000000000000000000000090040217905550604082015181600201908051906020019061095a929190611f47565b5060608201518160030160006101000a81548173ffffffffffffffffffffffffffffffffffffffff021916908373ffffffffffffffffffffffffffffffffffffffff16021790555050509050600081101515610b0c57836001600083815260200190815260200160002060006101000a81548173ffffffffffffffffffffffffffffffffffffffff021916908373ffffffffffffffffffffffffffffffffffffffff16021790555060018103600260008673ffffffffffffffffffffffffffffffffffffffff1673ffffffffffffffffffffffffffffffffffffffff168152602001908152602001600020819055506003600081548092919060010191905055507fd269155c21749744b1d4aa8db9212a1c95a65f3baa13728e9d0cc0b6433b2cea85856040518083600019166000191681526020018273ffffffffffffffffffffffffffffffffffffffff1673ffffffffffffffffffffffffffffffffffffffff16815260200180602001828103825260158152602001807f4e6577204f726720416464202853554343455353290000000000000000000000815250602001935050505060405180910390a1610b11565b600080fd5b809050949350505050565b6000600654905080905090565b6000600354905080905090565b3360008060009150600090505b600354811015610bc6576001600082815260200190815260200160002060009054906101000a900473ffffffffffffffffffffffffffffffffffffffff1673ffffffffffffffffffffffffffffffffffffffff163373ffffffffffffffffffffffffffffffffffffffff161415610bb957600191505b8080600101915050610b43565b6000821415610bd457600080fd5b60008510158015610c5057503373ffffffffffffffffffffffffffffffffffffffff16600586815481101515610c0657fe5b906000526020600020906004020160000160009054906101000a900473ffffffffffffffffffffffffffffffffffffffff1673ffffffffffffffffffffffffffffffffffffffff16145b8015610c6f5750600115158415151480610c6e575060001515841515145b5b1515610c7a57600080fd5b83600586815481101515610c8a57fe5b906000526020600020906004020160030160086101000a81548160ff0219169083151502179055508315610e28577f22efaf0cb3bd642425e7be86b531b1a553c2d7a83936239ee16e9f7fdb8fa37d33600587815481101515610ce957fe5b9060005260206000209060040201600101604051808373ffffffffffffffffffffffffffffffffffffffff1673ffffffffffffffffffffffffffffffffffffffff1681526020018060200180602001838103835284818154600181600116156101000203166002900481526020019150805460018160011615610100020316600290048015610db95780601f10610d8e57610100808354040283529160200191610db9565b820191906000526020600020905b815481529060010190602001808311610d9c57829003601f168201915b5050838103825260248152602001807f53657443726564656e7469616c4973416374697665202d20285365742041637481526020017f697665290000000000000000000000000000000000000000000000000000000081525060400194505050505060405180910390a1610f94565b7f22efaf0cb3bd642425e7be86b531b1a553c2d7a83936239ee16e9f7fdb8fa37d33600587815481101515610e5957fe5b9060005260206000209060040201600101604051808373ffffffffffffffffffffffffffffffffffffffff1673ffffffffffffffffffffffffffffffffffffffff1681526020018060200180602001838103835284818154600181600116156101000203166002900481526020019150805460018160011615610100020316600290048015610f295780601f10610efe57610100808354040283529160200191610f29565b820191906000526020600020905b815481529060010190602001808311610f0c57829003601f168201915b5050838103825260268152602001807f53657443726564656e7469616c4973416374697665202d202853657420496e6181526020017f637469766529000000000000000000000000000000000000000000000000000081525060400194505050505060405180910390a15b5050505050565b6000809054906101000a900473ffffffffffffffffffffffffffffffffffffffff1681565b60003360008060009150600090505b600354811015611052576001600082815260200190815260200160002060009054906101000a900473ffffffffffffffffffffffffffffffffffffffff1673ffffffffffffffffffffffffffffffffffffffff163373ffffffffffffffffffffffffffffffffffffffff16141561104557600191505b8080600101915050610fcf565b600082141561106057600080fd5b7f22efaf0cb3bd642425e7be86b531b1a553c2d7a83936239ee16e9f7fdb8fa37d3388604051808373ffffffffffffffffffffffffffffffffffffffff1673ffffffffffffffffffffffffffffffffffffffff1681526020018060200180602001838103835284818151815260200191508051906020019080838360005b838110156110f95780820151818401526020810190506110de565b50505050905090810190601f1680156111265780820380516001836020036101000a031916815260200191505b508381038252601c8152602001807f4e65772043726564656e7469616c204164642028415454454d5054290000000081525060200194505050505060405180910390a160018060ff1614801561117d575060008751115b801561118a575060468751105b801561119857506000865110155b80156111a5575060328651105b15156111b057600080fd5b600560c0604051908101604052803373ffffffffffffffffffffffffffffffffffffffff1681526020018a7effffffffffffffffffffffffffffffffffffffffffffffffffffffffffffff191681526020018981526020018881526020018777ffffffffffffffffffffffffffffffffffffffffffffffff19168152602001600115158152509080600181540180825580915050906001820390600052602060002090600402016000909192909190915060008201518160000160006101000a81548173ffffffffffffffffffffffffffffffffffffffff021916908373ffffffffffffffffffffffffffffffffffffffff16021790555060208201518160000160146101000a81548160ff02191690837f0100000000000000000000000000000000000000000000000000000000000000900402179055506040820151816001019080519060200190611305929190611f47565b506060820151816002019080519060200190611322929190611f47565b5060808201518160030160006101000a81548167ffffffffffffffff021916908378010000000000000000000000000000000000000000000000009004021790555060a08201518160030160086101000a81548160ff021916908315150217905550505093506000841015156114b2576006600081548092919060010191905055507f22efaf0cb3bd642425e7be86b531b1a553c2d7a83936239ee16e9f7fdb8fa37d3388604051808373ffffffffffffffffffffffffffffffffffffffff1673ffffffffffffffffffffffffffffffffffffffff1681526020018060200180602001838103835284818151815260200191508051906020019080838360005b8381101561143d578082015181840152602081019050611422565b50505050905090810190601f16801561146a5780820380516001836020036101000a031916815260200191505b508381038252601d8152602001807f4e65772043726564656e7469616c20416464202853554343434553532900000081525060200194505050505060405180910390a16115c0565b7f22efaf0cb3bd642425e7be86b531b1a553c2d7a83936239ee16e9f7fdb8fa37d3388604051808373ffffffffffffffffffffffffffffffffffffffff1673ffffffffffffffffffffffffffffffffffffffff1681526020018060200180602001838103835284818151815260200191508051906020019080838360005b8381101561154b578082015181840152602081019050611530565b50505050905090810190601f1680156115785780820380516001836020036101000a031916815260200191505b508381038252601b8152602001807f4e65772043726564656e7469616c2041646420284641494c454429000000000081525060200194505050505060405180910390a1600080fd5b5050505050505050565b60008060009054906101000a900473ffffffffffffffffffffffffffffffffffffffff1673ffffffffffffffffffffffffffffffffffffffff163373ffffffffffffffffffffffffffffffffffffffff1614151561162757600080fd5b7f22efaf0cb3bd642425e7be86b531b1a553c2d7a83936239ee16e9f7fdb8fa37d8685604051808373ffffffffffffffffffffffffffffffffffffffff1673ffffffffffffffffffffffffffffffffffffffff1681526020018060200180602001838103835284818151815260200191508051906020019080838360005b838110156116c05780820151818401526020810190506116a5565b50505050905090810190601f1680156116ed5780820380516001836020036101000a031916815260200191505b508381038252601c8152602001807f4e65772043726564656e7469616c204164642028415454454d5054290000000081525060200194505050505060405180910390a160018060ff16148015611744575060008451115b8015611751575060468451105b801561175f57506000835110155b801561176c575060328351105b151561177757600080fd5b600560c0604051908101604052808873ffffffffffffffffffffffffffffffffffffffff168152602001877effffffffffffffffffffffffffffffffffffffffffffffffffffffffffffff191681526020018681526020018581526020018477ffffffffffffffffffffffffffffffffffffffffffffffff19168152602001600115158152509080600181540180825580915050906001820390600052602060002090600402016000909192909190915060008201518160000160006101000a81548173ffffffffffffffffffffffffffffffffffffffff021916908373ffffffffffffffffffffffffffffffffffffffff16021790555060208201518160000160146101000a81548160ff02191690837f01000000000000000000000000000000000000000000000000000000000000009004021790555060408201518160010190805190602001906118cc929190611f47565b5060608201518160020190805190602001906118e9929190611f47565b5060808201518160030160006101000a81548167ffffffffffffffff021916908378010000000000000000000000000000000000000000000000009004021790555060a08201518160030160086101000a81548160ff02191690831515021790555050509050600081101515611a79576006600081548092919060010191905055507f22efaf0cb3bd642425e7be86b531b1a553c2d7a83936239ee16e9f7fdb8fa37d8685604051808373ffffffffffffffffffffffffffffffffffffffff1673ffffffffffffffffffffffffffffffffffffffff1681526020018060200180602001838103835284818151815260200191508051906020019080838360005b83811015611a045780820151818401526020810190506119e9565b50505050905090810190601f168015611a315780820380516001836020036101000a031916815260200191505b508381038252601d8152602001807f4e65772043726564656e7469616c20416464202853554343434553532900000081525060200194505050505060405180910390a1611b87565b7f22efaf0cb3bd642425e7be86b531b1a553c2d7a83936239ee16e9f7fdb8fa37d8685604051808373ffffffffffffffffffffffffffffffffffffffff1673ffffffffffffffffffffffffffffffffffffffff1681526020018060200180602001838103835284818151815260200191508051906020019080838360005b83811015611b12578082015181840152602081019050611af7565b50505050905090810190601f168015611b3f5780820380516001836020036101000a031916815260200191505b508381038252601b8152602001807f4e65772043726564656e7469616c2041646420284641494c454429000000000081525060200194505050505060405180910390a1600080fd5b505050505050565b6000806000915060008373ffffffffffffffffffffffffffffffffffffffff1614151515611bbc57600080fd5b600090505b600354811015611c51578273ffffffffffffffffffffffffffffffffffffffff16600482815481101515611bf157fe5b906000526020600020906004020160030160009054906101000a900473ffffffffffffffffffffffffffffffffffffffff1673ffffffffffffffffffffffffffffffffffffffff161415611c4457600191505b8080600101915050611bc1565b81915050919050565b60008060606000808510158015611c72575060035485105b1515611c7d57600080fd5b600485815481101515611c8c57fe5b906000526020600020906004020160000154600486815481101515611cad57fe5b906000526020600020906004020160010160009054906101000a90047a01000000000000000000000000000000000000000000000000000002600487815481101515611cf557fe5b9060005260206000209060040201600201600488815481101515611d1557fe5b906000526020600020906004020160030160009054906101000a900473ffffffffffffffffffffffffffffffffffffffff16818054600181600116156101000203166002900480601f016020809104026020016040519081016040528092919081815260200182805460018160011615610100020316600290048015611ddc5780601f10611db157610100808354040283529160200191611ddc565b820191906000526020600020905b815481529060010190602001808311611dbf57829003601f168201915b5050505050915093509350935093509193509193565b6000809054906101000a900473ffffffffffffffffffffffffffffffffffffffff1673ffffffffffffffffffffffffffffffffffffffff163373ffffffffffffffffffffffffffffffffffffffff16141515611e4d57600080fd5b600073ffffffffffffffffffffffffffffffffffffffff168173ffffffffffffffffffffffffffffffffffffffff1614151515611e8957600080fd5b8073ffffffffffffffffffffffffffffffffffffffff166000809054906101000a900473ffffffffffffffffffffffffffffffffffffffff1673ffffffffffffffffffffffffffffffffffffffff167f8be0079c531659141344cd1fd0a4f28419497f9722a3daafe3b4186f6b6457e060405160405180910390a3806000806101000a81548173ffffffffffffffffffffffffffffffffffffffff021916908373ffffffffffffffffffffffffffffffffffffffff16021790555050565b828054600181600116156101000203166002900490600052602060002090601f016020900481019282601f10611f8857805160ff1916838001178555611fb6565b82800160010185558215611fb6579182015b82811115611fb5578251825591602001919060010190611f9a565b5b509050611fc39190611fc7565b5090565b611fe991905b80821115611fe5576000816000905550600101611fcd565b5090565b905600a165627a7a72305820a3d608d0b49727aed0494be04eb58f9b72b7c902e4cab2f44f6afa85fb72171c0029",
  "source": "pragma solidity ^0.4.21;\r\nimport \"./CredentialOrgFactory.sol\";\r\n/**\r\n * @title CredentialFactory\r\n * @dev The CredentialFactory allows the credentialOrgs to add/lookup credentials\r\n */\r\ncontract CredentialFactory is CredentialOrgFactory{\r\n    \r\n    // events\r\n    event CredentialFactoryActivity(address credentialOrg, string credentialTitle, string detail);\r\n\r\n    // structs\r\n    struct Credential {\r\n        address credentialOrg;      // CredentialOwnerAddress\r\n        bytes1 credentialLevel;     // single byte string \r\n        string credentialTitle;     // 70 or less string\r\n        string credentialDivision;  // 50 or less string\r\n        bytes8 credentialInsertDate;// Credential InsertDate YYYYMMDD\r\n        bool isActive;              // is CredentialActive for use\r\n    }\r\n    Credential[] private credentials;\r\n    uint256 private credentialCount;\r\n    \r\n    // constructor\r\n    constructor () public {\r\n        credentialCount=0;\r\n        createCredentialByOwner(owner, \"A\", \"Associate Degree in Basket Weaving\", \"BA - Arts\", \"20180703\");\r\n        createCredentialByOwner(0x14723A09ACff6D2A60DcdF7aA4AFf308FDDC160C, \"A\", \"Associate Degree in Basket Weaving\", \"BA - Arts\", \"20180703\");\r\n        createCredentialByOwner(0x4B0897b0513fdC7C541B6d9D7E929C4e5364D2dB, \"A\", \"Associate Degree in Basket Weaving\", \"BA - Arts\", \"20180703\");\r\n    }\r\n    \r\n    // functions\r\n    /**\r\n    * @dev allows credentialing Orgs to create new credentials\r\n    * @param _credentialLevel Credential Level\r\n    * @param _credentialTitle CredentialTitle\r\n    * @param _credentialDivision Credential Division\r\n    * @param _insertDate Credential InsertDate (YYYYMMDD)\r\n    */\r\n    function createCredential(bytes1 _credentialLevel, string _credentialTitle, string _credentialDivision, bytes8 _insertDate) \r\n    public onlyBy(msg.sender)\r\n    {\r\n        emit CredentialFactoryActivity(msg.sender, _credentialTitle, \"New Credential Add (ATTEMPT)\");\r\n        require(_credentialLevel.length == 1 && bytes(_credentialTitle).length > 0 && bytes(_credentialTitle).length < 70 && bytes(_credentialDivision).length >= 0 && bytes(_credentialDivision).length < 50);\r\n        uint position = credentials.push(Credential(msg.sender, _credentialLevel, _credentialTitle, _credentialDivision, _insertDate, true));\r\n        if(position >= 0){\r\n            credentialCount++;\r\n            emit CredentialFactoryActivity(msg.sender, _credentialTitle, \"New Credential Add (SUCCCESS)\");\r\n        } else {\r\n            emit CredentialFactoryActivity(msg.sender, _credentialTitle, \"New Credential Add (FAILED)\");\r\n            revert();\r\n        }\r\n    }\r\n\r\n    /**\r\n    * @dev allows owner to create new credentials\r\n    * @param _credentialLevel Credential Level\r\n    * @param _credentialTitle CredentialTitle\r\n    * @param _credentialDivision Credential Division\r\n    * @param _insertDate Credential InsertDate (YYYYMMDD)\r\n    */\r\n    function createCredentialByOwner(address _credentialOrg, bytes1 _credentialLevel, string _credentialTitle, string _credentialDivision, bytes8 _insertDate) \r\n    public onlyOwner\r\n    {\r\n        emit CredentialFactoryActivity(_credentialOrg, _credentialTitle, \"New Credential Add (ATTEMPT)\");\r\n        require(_credentialLevel.length == 1 && bytes(_credentialTitle).length > 0 && bytes(_credentialTitle).length < 70 && bytes(_credentialDivision).length >= 0 && bytes(_credentialDivision).length < 50);\r\n        uint position = credentials.push(Credential(_credentialOrg, _credentialLevel, _credentialTitle, _credentialDivision, _insertDate, true));\r\n        if(position >= 0){\r\n            credentialCount++;\r\n            emit CredentialFactoryActivity(_credentialOrg, _credentialTitle, \"New Credential Add (SUCCCESS)\");\r\n        } else {\r\n            emit CredentialFactoryActivity(_credentialOrg, _credentialTitle, \"New Credential Add (FAILED)\");\r\n            revert();\r\n        }\r\n    }\r\n\r\n    /**\r\n    * @dev allows setting credential active or inactive\r\n    * @param _position Credential position in array\r\n    * @param _isActive bool value for set.\r\n    */\r\n    function setCredentialInactiveFlag(uint _position, bool _isActive)\r\n    public onlyBy(msg.sender)\r\n    {\r\n        require(_position >= 0 && credentials[_position].credentialOrg == msg.sender && (_isActive == true || _isActive == false));\r\n        credentials[_position].isActive = _isActive;\r\n        if (_isActive){\r\n            emit CredentialFactoryActivity(msg.sender, credentials[_position].credentialTitle, \"SetCredentialIsActive - (Set Active)\");\r\n        } else {\r\n            emit CredentialFactoryActivity(msg.sender, credentials[_position].credentialTitle, \"SetCredentialIsActive - (Set Inactive)\");\r\n        }\r\n    }\r\n\r\n    /**\r\n    * @dev allows checking of CredentialCount\r\n    */\r\n    function SelectCredentialCount()\r\n    public view\r\n    returns (uint256 returnCredentialCount)\r\n    {\r\n        returnCredentialCount = credentialCount;\r\n        return (returnCredentialCount);\r\n    }\r\n\r\n    /**\r\n    * @dev allows checking of isActive flag for credential\r\n    * @param _position Credential position in array\r\n    */\r\n    function isCredentialActive(uint _position)\r\n    public view\r\n    returns (bool activeState)\r\n    {\r\n        activeState = false;\r\n        require(_position >= 0);\r\n        if (_position < credentialCount){\r\n            if (credentials[_position].isActive == true){\r\n                activeState = true;\r\n            }\r\n        }\r\n        return (activeState);\r\n    }\r\n}",
  "sourcePath": "E:\\Projects\\CredentialVerify\\contracts\\CredentialFactory.sol",
  "compiler": {
    "name": "solc",
    "version": "0.4.24+commit.e67f0147.Emscripten.clang"
  },
  "schemaVersion": "2.0.1",
  "updatedAt": "2018-08-05T20:37:25.053Z"
}