{
  "contractName": "CredentialFactory",
  "abi": [
    {
      "constant": false,
      "inputs": [],
      "name": "unpause",
      "outputs": [],
      "payable": false,
      "stateMutability": "nonpayable",
      "type": "function"
    },
    {
      "constant": true,
      "inputs": [],
      "name": "paused",
      "outputs": [
        {
          "name": "",
          "type": "bool"
        }
      ],
      "payable": false,
      "stateMutability": "view",
      "type": "function"
    },
    {
      "constant": false,
      "inputs": [],
      "name": "pause",
      "outputs": [],
      "payable": false,
      "stateMutability": "nonpayable",
      "type": "function"
    },
    {
      "constant": true,
      "inputs": [],
      "name": "owner",
      "outputs": [
        {
          "name": "",
          "type": "address"
        }
      ],
      "payable": false,
      "stateMutability": "view",
      "type": "function"
    },
    {
      "constant": false,
      "inputs": [
        {
          "name": "newOwner",
          "type": "address"
        }
      ],
      "name": "transferOwnership",
      "outputs": [],
      "payable": false,
      "stateMutability": "nonpayable",
      "type": "function"
    },
    {
      "inputs": [],
      "payable": false,
      "stateMutability": "nonpayable",
      "type": "constructor"
    },
    {
      "anonymous": false,
      "inputs": [
        {
          "indexed": false,
          "name": "credentialOrg",
          "type": "address"
        },
        {
          "indexed": false,
          "name": "credentialTitle",
          "type": "string"
        },
        {
          "indexed": false,
          "name": "detail",
          "type": "string"
        }
      ],
      "name": "CredentialFactoryActivity",
      "type": "event"
    },
    {
      "anonymous": false,
      "inputs": [],
      "name": "Pause",
      "type": "event"
    },
    {
      "anonymous": false,
      "inputs": [],
      "name": "Unpause",
      "type": "event"
    },
    {
      "anonymous": false,
      "inputs": [
        {
          "indexed": true,
          "name": "previousOwner",
          "type": "address"
        },
        {
          "indexed": true,
          "name": "newOwner",
          "type": "address"
        }
      ],
      "name": "OwnershipTransferred",
      "type": "event"
    },
    {
      "constant": false,
      "inputs": [
        {
          "name": "_credentialOrgContractAddress",
          "type": "address"
        }
      ],
      "name": "setAddress",
      "outputs": [],
      "payable": false,
      "stateMutability": "nonpayable",
      "type": "function"
    },
    {
      "constant": false,
      "inputs": [
        {
          "name": "_credentialLevel",
          "type": "string"
        },
        {
          "name": "_credentialTitle",
          "type": "string"
        },
        {
          "name": "_credentialDivision",
          "type": "string"
        }
      ],
      "name": "createCredential",
      "outputs": [],
      "payable": false,
      "stateMutability": "nonpayable",
      "type": "function"
    },
    {
      "constant": true,
      "inputs": [
        {
          "name": "_credentialOrgAddress",
          "type": "address"
        },
        {
          "name": "_position",
          "type": "uint32"
        }
      ],
      "name": "selectCredential",
      "outputs": [
        {
          "name": "credentialLevel",
          "type": "string"
        },
        {
          "name": "credentialTitle",
          "type": "string"
        },
        {
          "name": "credentialDivision",
          "type": "string"
        },
        {
          "name": "credentialInsertDate",
          "type": "uint32"
        },
        {
          "name": "isActive",
          "type": "bool"
        }
      ],
      "payable": false,
      "stateMutability": "view",
      "type": "function"
    },
    {
      "constant": false,
      "inputs": [
        {
          "name": "_position",
          "type": "uint256"
        }
      ],
      "name": "setCredentialInactiveFlag",
      "outputs": [],
      "payable": false,
      "stateMutability": "nonpayable",
      "type": "function"
    },
    {
      "constant": false,
      "inputs": [
        {
          "name": "_position",
          "type": "uint256"
        }
      ],
      "name": "setCredentialActiveFlag",
      "outputs": [],
      "payable": false,
      "stateMutability": "nonpayable",
      "type": "function"
    },
    {
      "constant": true,
      "inputs": [
        {
          "name": "_credentialOrgAddress",
          "type": "address"
        }
      ],
      "name": "selectOrgCredentialActiveCount",
      "outputs": [
        {
          "name": "returnCredentialCount",
          "type": "uint32"
        }
      ],
      "payable": false,
      "stateMutability": "view",
      "type": "function"
    },
    {
      "constant": true,
      "inputs": [
        {
          "name": "_credentialOrgAddress",
          "type": "address"
        }
      ],
      "name": "selectOrgCredentialCount",
      "outputs": [
        {
          "name": "returnCredentialCount",
          "type": "uint32"
        }
      ],
      "payable": false,
      "stateMutability": "view",
      "type": "function"
    },
    {
      "constant": true,
      "inputs": [
        {
          "name": "_credentialOrgAddress",
          "type": "address"
        },
        {
          "name": "_position",
          "type": "uint256"
        }
      ],
      "name": "isCredentialActive",
      "outputs": [
        {
          "name": "activeState",
          "type": "bool"
        }
      ],
      "payable": false,
      "stateMutability": "view",
      "type": "function"
    }
  ],
  "bytecode": "0x608060405260008060146101000a81548160ff02191690831515021790555034801561002a57600080fd5b50336000806101000a81548173ffffffffffffffffffffffffffffffffffffffff021916908373ffffffffffffffffffffffffffffffffffffffff160217905550612b658061007a6000396000f3006080604052600436106100c5576000357c0100000000000000000000000000000000000000000000000000000000900463ffffffff1680632b83acac146100ca5780633f4ba83a146100f7578063477d02c51461010e57806354e723af146101735780635c975abb146101d65780638456cb59146102055780638da5cb5b1461021c578063a36b0d4214610273578063a6b11ba6146102d6578063b9572c3e146103cb578063e30081a0146103f8578063e7c325931461043b578063f2fde38b146105fd575b600080fd5b3480156100d657600080fd5b506100f560048036038101908080359060200190929190505050610640565b005b34801561010357600080fd5b5061010c610bf2565b005b34801561011a57600080fd5b50610159600480360381019080803573ffffffffffffffffffffffffffffffffffffffff16906020019092919080359060200190929190505050610cb0565b604051808215151515815260200191505060405180910390f35b34801561017f57600080fd5b506101b4600480360381019080803573ffffffffffffffffffffffffffffffffffffffff169060200190929190505050610da8565b604051808263ffffffff1663ffffffff16815260200191505060405180910390f35b3480156101e257600080fd5b506101eb610e04565b604051808215151515815260200191505060405180910390f35b34801561021157600080fd5b5061021a610e17565b005b34801561022857600080fd5b50610231610ed7565b604051808273ffffffffffffffffffffffffffffffffffffffff1673ffffffffffffffffffffffffffffffffffffffff16815260200191505060405180910390f35b34801561027f57600080fd5b506102b4600480360381019080803573ffffffffffffffffffffffffffffffffffffffff169060200190929190505050610efc565b604051808263ffffffff1663ffffffff16815260200191505060405180910390f35b3480156102e257600080fd5b506103c9600480360381019080803590602001908201803590602001908080601f0160208091040260200160405190810160405280939291908181526020018383808284378201915050505050509192919290803590602001908201803590602001908080601f0160208091040260200160405190810160405280939291908181526020018383808284378201915050505050509192919290803590602001908201803590602001908080601f0160208091040260200160405190810160405280939291908181526020018383808284378201915050505050509192919290505050610f58565b005b3480156103d757600080fd5b506103f6600480360381019080803590602001909291905050506119f9565b005b34801561040457600080fd5b50610439600480360381019080803573ffffffffffffffffffffffffffffffffffffffff169060200190929190505050611faa565b005b34801561044757600080fd5b5061048c600480360381019080803573ffffffffffffffffffffffffffffffffffffffff169060200190929190803563ffffffff16906020019092919050505061209f565b604051808060200180602001806020018663ffffffff1663ffffffff16815260200185151515158152602001848103845289818151815260200191508051906020019080838360005b838110156104f05780820151818401526020810190506104d5565b50505050905090810190601f16801561051d5780820380516001836020036101000a031916815260200191505b50848103835288818151815260200191508051906020019080838360005b8381101561055657808201518184015260208101905061053b565b50505050905090810190601f1680156105835780820380516001836020036101000a031916815260200191505b50848103825287818151815260200191508051906020019080838360005b838110156105bc5780820151818401526020810190506105a1565b50505050905090810190601f1680156105e95780820380516001836020036101000a031916815260200191505b509850505050505050505060405180910390f35b34801561060957600080fd5b5061063e600480360381019080803573ffffffffffffffffffffffffffffffffffffffff1690602001909291905050506128f0565b005b600160003373ffffffffffffffffffffffffffffffffffffffff1673ffffffffffffffffffffffffffffffffffffffff1681526020019081526020016000208181548110151561068c57fe5b906000526020600020906005020160000160009054906101000a900473ffffffffffffffffffffffffffffffffffffffff1673ffffffffffffffffffffffffffffffffffffffff163373ffffffffffffffffffffffffffffffffffffffff16141515610786576040517f08c379a000000000000000000000000000000000000000000000000000000000815260040180806020018281038252602d8152602001807f7365744372656465656e7469616c496e616374697665666c6167202d2028464181526020017f494c29206e6f74206f776e65720000000000000000000000000000000000000081525060400191505060405180910390fd5b60008110151515610825576040517f08c379a00000000000000000000000000000000000000000000000000000000081526004018080602001828103825260328152602001807f73657443726564656e7469616c496e616374697665466c61673a20506f73697481526020017f696f6e206f72204f7267206661696c757265000000000000000000000000000081525060400191505060405180910390fd5b60011515600160003373ffffffffffffffffffffffffffffffffffffffff1673ffffffffffffffffffffffffffffffffffffffff1681526020019081526020016000208281548110151561087557fe5b906000526020600020906005020160040160049054906101000a900460ff16151514151561090b576040517f08c379a00000000000000000000000000000000000000000000000000000000081526004018080602001828103825260188152602001807f43726564656e7469616c206973204e4f5420416374697665000000000000000081525060200191505060405180910390fd5b6000600160003373ffffffffffffffffffffffffffffffffffffffff1673ffffffffffffffffffffffffffffffffffffffff1681526020019081526020016000208281548110151561095957fe5b906000526020600020906005020160040160046101000a81548160ff0219169083151502179055506109ea6001600360003373ffffffffffffffffffffffffffffffffffffffff1673ffffffffffffffffffffffffffffffffffffffff16815260200190815260200160002060009054906101000a900463ffffffff1663ffffffff16612a4590919063ffffffff16565b600360003373ffffffffffffffffffffffffffffffffffffffff1673ffffffffffffffffffffffffffffffffffffffff16815260200190815260200160002060006101000a81548163ffffffff021916908363ffffffff1602179055507f22efaf0cb3bd642425e7be86b531b1a553c2d7a83936239ee16e9f7fdb8fa37d33600160003373ffffffffffffffffffffffffffffffffffffffff1673ffffffffffffffffffffffffffffffffffffffff16815260200190815260200160002083815481101515610ab557fe5b9060005260206000209060050201600201604051808373ffffffffffffffffffffffffffffffffffffffff1673ffffffffffffffffffffffffffffffffffffffff1681526020018060200180602001838103835284818154600181600116156101000203166002900481526020019150805460018160011615610100020316600290048015610b855780601f10610b5a57610100808354040283529160200191610b85565b820191906000526020600020905b815481529060010190602001808311610b6857829003601f168201915b5050838103825260268152602001807f53657443726564656e7469616c4973416374697665202d202853657420496e6181526020017f637469766529000000000000000000000000000000000000000000000000000081525060400194505050505060405180910390a150565b6000809054906101000a900473ffffffffffffffffffffffffffffffffffffffff1673ffffffffffffffffffffffffffffffffffffffff163373ffffffffffffffffffffffffffffffffffffffff16141515610c4d57600080fd5b600060149054906101000a900460ff161515610c6857600080fd5b60008060146101000a81548160ff0219169083151502179055507f7805862f689e2f13df9f062ff482ad3ad112aca9e0847911ed832e158c525b3360405160405180910390a1565b600080905060008210151515610cc557600080fd5b600260008473ffffffffffffffffffffffffffffffffffffffff1673ffffffffffffffffffffffffffffffffffffffff16815260200190815260200160002060009054906101000a900463ffffffff1663ffffffff16821015610d9f5760011515600160008573ffffffffffffffffffffffffffffffffffffffff1673ffffffffffffffffffffffffffffffffffffffff16815260200190815260200160002083815481101515610d7257fe5b906000526020600020906005020160040160049054906101000a900460ff1615151415610d9e57600190505b5b80905092915050565b6000600360008373ffffffffffffffffffffffffffffffffffffffff1673ffffffffffffffffffffffffffffffffffffffff16815260200190815260200160002060009054906101000a900463ffffffff169050809050919050565b600060149054906101000a900460ff1681565b6000809054906101000a900473ffffffffffffffffffffffffffffffffffffffff1673ffffffffffffffffffffffffffffffffffffffff163373ffffffffffffffffffffffffffffffffffffffff16141515610e7257600080fd5b600060149054906101000a900460ff16151515610e8e57600080fd5b6001600060146101000a81548160ff0219169083151502179055507f6985a02210a168e66602d3235cb6db0e70f92b3ba4d376a33c0f3d9434bff62560405160405180910390a1565b6000809054906101000a900473ffffffffffffffffffffffffffffffffffffffff1681565b6000600260008373ffffffffffffffffffffffffffffffffffffffff1673ffffffffffffffffffffffffffffffffffffffff16815260200190815260200160002060009054906101000a900463ffffffff169050809050919050565b6000807f22efaf0cb3bd642425e7be86b531b1a553c2d7a83936239ee16e9f7fdb8fa37d3385604051808373ffffffffffffffffffffffffffffffffffffffff1673ffffffffffffffffffffffffffffffffffffffff1681526020018060200180602001838103835284818151815260200191508051906020019080838360005b83811015610ff4578082015181840152602081019050610fd9565b50505050905090810190601f1680156110215780820380516001836020036101000a031916815260200191505b508381038252601c8152602001807f4e65772043726564656e7469616c204164642028415454454d5054290000000081525060200194505050505060405180910390a1600460009054906101000a900473ffffffffffffffffffffffffffffffffffffffff1691508173ffffffffffffffffffffffffffffffffffffffff1663e1eaee42336040518263ffffffff167c0100000000000000000000000000000000000000000000000000000000028152600401808273ffffffffffffffffffffffffffffffffffffffff1673ffffffffffffffffffffffffffffffffffffffff168152602001915050602060405180830381600087803b15801561112457600080fd5b505af1158015611138573d6000803e3d6000fd5b505050506040513d602081101561114e57600080fd5b8101908080519060200190929190505050156118c25760008551118015611176575060328551105b1515611210576040517f08c379a00000000000000000000000000000000000000000000000000000000081526004018080602001828103825260278152602001807f63726561746543726564656e7469616c202d204c6576656c206c656e6774682081526020017f70726f626c656d0000000000000000000000000000000000000000000000000081525060400191505060405180910390fd5b60008451118015611222575060468451105b15156112bc576040517f08c379a00000000000000000000000000000000000000000000000000000000081526004018080602001828103825260278152602001807f63726561746543726564656e7469616c202d205469746c65206c656e6774682081526020017f70726f626c656d0000000000000000000000000000000000000000000000000081525060400191505060405180910390fd5b60008351101580156112cf575060328351105b1515611369576040517f08c379a000000000000000000000000000000000000000000000000000000000815260040180806020018281038252602a8152602001807f63726561746543726564656e7469616c202d204469766973696f6e206c656e6781526020017f74682070726f626c656d0000000000000000000000000000000000000000000081525060400191505060405180910390fd5b600160003373ffffffffffffffffffffffffffffffffffffffff1673ffffffffffffffffffffffffffffffffffffffff16815260200190815260200160002060c0604051908101604052803373ffffffffffffffffffffffffffffffffffffffff1681526020018781526020018681526020018581526020014263ffffffff168152602001600115158152509080600181540180825580915050906001820390600052602060002090600502016000909192909190915060008201518160000160006101000a81548173ffffffffffffffffffffffffffffffffffffffff021916908373ffffffffffffffffffffffffffffffffffffffff1602179055506020820151816001019080519060200190611483929190612a94565b5060408201518160020190805190602001906114a0929190612a94565b5060608201518160030190805190602001906114bd929190612a94565b5060808201518160040160006101000a81548163ffffffff021916908363ffffffff16021790555060a08201518160040160046101000a81548160ff0219169083151502179055505050905060008163ffffffff161015156117b3576115826001600260003373ffffffffffffffffffffffffffffffffffffffff1673ffffffffffffffffffffffffffffffffffffffff16815260200190815260200160002060009054906101000a900463ffffffff1663ffffffff16612a6a90919063ffffffff16565b600260003373ffffffffffffffffffffffffffffffffffffffff1673ffffffffffffffffffffffffffffffffffffffff16815260200190815260200160002060006101000a81548163ffffffff021916908363ffffffff1602179055506116486001600360003373ffffffffffffffffffffffffffffffffffffffff1673ffffffffffffffffffffffffffffffffffffffff16815260200190815260200160002060009054906101000a900463ffffffff1663ffffffff16612a6a90919063ffffffff16565b600360003373ffffffffffffffffffffffffffffffffffffffff1673ffffffffffffffffffffffffffffffffffffffff16815260200190815260200160002060006101000a81548163ffffffff021916908363ffffffff1602179055507f22efaf0cb3bd642425e7be86b531b1a553c2d7a83936239ee16e9f7fdb8fa37d3385604051808373ffffffffffffffffffffffffffffffffffffffff1673ffffffffffffffffffffffffffffffffffffffff1681526020018060200180602001838103835284818151815260200191508051906020019080838360005b8381101561173e578082015181840152602081019050611723565b50505050905090810190601f16801561176b5780820380516001836020036101000a031916815260200191505b508381038252601d8152602001807f4e65772043726564656e7469616c20416464202853554343434553532900000081525060200194505050505060405180910390a16118bd565b7f22efaf0cb3bd642425e7be86b531b1a553c2d7a83936239ee16e9f7fdb8fa37d3385604051808373ffffffffffffffffffffffffffffffffffffffff1673ffffffffffffffffffffffffffffffffffffffff1681526020018060200180602001838103835284818151815260200191508051906020019080838360005b8381101561184c578082015181840152602081019050611831565b50505050905090810190601f1680156118795780820380516001836020036101000a031916815260200191505b508381038252601b8152602001807f4e65772043726564656e7469616c2041646420284641494c454429000000000081525060200194505050505060405180910390a15b6119f2565b7f22efaf0cb3bd642425e7be86b531b1a553c2d7a83936239ee16e9f7fdb8fa37d3385604051808373ffffffffffffffffffffffffffffffffffffffff1673ffffffffffffffffffffffffffffffffffffffff1681526020018060200180602001838103835284818151815260200191508051906020019080838360005b8381101561195b578082015181840152602081019050611940565b50505050905090810190601f1680156119885780820380516001836020036101000a031916815260200191505b508381038252602e8152602001807f4e65772043726564656e7469616c2041646420284641494c4544292c204e6f7481526020017f2043726564656e7469616c4f726700000000000000000000000000000000000081525060400194505050505060405180910390a15b5050505050565b600160003373ffffffffffffffffffffffffffffffffffffffff1673ffffffffffffffffffffffffffffffffffffffff16815260200190815260200160002081815481101515611a4557fe5b906000526020600020906005020160000160009054906101000a900473ffffffffffffffffffffffffffffffffffffffff1673ffffffffffffffffffffffffffffffffffffffff163373ffffffffffffffffffffffffffffffffffffffff16141515611b3f576040517f08c379a000000000000000000000000000000000000000000000000000000000815260040180806020018281038252602d8152602001807f7365744372656465656e7469616c496e616374697665666c6167202d2028464181526020017f494c29206e6f74206f776e65720000000000000000000000000000000000000081525060400191505060405180910390fd5b60008110151515611bde576040517f08c379a00000000000000000000000000000000000000000000000000000000081526004018080602001828103825260308152602001807f73657443726564656e7469616c416374697665466c61673a20706f736974696f81526020017f6e206c6f6f6b7570206661696c7572650000000000000000000000000000000081525060400191505060405180910390fd5b60001515600160003373ffffffffffffffffffffffffffffffffffffffff1673ffffffffffffffffffffffffffffffffffffffff16815260200190815260200160002082815481101515611c2e57fe5b906000526020600020906005020160040160049054906101000a900460ff161515141515611cc4576040517f08c379a000000000000000000000000000000000000000000000000000000000815260040180806020018281038252601c8152602001807f43726564656e7469616c20697320616c7265616479204163746976650000000081525060200191505060405180910390fd5b60018060003373ffffffffffffffffffffffffffffffffffffffff1673ffffffffffffffffffffffffffffffffffffffff16815260200190815260200160002082815481101515611d1157fe5b906000526020600020906005020160040160046101000a81548160ff021916908315150217905550611da26001600360003373ffffffffffffffffffffffffffffffffffffffff1673ffffffffffffffffffffffffffffffffffffffff16815260200190815260200160002060009054906101000a900463ffffffff1663ffffffff16612a6a90919063ffffffff16565b600360003373ffffffffffffffffffffffffffffffffffffffff1673ffffffffffffffffffffffffffffffffffffffff16815260200190815260200160002060006101000a81548163ffffffff021916908363ffffffff1602179055507f22efaf0cb3bd642425e7be86b531b1a553c2d7a83936239ee16e9f7fdb8fa37d33600160003373ffffffffffffffffffffffffffffffffffffffff1673ffffffffffffffffffffffffffffffffffffffff16815260200190815260200160002083815481101515611e6d57fe5b9060005260206000209060050201600201604051808373ffffffffffffffffffffffffffffffffffffffff1673ffffffffffffffffffffffffffffffffffffffff1681526020018060200180602001838103835284818154600181600116156101000203166002900481526020019150805460018160011615610100020316600290048015611f3d5780601f10611f1257610100808354040283529160200191611f3d565b820191906000526020600020905b815481529060010190602001808311611f2057829003601f168201915b5050838103825260248152602001807f53657443726564656e7469616c4973416374697665202d20285365742041637481526020017f697665290000000000000000000000000000000000000000000000000000000081525060400194505050505060405180910390a150565b6000809054906101000a900473ffffffffffffffffffffffffffffffffffffffff1673ffffffffffffffffffffffffffffffffffffffff163373ffffffffffffffffffffffffffffffffffffffff1614151561200557600080fd5b6000809054906101000a900473ffffffffffffffffffffffffffffffffffffffff1673ffffffffffffffffffffffffffffffffffffffff163373ffffffffffffffffffffffffffffffffffffffff16141561209c5780600460006101000a81548173ffffffffffffffffffffffffffffffffffffffff021916908373ffffffffffffffffffffffffffffffffffffffff1602179055505b50565b60608060606000806000808763ffffffff161015151561214d576040517f08c379a000000000000000000000000000000000000000000000000000000000815260040180806020018281038252602a8152602001807f73656c65637443726564656e7469616c20284641494c2920706f736974696f6e81526020017f20696e636f72726563740000000000000000000000000000000000000000000081525060400191505060405180910390fd5b600460009054906101000a900473ffffffffffffffffffffffffffffffffffffffff1690508073ffffffffffffffffffffffffffffffffffffffff1663e1eaee42896040518263ffffffff167c0100000000000000000000000000000000000000000000000000000000028152600401808273ffffffffffffffffffffffffffffffffffffffff1673ffffffffffffffffffffffffffffffffffffffff168152602001915050602060405180830381600087803b15801561220d57600080fd5b505af1158015612221573d6000803e3d6000fd5b505050506040513d602081101561223757600080fd5b8101908080519060200190929190505050156127c557600260008973ffffffffffffffffffffffffffffffffffffffff1673ffffffffffffffffffffffffffffffffffffffff16815260200190815260200160002060009054906101000a900463ffffffff1663ffffffff168763ffffffff1610156126a157600160008973ffffffffffffffffffffffffffffffffffffffff1673ffffffffffffffffffffffffffffffffffffffff1681526020019081526020016000208763ffffffff1681548110151561230257fe5b9060005260206000209060050201600101600160008a73ffffffffffffffffffffffffffffffffffffffff1673ffffffffffffffffffffffffffffffffffffffff1681526020019081526020016000208863ffffffff1681548110151561236557fe5b9060005260206000209060050201600201600160008b73ffffffffffffffffffffffffffffffffffffffff1673ffffffffffffffffffffffffffffffffffffffff1681526020019081526020016000208963ffffffff168154811015156123c857fe5b9060005260206000209060050201600301600160008c73ffffffffffffffffffffffffffffffffffffffff1673ffffffffffffffffffffffffffffffffffffffff1681526020019081526020016000208a63ffffffff1681548110151561242b57fe5b906000526020600020906005020160040160009054906101000a900463ffffffff16600160008d73ffffffffffffffffffffffffffffffffffffffff1673ffffffffffffffffffffffffffffffffffffffff1681526020019081526020016000208b63ffffffff1681548110151561249f57fe5b906000526020600020906005020160040160049054906101000a900460ff16848054600181600116156101000203166002900480601f0160208091040260200160405190810160405280929190818152602001828054600181600116156101000203166002900480156125535780601f1061252857610100808354040283529160200191612553565b820191906000526020600020905b81548152906001019060200180831161253657829003601f168201915b50505050509450838054600181600116156101000203166002900480601f0160208091040260200160405190810160405280929190818152602001828054600181600116156101000203166002900480156125ef5780601f106125c4576101008083540402835291602001916125ef565b820191906000526020600020905b8154815290600101906020018083116125d257829003601f168201915b50505050509350828054600181600116156101000203166002900480601f01602080910402602001604051908101604052809291908181526020018280546001816001161561010002031660029004801561268b5780601f106126605761010080835404028352916020019161268b565b820191906000526020600020905b81548152906001019060200180831161266e57829003601f168201915b50505050509250955095509550955095506128e5565b7f22efaf0cb3bd642425e7be86b531b1a553c2d7a83936239ee16e9f7fdb8fa37d33604051808273ffffffffffffffffffffffffffffffffffffffff1673ffffffffffffffffffffffffffffffffffffffff1681526020018060200180602001838103835260008152602001602001838103825260298152602001807f73656c65637443726564656e7469616c3a2043726564656e7469616c20426f7581526020017f6e6473204572726f720000000000000000000000000000000000000000000000815250604001935050505060405180910390a1600080602060405190810160405280600081525091906020604051908101604052806000815250919060206040519081016040528060008152509190819150955095509550955095506128e5565b7f22efaf0cb3bd642425e7be86b531b1a553c2d7a83936239ee16e9f7fdb8fa37d33604051808273ffffffffffffffffffffffffffffffffffffffff1673ffffffffffffffffffffffffffffffffffffffff1681526020018060200180602001838103835260008152602001602001838103825260238152602001807f73656c65637443726564656e7469616c3a204e6f742043726564656e7469616c81526020017f4f72670000000000000000000000000000000000000000000000000000000000815250604001935050505060405180910390a1600080602060405190810160405280600081525091906020604051908101604052806000815250919060206040519081016040528060008152509190819150955095509550955095505b509295509295909350565b6000809054906101000a900473ffffffffffffffffffffffffffffffffffffffff1673ffffffffffffffffffffffffffffffffffffffff163373ffffffffffffffffffffffffffffffffffffffff1614151561294b57600080fd5b600073ffffffffffffffffffffffffffffffffffffffff168173ffffffffffffffffffffffffffffffffffffffff161415151561298757600080fd5b8073ffffffffffffffffffffffffffffffffffffffff166000809054906101000a900473ffffffffffffffffffffffffffffffffffffffff1673ffffffffffffffffffffffffffffffffffffffff167f8be0079c531659141344cd1fd0a4f28419497f9722a3daafe3b4186f6b6457e060405160405180910390a3806000806101000a81548173ffffffffffffffffffffffffffffffffffffffff021916908373ffffffffffffffffffffffffffffffffffffffff16021790555050565b60008263ffffffff168263ffffffff1611151515612a5f57fe5b818303905092915050565b60008082840190508363ffffffff168163ffffffff1610151515612a8a57fe5b8091505092915050565b828054600181600116156101000203166002900490600052602060002090601f016020900481019282601f10612ad557805160ff1916838001178555612b03565b82800160010185558215612b03579182015b82811115612b02578251825591602001919060010190612ae7565b5b509050612b109190612b14565b5090565b612b3691905b80821115612b32576000816000905550600101612b1a565b5090565b905600a165627a7a723058202bbf0924eb64a4ab1205afb621ba2119aa70b23d06e0829415a97c56259301320029",
  "source": "pragma solidity ^0.4.21;\r\nimport \"./Pausable.sol\";\r\nimport \"./SafeMath32.sol\";\r\n/**\r\n * @title CredentialFactory\r\n * @dev The CredentialFactory allows the credentialOrgs to add/lookup credentials\r\n */\r\ninterface CredentialOrgFactory{\r\n    function isCredentialOrg(address _credentialOrgAddress) external view returns (bool IsOrgAddress);\r\n}\r\n\r\n\r\ncontract CredentialFactory is Pausable{\r\n    \r\n    using SafeMath32 for uint32;\r\n    // events\r\n    event CredentialFactoryActivity(address credentialOrg, string credentialTitle, string detail);\r\n\r\n    // mapping\r\n    mapping (address => Credential[]) orgAddressToCredentials;\r\n    mapping (address => uint32) orgAddressToCredentialTotalCount;\r\n    mapping (address => uint32) orgAddressToActiveCredentialCount;\r\n\r\n    // structs\r\n    struct Credential {\r\n        address credentialOrg;      // CredentialOwnerAddress\r\n        string credentialLevel;     // 50 or less string\r\n        string credentialTitle;     // 70 or less string\r\n        string credentialDivision;  // 50 or less string\r\n        uint32 credentialInsertDate;// Credential Insert timestamp\r\n        bool isActive;              // is CredentialActive for use\r\n    }\r\n    address private credentialOrgContractAddress;\r\n    \r\n    // constructor\r\n    constructor () public {\r\n    }\r\n    // functions\r\n    function setAddress(address _credentialOrgContractAddress) public onlyOwner {\r\n        if (msg.sender == owner){\r\n            credentialOrgContractAddress = _credentialOrgContractAddress;\r\n        }\r\n    }\r\n    /**\r\n    * @dev allows credentialing Orgs to create new credentials\r\n    * @param _credentialLevel Credential Level\r\n    * @param _credentialTitle CredentialTitle\r\n    * @param _credentialDivision Credential Division\r\n    */\r\n    function createCredential(string _credentialLevel, string _credentialTitle, string _credentialDivision) \r\n    public //onlyBy(msg.sender)\r\n    {\r\n        emit CredentialFactoryActivity(msg.sender, _credentialTitle, \"New Credential Add (ATTEMPT)\");\r\n        CredentialOrgFactory cof = CredentialOrgFactory(credentialOrgContractAddress);\r\n        if (cof.isCredentialOrg(msg.sender)){\r\n            require(bytes(_credentialLevel).length > 0 && bytes(_credentialLevel).length < 50, \"createCredential - Level length problem\");\r\n            require(bytes(_credentialTitle).length > 0 && bytes(_credentialTitle).length < 70, \"createCredential - Title length problem\");\r\n            require(bytes(_credentialDivision).length >= 0 && bytes(_credentialDivision).length < 50, \"createCredential - Division length problem\");\r\n            uint32 position = uint32(orgAddressToCredentials[msg.sender].push(Credential(msg.sender, _credentialLevel, _credentialTitle, _credentialDivision, uint32(block.timestamp), true)));\r\n            if(position >= 0){\r\n                orgAddressToCredentialTotalCount[msg.sender] = orgAddressToCredentialTotalCount[msg.sender].add(1);\r\n                orgAddressToActiveCredentialCount[msg.sender] = orgAddressToActiveCredentialCount[msg.sender].add(1);\r\n                emit CredentialFactoryActivity(msg.sender, _credentialTitle, \"New Credential Add (SUCCCESS)\");\r\n            } else {\r\n                emit CredentialFactoryActivity(msg.sender, _credentialTitle, \"New Credential Add (FAILED)\");\r\n            }\r\n        } else {\r\n            emit CredentialFactoryActivity(msg.sender, _credentialTitle, \"New Credential Add (FAILED), Not CredentialOrg\");\r\n        }\r\n    }\r\n\r\n    /**\r\n    * @dev allows selection of credential based on position.\r\n    * @param _credentialOrgAddress credentialOrg Address\r\n    * @param _position allows selection of credentialing orgs details.\r\n    */\r\n    function selectCredential(address _credentialOrgAddress, uint32 _position) \r\n    public view\r\n    returns (string credentialLevel, string credentialTitle, string credentialDivision, uint32 credentialInsertDate, bool isActive)\r\n    {\r\n        require(_position >= 0, \"selectCredential (FAIL) position incorrect\");\r\n        CredentialOrgFactory cof = CredentialOrgFactory(credentialOrgContractAddress);\r\n        if (cof.isCredentialOrg(_credentialOrgAddress)){\r\n            if (_position < orgAddressToCredentialTotalCount[_credentialOrgAddress]){\r\n                return (orgAddressToCredentials[_credentialOrgAddress][_position].credentialLevel,orgAddressToCredentials[_credentialOrgAddress][_position].credentialTitle, orgAddressToCredentials[_credentialOrgAddress][_position].credentialDivision, orgAddressToCredentials[_credentialOrgAddress][_position].credentialInsertDate,orgAddressToCredentials[_credentialOrgAddress][_position].isActive);    \r\n            } else {\r\n                emit CredentialFactoryActivity(msg.sender, \"\", \"selectCredential: Credential Bounds Error\");\r\n                return (\"\",\"\",\"\", 0, false);\r\n            }\r\n        } else {\r\n            emit CredentialFactoryActivity(msg.sender, \"\", \"selectCredential: Not CredentialOrg\");\r\n            return (\"\",\"\",\"\", 0, false);\r\n        }\r\n    }\r\n\r\n    /**\r\n    * @dev allows setting credential inactive by it's owner\r\n    * @param _position Credential position in array\r\n    */\r\n    function setCredentialInactiveFlag(uint _position)\r\n    public //onlyBy(msg.sender)\r\n    {\r\n        require(msg.sender == orgAddressToCredentials[msg.sender][_position].credentialOrg, \"setCredeentialInactiveflag - (FAIL) not owner\");\r\n        require(_position >= 0, \"setCredentialInactiveFlag: Position or Org failure\");\r\n        require(orgAddressToCredentials[msg.sender][_position].isActive == true, \"Credential is NOT Active\");\r\n        orgAddressToCredentials[msg.sender][_position].isActive = false;\r\n        orgAddressToActiveCredentialCount[msg.sender] = orgAddressToActiveCredentialCount[msg.sender].sub(1);\r\n        emit CredentialFactoryActivity(msg.sender, orgAddressToCredentials[msg.sender][_position].credentialTitle, \"SetCredentialIsActive - (Set Inactive)\");\r\n    }\r\n\r\n    /**\r\n    * @dev allows setting credential inactive by it's credentialing org.\r\n    * @param _position Credential position in array\r\n    */\r\n    function setCredentialActiveFlag(uint _position)\r\n    public //onlyBy(msg.sender)\r\n    {\r\n        require(msg.sender == orgAddressToCredentials[msg.sender][_position].credentialOrg, \"setCredeentialInactiveflag - (FAIL) not owner\");\r\n        require(_position >= 0 , \"setCredentialActiveFlag: position lookup failure\");\r\n        require(orgAddressToCredentials[msg.sender][_position].isActive == false, \"Credential is already Active\");\r\n        orgAddressToCredentials[msg.sender][_position].isActive = true;\r\n        orgAddressToActiveCredentialCount[msg.sender] = orgAddressToActiveCredentialCount[msg.sender].add(1);\r\n        emit CredentialFactoryActivity(msg.sender, orgAddressToCredentials[msg.sender][_position].credentialTitle, \"SetCredentialIsActive - (Set Active)\");\r\n    }\r\n\r\n    /**\r\n    * @dev allows checking of CredentialCount\r\n    */\r\n    function selectOrgCredentialActiveCount(address _credentialOrgAddress)\r\n    public view\r\n    returns (uint32 returnCredentialCount)\r\n    {\r\n        returnCredentialCount = orgAddressToActiveCredentialCount[_credentialOrgAddress];\r\n        return (returnCredentialCount);\r\n    }\r\n\r\n    /**\r\n    * @dev allows checking of CredentialCount\r\n    */\r\n    function selectOrgCredentialCount(address _credentialOrgAddress)\r\n    public view\r\n    returns (uint32 returnCredentialCount)\r\n    {\r\n        returnCredentialCount = orgAddressToCredentialTotalCount[_credentialOrgAddress];\r\n        return (returnCredentialCount);\r\n    }\r\n\r\n    /**\r\n    * @dev allows checking of isActive flag for credential\r\n    * @param _position Credential position in array\r\n    */\r\n    function isCredentialActive(address _credentialOrgAddress, uint _position)\r\n    public view\r\n    returns (bool activeState)\r\n    {\r\n        activeState = false;\r\n        require(_position >= 0);\r\n        if (_position < orgAddressToCredentialTotalCount[_credentialOrgAddress]){\r\n            if (orgAddressToCredentials[_credentialOrgAddress][_position].isActive == true){\r\n                activeState = true;\r\n            }\r\n        }\r\n        return (activeState);\r\n    }\r\n}",
  "sourcePath": "E:\\Projects\\CredentialVerify\\contracts\\CredentialFactory.sol",
  "compiler": {
    "name": "solc",
    "version": "0.4.24+commit.e67f0147.Emscripten.clang"
  },
  "schemaVersion": "2.0.1",
  "updatedAt": "2018-08-12T05:02:29.604Z"
}