{
  "contractName": "CredentialFactory",
  "abi": [
    {
      "constant": false,
      "inputs": [],
      "name": "unpause",
      "outputs": [],
      "payable": false,
      "stateMutability": "nonpayable",
      "type": "function"
    },
    {
      "constant": true,
      "inputs": [],
      "name": "selectOrgCount",
      "outputs": [
        {
          "name": "returnOrgCount",
          "type": "uint32"
        }
      ],
      "payable": false,
      "stateMutability": "view",
      "type": "function"
    },
    {
      "constant": true,
      "inputs": [],
      "name": "paused",
      "outputs": [
        {
          "name": "",
          "type": "bool"
        }
      ],
      "payable": false,
      "stateMutability": "view",
      "type": "function"
    },
    {
      "constant": true,
      "inputs": [
        {
          "name": "_credentialOrgPosition",
          "type": "uint32"
        }
      ],
      "name": "selectCredentialOrgByPosition",
      "outputs": [
        {
          "name": "shortName",
          "type": "bytes32"
        },
        {
          "name": "schoolCode",
          "type": "bytes6"
        },
        {
          "name": "officialSchoolName",
          "type": "string"
        },
        {
          "name": "schoolAddress",
          "type": "address"
        }
      ],
      "payable": false,
      "stateMutability": "view",
      "type": "function"
    },
    {
      "constant": false,
      "inputs": [],
      "name": "pause",
      "outputs": [],
      "payable": false,
      "stateMutability": "nonpayable",
      "type": "function"
    },
    {
      "constant": true,
      "inputs": [],
      "name": "owner",
      "outputs": [
        {
          "name": "",
          "type": "address"
        }
      ],
      "payable": false,
      "stateMutability": "view",
      "type": "function"
    },
    {
      "constant": true,
      "inputs": [
        {
          "name": "_credentialOrgAddress",
          "type": "address"
        }
      ],
      "name": "selectCredentialOrgByAddress",
      "outputs": [
        {
          "name": "shortName",
          "type": "bytes32"
        },
        {
          "name": "schoolCode",
          "type": "bytes6"
        },
        {
          "name": "officialSchoolName",
          "type": "string"
        },
        {
          "name": "schoolAddress",
          "type": "address"
        }
      ],
      "payable": false,
      "stateMutability": "view",
      "type": "function"
    },
    {
      "constant": false,
      "inputs": [
        {
          "name": "_shortName",
          "type": "bytes32"
        },
        {
          "name": "_schoolCode",
          "type": "bytes6"
        },
        {
          "name": "_officialSchoolName",
          "type": "string"
        }
      ],
      "name": "createCredentialOrg",
      "outputs": [
        {
          "name": "position",
          "type": "uint32"
        }
      ],
      "payable": false,
      "stateMutability": "nonpayable",
      "type": "function"
    },
    {
      "constant": true,
      "inputs": [
        {
          "name": "_credentialOrgAddress",
          "type": "address"
        }
      ],
      "name": "isCredentialOrg",
      "outputs": [
        {
          "name": "IsOrgAddress",
          "type": "bool"
        }
      ],
      "payable": false,
      "stateMutability": "view",
      "type": "function"
    },
    {
      "constant": false,
      "inputs": [
        {
          "name": "newOwner",
          "type": "address"
        }
      ],
      "name": "transferOwnership",
      "outputs": [],
      "payable": false,
      "stateMutability": "nonpayable",
      "type": "function"
    },
    {
      "inputs": [],
      "payable": false,
      "stateMutability": "nonpayable",
      "type": "constructor"
    },
    {
      "anonymous": false,
      "inputs": [
        {
          "indexed": false,
          "name": "credentialOrg",
          "type": "address"
        },
        {
          "indexed": false,
          "name": "credentialTitle",
          "type": "string"
        },
        {
          "indexed": false,
          "name": "detail",
          "type": "string"
        }
      ],
      "name": "CredentialFactoryActivity",
      "type": "event"
    },
    {
      "anonymous": false,
      "inputs": [
        {
          "indexed": false,
          "name": "shortName",
          "type": "bytes32"
        },
        {
          "indexed": false,
          "name": "schoolAddress",
          "type": "address"
        },
        {
          "indexed": false,
          "name": "detail",
          "type": "string"
        }
      ],
      "name": "CredentialOrgCreateEvent",
      "type": "event"
    },
    {
      "anonymous": false,
      "inputs": [
        {
          "indexed": false,
          "name": "schoolAddress",
          "type": "address"
        },
        {
          "indexed": false,
          "name": "detail",
          "type": "string"
        }
      ],
      "name": "CredentialOrgEvent",
      "type": "event"
    },
    {
      "anonymous": false,
      "inputs": [],
      "name": "Pause",
      "type": "event"
    },
    {
      "anonymous": false,
      "inputs": [],
      "name": "Unpause",
      "type": "event"
    },
    {
      "anonymous": false,
      "inputs": [
        {
          "indexed": true,
          "name": "previousOwner",
          "type": "address"
        },
        {
          "indexed": true,
          "name": "newOwner",
          "type": "address"
        }
      ],
      "name": "OwnershipTransferred",
      "type": "event"
    },
    {
      "constant": false,
      "inputs": [
        {
          "name": "_credentialLevel",
          "type": "bytes1"
        },
        {
          "name": "_credentialTitle",
          "type": "string"
        },
        {
          "name": "_credentialDivision",
          "type": "string"
        }
      ],
      "name": "createCredential",
      "outputs": [],
      "payable": false,
      "stateMutability": "nonpayable",
      "type": "function"
    },
    {
      "constant": true,
      "inputs": [
        {
          "name": "_credentialPosition",
          "type": "uint32"
        }
      ],
      "name": "selectCredential",
      "outputs": [
        {
          "name": "credentialLevel",
          "type": "bytes1"
        },
        {
          "name": "credentialTitle",
          "type": "string"
        },
        {
          "name": "credentialDivision",
          "type": "string"
        },
        {
          "name": "credentialInsertDate",
          "type": "uint32"
        },
        {
          "name": "isActive",
          "type": "bool"
        }
      ],
      "payable": false,
      "stateMutability": "view",
      "type": "function"
    },
    {
      "constant": false,
      "inputs": [
        {
          "name": "_position",
          "type": "uint256"
        }
      ],
      "name": "setCredentialInactiveFlag",
      "outputs": [],
      "payable": false,
      "stateMutability": "nonpayable",
      "type": "function"
    },
    {
      "constant": false,
      "inputs": [
        {
          "name": "_position",
          "type": "uint256"
        }
      ],
      "name": "setCredentialActiveFlag",
      "outputs": [],
      "payable": false,
      "stateMutability": "nonpayable",
      "type": "function"
    },
    {
      "constant": true,
      "inputs": [],
      "name": "SelectCredentialCount",
      "outputs": [
        {
          "name": "returnCredentialCount",
          "type": "uint32"
        }
      ],
      "payable": false,
      "stateMutability": "view",
      "type": "function"
    },
    {
      "constant": true,
      "inputs": [
        {
          "name": "_credentialOrgAddress",
          "type": "address"
        }
      ],
      "name": "SelectOrgCredentialCount",
      "outputs": [
        {
          "name": "returnCredentialCount",
          "type": "uint32"
        }
      ],
      "payable": false,
      "stateMutability": "view",
      "type": "function"
    },
    {
      "constant": true,
      "inputs": [
        {
          "name": "_position",
          "type": "uint256"
        }
      ],
      "name": "isCredentialActive",
      "outputs": [
        {
          "name": "activeState",
          "type": "bool"
        }
      ],
      "payable": false,
      "stateMutability": "view",
      "type": "function"
    }
  ],
  "bytecode": "0x608060405260008060146101000a81548160ff0219169083151502179055503480156200002b57600080fd5b50336000806101000a81548173ffffffffffffffffffffffffffffffffffffffff021916908373ffffffffffffffffffffffffffffffffffffffff1602179055506000600360006101000a81548163ffffffff021916908363ffffffff1602179055506200011f7f494e49545245434f5244000000000000000000000000000000000000000000007f30303030303000000000000000000000000000000000000000000000000000006040805190810160405280602081526020017f496e697469616c697a6174696f6e205265636f726420666f72206f776e65722e81525062000215640100000000026401000000009004565b506000600860006101000a81548163ffffffff021916908363ffffffff1602179055506200020f7f4100000000000000000000000000000000000000000000000000000000000000606060405190810160405280602281526020017f4173736f63696174652044656772656520696e204261736b657420576561766981526020017f6e670000000000000000000000000000000000000000000000000000000000008152506040805190810160405280600981526020017f4241202d20417274730000000000000000000000000000000000000000000000815250620007f4640100000000026401000000009004565b62001504565b60007f6480db5eb12fe3227eace7f150fa46f3a44dfebd8ea96d17acf257d2d2da06a984336040518083600019166000191681526020018273ffffffffffffffffffffffffffffffffffffffff1673ffffffffffffffffffffffffffffffffffffffff16815260200180602001828103825260118152602001807f4e6577204f726720416464202850524529000000000000000000000000000000815250602001935050505060405180910390a16000602060ff16118015620002ef575060003373ffffffffffffffffffffffffffffffffffffffff1614155b8015620002ff575060068060ff16145b80156200030d575060008251115b80156200031b575060468251105b15156200032757600080fd5b6004608060405190810160405280866000191681526020018579ffffffffffffffffffffffffffffffffffffffffffffffffffff191681526020018481526020013373ffffffffffffffffffffffffffffffffffffffff16815250908060018154018082558091505090600182039060005260206000209060040201600090919290919091506000820151816000019060001916905560208201518160010160006101000a81548165ffffffffffff02191690837a0100000000000000000000000000000000000000000000000000009004021790555060408201518160020190805190602001906200041c929190620013c7565b5060608201518160030160006101000a81548173ffffffffffffffffffffffffffffffffffffffff021916908373ffffffffffffffffffffffffffffffffffffffff1602179055505050905060008163ffffffff1611156200077c5733600160008363ffffffff1663ffffffff16815260200190815260200160002060006101000a81548173ffffffffffffffffffffffffffffffffffffffff021916908373ffffffffffffffffffffffffffffffffffffffff16021790555060046200050260018363ffffffff166200119d6401000000000262003565179091906401000000009004565b63ffffffff168154811015156200051557fe5b9060005260206000209060040201600260003373ffffffffffffffffffffffffffffffffffffffff1673ffffffffffffffffffffffffffffffffffffffff168152602001908152602001600020600082015481600001906000191690556001820160009054906101000a90047a010000000000000000000000000000000000000000000000000000028160010160006101000a81548165ffffffffffff02191690837a0100000000000000000000000000000000000000000000000000009004021790555060028201816002019080546001816001161561010002031660029004620006039291906200144e565b506003820160009054906101000a900473ffffffffffffffffffffffffffffffffffffffff168160030160006101000a81548173ffffffffffffffffffffffffffffffffffffffff021916908373ffffffffffffffffffffffffffffffffffffffff160217905550905050620006aa6001600360009054906101000a900463ffffffff1663ffffffff16620011c3640100000000026200358a179091906401000000009004565b600360006101000a81548163ffffffff021916908363ffffffff1602179055507f6480db5eb12fe3227eace7f150fa46f3a44dfebd8ea96d17acf257d2d2da06a984336040518083600019166000191681526020018273ffffffffffffffffffffffffffffffffffffffff1673ffffffffffffffffffffffffffffffffffffffff168152602001806020018281038252601d8152602001807f63726561746543726564656e7469616c4f726720285355434345535329000000815250602001935050505060405180910390a1620007ea565b6040517f08c379a00000000000000000000000000000000000000000000000000000000081526004018080602001828103825260128152602001807f4e6577204f72672041646420284641494c29000000000000000000000000000081525060200191505060405180910390fd5b8090509392505050565b60007f22efaf0cb3bd642425e7be86b531b1a553c2d7a83936239ee16e9f7fdb8fa37d3384604051808373ffffffffffffffffffffffffffffffffffffffff1673ffffffffffffffffffffffffffffffffffffffff1681526020018060200180602001838103835284818151815260200191508051906020019080838360005b838110156200089157808201518184015260208101905062000874565b50505050905090810190601f168015620008bf5780820380516001836020036101000a031916815260200191505b508381038252601c8152602001807f4e65772043726564656e7469616c204164642028415454454d5054290000000081525060200194505050505060405180910390a16200091c33620011ee640100000000026401000000009004565b1562001064576000835111801562000935575060468351105b1515620009d0576040517f08c379a00000000000000000000000000000000000000000000000000000000081526004018080602001828103825260278152602001807f63726561746543726564656e7469616c202d205469746c65206c656e6774682081526020017f70726f626c656d0000000000000000000000000000000000000000000000000081525060400191505060405180910390fd5b6000825110158015620009e4575060328251105b151562000a7f576040517f08c379a000000000000000000000000000000000000000000000000000000000815260040180806020018281038252602a8152602001807f63726561746543726564656e7469616c202d204469766973696f6e206c656e6781526020017f74682070726f626c656d0000000000000000000000000000000000000000000081525060400191505060405180910390fd5b600760c0604051908101604052803373ffffffffffffffffffffffffffffffffffffffff168152602001867effffffffffffffffffffffffffffffffffffffffffffffffffffffffffffff191681526020018581526020018481526020014263ffffffff168152602001600115158152509080600181540180825580915050906001820390600052602060002090600402016000909192909190915060008201518160000160006101000a81548173ffffffffffffffffffffffffffffffffffffffff021916908373ffffffffffffffffffffffffffffffffffffffff16021790555060208201518160000160146101000a81548160ff02191690837f010000000000000000000000000000000000000000000000000000000000000090040217905550604082015181600101908051906020019062000bc1929190620013c7565b50606082015181600201908051906020019062000be0929190620013c7565b5060808201518160030160006101000a81548163ffffffff021916908363ffffffff16021790555060a08201518160030160046101000a81548160ff0219169083151502179055505050905060008110151562000f515762000c736001600860009054906101000a900463ffffffff1663ffffffff16620011c3640100000000026200358a179091906401000000009004565b600860006101000a81548163ffffffff021916908363ffffffff16021790555062000d0c6001600660003373ffffffffffffffffffffffffffffffffffffffff1673ffffffffffffffffffffffffffffffffffffffff16815260200190815260200160002060009054906101000a900463ffffffff1663ffffffff16620011c3640100000000026200358a179091906401000000009004565b600660003373ffffffffffffffffffffffffffffffffffffffff1673ffffffffffffffffffffffffffffffffffffffff16815260200190815260200160002060006101000a81548163ffffffff021916908363ffffffff16021790555062000de26001600560003373ffffffffffffffffffffffffffffffffffffffff1673ffffffffffffffffffffffffffffffffffffffff16815260200190815260200160002060009054906101000a900463ffffffff1663ffffffff16620011c3640100000000026200358a179091906401000000009004565b600560003373ffffffffffffffffffffffffffffffffffffffff1673ffffffffffffffffffffffffffffffffffffffff16815260200190815260200160002060006101000a81548163ffffffff021916908363ffffffff1602179055507f22efaf0cb3bd642425e7be86b531b1a553c2d7a83936239ee16e9f7fdb8fa37d3384604051808373ffffffffffffffffffffffffffffffffffffffff1673ffffffffffffffffffffffffffffffffffffffff1681526020018060200180602001838103835284818151815260200191508051906020019080838360005b8381101562000eda57808201518184015260208101905062000ebd565b50505050905090810190601f16801562000f085780820380516001836020036101000a031916815260200191505b508381038252601d8152602001807f4e65772043726564656e7469616c20416464202853554343434553532900000081525060200194505050505060405180910390a16200105e565b7f22efaf0cb3bd642425e7be86b531b1a553c2d7a83936239ee16e9f7fdb8fa37d3384604051808373ffffffffffffffffffffffffffffffffffffffff1673ffffffffffffffffffffffffffffffffffffffff1681526020018060200180602001838103835284818151815260200191508051906020019080838360005b8381101562000fec57808201518184015260208101905062000fcf565b50505050905090810190601f1680156200101a5780820380516001836020036101000a031916815260200191505b508381038252601b8152602001807f4e65772043726564656e7469616c2041646420284641494c454429000000000081525060200194505050505060405180910390a15b62001197565b7f22efaf0cb3bd642425e7be86b531b1a553c2d7a83936239ee16e9f7fdb8fa37d3384604051808373ffffffffffffffffffffffffffffffffffffffff1673ffffffffffffffffffffffffffffffffffffffff1681526020018060200180602001838103835284818151815260200191508051906020019080838360005b83811015620010ff578082015181840152602081019050620010e2565b50505050905090810190601f1680156200112d5780820380516001836020036101000a031916815260200191505b508381038252602e8152602001807f4e65772043726564656e7469616c2041646420284641494c4544292c204e6f7481526020017f2043726564656e7469616c4f726700000000000000000000000000000000000081525060400194505050505060405180910390a15b50505050565b60008263ffffffff168263ffffffff1611151515620011b857fe5b818303905092915050565b60008082840190508363ffffffff168163ffffffff1610151515620011e457fe5b8091505092915050565b60008060009150600260008473ffffffffffffffffffffffffffffffffffffffff1673ffffffffffffffffffffffffffffffffffffffff168152602001908152602001600020905060008160030160009054906101000a900473ffffffffffffffffffffffffffffffffffffffff1673ffffffffffffffffffffffffffffffffffffffff161415156200132157600191507f4e21dd52bcce287e8c74281919f77b5fe01a9761789a160d0bc2d8116703142f33604051808273ffffffffffffffffffffffffffffffffffffffff1673ffffffffffffffffffffffffffffffffffffffff168152602001806020018281038252601b8152602001807f697343726564656e7469616c4f7267202d2028535543434553532900000000008152506020019250505060405180910390a1620013be565b7f4e21dd52bcce287e8c74281919f77b5fe01a9761789a160d0bc2d8116703142f33604051808273ffffffffffffffffffffffffffffffffffffffff1673ffffffffffffffffffffffffffffffffffffffff16815260200180602001828103825260188152602001807f697343726564656e7469616c4f7267202d20284641494c2900000000000000008152506020019250505060405180910390a15b81915050919050565b828054600181600116156101000203166002900490600052602060002090601f016020900481019282601f106200140a57805160ff19168380011785556200143b565b828001600101855582156200143b579182015b828111156200143a5782518255916020019190600101906200141d565b5b5090506200144a9190620014dc565b5090565b828054600181600116156101000203166002900490600052602060002090601f016020900481019282601f10620014895780548555620014c9565b82800160010185558215620014c957600052602060002091601f016020900482015b82811115620014c8578254825591600101919060010190620014ab565b5b509050620014d89190620014dc565b5090565b6200150191905b80821115620014fd576000816000905550600101620014e3565b5090565b90565b61370c80620015146000396000f3006080604052600436106100f1576000357c0100000000000000000000000000000000000000000000000000000000900463ffffffff16806325aed137146100f65780632b83acac146102775780633f4ba83a146102a4578063459bdfd9146102bb57806352e23f8914610300578063554ee043146103375780635c975abb1461036e5780637795e2091461039d5780638456cb59146104cc5780638da5cb5b146104e3578063b9572c3e1461053a578063bbee2dfe14610567578063bd8fbbe9146106a6578063db7acb3b14610709578063e1eaee42146107c7578063f2fde38b14610822578063fdf3f90814610865575b600080fd5b34801561010257600080fd5b50610127600480360381019080803563ffffffff169060200190929190505050610940565b60405180867effffffffffffffffffffffffffffffffffffffffffffffffffffffffffffff19167effffffffffffffffffffffffffffffffffffffffffffffffffffffffffffff1916815260200180602001806020018563ffffffff1663ffffffff16815260200184151515158152602001838103835287818151815260200191508051906020019080838360005b838110156101d15780820151818401526020810190506101b6565b50505050905090810190601f1680156101fe5780820380516001836020036101000a031916815260200191505b50838103825286818151815260200191508051906020019080838360005b8381101561023757808201518184015260208101905061021c565b50505050905090810190601f1680156102645780820380516001836020036101000a031916815260200191505b5097505050505050505060405180910390f35b34801561028357600080fd5b506102a260048036038101908080359060200190929190505050610c6b565b005b3480156102b057600080fd5b506102b9611216565b005b3480156102c757600080fd5b506102e6600480360381019080803590602001909291905050506112d4565b604051808215151515815260200191505060405180910390f35b34801561030c57600080fd5b50610315611351565b604051808263ffffffff1663ffffffff16815260200191505060405180910390f35b34801561034357600080fd5b5061034c61136e565b604051808263ffffffff1663ffffffff16815260200191505060405180910390f35b34801561037a57600080fd5b50610383611427565b604051808215151515815260200191505060405180910390f35b3480156103a957600080fd5b506103ce600480360381019080803563ffffffff16906020019092919050505061143a565b6040518085600019166000191681526020018479ffffffffffffffffffffffffffffffffffffffffffffffffffff191679ffffffffffffffffffffffffffffffffffffffffffffffffffff19168152602001806020018373ffffffffffffffffffffffffffffffffffffffff1673ffffffffffffffffffffffffffffffffffffffff168152602001828103825284818151815260200191508051906020019080838360005b8381101561048e578082015181840152602081019050610473565b50505050905090810190601f1680156104bb5780820380516001836020036101000a031916815260200191505b509550505050505060405180910390f35b3480156104d857600080fd5b506104e161184d565b005b3480156104ef57600080fd5b506104f861190d565b604051808273ffffffffffffffffffffffffffffffffffffffff1673ffffffffffffffffffffffffffffffffffffffff16815260200191505060405180910390f35b34801561054657600080fd5b5061056560048036038101908080359060200190929190505050611932565b005b34801561057357600080fd5b506105a8600480360381019080803573ffffffffffffffffffffffffffffffffffffffff169060200190929190505050611edd565b6040518085600019166000191681526020018479ffffffffffffffffffffffffffffffffffffffffffffffffffff191679ffffffffffffffffffffffffffffffffffffffffffffffffffff19168152602001806020018373ffffffffffffffffffffffffffffffffffffffff1673ffffffffffffffffffffffffffffffffffffffff168152602001828103825284818151815260200191508051906020019080838360005b8381101561066857808201518184015260208101905061064d565b50505050905090810190601f1680156106955780820380516001836020036101000a031916815260200191505b509550505050505060405180910390f35b3480156106b257600080fd5b506106e7600480360381019080803573ffffffffffffffffffffffffffffffffffffffff1690602001909291905050506122da565b604051808263ffffffff1663ffffffff16815260200191505060405180910390f35b34801561071557600080fd5b506107a56004803603810190808035600019169060200190929190803579ffffffffffffffffffffffffffffffffffffffffffffffffffff19169060200190929190803590602001908201803590602001908080601f0160208091040260200160405190810160405280939291908181526020018383808284378201915050505050509192919290505050612336565b604051808263ffffffff1663ffffffff16815260200191505060405180910390f35b3480156107d357600080fd5b50610808600480360381019080803573ffffffffffffffffffffffffffffffffffffffff1690602001909291905050506128e9565b604051808215151515815260200191505060405180910390f35b34801561082e57600080fd5b50610863600480360381019080803573ffffffffffffffffffffffffffffffffffffffff169060200190929190505050612ac0565b005b34801561087157600080fd5b5061093e60048036038101908080357effffffffffffffffffffffffffffffffffffffffffffffffffffffffffffff19169060200190929190803590602001908201803590602001908080601f0160208091040260200160405190810160405280939291908181526020018383808284378201915050505050509192919290803590602001908201803590602001908080601f0160208091040260200160405190810160405280939291908181526020018383808284378201915050505050509192919290505050612c15565b005b600060608060008060008663ffffffff161015801561097c5750600860009054906101000a900463ffffffff1663ffffffff168663ffffffff16105b1515610a16576040517f08c379a00000000000000000000000000000000000000000000000000000000081526004018080602001828103825260298152602001807f73656c65637443726564656e7469616c3a2043726564656e7469616c20426f7581526020017f6e6473204572726f72000000000000000000000000000000000000000000000081525060400191505060405180910390fd5b60078663ffffffff16815481101515610a2b57fe5b906000526020600020906004020160000160149054906101000a90047f01000000000000000000000000000000000000000000000000000000000000000260078763ffffffff16815481101515610a7e57fe5b906000526020600020906004020160010160078863ffffffff16815481101515610aa457fe5b906000526020600020906004020160020160078963ffffffff16815481101515610aca57fe5b906000526020600020906004020160030160009054906101000a900463ffffffff1660078a63ffffffff16815481101515610b0157fe5b906000526020600020906004020160030160049054906101000a900460ff16838054600181600116156101000203166002900480601f016020809104026020016040519081016040528092919081815260200182805460018160011615610100020316600290048015610bb55780601f10610b8a57610100808354040283529160200191610bb5565b820191906000526020600020905b815481529060010190602001808311610b9857829003601f168201915b50505050509350828054600181600116156101000203166002900480601f016020809104026020016040519081016040528092919081815260200182805460018160011615610100020316600290048015610c515780601f10610c2657610100808354040283529160200191610c51565b820191906000526020600020905b815481529060010190602001808311610c3457829003601f168201915b505050505092509450945094509450945091939590929450565b610c74336128e9565b156110a75760008110158015610cf557503373ffffffffffffffffffffffffffffffffffffffff16600782815481101515610cab57fe5b906000526020600020906004020160000160009054906101000a900473ffffffffffffffffffffffffffffffffffffffff1673ffffffffffffffffffffffffffffffffffffffff16145b1515610d8f576040517f08c379a00000000000000000000000000000000000000000000000000000000081526004018080602001828103825260328152602001807f73657443726564656e7469616c496e616374697665466c61673a20506f73697481526020017f696f6e206f72204f7267206661696c757265000000000000000000000000000081525060400191505060405180910390fd5b60011515600782815481101515610da257fe5b906000526020600020906004020160030160049054906101000a900460ff161515141515610e38576040517f08c379a00000000000000000000000000000000000000000000000000000000081526004018080602001828103825260188152602001807f43726564656e7469616c206973204e4f5420416374697665000000000000000081525060200191505060405180910390fd5b6000600782815481101515610e4957fe5b906000526020600020906004020160030160046101000a81548160ff021916908315150217905550610eda6001600660003373ffffffffffffffffffffffffffffffffffffffff1673ffffffffffffffffffffffffffffffffffffffff16815260200190815260200160002060009054906101000a900463ffffffff1663ffffffff1661356590919063ffffffff16565b600660003373ffffffffffffffffffffffffffffffffffffffff1673ffffffffffffffffffffffffffffffffffffffff16815260200190815260200160002060006101000a81548163ffffffff021916908363ffffffff1602179055507f22efaf0cb3bd642425e7be86b531b1a553c2d7a83936239ee16e9f7fdb8fa37d33600783815481101515610f6857fe5b9060005260206000209060040201600101604051808373ffffffffffffffffffffffffffffffffffffffff1673ffffffffffffffffffffffffffffffffffffffff16815260200180602001806020018381038352848181546001816001161561010002031660029004815260200191508054600181600116156101000203166002900480156110385780601f1061100d57610100808354040283529160200191611038565b820191906000526020600020905b81548152906001019060200180831161101b57829003601f168201915b5050838103825260268152602001807f53657443726564656e7469616c4973416374697665202d202853657420496e6181526020017f637469766529000000000000000000000000000000000000000000000000000081525060400194505050505060405180910390a1611213565b7f22efaf0cb3bd642425e7be86b531b1a553c2d7a83936239ee16e9f7fdb8fa37d336007838154811015156110d857fe5b9060005260206000209060040201600101604051808373ffffffffffffffffffffffffffffffffffffffff1673ffffffffffffffffffffffffffffffffffffffff16815260200180602001806020018381038352848181546001816001161561010002031660029004815260200191508054600181600116156101000203166002900480156111a85780601f1061117d576101008083540402835291602001916111a8565b820191906000526020600020905b81548152906001019060200180831161118b57829003601f168201915b5050838103825260308152602001807f53657443726564656e7469616c4973416374697665202d20284641494c29206e81526020017f6f742043726564656e7469616c4f72670000000000000000000000000000000081525060400194505050505060405180910390a15b50565b6000809054906101000a900473ffffffffffffffffffffffffffffffffffffffff1673ffffffffffffffffffffffffffffffffffffffff163373ffffffffffffffffffffffffffffffffffffffff1614151561127157600080fd5b600060149054906101000a900460ff16151561128c57600080fd5b60008060146101000a81548160ff0219169083151502179055507f7805862f689e2f13df9f062ff482ad3ad112aca9e0847911ed832e158c525b3360405160405180910390a1565b6000809050600082101515156112e957600080fd5b600860009054906101000a900463ffffffff1663ffffffff16821015611349576001151560078381548110151561131c57fe5b906000526020600020906004020160030160049054906101000a900460ff161515141561134857600190505b5b809050919050565b6000600860009054906101000a900463ffffffff16905080905090565b6000600360009054906101000a900463ffffffff1690507f4e21dd52bcce287e8c74281919f77b5fe01a9761789a160d0bc2d8116703142f33604051808273ffffffffffffffffffffffffffffffffffffffff1673ffffffffffffffffffffffffffffffffffffffff168152602001806020018281038252601a8152602001807f73656c6563744f7267436f756e74202d202853554343455353290000000000008152506020019250505060405180910390a180905090565b600060149054906101000a900460ff1681565b6000806060600080935060009250602060405190810160405280600081525091506000905060008563ffffffff1610151515611504576040517f08c379a000000000000000000000000000000000000000000000000000000000815260040180806020018281038252603f8152602001807f73656c65637443726564656e7469616c4f7267202d20706f736974696f6e206881526020017f616420746f2062652067726561746572206f7220657175616c20746f20302e0081525060400191505060405180910390fd5b600360009054906101000a900463ffffffff1663ffffffff168563ffffffff161015611777577f4e21dd52bcce287e8c74281919f77b5fe01a9761789a160d0bc2d8116703142f33604051808273ffffffffffffffffffffffffffffffffffffffff1673ffffffffffffffffffffffffffffffffffffffff16815260200180602001828103825260288152602001807f73656c65637443726564656e7469616c4f72677e706f736974696f6e202d202881526020017f53554343455353290000000000000000000000000000000000000000000000008152506040019250505060405180910390a160048563ffffffff1681548110151561160157fe5b90600052602060002090600402016000015460048663ffffffff1681548110151561162857fe5b906000526020600020906004020160010160009054906101000a90047a0100000000000000000000000000000000000000000000000000000260048763ffffffff1681548110151561167657fe5b906000526020600020906004020160020160048863ffffffff1681548110151561169c57fe5b906000526020600020906004020160030160009054906101000a900473ffffffffffffffffffffffffffffffffffffffff16818054600181600116156101000203166002900480601f0160208091040260200160405190810160405280929190818152602001828054600181600116156101000203166002900480156117635780601f1061173857610100808354040283529160200191611763565b820191906000526020600020905b81548152906001019060200180831161174657829003601f168201915b505050505091509350935093509350611846565b7f4e21dd52bcce287e8c74281919f77b5fe01a9761789a160d0bc2d8116703142f33604051808273ffffffffffffffffffffffffffffffffffffffff1673ffffffffffffffffffffffffffffffffffffffff168152602001806020018281038252603b8152602001807f73656c65637443726564656e7469616c4f72677e706f736974696f6e202d202881526020017f4641494c2920746f7020626f756e6472792065786365656465642e00000000008152506040019250505060405180910390a18383838393509350935093505b9193509193565b6000809054906101000a900473ffffffffffffffffffffffffffffffffffffffff1673ffffffffffffffffffffffffffffffffffffffff163373ffffffffffffffffffffffffffffffffffffffff161415156118a857600080fd5b600060149054906101000a900460ff161515156118c457600080fd5b6001600060146101000a81548160ff0219169083151502179055507f6985a02210a168e66602d3235cb6db0e70f92b3ba4d376a33c0f3d9434bff62560405160405180910390a1565b6000809054906101000a900473ffffffffffffffffffffffffffffffffffffffff1681565b61193b336128e9565b15611d6e57600081101580156119bc57503373ffffffffffffffffffffffffffffffffffffffff1660078281548110151561197257fe5b906000526020600020906004020160000160009054906101000a900473ffffffffffffffffffffffffffffffffffffffff1673ffffffffffffffffffffffffffffffffffffffff16145b1515611a56576040517f08c379a00000000000000000000000000000000000000000000000000000000081526004018080602001828103825260308152602001807f73657443726564656e7469616c416374697665466c61673a20706f736974696f81526020017f6e206f72204f7267206661696c7572650000000000000000000000000000000081525060400191505060405180910390fd5b60001515600782815481101515611a6957fe5b906000526020600020906004020160030160049054906101000a900460ff161515141515611aff576040517f08c379a000000000000000000000000000000000000000000000000000000000815260040180806020018281038252601c8152602001807f43726564656e7469616c20697320616c7265616479204163746976650000000081525060200191505060405180910390fd5b6001600782815481101515611b1057fe5b906000526020600020906004020160030160046101000a81548160ff021916908315150217905550611ba16001600660003373ffffffffffffffffffffffffffffffffffffffff1673ffffffffffffffffffffffffffffffffffffffff16815260200190815260200160002060009054906101000a900463ffffffff1663ffffffff1661358a90919063ffffffff16565b600660003373ffffffffffffffffffffffffffffffffffffffff1673ffffffffffffffffffffffffffffffffffffffff16815260200190815260200160002060006101000a81548163ffffffff021916908363ffffffff1602179055507f22efaf0cb3bd642425e7be86b531b1a553c2d7a83936239ee16e9f7fdb8fa37d33600783815481101515611c2f57fe5b9060005260206000209060040201600101604051808373ffffffffffffffffffffffffffffffffffffffff1673ffffffffffffffffffffffffffffffffffffffff1681526020018060200180602001838103835284818154600181600116156101000203166002900481526020019150805460018160011615610100020316600290048015611cff5780601f10611cd457610100808354040283529160200191611cff565b820191906000526020600020905b815481529060010190602001808311611ce257829003601f168201915b5050838103825260248152602001807f53657443726564656e7469616c4973416374697665202d20285365742041637481526020017f697665290000000000000000000000000000000000000000000000000000000081525060400194505050505060405180910390a1611eda565b7f22efaf0cb3bd642425e7be86b531b1a553c2d7a83936239ee16e9f7fdb8fa37d33600783815481101515611d9f57fe5b9060005260206000209060040201600101604051808373ffffffffffffffffffffffffffffffffffffffff1673ffffffffffffffffffffffffffffffffffffffff1681526020018060200180602001838103835284818154600181600116156101000203166002900481526020019150805460018160011615610100020316600290048015611e6f5780601f10611e4457610100808354040283529160200191611e6f565b820191906000526020600020905b815481529060010190602001808311611e5257829003601f168201915b50508381038252602e8152602001807f53657443726564656e7469616c416374697665202d20284641494c29206e6f7481526020017f2043726564656e7469616c4f726700000000000000000000000000000000000081525060400194505050505060405180910390a15b50565b600080606060008060008673ffffffffffffffffffffffffffffffffffffffff1614151515611f9a576040517f08c379a00000000000000000000000000000000000000000000000000000000081526004018080602001828103825260298152602001807f73656c65637443726564656e7469616c4f7267202d204164647265737320302081526020017f6e6f742076616c6964000000000000000000000000000000000000000000000081525060400191505060405180910390fd5b60009450600093506020604051908101604052806000815250925060009150600260008773ffffffffffffffffffffffffffffffffffffffff1673ffffffffffffffffffffffffffffffffffffffff168152602001908152602001600020905060008160030160009054906101000a900473ffffffffffffffffffffffffffffffffffffffff1673ffffffffffffffffffffffffffffffffffffffff16141515612203577f4e21dd52bcce287e8c74281919f77b5fe01a9761789a160d0bc2d8116703142f33604051808273ffffffffffffffffffffffffffffffffffffffff1673ffffffffffffffffffffffffffffffffffffffff16815260200180602001828103825260278152602001807f73656c65637443726564656e7469616c4f72677e61646472657373202d20285381526020017f55434345535329000000000000000000000000000000000000000000000000008152506040019250505060405180910390a180600001548160010160009054906101000a90047a01000000000000000000000000000000000000000000000000000002826002018360030160009054906101000a900473ffffffffffffffffffffffffffffffffffffffff16818054600181600116156101000203166002900480601f0160208091040260200160405190810160405280929190818152602001828054600181600116156101000203166002900480156121ef5780601f106121c4576101008083540402835291602001916121ef565b820191906000526020600020905b8154815290600101906020018083116121d257829003601f168201915b5050505050915094509450945094506122d2565b7f4e21dd52bcce287e8c74281919f77b5fe01a9761789a160d0bc2d8116703142f33604051808273ffffffffffffffffffffffffffffffffffffffff1673ffffffffffffffffffffffffffffffffffffffff16815260200180602001828103825260248152602001807f73656c65637443726564656e7469616c4f72677e61646472657373202d20284681526020017f41494c29000000000000000000000000000000000000000000000000000000008152506040019250505060405180910390a18484848494509450945094505b509193509193565b6000600560008373ffffffffffffffffffffffffffffffffffffffff1673ffffffffffffffffffffffffffffffffffffffff16815260200190815260200160002060009054906101000a900463ffffffff169050809050919050565b60007f6480db5eb12fe3227eace7f150fa46f3a44dfebd8ea96d17acf257d2d2da06a984336040518083600019166000191681526020018273ffffffffffffffffffffffffffffffffffffffff1673ffffffffffffffffffffffffffffffffffffffff16815260200180602001828103825260118152602001807f4e6577204f726720416464202850524529000000000000000000000000000000815250602001935050505060405180910390a16000602060ff1611801561240f575060003373ffffffffffffffffffffffffffffffffffffffff1614155b801561241e575060068060ff16145b801561242b575060008251115b8015612438575060468251105b151561244357600080fd5b6004608060405190810160405280866000191681526020018579ffffffffffffffffffffffffffffffffffffffffffffffffffff191681526020018481526020013373ffffffffffffffffffffffffffffffffffffffff16815250908060018154018082558091505090600182039060005260206000209060040201600090919290919091506000820151816000019060001916905560208201518160010160006101000a81548165ffffffffffff02191690837a0100000000000000000000000000000000000000000000000000009004021790555060408201518160020190805190602001906125369291906135b4565b5060608201518160030160006101000a81548173ffffffffffffffffffffffffffffffffffffffff021916908373ffffffffffffffffffffffffffffffffffffffff1602179055505050905060008163ffffffff1611156128715733600160008363ffffffff1663ffffffff16815260200190815260200160002060006101000a81548173ffffffffffffffffffffffffffffffffffffffff021916908373ffffffffffffffffffffffffffffffffffffffff160217905550600461260b60018363ffffffff1661356590919063ffffffff16565b63ffffffff1681548110151561261d57fe5b9060005260206000209060040201600260003373ffffffffffffffffffffffffffffffffffffffff1673ffffffffffffffffffffffffffffffffffffffff168152602001908152602001600020600082015481600001906000191690556001820160009054906101000a90047a010000000000000000000000000000000000000000000000000000028160010160006101000a81548165ffffffffffff02191690837a0100000000000000000000000000000000000000000000000000009004021790555060028201816002019080546001816001161561010002031660029004612709929190613634565b506003820160009054906101000a900473ffffffffffffffffffffffffffffffffffffffff168160030160006101000a81548173ffffffffffffffffffffffffffffffffffffffff021916908373ffffffffffffffffffffffffffffffffffffffff1602179055509050506127a06001600360009054906101000a900463ffffffff1663ffffffff1661358a90919063ffffffff16565b600360006101000a81548163ffffffff021916908363ffffffff1602179055507f6480db5eb12fe3227eace7f150fa46f3a44dfebd8ea96d17acf257d2d2da06a984336040518083600019166000191681526020018273ffffffffffffffffffffffffffffffffffffffff1673ffffffffffffffffffffffffffffffffffffffff168152602001806020018281038252601d8152602001807f63726561746543726564656e7469616c4f726720285355434345535329000000815250602001935050505060405180910390a16128df565b6040517f08c379a00000000000000000000000000000000000000000000000000000000081526004018080602001828103825260128152602001807f4e6577204f72672041646420284641494c29000000000000000000000000000081525060200191505060405180910390fd5b8090509392505050565b60008060009150600260008473ffffffffffffffffffffffffffffffffffffffff1673ffffffffffffffffffffffffffffffffffffffff168152602001908152602001600020905060008160030160009054906101000a900473ffffffffffffffffffffffffffffffffffffffff1673ffffffffffffffffffffffffffffffffffffffff16141515612a1a57600191507f4e21dd52bcce287e8c74281919f77b5fe01a9761789a160d0bc2d8116703142f33604051808273ffffffffffffffffffffffffffffffffffffffff1673ffffffffffffffffffffffffffffffffffffffff168152602001806020018281038252601b8152602001807f697343726564656e7469616c4f7267202d2028535543434553532900000000008152506020019250505060405180910390a1612ab7565b7f4e21dd52bcce287e8c74281919f77b5fe01a9761789a160d0bc2d8116703142f33604051808273ffffffffffffffffffffffffffffffffffffffff1673ffffffffffffffffffffffffffffffffffffffff16815260200180602001828103825260188152602001807f697343726564656e7469616c4f7267202d20284641494c2900000000000000008152506020019250505060405180910390a15b81915050919050565b6000809054906101000a900473ffffffffffffffffffffffffffffffffffffffff1673ffffffffffffffffffffffffffffffffffffffff163373ffffffffffffffffffffffffffffffffffffffff16141515612b1b57600080fd5b600073ffffffffffffffffffffffffffffffffffffffff168173ffffffffffffffffffffffffffffffffffffffff1614151515612b5757600080fd5b8073ffffffffffffffffffffffffffffffffffffffff166000809054906101000a900473ffffffffffffffffffffffffffffffffffffffff1673ffffffffffffffffffffffffffffffffffffffff167f8be0079c531659141344cd1fd0a4f28419497f9722a3daafe3b4186f6b6457e060405160405180910390a3806000806101000a81548173ffffffffffffffffffffffffffffffffffffffff021916908373ffffffffffffffffffffffffffffffffffffffff16021790555050565b60007f22efaf0cb3bd642425e7be86b531b1a553c2d7a83936239ee16e9f7fdb8fa37d3384604051808373ffffffffffffffffffffffffffffffffffffffff1673ffffffffffffffffffffffffffffffffffffffff1681526020018060200180602001838103835284818151815260200191508051906020019080838360005b83811015612cb0578082015181840152602081019050612c95565b50505050905090810190601f168015612cdd5780820380516001836020036101000a031916815260200191505b508381038252601c8152602001807f4e65772043726564656e7469616c204164642028415454454d5054290000000081525060200194505050505060405180910390a1612d29336128e9565b1561342f5760008351118015612d40575060468351105b1515612dda576040517f08c379a00000000000000000000000000000000000000000000000000000000081526004018080602001828103825260278152602001807f63726561746543726564656e7469616c202d205469746c65206c656e6774682081526020017f70726f626c656d0000000000000000000000000000000000000000000000000081525060400191505060405180910390fd5b6000825110158015612ded575060328251105b1515612e87576040517f08c379a000000000000000000000000000000000000000000000000000000000815260040180806020018281038252602a8152602001807f63726561746543726564656e7469616c202d204469766973696f6e206c656e6781526020017f74682070726f626c656d0000000000000000000000000000000000000000000081525060400191505060405180910390fd5b600760c0604051908101604052803373ffffffffffffffffffffffffffffffffffffffff168152602001867effffffffffffffffffffffffffffffffffffffffffffffffffffffffffffff191681526020018581526020018481526020014263ffffffff168152602001600115158152509080600181540180825580915050906001820390600052602060002090600402016000909192909190915060008201518160000160006101000a81548173ffffffffffffffffffffffffffffffffffffffff021916908373ffffffffffffffffffffffffffffffffffffffff16021790555060208201518160000160146101000a81548160ff02191690837f0100000000000000000000000000000000000000000000000000000000000000900402179055506040820151816001019080519060200190612fc79291906135b4565b506060820151816002019080519060200190612fe49291906135b4565b5060808201518160030160006101000a81548163ffffffff021916908363ffffffff16021790555060a08201518160030160046101000a81548160ff02191690831515021790555050509050600081101515613320576130666001600860009054906101000a900463ffffffff1663ffffffff1661358a90919063ffffffff16565b600860006101000a81548163ffffffff021916908363ffffffff1602179055506130ef6001600660003373ffffffffffffffffffffffffffffffffffffffff1673ffffffffffffffffffffffffffffffffffffffff16815260200190815260200160002060009054906101000a900463ffffffff1663ffffffff1661358a90919063ffffffff16565b600660003373ffffffffffffffffffffffffffffffffffffffff1673ffffffffffffffffffffffffffffffffffffffff16815260200190815260200160002060006101000a81548163ffffffff021916908363ffffffff1602179055506131b56001600560003373ffffffffffffffffffffffffffffffffffffffff1673ffffffffffffffffffffffffffffffffffffffff16815260200190815260200160002060009054906101000a900463ffffffff1663ffffffff1661358a90919063ffffffff16565b600560003373ffffffffffffffffffffffffffffffffffffffff1673ffffffffffffffffffffffffffffffffffffffff16815260200190815260200160002060006101000a81548163ffffffff021916908363ffffffff1602179055507f22efaf0cb3bd642425e7be86b531b1a553c2d7a83936239ee16e9f7fdb8fa37d3384604051808373ffffffffffffffffffffffffffffffffffffffff1673ffffffffffffffffffffffffffffffffffffffff1681526020018060200180602001838103835284818151815260200191508051906020019080838360005b838110156132ab578082015181840152602081019050613290565b50505050905090810190601f1680156132d85780820380516001836020036101000a031916815260200191505b508381038252601d8152602001807f4e65772043726564656e7469616c20416464202853554343434553532900000081525060200194505050505060405180910390a161342a565b7f22efaf0cb3bd642425e7be86b531b1a553c2d7a83936239ee16e9f7fdb8fa37d3384604051808373ffffffffffffffffffffffffffffffffffffffff1673ffffffffffffffffffffffffffffffffffffffff1681526020018060200180602001838103835284818151815260200191508051906020019080838360005b838110156133b957808201518184015260208101905061339e565b50505050905090810190601f1680156133e65780820380516001836020036101000a031916815260200191505b508381038252601b8152602001807f4e65772043726564656e7469616c2041646420284641494c454429000000000081525060200194505050505060405180910390a15b61355f565b7f22efaf0cb3bd642425e7be86b531b1a553c2d7a83936239ee16e9f7fdb8fa37d3384604051808373ffffffffffffffffffffffffffffffffffffffff1673ffffffffffffffffffffffffffffffffffffffff1681526020018060200180602001838103835284818151815260200191508051906020019080838360005b838110156134c85780820151818401526020810190506134ad565b50505050905090810190601f1680156134f55780820380516001836020036101000a031916815260200191505b508381038252602e8152602001807f4e65772043726564656e7469616c2041646420284641494c4544292c204e6f7481526020017f2043726564656e7469616c4f726700000000000000000000000000000000000081525060400194505050505060405180910390a15b50505050565b60008263ffffffff168263ffffffff161115151561357f57fe5b818303905092915050565b60008082840190508363ffffffff168163ffffffff16101515156135aa57fe5b8091505092915050565b828054600181600116156101000203166002900490600052602060002090601f016020900481019282601f106135f557805160ff1916838001178555613623565b82800160010185558215613623579182015b82811115613622578251825591602001919060010190613607565b5b50905061363091906136bb565b5090565b828054600181600116156101000203166002900490600052602060002090601f016020900481019282601f1061366d57805485556136aa565b828001600101855582156136aa57600052602060002091601f016020900482015b828111156136a957825482559160010191906001019061368e565b5b5090506136b791906136bb565b5090565b6136dd91905b808211156136d95760008160009055506001016136c1565b5090565b905600a165627a7a7230582054d22f2a8583442b107bba769f073cd95a906a3bef84dc54beb22e9564c3b2c40029",
  "source": "pragma solidity ^0.4.21;\r\nimport \"./CredentialOrgFactory.sol\";\r\n/**\r\n * @title CredentialFactory\r\n * @dev The CredentialFactory allows the credentialOrgs to add/lookup credentials\r\n */\r\ncontract CredentialFactory is CredentialOrgFactory{\r\n    \r\n    using SafeMath32 for uint32;\r\n    // events\r\n    event CredentialFactoryActivity(address credentialOrg, string credentialTitle, string detail);\r\n\r\n    // mapping\r\n    mapping (address => uint32) addressToCredentialCount;\r\n    mapping (address => uint32) addressToActiveCredentialCount;\r\n\r\n    // structs\r\n    struct Credential {\r\n        address credentialOrg;      // CredentialOwnerAddress\r\n        bytes1 credentialLevel;     // single byte string \r\n        string credentialTitle;     // 70 or less string\r\n        string credentialDivision;  // 50 or less string\r\n        uint32 credentialInsertDate;// Credential Insert timestamp\r\n        bool isActive;              // is CredentialActive for use\r\n    }\r\n    Credential[] private credentials;\r\n    uint32 private credentialCount;\r\n    \r\n    // constructor\r\n    constructor () public {\r\n        credentialCount = 0;\r\n        createCredential(\"A\", \"Associate Degree in Basket Weaving\", \"BA - Arts\");\r\n        //createCredentialByOwner(0x14723A09ACff6D2A60DcdF7aA4AFf308FDDC160C, \"A\", \"Associate Degree in Basket Weaving\", \"BA - Arts\");\r\n        //createCredentialByOwner(0x4B0897b0513fdC7C541B6d9D7E929C4e5364D2dB, \"A\", \"Associate Degree in Basket Weaving\", \"BA - Arts\");\r\n    }\r\n    \r\n    // functions\r\n    /**\r\n    * @dev allows credentialing Orgs to create new credentials\r\n    * @param _credentialLevel Credential Level\r\n    * @param _credentialTitle CredentialTitle\r\n    * @param _credentialDivision Credential Division\r\n    */\r\n    function createCredential(bytes1 _credentialLevel, string _credentialTitle, string _credentialDivision) \r\n    public //onlyBy(msg.sender)\r\n    {\r\n        emit CredentialFactoryActivity(msg.sender, _credentialTitle, \"New Credential Add (ATTEMPT)\");\r\n        if (isCredentialOrg(msg.sender)){\r\n            require(bytes(_credentialTitle).length > 0 && bytes(_credentialTitle).length < 70, \"createCredential - Title length problem\");\r\n            require(bytes(_credentialDivision).length >= 0 && bytes(_credentialDivision).length < 50, \"createCredential - Division length problem\");\r\n            uint position = credentials.push(Credential(msg.sender, _credentialLevel, _credentialTitle, _credentialDivision, uint32(block.timestamp), true));\r\n            if(position >= 0){\r\n                credentialCount = credentialCount.add(1);\r\n                addressToActiveCredentialCount[msg.sender] = addressToActiveCredentialCount[msg.sender].add(1);\r\n                addressToCredentialCount[msg.sender] = addressToCredentialCount[msg.sender].add(1);\r\n                emit CredentialFactoryActivity(msg.sender, _credentialTitle, \"New Credential Add (SUCCCESS)\");\r\n            } else {\r\n                emit CredentialFactoryActivity(msg.sender, _credentialTitle, \"New Credential Add (FAILED)\");\r\n            }\r\n        } else {\r\n            emit CredentialFactoryActivity(msg.sender, _credentialTitle, \"New Credential Add (FAILED), Not CredentialOrg\");\r\n        }\r\n    }\r\n\r\n    /**\r\n    * @dev allows selection of credential based on position.\r\n    * @param _credentialPosition allows selection of credentialing orgs details.\r\n    */\r\n    function selectCredential(uint32 _credentialPosition) \r\n    public view\r\n    returns (bytes1 credentialLevel, string credentialTitle, string credentialDivision, uint32 credentialInsertDate, bool isActive)\r\n    {\r\n        require(_credentialPosition >= 0 && _credentialPosition < credentialCount, \"selectCredential: Credential Bounds Error\");\r\n        return (credentials[_credentialPosition].credentialLevel, credentials[_credentialPosition].credentialTitle, credentials[_credentialPosition].credentialDivision, credentials[_credentialPosition].credentialInsertDate,credentials[_credentialPosition].isActive);\r\n    }\r\n\r\n    /**\r\n    * @dev allows setting credential inactive by it's owner\r\n    * @param _position Credential position in array\r\n    */\r\n    function setCredentialInactiveFlag(uint _position)\r\n    public //onlyBy(msg.sender)\r\n    {\r\n        if (isCredentialOrg(msg.sender)){\r\n            require(_position >= 0 && credentials[_position].credentialOrg == msg.sender, \"setCredentialInactiveFlag: Position or Org failure\");\r\n            require(credentials[_position].isActive == true, \"Credential is NOT Active\");\r\n            credentials[_position].isActive = false;\r\n            addressToActiveCredentialCount[msg.sender] = addressToActiveCredentialCount[msg.sender].sub(1);\r\n            emit CredentialFactoryActivity(msg.sender, credentials[_position].credentialTitle, \"SetCredentialIsActive - (Set Inactive)\");\r\n        } else {\r\n            emit CredentialFactoryActivity(msg.sender, credentials[_position].credentialTitle, \"SetCredentialIsActive - (FAIL) not CredentialOrg\");\r\n        }\r\n    }\r\n\r\n    /**\r\n    * @dev allows setting credential inactive by it's credentialing org.\r\n    * @param _position Credential position in array\r\n    */\r\n    function setCredentialActiveFlag(uint _position)\r\n    public //onlyBy(msg.sender)\r\n    {\r\n        if (isCredentialOrg(msg.sender)){\r\n            require(_position >= 0 && credentials[_position].credentialOrg == msg.sender, \"setCredentialActiveFlag: position or Org failure\");\r\n            require(credentials[_position].isActive == false, \"Credential is already Active\");\r\n            credentials[_position].isActive = true;\r\n            addressToActiveCredentialCount[msg.sender] = addressToActiveCredentialCount[msg.sender].add(1);\r\n            emit CredentialFactoryActivity(msg.sender, credentials[_position].credentialTitle, \"SetCredentialIsActive - (Set Active)\");\r\n        } else {\r\n            emit CredentialFactoryActivity(msg.sender, credentials[_position].credentialTitle, \"SetCredentialActive - (FAIL) not CredentialOrg\");\r\n        }\r\n    }\r\n\r\n    /**\r\n    * @dev allows checking of CredentialCount\r\n    */\r\n    function SelectCredentialCount()\r\n    public view\r\n    returns (uint32 returnCredentialCount)\r\n    {\r\n        returnCredentialCount = credentialCount;\r\n        return (returnCredentialCount);\r\n    }\r\n\r\n    /**\r\n    * @dev allows checking of CredentialCount\r\n    */\r\n    function SelectOrgCredentialCount(address _credentialOrgAddress)\r\n    public view\r\n    returns (uint32 returnCredentialCount)\r\n    {\r\n        returnCredentialCount = addressToCredentialCount[_credentialOrgAddress];\r\n        return (returnCredentialCount);\r\n    }\r\n\r\n\r\n    /**\r\n    * @dev allows checking of isActive flag for credential\r\n    * @param _position Credential position in array\r\n    */\r\n    function isCredentialActive(uint _position)\r\n    public view\r\n    returns (bool activeState)\r\n    {\r\n        activeState = false;\r\n        require(_position >= 0);\r\n        if (_position < credentialCount){\r\n            if (credentials[_position].isActive == true){\r\n                activeState = true;\r\n            }\r\n        }\r\n        return (activeState);\r\n    }\r\n}",
  "sourcePath": "C:\\Projects\\CredentialVerify\\contracts\\CredentialFactory.sol",
  "compiler": {
    "name": "solc",
    "version": "0.4.24+commit.e67f0147.Emscripten.clang"
  },
  "schemaVersion": "2.0.1",
  "updatedAt": "2018-08-08T21:54:27.268Z"
}