{
  "contractName": "CredentialOrgFactory",
  "abi": [
    {
      "constant": false,
      "inputs": [],
      "name": "unpause",
      "outputs": [],
      "payable": false,
      "stateMutability": "nonpayable",
      "type": "function"
    },
    {
      "constant": true,
      "inputs": [],
      "name": "paused",
      "outputs": [
        {
          "name": "",
          "type": "bool"
        }
      ],
      "payable": false,
      "stateMutability": "view",
      "type": "function"
    },
    {
      "constant": false,
      "inputs": [],
      "name": "pause",
      "outputs": [],
      "payable": false,
      "stateMutability": "nonpayable",
      "type": "function"
    },
    {
      "constant": true,
      "inputs": [],
      "name": "owner",
      "outputs": [
        {
          "name": "",
          "type": "address"
        }
      ],
      "payable": false,
      "stateMutability": "view",
      "type": "function"
    },
    {
      "constant": false,
      "inputs": [
        {
          "name": "newOwner",
          "type": "address"
        }
      ],
      "name": "transferOwnership",
      "outputs": [],
      "payable": false,
      "stateMutability": "nonpayable",
      "type": "function"
    },
    {
      "inputs": [],
      "payable": false,
      "stateMutability": "nonpayable",
      "type": "constructor"
    },
    {
      "anonymous": false,
      "inputs": [
        {
          "indexed": false,
          "name": "shortName",
          "type": "string"
        },
        {
          "indexed": false,
          "name": "schoolAddress",
          "type": "address"
        },
        {
          "indexed": false,
          "name": "detail",
          "type": "string"
        }
      ],
      "name": "CredentialOrgCreateEvent",
      "type": "event"
    },
    {
      "anonymous": false,
      "inputs": [
        {
          "indexed": false,
          "name": "schoolAddress",
          "type": "address"
        },
        {
          "indexed": false,
          "name": "detail",
          "type": "string"
        }
      ],
      "name": "CredentialOrgEvent",
      "type": "event"
    },
    {
      "anonymous": false,
      "inputs": [],
      "name": "Pause",
      "type": "event"
    },
    {
      "anonymous": false,
      "inputs": [],
      "name": "Unpause",
      "type": "event"
    },
    {
      "anonymous": false,
      "inputs": [
        {
          "indexed": true,
          "name": "previousOwner",
          "type": "address"
        },
        {
          "indexed": true,
          "name": "newOwner",
          "type": "address"
        }
      ],
      "name": "OwnershipTransferred",
      "type": "event"
    },
    {
      "constant": true,
      "inputs": [],
      "name": "getOwner",
      "outputs": [
        {
          "name": "returnedOwner",
          "type": "address"
        }
      ],
      "payable": false,
      "stateMutability": "view",
      "type": "function"
    },
    {
      "constant": false,
      "inputs": [
        {
          "name": "_shortName",
          "type": "string"
        },
        {
          "name": "_officialSchoolName",
          "type": "string"
        },
        {
          "name": "_schoolAddress",
          "type": "address"
        }
      ],
      "name": "createCredentialOrg",
      "outputs": [
        {
          "name": "createStatus",
          "type": "bool"
        }
      ],
      "payable": false,
      "stateMutability": "nonpayable",
      "type": "function"
    },
    {
      "constant": true,
      "inputs": [
        {
          "name": "_credentialOrgPosition",
          "type": "uint32"
        }
      ],
      "name": "selectCredentialOrgByPosition",
      "outputs": [
        {
          "name": "shortName",
          "type": "string"
        },
        {
          "name": "officialSchoolName",
          "type": "string"
        },
        {
          "name": "schoolAddress",
          "type": "address"
        }
      ],
      "payable": false,
      "stateMutability": "view",
      "type": "function"
    },
    {
      "constant": true,
      "inputs": [
        {
          "name": "_credentialOrgAddress",
          "type": "address"
        }
      ],
      "name": "selectCredentialOrgByAddress",
      "outputs": [
        {
          "name": "shortName",
          "type": "string"
        },
        {
          "name": "officialSchoolName",
          "type": "string"
        },
        {
          "name": "schoolAddress",
          "type": "address"
        }
      ],
      "payable": false,
      "stateMutability": "view",
      "type": "function"
    },
    {
      "constant": true,
      "inputs": [
        {
          "name": "_credentialOrgAddress",
          "type": "address"
        }
      ],
      "name": "isCredentialOrg",
      "outputs": [
        {
          "name": "isOrgAddress",
          "type": "bool"
        }
      ],
      "payable": false,
      "stateMutability": "view",
      "type": "function"
    },
    {
      "constant": true,
      "inputs": [],
      "name": "selectOrgCount",
      "outputs": [
        {
          "name": "returnOrgCount",
          "type": "uint32"
        }
      ],
      "payable": false,
      "stateMutability": "view",
      "type": "function"
    }
  ],
  "bytecode": "0x608060405260008060146101000a81548160ff02191690831515021790555034801561002a57600080fd5b50336000806101000a81548173ffffffffffffffffffffffffffffffffffffffff021916908373ffffffffffffffffffffffffffffffffffffffff1602179055506000600260006101000a81548163ffffffff021916908363ffffffff16021790555061201a8061009c6000396000f3006080604052600436106100af576000357c0100000000000000000000000000000000000000000000000000000000900463ffffffff1680633f4ba83a146100b4578063554ee043146100cb5780635c975abb14610102578063722d6fb3146101315780637795e209146102185780638456cb5914610363578063893d20e81461037a5780638da5cb5b146103d1578063bbee2dfe14610428578063e1eaee4214610583578063f2fde38b146105de575b600080fd5b3480156100c057600080fd5b506100c9610621565b005b3480156100d757600080fd5b506100e06106df565b604051808263ffffffff1663ffffffff16815260200191505060405180910390f35b34801561010e57600080fd5b50610117610798565b604051808215151515815260200191505060405180910390f35b34801561013d57600080fd5b506101fe600480360381019080803590602001908201803590602001908080601f0160208091040260200160405190810160405280939291908181526020018383808284378201915050505050509192919290803590602001908201803590602001908080601f0160208091040260200160405190810160405280939291908181526020018383808284378201915050505050509192919290803573ffffffffffffffffffffffffffffffffffffffff1690602001909291905050506107ab565b604051808215151515815260200191505060405180910390f35b34801561022457600080fd5b50610249600480360381019080803563ffffffff169060200190929190505050610f63565b6040518080602001806020018473ffffffffffffffffffffffffffffffffffffffff1673ffffffffffffffffffffffffffffffffffffffff168152602001838103835286818151815260200191508051906020019080838360005b838110156102bf5780820151818401526020810190506102a4565b50505050905090810190601f1680156102ec5780820380516001836020036101000a031916815260200191505b50838103825285818151815260200191508051906020019080838360005b8381101561032557808201518184015260208101905061030a565b50505050905090810190601f1680156103525780820380516001836020036101000a031916815260200191505b509550505050505060405180910390f35b34801561036f57600080fd5b506103786113c8565b005b34801561038657600080fd5b5061038f611488565b604051808273ffffffffffffffffffffffffffffffffffffffff1673ffffffffffffffffffffffffffffffffffffffff16815260200191505060405180910390f35b3480156103dd57600080fd5b506103e66114b4565b604051808273ffffffffffffffffffffffffffffffffffffffff1673ffffffffffffffffffffffffffffffffffffffff16815260200191505060405180910390f35b34801561043457600080fd5b50610469600480360381019080803573ffffffffffffffffffffffffffffffffffffffff1690602001909291905050506114d9565b6040518080602001806020018473ffffffffffffffffffffffffffffffffffffffff1673ffffffffffffffffffffffffffffffffffffffff168152602001838103835286818151815260200191508051906020019080838360005b838110156104df5780820151818401526020810190506104c4565b50505050905090810190601f16801561050c5780820380516001836020036101000a031916815260200191505b50838103825285818151815260200191508051906020019080838360005b8381101561054557808201518184015260208101905061052a565b50505050905090810190601f1680156105725780820380516001836020036101000a031916815260200191505b509550505050505060405180910390f35b34801561058f57600080fd5b506105c4600480360381019080803573ffffffffffffffffffffffffffffffffffffffff169060200190929190505050611982565b604051808215151515815260200191505060405180910390f35b3480156105ea57600080fd5b5061061f600480360381019080803573ffffffffffffffffffffffffffffffffffffffff169060200190929190505050611ce6565b005b6000809054906101000a900473ffffffffffffffffffffffffffffffffffffffff1673ffffffffffffffffffffffffffffffffffffffff163373ffffffffffffffffffffffffffffffffffffffff1614151561067c57600080fd5b600060149054906101000a900460ff16151561069757600080fd5b60008060146101000a81548160ff0219169083151502179055507f7805862f689e2f13df9f062ff482ad3ad112aca9e0847911ed832e158c525b3360405160405180910390a1565b6000600260009054906101000a900463ffffffff1690507f4e21dd52bcce287e8c74281919f77b5fe01a9761789a160d0bc2d8116703142f33604051808273ffffffffffffffffffffffffffffffffffffffff1673ffffffffffffffffffffffffffffffffffffffff168152602001806020018281038252601a8152602001807f73656c6563744f7267436f756e74202d202853554343455353290000000000008152506020019250505060405180910390a180905090565b600060149054906101000a900460ff1681565b6000807f8b0599e042fb4556abd2a977638d7039ecc31b0b99ae4a04957930913a85f326858460405180806020018373ffffffffffffffffffffffffffffffffffffffff1673ffffffffffffffffffffffffffffffffffffffff16815260200180602001838103835285818151815260200191508051906020019080838360005b8381101561084757808201518184015260208101905061082c565b50505050905090810190601f1680156108745780820380516001836020036101000a031916815260200191505b50838103825260118152602001807f4e6577204f72672041646420285052452900000000000000000000000000000081525060200194505050505060405180910390a1600085511180156108c95750601f8551105b1515610963576040517f08c379a00000000000000000000000000000000000000000000000000000000081526004018080602001828103825260258152602001807f63726561746543726564656e7469616c4f72672073686f72744e616d6520707281526020017f6f626c656d00000000000000000000000000000000000000000000000000000081525060400191505060405180910390fd5b60008451118015610975575060468451105b1515610a0f576040517f08c379a00000000000000000000000000000000000000000000000000000000081526004018080602001828103825260348152602001807f63726561746543726564656e7469616c4f7267206f66666963616c5363686f6f81526020017f6c4e616d65206c656e6774682070726f626c656d00000000000000000000000081525060400191505060405180910390fd5b60008373ffffffffffffffffffffffffffffffffffffffff1614151515610ac4576040517f08c379a00000000000000000000000000000000000000000000000000000000081526004018080602001828103825260368152602001807f63726561746543726564656e7469616c4f726720284641494c29207363686f6f81526020017f6c20416464726573732063616e206e6f7420626520300000000000000000000081525060400191505060405180910390fd5b6000915060036060604051908101604052808781526020018681526020018573ffffffffffffffffffffffffffffffffffffffff16815250908060018154018082558091505090600182039060005260206000209060030201600090919290919091506000820151816000019080519060200190610b43929190611e8a565b506020820151816001019080519060200190610b60929190611e8a565b5060408201518160020160006101000a81548173ffffffffffffffffffffffffffffffffffffffff021916908373ffffffffffffffffffffffffffffffffffffffff1602179055505050905060008163ffffffff161115610e4e576003610bd760018363ffffffff16611e3b90919063ffffffff16565b63ffffffff16815481101515610be957fe5b9060005260206000209060030201600160008573ffffffffffffffffffffffffffffffffffffffff1673ffffffffffffffffffffffffffffffffffffffff16815260200190815260200160002060008201816000019080546001816001161561010002031660029004610c5d929190611f0a565b5060018201816001019080546001816001161561010002031660029004610c85929190611f0a565b506002820160009054906101000a900473ffffffffffffffffffffffffffffffffffffffff168160020160006101000a81548173ffffffffffffffffffffffffffffffffffffffff021916908373ffffffffffffffffffffffffffffffffffffffff160217905550905050610d1c6001600260009054906101000a900463ffffffff1663ffffffff16611e6090919063ffffffff16565b600260006101000a81548163ffffffff021916908363ffffffff160217905550600191507f8b0599e042fb4556abd2a977638d7039ecc31b0b99ae4a04957930913a85f326858460405180806020018373ffffffffffffffffffffffffffffffffffffffff1673ffffffffffffffffffffffffffffffffffffffff16815260200180602001838103835285818151815260200191508051906020019080838360005b83811015610dd9578082015181840152602081019050610dbe565b50505050905090810190601f168015610e065780820380516001836020036101000a031916815260200191505b508381038252601d8152602001807f63726561746543726564656e7469616c4f72672028535543434553532900000081525060200194505050505060405180910390a1610f58565b7f8b0599e042fb4556abd2a977638d7039ecc31b0b99ae4a04957930913a85f326858460405180806020018373ffffffffffffffffffffffffffffffffffffffff1673ffffffffffffffffffffffffffffffffffffffff16815260200180602001838103835285818151815260200191508051906020019080838360005b83811015610ee7578082015181840152602081019050610ecc565b50505050905090810190601f168015610f145780820380516001836020036101000a031916815260200191505b508381038252601a8152602001807f63726561746543726564656e7469616c4f726720284641494c2900000000000081525060200194505050505060405180910390a15b819150509392505050565b606080600060206040519081016040528060008152509250602060405190810160405280600081525091506000905060008463ffffffff1610151515611037576040517f08c379a000000000000000000000000000000000000000000000000000000000815260040180806020018281038252603f8152602001807f73656c65637443726564656e7469616c4f7267202d20706f736974696f6e206881526020017f616420746f2062652067726561746572206f7220657175616c20746f20302e0081525060400191505060405180910390fd5b600260009054906101000a900463ffffffff1663ffffffff168463ffffffff1610156112f5577f4e21dd52bcce287e8c74281919f77b5fe01a9761789a160d0bc2d8116703142f33604051808273ffffffffffffffffffffffffffffffffffffffff1673ffffffffffffffffffffffffffffffffffffffff16815260200180602001828103825260288152602001807f73656c65637443726564656e7469616c4f72677e706f736974696f6e202d202881526020017f53554343455353290000000000000000000000000000000000000000000000008152506040019250505060405180910390a160038463ffffffff1681548110151561113457fe5b906000526020600020906003020160000160038563ffffffff1681548110151561115a57fe5b906000526020600020906003020160010160038663ffffffff1681548110151561118057fe5b906000526020600020906003020160020160009054906101000a900473ffffffffffffffffffffffffffffffffffffffff16828054600181600116156101000203166002900480601f0160208091040260200160405190810160405280929190818152602001828054600181600116156101000203166002900480156112475780601f1061121c57610100808354040283529160200191611247565b820191906000526020600020905b81548152906001019060200180831161122a57829003601f168201915b50505050509250818054600181600116156101000203166002900480601f0160208091040260200160405190810160405280929190818152602001828054600181600116156101000203166002900480156112e35780601f106112b8576101008083540402835291602001916112e3565b820191906000526020600020905b8154815290600101906020018083116112c657829003601f168201915b505050505091509250925092506113c1565b7f4e21dd52bcce287e8c74281919f77b5fe01a9761789a160d0bc2d8116703142f33604051808273ffffffffffffffffffffffffffffffffffffffff1673ffffffffffffffffffffffffffffffffffffffff168152602001806020018281038252603b8152602001807f73656c65637443726564656e7469616c4f72677e706f736974696f6e202d202881526020017f4641494c2920746f7020626f756e6472792065786365656465642e00000000008152506040019250505060405180910390a18282829250925092505b9193909250565b6000809054906101000a900473ffffffffffffffffffffffffffffffffffffffff1673ffffffffffffffffffffffffffffffffffffffff163373ffffffffffffffffffffffffffffffffffffffff1614151561142357600080fd5b600060149054906101000a900460ff1615151561143f57600080fd5b6001600060146101000a81548160ff0219169083151502179055507f6985a02210a168e66602d3235cb6db0e70f92b3ba4d376a33c0f3d9434bff62560405160405180910390a1565b60008060009054906101000a900473ffffffffffffffffffffffffffffffffffffffff16905080905090565b6000809054906101000a900473ffffffffffffffffffffffffffffffffffffffff1681565b60608060006114e6611f91565b60008573ffffffffffffffffffffffffffffffffffffffff161415151561159b576040517f08c379a00000000000000000000000000000000000000000000000000000000081526004018080602001828103825260298152602001807f73656c65637443726564656e7469616c4f7267202d204164647265737320302081526020017f6e6f742076616c6964000000000000000000000000000000000000000000000081525060400191505060405180910390fd5b600160008673ffffffffffffffffffffffffffffffffffffffff1673ffffffffffffffffffffffffffffffffffffffff16815260200190815260200160002060606040519081016040529081600082018054600181600116156101000203166002900480601f01602080910402602001604051908101604052809291908181526020018280546001816001161561010002031660029004801561167f5780601f106116545761010080835404028352916020019161167f565b820191906000526020600020905b81548152906001019060200180831161166257829003601f168201915b50505050508152602001600182018054600181600116156101000203166002900480601f0160208091040260200160405190810160405280929190818152602001828054600181600116156101000203166002900480156117215780601f106116f657610100808354040283529160200191611721565b820191906000526020600020905b81548152906001019060200180831161170457829003601f168201915b505050505081526020016002820160009054906101000a900473ffffffffffffffffffffffffffffffffffffffff1673ffffffffffffffffffffffffffffffffffffffff1673ffffffffffffffffffffffffffffffffffffffff168152505090506000816040015173ffffffffffffffffffffffffffffffffffffffff16141515611888577f4e21dd52bcce287e8c74281919f77b5fe01a9761789a160d0bc2d8116703142f85604051808273ffffffffffffffffffffffffffffffffffffffff1673ffffffffffffffffffffffffffffffffffffffff16815260200180602001828103825260278152602001807f73656c65637443726564656e7469616c4f72677e61646472657373202d20285381526020017f55434345535329000000000000000000000000000000000000000000000000008152506040019250505060405180910390a180600001518160200151826040015182925081915093509350935061197a565b7f4e21dd52bcce287e8c74281919f77b5fe01a9761789a160d0bc2d8116703142f85604051808273ffffffffffffffffffffffffffffffffffffffff1673ffffffffffffffffffffffffffffffffffffffff16815260200180602001828103825260248152602001807f73656c65637443726564656e7469616c4f72677e61646472657373202d20284681526020017f41494c29000000000000000000000000000000000000000000000000000000008152506040019250505060405180910390a160006020604051908101604052806000815250906020604051908101604052806000815250908090509350935093505b509193909250565b600061198c611f91565b60009150600160008473ffffffffffffffffffffffffffffffffffffffff1673ffffffffffffffffffffffffffffffffffffffff16815260200190815260200160002060606040519081016040529081600082018054600181600116156101000203166002900480601f016020809104026020016040519081016040528092919081815260200182805460018160011615610100020316600290048015611a745780601f10611a4957610100808354040283529160200191611a74565b820191906000526020600020905b815481529060010190602001808311611a5757829003601f168201915b50505050508152602001600182018054600181600116156101000203166002900480601f016020809104026020016040519081016040528092919081815260200182805460018160011615610100020316600290048015611b165780601f10611aeb57610100808354040283529160200191611b16565b820191906000526020600020905b815481529060010190602001808311611af957829003601f168201915b505050505081526020016002820160009054906101000a900473ffffffffffffffffffffffffffffffffffffffff1673ffffffffffffffffffffffffffffffffffffffff1673ffffffffffffffffffffffffffffffffffffffff168152505090506000816040015173ffffffffffffffffffffffffffffffffffffffff16141515611c4057600191507f4e21dd52bcce287e8c74281919f77b5fe01a9761789a160d0bc2d8116703142f83604051808273ffffffffffffffffffffffffffffffffffffffff1673ffffffffffffffffffffffffffffffffffffffff168152602001806020018281038252601b8152602001807f697343726564656e7469616c4f7267202d2028535543434553532900000000008152506020019250505060405180910390a1611cdd565b7f4e21dd52bcce287e8c74281919f77b5fe01a9761789a160d0bc2d8116703142f83604051808273ffffffffffffffffffffffffffffffffffffffff1673ffffffffffffffffffffffffffffffffffffffff16815260200180602001828103825260188152602001807f697343726564656e7469616c4f7267202d20284641494c2900000000000000008152506020019250505060405180910390a15b81915050919050565b6000809054906101000a900473ffffffffffffffffffffffffffffffffffffffff1673ffffffffffffffffffffffffffffffffffffffff163373ffffffffffffffffffffffffffffffffffffffff16141515611d4157600080fd5b600073ffffffffffffffffffffffffffffffffffffffff168173ffffffffffffffffffffffffffffffffffffffff1614151515611d7d57600080fd5b8073ffffffffffffffffffffffffffffffffffffffff166000809054906101000a900473ffffffffffffffffffffffffffffffffffffffff1673ffffffffffffffffffffffffffffffffffffffff167f8be0079c531659141344cd1fd0a4f28419497f9722a3daafe3b4186f6b6457e060405160405180910390a3806000806101000a81548173ffffffffffffffffffffffffffffffffffffffff021916908373ffffffffffffffffffffffffffffffffffffffff16021790555050565b60008263ffffffff168263ffffffff1611151515611e5557fe5b818303905092915050565b60008082840190508363ffffffff168163ffffffff1610151515611e8057fe5b8091505092915050565b828054600181600116156101000203166002900490600052602060002090601f016020900481019282601f10611ecb57805160ff1916838001178555611ef9565b82800160010185558215611ef9579182015b82811115611ef8578251825591602001919060010190611edd565b5b509050611f069190611fc9565b5090565b828054600181600116156101000203166002900490600052602060002090601f016020900481019282601f10611f435780548555611f80565b82800160010185558215611f8057600052602060002091601f016020900482015b82811115611f7f578254825591600101919060010190611f64565b5b509050611f8d9190611fc9565b5090565b6060604051908101604052806060815260200160608152602001600073ffffffffffffffffffffffffffffffffffffffff1681525090565b611feb91905b80821115611fe7576000816000905550600101611fcf565b5090565b905600a165627a7a7230582066676ec85156b1ffa4777fbdccb85f0d8cd88e4d504e25d2ebd42ab0088b29680029",
  "source": "pragma solidity ^0.4.21;\r\n\r\n/**\r\n * @title CredentialOrgFactory\r\n * @dev The CredentialOrgFactory allows the contract owner to add new credentialing orgs\r\n */\r\nimport \"./Pausable.sol\";\r\nimport \"./SafeMath32.sol\";\r\n\r\ncontract CredentialOrgFactory is Pausable {\r\n\r\n    /**\r\n    *  @dev Library useage for safemath for uint32\r\n    */\r\n    using SafeMath32 for uint32;\r\n\r\n    /**\r\n    * @dev mappings\r\n    */\r\n    mapping(address => CredentialOrg) addressToCredentialOrg;\r\n    \r\n    /**\r\n    * @dev events for contract\r\n    * One for the create CredentialOrg and one for the basic 'logging'.\r\n    */\r\n    event CredentialOrgCreateEvent(string shortName, address schoolAddress, string detail);\r\n    event CredentialOrgEvent(address schoolAddress, string detail);\r\n\r\n    /**\r\n    * @dev CredentialOrg Count\r\n    */\r\n    uint32 private credentialOrgCount;\r\n\r\n    /**\r\n    * @dev Primary CredentialOrg structure, and following array.\r\n    */\r\n    struct CredentialOrg {\r\n        string shortName;          // School shortName (len 30)\r\n        string officialSchoolName; // official school shortName (70 or less)\r\n        address schoolAddress;\r\n    }\r\n    \r\n    CredentialOrg[] private credentialOrgs; // array to hold Credentialing Orgs\r\n    address private contractCheckAddress;\r\n    /**\r\n    * @dev class constructor\r\n    */\r\n    constructor() public {\r\n        credentialOrgCount = 0;\r\n    }\r\n    \r\n    // functions\r\n    /**\r\n    * @dev gets owners address\r\n    * @return returns contractOwners Address\r\n    */\r\n    function getOwner()\r\n    public view\r\n    returns (address returnedOwner)\r\n    {\r\n        returnedOwner = owner;\r\n        return(returnedOwner);\r\n    }\r\n    /**\r\n    * @dev allows owner to create new credentialing orgs\r\n    * @param _shortName shortName of Credentialing orgs\r\n    * @param _officialSchoolName official School Name\r\n    * @param _schoolAddress address of credential org.\r\n    * @return createStatus bool noting creation status success or failure\r\n    */\r\n    function createCredentialOrg(string _shortName, string _officialSchoolName, address _schoolAddress) \r\n    public\r\n    returns (bool createStatus)\r\n    {\r\n        emit CredentialOrgCreateEvent(_shortName, _schoolAddress, \"New Org Add (PRE)\");\r\n        require(bytes(_shortName).length > 0 && bytes(_shortName).length < 31, \"createCredentialOrg shortName problem\");\r\n        require(bytes(_officialSchoolName).length > 0 && bytes(_officialSchoolName).length < 70, \"createCredentialOrg officalSchoolName length problem\");\r\n        require(_schoolAddress != 0, \"createCredentialOrg (FAIL) school Address can not be 0\");\r\n        createStatus = false;\r\n        uint32 position = uint32(credentialOrgs.push(CredentialOrg(_shortName, _officialSchoolName, _schoolAddress)));\r\n        if (position > 0){\r\n            addressToCredentialOrg[_schoolAddress] = credentialOrgs[position.sub(1)];\r\n            credentialOrgCount = credentialOrgCount.add(1);\r\n            createStatus = true;\r\n            emit CredentialOrgCreateEvent(_shortName, _schoolAddress, \"createCredentialOrg (SUCCESS)\");\r\n        } else {\r\n            emit CredentialOrgCreateEvent(_shortName, _schoolAddress, \"createCredentialOrg (FAIL)\");\r\n        }\r\n        return (createStatus);\r\n    }\r\n\r\n    /**\r\n    * @dev allows selection of a credentialingOrg by position\r\n    * @param _credentialOrgPosition allows selection of credentialing orgs details.\r\n    * @return shortName - shortName of Credential Org\r\n    * @return officialSchooName - official school name\r\n    * @return school -the schools ethereum address \r\n    */\r\n    function selectCredentialOrgByPosition(uint32 _credentialOrgPosition) \r\n    public view \r\n    returns (string shortName, string officialSchoolName, address schoolAddress)\r\n    {\r\n        shortName = \"\";\r\n        officialSchoolName = \"\";\r\n        schoolAddress = 0;\r\n        require(_credentialOrgPosition >= 0, \"selectCredentialOrg - position had to be greater or equal to 0.\");\r\n        if (_credentialOrgPosition < credentialOrgCount){\r\n            emit CredentialOrgEvent(msg.sender, \"selectCredentialOrg~position - (SUCCESS)\");\r\n            return (credentialOrgs[_credentialOrgPosition].shortName, credentialOrgs[_credentialOrgPosition].officialSchoolName, credentialOrgs[_credentialOrgPosition].schoolAddress);\r\n        } else {\r\n            emit CredentialOrgEvent(msg.sender, \"selectCredentialOrg~position - (FAIL) top boundry exceeded.\");\r\n            return (shortName, officialSchoolName, schoolAddress);\r\n        }\r\n    }\r\n\r\n    /**\r\n    * @dev allows selection of a credentialingOrg by address\r\n    * @param _credentialOrgAddress allows selection of credentialing orgs details.\r\n    * @return shortName - shortName of Credential Org\r\n    * @return officialSchooName - official school name\r\n    * @return school -the schools ethereum address \r\n    */\r\n    function selectCredentialOrgByAddress(address _credentialOrgAddress) \r\n    public view \r\n    returns (string shortName, string officialSchoolName, address schoolAddress)\r\n    {\r\n        require(_credentialOrgAddress != 0, \"selectCredentialOrg - Address 0 not valid\");\r\n        CredentialOrg memory testCred = addressToCredentialOrg[_credentialOrgAddress];\r\n        if (testCred.schoolAddress != 0){\r\n            emit CredentialOrgEvent(_credentialOrgAddress, \"selectCredentialOrg~address - (SUCCESS)\");\r\n            return (testCred.shortName, testCred.officialSchoolName, testCred.schoolAddress);\r\n        } else {\r\n            emit CredentialOrgEvent(_credentialOrgAddress, \"selectCredentialOrg~address - (FAIL)\");\r\n            return (\"\", \"\", 0);\r\n        }\r\n    }\r\n\r\n    /**\r\n    * @dev allows checking if credentialOrg exists\r\n    * @param _credentialOrgAddress function returns bool if an address is a credentialingOrg\r\n    * @return isAddress returns true if address is Credentialing Org, false if not.\r\n    */\r\n    function isCredentialOrg(address _credentialOrgAddress) \r\n    public view\r\n    returns (bool isOrgAddress)\r\n    {\r\n        isOrgAddress = false;\r\n        CredentialOrg memory testCredentialOrg = addressToCredentialOrg[_credentialOrgAddress];\r\n        if (testCredentialOrg.schoolAddress != 0){\r\n            isOrgAddress = true;\r\n            emit CredentialOrgEvent(_credentialOrgAddress, \"isCredentialOrg - (SUCCESS)\");\r\n        } else {\r\n            emit CredentialOrgEvent(_credentialOrgAddress, \"isCredentialOrg - (FAIL)\");\r\n        }\r\n        return (isOrgAddress);\r\n    }\r\n\r\n    /**\r\n    * @dev returns the credentialOrgCount\r\n    * @return returnOrgCount - returns the total credential orgs count\r\n    */\r\n    function selectOrgCount()\r\n    public view\r\n    returns (uint32 returnOrgCount)\r\n    {\r\n        returnOrgCount = credentialOrgCount;\r\n        emit CredentialOrgEvent(msg.sender, \"selectOrgCount - (SUCCESS)\");\r\n        return (returnOrgCount);\r\n    }\r\n\r\n}",
  "sourcePath": "E:\\Projects\\CredentialVerify\\contracts\\CredentialOrgFactory.sol",
  "compiler": {
    "name": "solc",
    "version": "0.4.24+commit.e67f0147.Emscripten.clang"
  },
  "schemaVersion": "2.0.1",
  "updatedAt": "2018-08-17T16:06:03.296Z"
}