{
  "contractName": "CredentialOrgFactory",
  "abi": [
    {
      "constant": false,
      "inputs": [],
      "name": "unpause",
      "outputs": [],
      "payable": false,
      "stateMutability": "nonpayable",
      "type": "function"
    },
    {
      "constant": true,
      "inputs": [],
      "name": "paused",
      "outputs": [
        {
          "name": "",
          "type": "bool"
        }
      ],
      "payable": false,
      "stateMutability": "view",
      "type": "function"
    },
    {
      "constant": false,
      "inputs": [],
      "name": "pause",
      "outputs": [],
      "payable": false,
      "stateMutability": "nonpayable",
      "type": "function"
    },
    {
      "constant": true,
      "inputs": [],
      "name": "owner",
      "outputs": [
        {
          "name": "",
          "type": "address"
        }
      ],
      "payable": false,
      "stateMutability": "view",
      "type": "function"
    },
    {
      "constant": false,
      "inputs": [
        {
          "name": "newOwner",
          "type": "address"
        }
      ],
      "name": "transferOwnership",
      "outputs": [],
      "payable": false,
      "stateMutability": "nonpayable",
      "type": "function"
    },
    {
      "inputs": [],
      "payable": false,
      "stateMutability": "nonpayable",
      "type": "constructor"
    },
    {
      "anonymous": false,
      "inputs": [
        {
          "indexed": false,
          "name": "shortName",
          "type": "bytes32"
        },
        {
          "indexed": false,
          "name": "schoolAddress",
          "type": "address"
        },
        {
          "indexed": false,
          "name": "detail",
          "type": "string"
        }
      ],
      "name": "NewOrgAdd",
      "type": "event"
    },
    {
      "anonymous": false,
      "inputs": [],
      "name": "Pause",
      "type": "event"
    },
    {
      "anonymous": false,
      "inputs": [],
      "name": "Unpause",
      "type": "event"
    },
    {
      "anonymous": false,
      "inputs": [
        {
          "indexed": true,
          "name": "previousOwner",
          "type": "address"
        },
        {
          "indexed": true,
          "name": "newOwner",
          "type": "address"
        }
      ],
      "name": "OwnershipTransferred",
      "type": "event"
    },
    {
      "constant": false,
      "inputs": [
        {
          "name": "_shortName",
          "type": "bytes32"
        },
        {
          "name": "_schoolAddress",
          "type": "address"
        },
        {
          "name": "_schoolCode",
          "type": "bytes6"
        },
        {
          "name": "_officialSchoolName",
          "type": "string"
        }
      ],
      "name": "createCredentialOrg",
      "outputs": [
        {
          "name": "position",
          "type": "uint256"
        }
      ],
      "payable": false,
      "stateMutability": "nonpayable",
      "type": "function"
    },
    {
      "constant": true,
      "inputs": [
        {
          "name": "_credentialPosition",
          "type": "uint256"
        }
      ],
      "name": "selectCredentialOrg",
      "outputs": [
        {
          "name": "shortName",
          "type": "bytes32"
        },
        {
          "name": "schoolCode",
          "type": "bytes6"
        },
        {
          "name": "officialSchoolName",
          "type": "string"
        },
        {
          "name": "schoolAddress",
          "type": "address"
        }
      ],
      "payable": false,
      "stateMutability": "view",
      "type": "function"
    },
    {
      "constant": true,
      "inputs": [
        {
          "name": "_credentialOrgAddress",
          "type": "address"
        }
      ],
      "name": "isCredentialOrg",
      "outputs": [
        {
          "name": "IsOrgAddress",
          "type": "bool"
        }
      ],
      "payable": false,
      "stateMutability": "view",
      "type": "function"
    },
    {
      "constant": true,
      "inputs": [],
      "name": "selectOrgCount",
      "outputs": [
        {
          "name": "returnOrgCount",
          "type": "uint256"
        }
      ],
      "payable": false,
      "stateMutability": "view",
      "type": "function"
    }
  ],
  "bytecode": "0x608060405260008060146101000a81548160ff0219169083151502179055503480156200002b57600080fd5b50336000806101000a81548173ffffffffffffffffffffffffffffffffffffffff021916908373ffffffffffffffffffffffffffffffffffffffff1602179055506000600381905550620001277f41424300000000000000000000000000000000000000000000000000000000006000809054906101000a900473ffffffffffffffffffffffffffffffffffffffff167f30303030303000000000000000000000000000000000000000000000000000006040805190810160405280601281526020017f426173655265636f7264666f724f776e657200000000000000000000000000008152506200027c640100000000026401000000009004565b50620001ce7f53434300000000000000000000000000000000000000000000000000000000007314723a09acff6d2a60dcdf7aa4aff308fddc160c7f30303337393300000000000000000000000000000000000000000000000000006040805190810160405280601981526020017f53706f6b616e6520436f6d6d756e69747920436f6c6c656765000000000000008152506200027c640100000000026401000000009004565b50620002757f5346434300000000000000000000000000000000000000000000000000000000734b0897b0513fdc7c541b6d9d7e929c4e5364d2db7f30303935343400000000000000000000000000000000000000000000000000006040805190810160405280601f81526020017f53706f6b616e652046616c6c7320436f6d6d756e69747920436f6c6c656765008152506200027c640100000000026401000000009004565b506200075e565b60007fd269155c21749744b1d4aa8db9212a1c95a65f3baa13728e9d0cc0b6433b2cea85856040518083600019166000191681526020018273ffffffffffffffffffffffffffffffffffffffff1673ffffffffffffffffffffffffffffffffffffffff16815260200180602001828103825260118152602001807f4e6577204f726720416464202850524529000000000000000000000000000000815250602001935050505060405180910390a16000602060ff1611801562000356575060008473ffffffffffffffffffffffffffffffffffffffff1614155b801562000366575060068060ff16145b801562000374575060008251115b801562000382575060468251105b15156200038e57600080fd5b6004608060405190810160405280876000191681526020018579ffffffffffffffffffffffffffffffffffffffffffffffffffff191681526020018481526020018673ffffffffffffffffffffffffffffffffffffffff16815250908060018154018082558091505090600182039060005260206000209060040201600090919290919091506000820151816000019060001916905560208201518160010160006101000a81548165ffffffffffff02191690837a01000000000000000000000000000000000000000000000000000090040217905550604082015181600201908051906020019062000483929190620006af565b5060608201518160030160006101000a81548173ffffffffffffffffffffffffffffffffffffffff021916908373ffffffffffffffffffffffffffffffffffffffff1602179055505050905060008111156200063657836001600083815260200190815260200160002060006101000a81548173ffffffffffffffffffffffffffffffffffffffff021916908373ffffffffffffffffffffffffffffffffffffffff16021790555060018103600260008673ffffffffffffffffffffffffffffffffffffffff1673ffffffffffffffffffffffffffffffffffffffff168152602001908152602001600020819055506003600081548092919060010191905055507fd269155c21749744b1d4aa8db9212a1c95a65f3baa13728e9d0cc0b6433b2cea85856040518083600019166000191681526020018273ffffffffffffffffffffffffffffffffffffffff1673ffffffffffffffffffffffffffffffffffffffff16815260200180602001828103825260158152602001807f4e6577204f726720416464202853554343455353290000000000000000000000815250602001935050505060405180910390a1620006a4565b6040517f08c379a00000000000000000000000000000000000000000000000000000000081526004018080602001828103825260128152602001807f4e6577204f72672041646420284641494c29000000000000000000000000000081525060200191505060405180910390fd5b809050949350505050565b828054600181600116156101000203166002900490600052602060002090601f016020900481019282601f10620006f257805160ff191683800117855562000723565b8280016001018555821562000723579182015b828111156200072257825182559160200191906001019062000705565b5b50905062000732919062000736565b5090565b6200075b91905b80821115620007575760008160009055506001016200073d565b5090565b90565b610e8c806200076e6000396000f300608060405260043610610099576000357c0100000000000000000000000000000000000000000000000000000000900463ffffffff1680633f4ba83a1461009e5780634afab74c146100b5578063554ee043146101875780635c975abb146101b25780638456cb59146101e15780638da5cb5b146101f8578063e1eaee421461024f578063f18e49c6146102aa578063f2fde38b146103d3575b600080fd5b3480156100aa57600080fd5b506100b3610416565b005b3480156100c157600080fd5b506101716004803603810190808035600019169060200190929190803573ffffffffffffffffffffffffffffffffffffffff169060200190929190803579ffffffffffffffffffffffffffffffffffffffffffffffffffff19169060200190929190803590602001908201803590602001908080601f01602080910402602001604051908101604052809392919081815260200183838082843782019150505050505091929192905050506104d4565b6040518082815260200191505060405180910390f35b34801561019357600080fd5b5061019c6108fe565b6040518082815260200191505060405180910390f35b3480156101be57600080fd5b506101c761090b565b604051808215151515815260200191505060405180910390f35b3480156101ed57600080fd5b506101f661091e565b005b34801561020457600080fd5b5061020d6109de565b604051808273ffffffffffffffffffffffffffffffffffffffff1673ffffffffffffffffffffffffffffffffffffffff16815260200191505060405180910390f35b34801561025b57600080fd5b50610290600480360381019080803573ffffffffffffffffffffffffffffffffffffffff169060200190929190505050610a03565b604051808215151515815260200191505060405180910390f35b3480156102b657600080fd5b506102d560048036038101908080359060200190929190505050610ace565b6040518085600019166000191681526020018479ffffffffffffffffffffffffffffffffffffffffffffffffffff191679ffffffffffffffffffffffffffffffffffffffffffffffffffff19168152602001806020018373ffffffffffffffffffffffffffffffffffffffff1673ffffffffffffffffffffffffffffffffffffffff168152602001828103825284818151815260200191508051906020019080838360005b8381101561039557808201518184015260208101905061037a565b50505050905090810190601f1680156103c25780820380516001836020036101000a031916815260200191505b509550505050505060405180910390f35b3480156103df57600080fd5b50610414600480360381019080803573ffffffffffffffffffffffffffffffffffffffff169060200190929190505050610c66565b005b6000809054906101000a900473ffffffffffffffffffffffffffffffffffffffff1673ffffffffffffffffffffffffffffffffffffffff163373ffffffffffffffffffffffffffffffffffffffff1614151561047157600080fd5b600060149054906101000a900460ff16151561048c57600080fd5b60008060146101000a81548160ff0219169083151502179055507f7805862f689e2f13df9f062ff482ad3ad112aca9e0847911ed832e158c525b3360405160405180910390a1565b60007fd269155c21749744b1d4aa8db9212a1c95a65f3baa13728e9d0cc0b6433b2cea85856040518083600019166000191681526020018273ffffffffffffffffffffffffffffffffffffffff1673ffffffffffffffffffffffffffffffffffffffff16815260200180602001828103825260118152602001807f4e6577204f726720416464202850524529000000000000000000000000000000815250602001935050505060405180910390a16000602060ff161180156105ad575060008473ffffffffffffffffffffffffffffffffffffffff1614155b80156105bc575060068060ff16145b80156105c9575060008251115b80156105d6575060468251105b15156105e157600080fd5b6004608060405190810160405280876000191681526020018579ffffffffffffffffffffffffffffffffffffffffffffffffffff191681526020018481526020018673ffffffffffffffffffffffffffffffffffffffff16815250908060018154018082558091505090600182039060005260206000209060040201600090919290919091506000820151816000019060001916905560208201518160010160006101000a81548165ffffffffffff02191690837a0100000000000000000000000000000000000000000000000000009004021790555060408201518160020190805190602001906106d4929190610dbb565b5060608201518160030160006101000a81548173ffffffffffffffffffffffffffffffffffffffff021916908373ffffffffffffffffffffffffffffffffffffffff16021790555050509050600081111561088557836001600083815260200190815260200160002060006101000a81548173ffffffffffffffffffffffffffffffffffffffff021916908373ffffffffffffffffffffffffffffffffffffffff16021790555060018103600260008673ffffffffffffffffffffffffffffffffffffffff1673ffffffffffffffffffffffffffffffffffffffff168152602001908152602001600020819055506003600081548092919060010191905055507fd269155c21749744b1d4aa8db9212a1c95a65f3baa13728e9d0cc0b6433b2cea85856040518083600019166000191681526020018273ffffffffffffffffffffffffffffffffffffffff1673ffffffffffffffffffffffffffffffffffffffff16815260200180602001828103825260158152602001807f4e6577204f726720416464202853554343455353290000000000000000000000815250602001935050505060405180910390a16108f3565b6040517f08c379a00000000000000000000000000000000000000000000000000000000081526004018080602001828103825260128152602001807f4e6577204f72672041646420284641494c29000000000000000000000000000081525060200191505060405180910390fd5b809050949350505050565b6000600354905080905090565b600060149054906101000a900460ff1681565b6000809054906101000a900473ffffffffffffffffffffffffffffffffffffffff1673ffffffffffffffffffffffffffffffffffffffff163373ffffffffffffffffffffffffffffffffffffffff1614151561097957600080fd5b600060149054906101000a900460ff1615151561099557600080fd5b6001600060146101000a81548160ff0219169083151502179055507f6985a02210a168e66602d3235cb6db0e70f92b3ba4d376a33c0f3d9434bff62560405160405180910390a1565b6000809054906101000a900473ffffffffffffffffffffffffffffffffffffffff1681565b6000806000915060008373ffffffffffffffffffffffffffffffffffffffff1614151515610a3057600080fd5b600090505b600354811015610ac5578273ffffffffffffffffffffffffffffffffffffffff16600482815481101515610a6557fe5b906000526020600020906004020160030160009054906101000a900473ffffffffffffffffffffffffffffffffffffffff1673ffffffffffffffffffffffffffffffffffffffff161415610ab857600191505b8080600101915050610a35565b81915050919050565b60008060606000808510158015610ae6575060035485105b1515610af157600080fd5b600485815481101515610b0057fe5b906000526020600020906004020160000154600486815481101515610b2157fe5b906000526020600020906004020160010160009054906101000a90047a01000000000000000000000000000000000000000000000000000002600487815481101515610b6957fe5b9060005260206000209060040201600201600488815481101515610b8957fe5b906000526020600020906004020160030160009054906101000a900473ffffffffffffffffffffffffffffffffffffffff16818054600181600116156101000203166002900480601f016020809104026020016040519081016040528092919081815260200182805460018160011615610100020316600290048015610c505780601f10610c2557610100808354040283529160200191610c50565b820191906000526020600020905b815481529060010190602001808311610c3357829003601f168201915b5050505050915093509350935093509193509193565b6000809054906101000a900473ffffffffffffffffffffffffffffffffffffffff1673ffffffffffffffffffffffffffffffffffffffff163373ffffffffffffffffffffffffffffffffffffffff16141515610cc157600080fd5b600073ffffffffffffffffffffffffffffffffffffffff168173ffffffffffffffffffffffffffffffffffffffff1614151515610cfd57600080fd5b8073ffffffffffffffffffffffffffffffffffffffff166000809054906101000a900473ffffffffffffffffffffffffffffffffffffffff1673ffffffffffffffffffffffffffffffffffffffff167f8be0079c531659141344cd1fd0a4f28419497f9722a3daafe3b4186f6b6457e060405160405180910390a3806000806101000a81548173ffffffffffffffffffffffffffffffffffffffff021916908373ffffffffffffffffffffffffffffffffffffffff16021790555050565b828054600181600116156101000203166002900490600052602060002090601f016020900481019282601f10610dfc57805160ff1916838001178555610e2a565b82800160010185558215610e2a579182015b82811115610e29578251825591602001919060010190610e0e565b5b509050610e379190610e3b565b5090565b610e5d91905b80821115610e59576000816000905550600101610e41565b5090565b905600a165627a7a72305820fdfd737ec333c5dd3d52195494545b0b8210629df332aac547df1026790389600029",
  "source": "pragma solidity ^0.4.21;\r\n\r\n/**\r\n * @title CredentialOrgFactory\r\n * @dev The CredentialOrgFactory allows the contract owner to add new credentialing orgs\r\n */\r\nimport \"./Pausable.sol\";\r\nimport \"./SafeMath.sol\";\r\n\r\ncontract CredentialOrgFactory is Pausable {\r\n\r\n    using SafeMath for uint256;\r\n\r\n    mapping(uint => address) orgPositionToAddress;\r\n    mapping(address => uint) addressToOrgPosition;\r\n    \r\n    event NewOrgAdd(bytes32 shortName, address schoolAddress, string detail);\r\n\r\n    uint256 private orgCount;\r\n\r\n    struct CredentialOrg {\r\n        bytes32 shortName;  // School shortName\r\n        bytes6 schoolCode; // Dept of Education \"FICE\" code\r\n        string officialSchoolName; // official school shortName (70 or less)\r\n        address schoolAddress;\r\n    }\r\n    \r\n    modifier onlyBy(address _account){\r\n        uint foundAccount = 0;\r\n        for(uint i = 0; i < orgCount; i++){\r\n            if (msg.sender == orgPositionToAddress[i]){\r\n                foundAccount = 1;\r\n            }\r\n        }\r\n        if (foundAccount == 0) revert(\"Not Authorized\");\r\n        _;\r\n    }\r\n    \r\n    CredentialOrg[] private credentialOrgs; // array to hold Credentialing Orgs\r\n    /**\r\n    * @dev class constructor\r\n    */\r\n    constructor() public {\r\n        orgCount = 0;\r\n        createCredentialOrg(\"ABC\", owner,\"000000\",\"BaseRecordforOwner\");\r\n        createCredentialOrg(\"SCC\",0x14723A09ACff6D2A60DcdF7aA4AFf308FDDC160C,\"003793\",\"Spokane Community College\");\r\n        createCredentialOrg(\"SFCC\",0x4B0897b0513fdC7C541B6d9D7E929C4e5364D2dB, \"009544\",\"Spokane Falls Community College\");\r\n    }\r\n    \r\n    /**\r\n    * @dev allows owner to create new credentialing orgs\r\n    * @param _shortName shortName of Credentialing orgs\r\n    * @param _schoolAddress Credentialling orgAddress\r\n    * @param _schoolCode Credentialing FICE School Code\r\n    * @param _officialSchoolName official School Name\r\n    */\r\n    function createCredentialOrg(bytes32 _shortName, address _schoolAddress, bytes6 _schoolCode, string _officialSchoolName) \r\n    public\r\n    returns (uint256 position)\r\n    {\r\n        emit NewOrgAdd(_shortName, _schoolAddress, \"New Org Add (PRE)\");\r\n        require(_shortName.length > 0 && _schoolAddress != 0 && _schoolCode.length == 6 && bytes(_officialSchoolName).length > 0 && bytes(_officialSchoolName).length < 70);\r\n        position = credentialOrgs.push(CredentialOrg(_shortName, _schoolCode, _officialSchoolName, _schoolAddress));\r\n        if (position > 0){\r\n            orgPositionToAddress[position] = _schoolAddress;\r\n            addressToOrgPosition[_schoolAddress] = position - 1;\r\n            orgCount++;\r\n            emit NewOrgAdd(_shortName, _schoolAddress, \"New Org Add (SUCCESS)\");\r\n        } else {\r\n            revert(\"New Org Add (FAIL)\");\r\n            emit NewOrgAdd(_shortName, _schoolAddress, \"New Org Add (FAIL)\");\r\n        }\r\n        return (position);\r\n    }\r\n    /**\r\n    * @dev allows owner to create new credentialing orgs\r\n    * @param _credentialPosition allows selection of credentialing orgs details.\r\n    */\r\n    function selectCredentialOrg(uint256 _credentialPosition) \r\n    public view\r\n    returns (bytes32 shortName, bytes6 schoolCode, string officialSchoolName, address schoolAddress)\r\n    {\r\n        require(_credentialPosition >= 0 && _credentialPosition < orgCount);\r\n        return (credentialOrgs[_credentialPosition].shortName, credentialOrgs[_credentialPosition].schoolCode, credentialOrgs[_credentialPosition].officialSchoolName, credentialOrgs[_credentialPosition].schoolAddress);\r\n    }\r\n    \r\n    /**\r\n    * @dev allows checking if credentialOrg exists\r\n    * @param _credentialOrgAddress function returns bool if an address is a credentialingOrg\r\n    */\r\n    function isCredentialOrg(address _credentialOrgAddress) \r\n    public view\r\n    returns (bool IsOrgAddress)\r\n    {\r\n        IsOrgAddress = false;\r\n        require(_credentialOrgAddress != 0);\r\n        for (uint256 i = 0; i < orgCount; i++){\r\n            if (credentialOrgs[i].schoolAddress == _credentialOrgAddress){\r\n                IsOrgAddress = true;\r\n            }\r\n        }\r\n        return (IsOrgAddress);\r\n    }\r\n\r\n    /**\r\n    * @dev returns the orgCount\r\n    */\r\n    function selectOrgCount()\r\n    public view\r\n    returns (uint256 returnOrgCount)\r\n    {\r\n        returnOrgCount = orgCount;\r\n        return (returnOrgCount);\r\n    }\r\n\r\n}",
  "sourcePath": "E:\\Projects\\CredentialVerify\\contracts\\CredentialOrgFactory.sol",
  "compiler": {
    "name": "solc",
    "version": "0.4.24+commit.e67f0147.Emscripten.clang"
  },
  "schemaVersion": "2.0.1",
  "updatedAt": "2018-08-06T00:11:31.257Z"
}