{
  "contractName": "CredentialOrgFactory",
  "abi": [
    {
      "constant": true,
      "inputs": [],
      "name": "owner",
      "outputs": [
        {
          "name": "",
          "type": "address"
        }
      ],
      "payable": false,
      "stateMutability": "view",
      "type": "function"
    },
    {
      "constant": false,
      "inputs": [
        {
          "name": "newOwner",
          "type": "address"
        }
      ],
      "name": "transferOwnership",
      "outputs": [],
      "payable": false,
      "stateMutability": "nonpayable",
      "type": "function"
    },
    {
      "inputs": [],
      "payable": false,
      "stateMutability": "nonpayable",
      "type": "constructor"
    },
    {
      "anonymous": false,
      "inputs": [
        {
          "indexed": false,
          "name": "shortName",
          "type": "bytes32"
        },
        {
          "indexed": false,
          "name": "schoolAddress",
          "type": "address"
        },
        {
          "indexed": false,
          "name": "detail",
          "type": "string"
        }
      ],
      "name": "NewOrgAdd",
      "type": "event"
    },
    {
      "anonymous": false,
      "inputs": [
        {
          "indexed": true,
          "name": "previousOwner",
          "type": "address"
        },
        {
          "indexed": true,
          "name": "newOwner",
          "type": "address"
        }
      ],
      "name": "OwnershipTransferred",
      "type": "event"
    },
    {
      "constant": false,
      "inputs": [
        {
          "name": "_shortName",
          "type": "bytes32"
        },
        {
          "name": "_schoolAddress",
          "type": "address"
        },
        {
          "name": "_schoolCode",
          "type": "bytes6"
        },
        {
          "name": "_officialSchoolName",
          "type": "string"
        }
      ],
      "name": "createCredentialOrg",
      "outputs": [
        {
          "name": "position",
          "type": "uint256"
        }
      ],
      "payable": false,
      "stateMutability": "nonpayable",
      "type": "function"
    },
    {
      "constant": true,
      "inputs": [
        {
          "name": "_credentialPosition",
          "type": "uint256"
        }
      ],
      "name": "selectCredentialOrg",
      "outputs": [
        {
          "name": "shortName",
          "type": "bytes32"
        },
        {
          "name": "schoolCode",
          "type": "bytes6"
        },
        {
          "name": "officialSchoolName",
          "type": "string"
        },
        {
          "name": "schoolAddress",
          "type": "address"
        }
      ],
      "payable": false,
      "stateMutability": "view",
      "type": "function"
    },
    {
      "constant": true,
      "inputs": [
        {
          "name": "_credentialOrgAddress",
          "type": "address"
        }
      ],
      "name": "isCredentialOrg",
      "outputs": [
        {
          "name": "IsOrgAddress",
          "type": "bool"
        }
      ],
      "payable": false,
      "stateMutability": "view",
      "type": "function"
    },
    {
      "constant": true,
      "inputs": [],
      "name": "selectOrgCount",
      "outputs": [
        {
          "name": "returnOrgCount",
          "type": "uint256"
        }
      ],
      "payable": false,
      "stateMutability": "view",
      "type": "function"
    }
  ],
  "bytecode": "0x60806040523480156200001157600080fd5b50336000806101000a81548173ffffffffffffffffffffffffffffffffffffffff021916908373ffffffffffffffffffffffffffffffffffffffff16021790555060006003819055506200010d7f41424300000000000000000000000000000000000000000000000000000000006000809054906101000a900473ffffffffffffffffffffffffffffffffffffffff167f30303030303000000000000000000000000000000000000000000000000000006040805190810160405280601281526020017f426173655265636f7264666f724f776e6572000000000000000000000000000081525062000262640100000000026401000000009004565b50620001b47f53434300000000000000000000000000000000000000000000000000000000007314723a09acff6d2a60dcdf7aa4aff308fddc160c7f30303337393300000000000000000000000000000000000000000000000000006040805190810160405280601981526020017f53706f6b616e6520436f6d6d756e69747920436f6c6c6567650000000000000081525062000262640100000000026401000000009004565b506200025b7f5346434300000000000000000000000000000000000000000000000000000000734b0897b0513fdc7c541b6d9d7e929c4e5364d2db7f30303935343400000000000000000000000000000000000000000000000000006040805190810160405280601f81526020017f53706f6b616e652046616c6c7320436f6d6d756e69747920436f6c6c6567650081525062000262640100000000026401000000009004565b5062000738565b60008060009054906101000a900473ffffffffffffffffffffffffffffffffffffffff1673ffffffffffffffffffffffffffffffffffffffff163373ffffffffffffffffffffffffffffffffffffffff16141515620002c057600080fd5b7fd269155c21749744b1d4aa8db9212a1c95a65f3baa13728e9d0cc0b6433b2cea85856040518083600019166000191681526020018273ffffffffffffffffffffffffffffffffffffffff1673ffffffffffffffffffffffffffffffffffffffff16815260200180602001828103825260118152602001807f4e6577204f726720416464202850524529000000000000000000000000000000815250602001935050505060405180910390a16000602060ff1611801562000398575060008473ffffffffffffffffffffffffffffffffffffffff1614155b8015620003a8575060068060ff16145b8015620003b6575060008251115b8015620003c4575060468251105b1515620003d057600080fd5b6004608060405190810160405280876000191681526020018579ffffffffffffffffffffffffffffffffffffffffffffffffffff191681526020018481526020018673ffffffffffffffffffffffffffffffffffffffff16815250908060018154018082558091505090600182039060005260206000209060040201600090919290919091506000820151816000019060001916905560208201518160010160006101000a81548165ffffffffffff02191690837a010000000000000000000000000000000000000000000000000000900402179055506040820151816002019080519060200190620004c592919062000689565b5060608201518160030160006101000a81548173ffffffffffffffffffffffffffffffffffffffff021916908373ffffffffffffffffffffffffffffffffffffffff160217905550505090506000811015156200067957836001600083815260200190815260200160002060006101000a81548173ffffffffffffffffffffffffffffffffffffffff021916908373ffffffffffffffffffffffffffffffffffffffff16021790555060018103600260008673ffffffffffffffffffffffffffffffffffffffff1673ffffffffffffffffffffffffffffffffffffffff168152602001908152602001600020819055506003600081548092919060010191905055507fd269155c21749744b1d4aa8db9212a1c95a65f3baa13728e9d0cc0b6433b2cea85856040518083600019166000191681526020018273ffffffffffffffffffffffffffffffffffffffff1673ffffffffffffffffffffffffffffffffffffffff16815260200180602001828103825260158152602001807f4e6577204f726720416464202853554343455353290000000000000000000000815250602001935050505060405180910390a16200067e565b600080fd5b809050949350505050565b828054600181600116156101000203166002900490600052602060002090601f016020900481019282601f10620006cc57805160ff1916838001178555620006fd565b82800160010185558215620006fd579182015b82811115620006fc578251825591602001919060010190620006df565b5b5090506200070c919062000710565b5090565b6200073591905b808211156200073157600081600090555060010162000717565b5090565b90565b610c7080620007486000396000f300608060405260043610610078576000357c0100000000000000000000000000000000000000000000000000000000900463ffffffff1680634afab74c1461007d578063554ee0431461014f5780638da5cb5b1461017a578063e1eaee42146101d1578063f18e49c61461022c578063f2fde38b14610355575b600080fd5b34801561008957600080fd5b506101396004803603810190808035600019169060200190929190803573ffffffffffffffffffffffffffffffffffffffff169060200190929190803579ffffffffffffffffffffffffffffffffffffffffffffffffffff19169060200190929190803590602001908201803590602001908080601f0160208091040260200160405190810160405280939291908181526020018383808284378201915050505050509192919290505050610398565b6040518082815260200191505060405180910390f35b34801561015b57600080fd5b506101646107b5565b6040518082815260200191505060405180910390f35b34801561018657600080fd5b5061018f6107c2565b604051808273ffffffffffffffffffffffffffffffffffffffff1673ffffffffffffffffffffffffffffffffffffffff16815260200191505060405180910390f35b3480156101dd57600080fd5b50610212600480360381019080803573ffffffffffffffffffffffffffffffffffffffff1690602001909291905050506107e7565b604051808215151515815260200191505060405180910390f35b34801561023857600080fd5b50610257600480360381019080803590602001909291905050506108b2565b6040518085600019166000191681526020018479ffffffffffffffffffffffffffffffffffffffffffffffffffff191679ffffffffffffffffffffffffffffffffffffffffffffffffffff19168152602001806020018373ffffffffffffffffffffffffffffffffffffffff1673ffffffffffffffffffffffffffffffffffffffff168152602001828103825284818151815260200191508051906020019080838360005b838110156103175780820151818401526020810190506102fc565b50505050905090810190601f1680156103445780820380516001836020036101000a031916815260200191505b509550505050505060405180910390f35b34801561036157600080fd5b50610396600480360381019080803573ffffffffffffffffffffffffffffffffffffffff169060200190929190505050610a4a565b005b60008060009054906101000a900473ffffffffffffffffffffffffffffffffffffffff1673ffffffffffffffffffffffffffffffffffffffff163373ffffffffffffffffffffffffffffffffffffffff161415156103f557600080fd5b7fd269155c21749744b1d4aa8db9212a1c95a65f3baa13728e9d0cc0b6433b2cea85856040518083600019166000191681526020018273ffffffffffffffffffffffffffffffffffffffff1673ffffffffffffffffffffffffffffffffffffffff16815260200180602001828103825260118152602001807f4e6577204f726720416464202850524529000000000000000000000000000000815250602001935050505060405180910390a16000602060ff161180156104cc575060008473ffffffffffffffffffffffffffffffffffffffff1614155b80156104db575060068060ff16145b80156104e8575060008251115b80156104f5575060468251105b151561050057600080fd5b6004608060405190810160405280876000191681526020018579ffffffffffffffffffffffffffffffffffffffffffffffffffff191681526020018481526020018673ffffffffffffffffffffffffffffffffffffffff16815250908060018154018082558091505090600182039060005260206000209060040201600090919290919091506000820151816000019060001916905560208201518160010160006101000a81548165ffffffffffff02191690837a0100000000000000000000000000000000000000000000000000009004021790555060408201518160020190805190602001906105f3929190610b9f565b5060608201518160030160006101000a81548173ffffffffffffffffffffffffffffffffffffffff021916908373ffffffffffffffffffffffffffffffffffffffff160217905550505090506000811015156107a557836001600083815260200190815260200160002060006101000a81548173ffffffffffffffffffffffffffffffffffffffff021916908373ffffffffffffffffffffffffffffffffffffffff16021790555060018103600260008673ffffffffffffffffffffffffffffffffffffffff1673ffffffffffffffffffffffffffffffffffffffff168152602001908152602001600020819055506003600081548092919060010191905055507fd269155c21749744b1d4aa8db9212a1c95a65f3baa13728e9d0cc0b6433b2cea85856040518083600019166000191681526020018273ffffffffffffffffffffffffffffffffffffffff1673ffffffffffffffffffffffffffffffffffffffff16815260200180602001828103825260158152602001807f4e6577204f726720416464202853554343455353290000000000000000000000815250602001935050505060405180910390a16107aa565b600080fd5b809050949350505050565b6000600354905080905090565b6000809054906101000a900473ffffffffffffffffffffffffffffffffffffffff1681565b6000806000915060008373ffffffffffffffffffffffffffffffffffffffff161415151561081457600080fd5b600090505b6003548110156108a9578273ffffffffffffffffffffffffffffffffffffffff1660048281548110151561084957fe5b906000526020600020906004020160030160009054906101000a900473ffffffffffffffffffffffffffffffffffffffff1673ffffffffffffffffffffffffffffffffffffffff16141561089c57600191505b8080600101915050610819565b81915050919050565b600080606060008085101580156108ca575060035485105b15156108d557600080fd5b6004858154811015156108e457fe5b90600052602060002090600402016000015460048681548110151561090557fe5b906000526020600020906004020160010160009054906101000a90047a0100000000000000000000000000000000000000000000000000000260048781548110151561094d57fe5b906000526020600020906004020160020160048881548110151561096d57fe5b906000526020600020906004020160030160009054906101000a900473ffffffffffffffffffffffffffffffffffffffff16818054600181600116156101000203166002900480601f016020809104026020016040519081016040528092919081815260200182805460018160011615610100020316600290048015610a345780601f10610a0957610100808354040283529160200191610a34565b820191906000526020600020905b815481529060010190602001808311610a1757829003601f168201915b5050505050915093509350935093509193509193565b6000809054906101000a900473ffffffffffffffffffffffffffffffffffffffff1673ffffffffffffffffffffffffffffffffffffffff163373ffffffffffffffffffffffffffffffffffffffff16141515610aa557600080fd5b600073ffffffffffffffffffffffffffffffffffffffff168173ffffffffffffffffffffffffffffffffffffffff1614151515610ae157600080fd5b8073ffffffffffffffffffffffffffffffffffffffff166000809054906101000a900473ffffffffffffffffffffffffffffffffffffffff1673ffffffffffffffffffffffffffffffffffffffff167f8be0079c531659141344cd1fd0a4f28419497f9722a3daafe3b4186f6b6457e060405160405180910390a3806000806101000a81548173ffffffffffffffffffffffffffffffffffffffff021916908373ffffffffffffffffffffffffffffffffffffffff16021790555050565b828054600181600116156101000203166002900490600052602060002090601f016020900481019282601f10610be057805160ff1916838001178555610c0e565b82800160010185558215610c0e579182015b82811115610c0d578251825591602001919060010190610bf2565b5b509050610c1b9190610c1f565b5090565b610c4191905b80821115610c3d576000816000905550600101610c25565b5090565b905600a165627a7a72305820a43a8c4f63ac83924b00301389de4c7eac7683f5a45f377badd4423248e803180029",
  "source": "pragma solidity ^0.4.21;\r\n/**\r\n * @title CredentialOrgFactory\r\n * @dev The CredentialOrgFactory allows the contract owner to add new credentialing orgs\r\n */\r\nimport \"./Ownable.sol\";\r\n\r\ncontract CredentialOrgFactory is Ownable {\r\n\r\n    mapping(uint => address) orgPositionToAddress;\r\n    mapping(address => uint) addressToOrgPosition;\r\n    \r\n    event NewOrgAdd(bytes32 shortName, address schoolAddress, string detail);\r\n\r\n    uint256 private orgCount;\r\n\r\n    struct CredentialOrg {\r\n        bytes32 shortName;  // School shortName\r\n        bytes6 schoolCode; // Dept of Education \"FICE\" code\r\n        string officialSchoolName; // official school shortName (70 or less)\r\n        address schoolAddress;\r\n    }\r\n    \r\n    modifier onlyBy(address _account){\r\n        uint foundAccount = 0;\r\n        for(uint i = 0; i < orgCount; i++){\r\n            if (msg.sender == orgPositionToAddress[i]){\r\n                foundAccount = 1;\r\n            }\r\n        }\r\n        if (foundAccount == 0) revert();\r\n        _;\r\n    }\r\n    \r\n    CredentialOrg[] private credentialOrgs; // array to hold Credentialing Orgs\r\n    /**\r\n    * @dev class constructor\r\n    */\r\n    constructor() public {\r\n        orgCount = 0;\r\n        createCredentialOrg(\"ABC\", owner,\"000000\",\"BaseRecordforOwner\");\r\n        createCredentialOrg(\"SCC\",0x14723A09ACff6D2A60DcdF7aA4AFf308FDDC160C,\"003793\",\"Spokane Community College\");\r\n        createCredentialOrg(\"SFCC\",0x4B0897b0513fdC7C541B6d9D7E929C4e5364D2dB, \"009544\",\"Spokane Falls Community College\");\r\n    }\r\n    \r\n    /**\r\n    * @dev allows owner to create new credentialing orgs\r\n    * @param _shortName shortName of Credentialing orgs\r\n    * @param _schoolAddress Credentialling orgAddress\r\n    * @param _schoolCode Credentialing FICE School Code\r\n    * @param _officialSchoolName official School Name\r\n    */\r\n    function createCredentialOrg(bytes32 _shortName, address _schoolAddress, bytes6 _schoolCode, string _officialSchoolName) \r\n    onlyOwner public\r\n    returns (uint position)\r\n    {\r\n        emit NewOrgAdd(_shortName, _schoolAddress, \"New Org Add (PRE)\");\r\n        require(_shortName.length > 0 && _schoolAddress != 0 && _schoolCode.length == 6 && bytes(_officialSchoolName).length > 0 && bytes(_officialSchoolName).length < 70);\r\n        position = credentialOrgs.push(CredentialOrg(_shortName, _schoolCode, _officialSchoolName, _schoolAddress));\r\n        if (position >= 0){\r\n            orgPositionToAddress[position] = _schoolAddress;\r\n            addressToOrgPosition[_schoolAddress] = position-1;\r\n            orgCount++;\r\n            emit NewOrgAdd(_shortName, _schoolAddress, \"New Org Add (SUCCESS)\");\r\n        } else {\r\n            revert();\r\n            emit NewOrgAdd(_shortName, _schoolAddress, \"New Org Add (FAIL)\");\r\n        }\r\n        return (position);\r\n    }\r\n    /**\r\n    * @dev allows owner to create new credentialing orgs\r\n    * @param _credentialPosition allows selection of credentialing orgs details.\r\n    */\r\n    function selectCredentialOrg(uint256 _credentialPosition) \r\n    public view\r\n    returns (bytes32 shortName, bytes6 schoolCode, string officialSchoolName, address schoolAddress)\r\n    {\r\n        require(_credentialPosition >= 0 && _credentialPosition < orgCount);\r\n        return (credentialOrgs[_credentialPosition].shortName, credentialOrgs[_credentialPosition].schoolCode, credentialOrgs[_credentialPosition].officialSchoolName, credentialOrgs[_credentialPosition].schoolAddress);\r\n    }\r\n    \r\n    /**\r\n    * @dev allows checking if credentialOrg exists\r\n    * @param _credentialOrgAddress function returns bool if an address is a credentialingOrg\r\n    */\r\n    function isCredentialOrg(address _credentialOrgAddress) \r\n    public view\r\n    returns (bool IsOrgAddress)\r\n    {\r\n        IsOrgAddress = false;\r\n        require(_credentialOrgAddress != 0);\r\n        for (uint256 i = 0; i < orgCount; i++){\r\n            if (credentialOrgs[i].schoolAddress == _credentialOrgAddress){\r\n                IsOrgAddress = true;\r\n            }\r\n        }\r\n        return (IsOrgAddress);\r\n    }\r\n\r\n    /**\r\n    * @dev returns the orgCount\r\n    */\r\n    function selectOrgCount()\r\n    public view\r\n    returns (uint256 returnOrgCount)\r\n    {\r\n        returnOrgCount = orgCount;\r\n        return (returnOrgCount);\r\n    }\r\n\r\n}",
  "sourcePath": "E:\\Projects\\CredentialVerify\\contracts\\CredentialOrgFactory.sol",
  "compiler": {
    "name": "solc",
    "version": "0.4.24+commit.e67f0147.Emscripten.clang"
  },
  "schemaVersion": "2.0.1",
  "updatedAt": "2018-08-05T20:37:25.046Z"
}