{
  "contractName": "ProcessCredentials",
  "abi": [
    {
      "constant": false,
      "inputs": [],
      "name": "unpause",
      "outputs": [],
      "payable": false,
      "stateMutability": "nonpayable",
      "type": "function"
    },
    {
      "constant": true,
      "inputs": [],
      "name": "selectOrgCount",
      "outputs": [
        {
          "name": "returnOrgCount",
          "type": "uint32"
        }
      ],
      "payable": false,
      "stateMutability": "view",
      "type": "function"
    },
    {
      "constant": true,
      "inputs": [],
      "name": "paused",
      "outputs": [
        {
          "name": "",
          "type": "bool"
        }
      ],
      "payable": false,
      "stateMutability": "view",
      "type": "function"
    },
    {
      "constant": true,
      "inputs": [
        {
          "name": "",
          "type": "uint256"
        }
      ],
      "name": "applicants",
      "outputs": [
        {
          "name": "studentAddress",
          "type": "address"
        },
        {
          "name": "collegeAddress",
          "type": "address"
        },
        {
          "name": "SSN",
          "type": "string"
        },
        {
          "name": "collegeStudentID",
          "type": "string"
        },
        {
          "name": "firstName",
          "type": "bytes32"
        },
        {
          "name": "middleName",
          "type": "bytes32"
        },
        {
          "name": "lastName",
          "type": "bytes32"
        },
        {
          "name": "nameSuffix",
          "type": "bytes8"
        },
        {
          "name": "dateOfBirth",
          "type": "bytes8"
        },
        {
          "name": "insertDate",
          "type": "uint256"
        },
        {
          "name": "processDate",
          "type": "uint256"
        }
      ],
      "payable": false,
      "stateMutability": "view",
      "type": "function"
    },
    {
      "constant": true,
      "inputs": [
        {
          "name": "_credentialOrgPosition",
          "type": "uint32"
        }
      ],
      "name": "selectCredentialOrgByPosition",
      "outputs": [
        {
          "name": "shortName",
          "type": "bytes32"
        },
        {
          "name": "schoolCode",
          "type": "bytes6"
        },
        {
          "name": "officialSchoolName",
          "type": "string"
        },
        {
          "name": "schoolAddress",
          "type": "address"
        }
      ],
      "payable": false,
      "stateMutability": "view",
      "type": "function"
    },
    {
      "constant": false,
      "inputs": [],
      "name": "pause",
      "outputs": [],
      "payable": false,
      "stateMutability": "nonpayable",
      "type": "function"
    },
    {
      "constant": false,
      "inputs": [
        {
          "name": "_collegeAddress",
          "type": "address"
        },
        {
          "name": "_SSN",
          "type": "string"
        },
        {
          "name": "_collegeStudentID",
          "type": "string"
        },
        {
          "name": "_firstName",
          "type": "bytes32"
        },
        {
          "name": "_middleName",
          "type": "bytes32"
        },
        {
          "name": "_lastName",
          "type": "bytes32"
        },
        {
          "name": "_nameSuffix",
          "type": "bytes8"
        },
        {
          "name": "_dateOfBirth",
          "type": "bytes8"
        }
      ],
      "name": "createApplicant",
      "outputs": [],
      "payable": false,
      "stateMutability": "nonpayable",
      "type": "function"
    },
    {
      "constant": true,
      "inputs": [],
      "name": "owner",
      "outputs": [
        {
          "name": "",
          "type": "address"
        }
      ],
      "payable": false,
      "stateMutability": "view",
      "type": "function"
    },
    {
      "constant": true,
      "inputs": [
        {
          "name": "_credentialOrgAddress",
          "type": "address"
        }
      ],
      "name": "selectCredentialOrgByAddress",
      "outputs": [
        {
          "name": "shortName",
          "type": "bytes32"
        },
        {
          "name": "schoolCode",
          "type": "bytes6"
        },
        {
          "name": "officialSchoolName",
          "type": "string"
        },
        {
          "name": "schoolAddress",
          "type": "address"
        }
      ],
      "payable": false,
      "stateMutability": "view",
      "type": "function"
    },
    {
      "constant": false,
      "inputs": [
        {
          "name": "_shortName",
          "type": "bytes32"
        },
        {
          "name": "_schoolCode",
          "type": "bytes6"
        },
        {
          "name": "_officialSchoolName",
          "type": "string"
        }
      ],
      "name": "createCredentialOrg",
      "outputs": [
        {
          "name": "position",
          "type": "uint32"
        }
      ],
      "payable": false,
      "stateMutability": "nonpayable",
      "type": "function"
    },
    {
      "constant": true,
      "inputs": [],
      "name": "orgProcessorsCount",
      "outputs": [
        {
          "name": "",
          "type": "uint32"
        }
      ],
      "payable": false,
      "stateMutability": "view",
      "type": "function"
    },
    {
      "constant": true,
      "inputs": [
        {
          "name": "_credentialOrgAddress",
          "type": "address"
        }
      ],
      "name": "isCredentialOrg",
      "outputs": [
        {
          "name": "IsOrgAddress",
          "type": "bool"
        }
      ],
      "payable": false,
      "stateMutability": "view",
      "type": "function"
    },
    {
      "constant": true,
      "inputs": [
        {
          "name": "",
          "type": "uint256"
        }
      ],
      "name": "orgProcessors",
      "outputs": [
        {
          "name": "credentialOrgAddress",
          "type": "address"
        },
        {
          "name": "lastApplicantPosition",
          "type": "uint32"
        }
      ],
      "payable": false,
      "stateMutability": "view",
      "type": "function"
    },
    {
      "constant": false,
      "inputs": [
        {
          "name": "newOwner",
          "type": "address"
        }
      ],
      "name": "transferOwnership",
      "outputs": [],
      "payable": false,
      "stateMutability": "nonpayable",
      "type": "function"
    },
    {
      "constant": true,
      "inputs": [],
      "name": "selectApplicantCount",
      "outputs": [
        {
          "name": "appCount",
          "type": "uint256"
        }
      ],
      "payable": false,
      "stateMutability": "view",
      "type": "function"
    },
    {
      "inputs": [],
      "payable": false,
      "stateMutability": "nonpayable",
      "type": "constructor"
    },
    {
      "anonymous": false,
      "inputs": [
        {
          "indexed": false,
          "name": "ApplicantAddress",
          "type": "address"
        },
        {
          "indexed": false,
          "name": "position",
          "type": "uint32"
        },
        {
          "indexed": false,
          "name": "detail",
          "type": "string"
        }
      ],
      "name": "ProcessApplicant",
      "type": "event"
    },
    {
      "anonymous": false,
      "inputs": [
        {
          "indexed": false,
          "name": "ApplicantAddress",
          "type": "address"
        },
        {
          "indexed": false,
          "name": "position",
          "type": "uint32"
        },
        {
          "indexed": false,
          "name": "detail",
          "type": "string"
        }
      ],
      "name": "NewApplicantAdd",
      "type": "event"
    },
    {
      "anonymous": false,
      "inputs": [
        {
          "indexed": false,
          "name": "shortName",
          "type": "bytes32"
        },
        {
          "indexed": false,
          "name": "schoolAddress",
          "type": "address"
        },
        {
          "indexed": false,
          "name": "detail",
          "type": "string"
        }
      ],
      "name": "CredentialOrgCreateEvent",
      "type": "event"
    },
    {
      "anonymous": false,
      "inputs": [
        {
          "indexed": false,
          "name": "schoolAddress",
          "type": "address"
        },
        {
          "indexed": false,
          "name": "detail",
          "type": "string"
        }
      ],
      "name": "CredentialOrgEvent",
      "type": "event"
    },
    {
      "anonymous": false,
      "inputs": [],
      "name": "Pause",
      "type": "event"
    },
    {
      "anonymous": false,
      "inputs": [],
      "name": "Unpause",
      "type": "event"
    },
    {
      "anonymous": false,
      "inputs": [
        {
          "indexed": true,
          "name": "previousOwner",
          "type": "address"
        },
        {
          "indexed": true,
          "name": "newOwner",
          "type": "address"
        }
      ],
      "name": "OwnershipTransferred",
      "type": "event"
    },
    {
      "constant": false,
      "inputs": [],
      "name": "updateOrgProcessors",
      "outputs": [],
      "payable": false,
      "stateMutability": "nonpayable",
      "type": "function"
    },
    {
      "constant": false,
      "inputs": [
        {
          "name": "_position",
          "type": "uint32"
        }
      ],
      "name": "updateApplicant",
      "outputs": [],
      "payable": false,
      "stateMutability": "nonpayable",
      "type": "function"
    },
    {
      "constant": true,
      "inputs": [
        {
          "name": "_startPosition",
          "type": "uint32"
        }
      ],
      "name": "selectNextApplicantID",
      "outputs": [
        {
          "name": "ID",
          "type": "uint256"
        }
      ],
      "payable": false,
      "stateMutability": "view",
      "type": "function"
    },
    {
      "constant": true,
      "inputs": [
        {
          "name": "_position",
          "type": "uint32"
        }
      ],
      "name": "selectApplicantPartA",
      "outputs": [
        {
          "name": "studentAddress",
          "type": "address"
        },
        {
          "name": "collegeAddress",
          "type": "address"
        },
        {
          "name": "SSN",
          "type": "string"
        },
        {
          "name": "collegeStudentID",
          "type": "string"
        },
        {
          "name": "firstName",
          "type": "bytes32"
        },
        {
          "name": "middleName",
          "type": "bytes32"
        }
      ],
      "payable": false,
      "stateMutability": "view",
      "type": "function"
    },
    {
      "constant": true,
      "inputs": [
        {
          "name": "_position",
          "type": "uint32"
        }
      ],
      "name": "selectApplicantPartB",
      "outputs": [
        {
          "name": "lastName",
          "type": "bytes32"
        },
        {
          "name": "nameSuffix",
          "type": "bytes8"
        },
        {
          "name": "dateOfBirth",
          "type": "bytes8"
        },
        {
          "name": "insertDate",
          "type": "uint256"
        }
      ],
      "payable": false,
      "stateMutability": "view",
      "type": "function"
    },
    {
      "constant": false,
      "inputs": [
        {
          "name": "_position",
          "type": "uint32"
        }
      ],
      "name": "processApplicant",
      "outputs": [],
      "payable": false,
      "stateMutability": "nonpayable",
      "type": "function"
    }
  ],
  "bytecode": "0x608060405260008060146101000a81548160ff0219169083151502179055503480156200002b57600080fd5b50336000806101000a81548173ffffffffffffffffffffffffffffffffffffffff021916908373ffffffffffffffffffffffffffffffffffffffff1602179055506000600360006101000a81548163ffffffff021916908363ffffffff1602179055506200011f7f494e49545245434f5244000000000000000000000000000000000000000000007f30303030303000000000000000000000000000000000000000000000000000006040805190810160405280602081526020017f496e697469616c697a6174696f6e205265636f726420666f72206f776e65722e81525062000150640100000000026401000000009004565b5060006005819055506000600860006101000a81548163ffffffff021916908363ffffffff160217905550620008bd565b60007f6480db5eb12fe3227eace7f150fa46f3a44dfebd8ea96d17acf257d2d2da06a984336040518083600019166000191681526020018273ffffffffffffffffffffffffffffffffffffffff1673ffffffffffffffffffffffffffffffffffffffff16815260200180602001828103825260118152602001807f4e6577204f726720416464202850524529000000000000000000000000000000815250602001935050505060405180910390a16000602060ff161180156200022a575060003373ffffffffffffffffffffffffffffffffffffffff1614155b80156200023a575060068060ff16145b801562000248575060008251115b801562000256575060468251105b15156200026257600080fd5b6004608060405190810160405280866000191681526020018579ffffffffffffffffffffffffffffffffffffffffffffffffffff191681526020018481526020013373ffffffffffffffffffffffffffffffffffffffff16815250908060018154018082558091505090600182039060005260206000209060040201600090919290919091506000820151816000019060001916905560208201518160010160006101000a81548165ffffffffffff02191690837a0100000000000000000000000000000000000000000000000000009004021790555060408201518160020190805190602001906200035792919062000780565b5060608201518160030160006101000a81548173ffffffffffffffffffffffffffffffffffffffff021916908373ffffffffffffffffffffffffffffffffffffffff1602179055505050905060008163ffffffff161115620006b75733600160008363ffffffff1663ffffffff16815260200190815260200160002060006101000a81548173ffffffffffffffffffffffffffffffffffffffff021916908373ffffffffffffffffffffffffffffffffffffffff16021790555060046200043d60018363ffffffff166200072f6401000000000262003611179091906401000000009004565b63ffffffff168154811015156200045057fe5b9060005260206000209060040201600260003373ffffffffffffffffffffffffffffffffffffffff1673ffffffffffffffffffffffffffffffffffffffff168152602001908152602001600020600082015481600001906000191690556001820160009054906101000a90047a010000000000000000000000000000000000000000000000000000028160010160006101000a81548165ffffffffffff02191690837a01000000000000000000000000000000000000000000000000000090040217905550600282018160020190805460018160011615610100020316600290046200053e92919062000807565b506003820160009054906101000a900473ffffffffffffffffffffffffffffffffffffffff168160030160006101000a81548173ffffffffffffffffffffffffffffffffffffffff021916908373ffffffffffffffffffffffffffffffffffffffff160217905550905050620005e56001600360009054906101000a900463ffffffff1663ffffffff16620007556401000000000262003636179091906401000000009004565b600360006101000a81548163ffffffff021916908363ffffffff1602179055507f6480db5eb12fe3227eace7f150fa46f3a44dfebd8ea96d17acf257d2d2da06a984336040518083600019166000191681526020018273ffffffffffffffffffffffffffffffffffffffff1673ffffffffffffffffffffffffffffffffffffffff168152602001806020018281038252601d8152602001807f63726561746543726564656e7469616c4f726720285355434345535329000000815250602001935050505060405180910390a162000725565b6040517f08c379a00000000000000000000000000000000000000000000000000000000081526004018080602001828103825260128152602001807f4e6577204f72672041646420284641494c29000000000000000000000000000081525060200191505060405180910390fd5b8090509392505050565b60008263ffffffff168263ffffffff16111515156200074a57fe5b818303905092915050565b60008082840190508363ffffffff168163ffffffff16101515156200077657fe5b8091505092915050565b828054600181600116156101000203166002900490600052602060002090601f016020900481019282601f10620007c357805160ff1916838001178555620007f4565b82800160010185558215620007f4579182015b82811115620007f3578251825591602001919060010190620007d6565b5b50905062000803919062000895565b5090565b828054600181600116156101000203166002900490600052602060002090601f016020900481019282601f1062000842578054855562000882565b828001600101855582156200088257600052602060002091601f016020900482015b828111156200088157825482559160010191906001019062000864565b5b50905062000891919062000895565b5090565b620008ba91905b80821115620008b65760008160009055506001016200089c565b5090565b90565b6137b880620008cd6000396000f30060806040526004361061011d576000357c0100000000000000000000000000000000000000000000000000000000900463ffffffff168063033ea0811461012257806316a8b9be146101695780633f4ba83a14610305578063554ee0431461031c5780635c975abb1461035357806363de53231461038257806369300cc7146105af5780637795e2091461067f5780638456cb59146107ae57806388ddba6b146107c55780638da5cb5b146109085780639bc3fa951461095f578063bbee2dfe14610992578063c4d707aa14610ad1578063db7acb3b14610ae8578063e0d1fc3914610ba6578063e1eaee4214610bdd578063e523c39614610c38578063ec0d1fdf14610cb8578063f2fde38b14610ceb578063fb997a8914610d2e575b600080fd5b34801561012e57600080fd5b50610153600480360381019080803563ffffffff169060200190929190505050610d59565b6040518082815260200191505060405180910390f35b34801561017557600080fd5b5061019a600480360381019080803563ffffffff169060200190929190505050610f55565b604051808773ffffffffffffffffffffffffffffffffffffffff1673ffffffffffffffffffffffffffffffffffffffff1681526020018673ffffffffffffffffffffffffffffffffffffffff1673ffffffffffffffffffffffffffffffffffffffff168152602001806020018060200185600019166000191681526020018460001916600019168152602001838103835287818151815260200191508051906020019080838360005b8381101561025e578082015181840152602081019050610243565b50505050905090810190601f16801561028b5780820380516001836020036101000a031916815260200191505b50838103825286818151815260200191508051906020019080838360005b838110156102c45780820151818401526020810190506102a9565b50505050905090810190601f1680156102f15780820380516001836020036101000a031916815260200191505b509850505050505050505060405180910390f35b34801561031157600080fd5b5061031a61130e565b005b34801561032857600080fd5b506103316113cc565b604051808263ffffffff1663ffffffff16815260200191505060405180910390f35b34801561035f57600080fd5b50610368611485565b604051808215151515815260200191505060405180910390f35b34801561038e57600080fd5b506103ad60048036038101908080359060200190929190505050611498565b604051808c73ffffffffffffffffffffffffffffffffffffffff1673ffffffffffffffffffffffffffffffffffffffff1681526020018b73ffffffffffffffffffffffffffffffffffffffff1673ffffffffffffffffffffffffffffffffffffffff16815260200180602001806020018a60001916600019168152602001896000191660001916815260200188600019166000191681526020018777ffffffffffffffffffffffffffffffffffffffffffffffff191677ffffffffffffffffffffffffffffffffffffffffffffffff191681526020018677ffffffffffffffffffffffffffffffffffffffffffffffff191677ffffffffffffffffffffffffffffffffffffffffffffffff1916815260200185815260200184815260200183810383528c818151815260200191508051906020019080838360005b838110156105035780820151818401526020810190506104e8565b50505050905090810190601f1680156105305780820380516001836020036101000a031916815260200191505b5083810382528b818151815260200191508051906020019080838360005b8381101561056957808201518184015260208101905061054e565b50505050905090810190601f1680156105965780820380516001836020036101000a031916815260200191505b509d505050505050505050505050505060405180910390f35b3480156105bb57600080fd5b506105e0600480360381019080803563ffffffff1690602001909291905050506116bb565b6040518085600019166000191681526020018477ffffffffffffffffffffffffffffffffffffffffffffffff191677ffffffffffffffffffffffffffffffffffffffffffffffff191681526020018377ffffffffffffffffffffffffffffffffffffffffffffffff191677ffffffffffffffffffffffffffffffffffffffffffffffff1916815260200182815260200194505050505060405180910390f35b34801561068b57600080fd5b506106b0600480360381019080803563ffffffff1690602001909291905050506118f1565b6040518085600019166000191681526020018479ffffffffffffffffffffffffffffffffffffffffffffffffffff191679ffffffffffffffffffffffffffffffffffffffffffffffffffff19168152602001806020018373ffffffffffffffffffffffffffffffffffffffff1673ffffffffffffffffffffffffffffffffffffffff168152602001828103825284818151815260200191508051906020019080838360005b83811015610770578082015181840152602081019050610755565b50505050905090810190601f16801561079d5780820380516001836020036101000a031916815260200191505b509550505050505060405180910390f35b3480156107ba57600080fd5b506107c3611d04565b005b3480156107d157600080fd5b50610906600480360381019080803573ffffffffffffffffffffffffffffffffffffffff169060200190929190803590602001908201803590602001908080601f0160208091040260200160405190810160405280939291908181526020018383808284378201915050505050509192919290803590602001908201803590602001908080601f0160208091040260200160405190810160405280939291908181526020018383808284378201915050505050509192919290803560001916906020019092919080356000191690602001909291908035600019169060200190929190803577ffffffffffffffffffffffffffffffffffffffffffffffff19169060200190929190803577ffffffffffffffffffffffffffffffffffffffffffffffff19169060200190929190505050611dc4565b005b34801561091457600080fd5b5061091d6122f4565b604051808273ffffffffffffffffffffffffffffffffffffffff1673ffffffffffffffffffffffffffffffffffffffff16815260200191505060405180910390f35b34801561096b57600080fd5b50610990600480360381019080803563ffffffff169060200190929190505050612319565b005b34801561099e57600080fd5b506109d3600480360381019080803573ffffffffffffffffffffffffffffffffffffffff1690602001909291905050506124d9565b6040518085600019166000191681526020018479ffffffffffffffffffffffffffffffffffffffffffffffffffff191679ffffffffffffffffffffffffffffffffffffffffffffffffffff19168152602001806020018373ffffffffffffffffffffffffffffffffffffffff1673ffffffffffffffffffffffffffffffffffffffff168152602001828103825284818151815260200191508051906020019080838360005b83811015610a93578082015181840152602081019050610a78565b50505050905090810190601f168015610ac05780820380516001836020036101000a031916815260200191505b509550505050505060405180910390f35b348015610add57600080fd5b50610ae66128d6565b005b348015610af457600080fd5b50610b846004803603810190808035600019169060200190929190803579ffffffffffffffffffffffffffffffffffffffffffffffffffff19169060200190929190803590602001908201803590602001908080601f0160208091040260200160405190810160405280939291908181526020018383808284378201915050505050509192919290505050612b70565b604051808263ffffffff1663ffffffff16815260200191505060405180910390f35b348015610bb257600080fd5b50610bbb613123565b604051808263ffffffff1663ffffffff16815260200191505060405180910390f35b348015610be957600080fd5b50610c1e600480360381019080803573ffffffffffffffffffffffffffffffffffffffff169060200190929190505050613139565b604051808215151515815260200191505060405180910390f35b348015610c4457600080fd5b50610c6360048036038101908080359060200190929190505050613310565b604051808373ffffffffffffffffffffffffffffffffffffffff1673ffffffffffffffffffffffffffffffffffffffff1681526020018263ffffffff1663ffffffff1681526020019250505060405180910390f35b348015610cc457600080fd5b50610ce9600480360381019080803563ffffffff16906020019092919050505061336f565b005b348015610cf757600080fd5b50610d2c600480360381019080803573ffffffffffffffffffffffffffffffffffffffff1690602001909291905050506134af565b005b348015610d3a57600080fd5b50610d43613604565b6040518082815260200191505060405180910390f35b6000806000803360008060009150600260008473ffffffffffffffffffffffffffffffffffffffff1673ffffffffffffffffffffffffffffffffffffffff168152602001908152602001600020905060008160030160009054906101000a900473ffffffffffffffffffffffffffffffffffffffff1673ffffffffffffffffffffffffffffffffffffffff16141515610df157600191505b60008263ffffffff161415610e6e576040517f08c379a000000000000000000000000000000000000000000000000000000000815260040180806020018281038252600e8152602001807f4e6f7420417574686f72697a656400000000000000000000000000000000000081525060200191505060405180910390fd5b60008863ffffffff16118015610e8c57506005548863ffffffff1611155b1515610e9757600080fd5b8763ffffffff16955060009450600093505b84158015610eb957506005548611155b15610f47573373ffffffffffffffffffffffffffffffffffffffff16600687815481101515610ee457fe5b90600052602060002090600a020160010160009054906101000a900473ffffffffffffffffffffffffffffffffffffffff1673ffffffffffffffffffffffffffffffffffffffff161415610f3a57600194508593505b8580600101965050610ea9565b839650505050505050919050565b6000806060806000803360008060009150600260008473ffffffffffffffffffffffffffffffffffffffff1673ffffffffffffffffffffffffffffffffffffffff168152602001908152602001600020905060008160030160009054906101000a900473ffffffffffffffffffffffffffffffffffffffff1673ffffffffffffffffffffffffffffffffffffffff16141515610ff057600191505b60008263ffffffff16141561106d576040517f08c379a000000000000000000000000000000000000000000000000000000000815260040180806020018281038252600e8152602001807f4e6f7420417574686f72697a656400000000000000000000000000000000000081525060200191505060405180910390fd5b60008a63ffffffff1611801561108b57506005548a63ffffffff1611155b151561109657600080fd5b60068a63ffffffff168154811015156110ab57fe5b90600052602060002090600a020160000160009054906101000a900473ffffffffffffffffffffffffffffffffffffffff1660068b63ffffffff168154811015156110f257fe5b90600052602060002090600a020160010160009054906101000a900473ffffffffffffffffffffffffffffffffffffffff1660068c63ffffffff1681548110151561113957fe5b90600052602060002090600a020160020160068d63ffffffff1681548110151561115f57fe5b90600052602060002090600a020160030160068e63ffffffff1681548110151561118557fe5b90600052602060002090600a02016004015460068f63ffffffff168154811015156111ac57fe5b90600052602060002090600a020160050154838054600181600116156101000203166002900480601f0160208091040260200160405190810160405280929190818152602001828054600181600116156101000203166002900480156112535780601f1061122857610100808354040283529160200191611253565b820191906000526020600020905b81548152906001019060200180831161123657829003601f168201915b50505050509350828054600181600116156101000203166002900480601f0160208091040260200160405190810160405280929190818152602001828054600181600116156101000203166002900480156112ef5780601f106112c4576101008083540402835291602001916112ef565b820191906000526020600020905b8154815290600101906020018083116112d257829003601f168201915b5050505050925098509850985098509850985050505091939550919395565b6000809054906101000a900473ffffffffffffffffffffffffffffffffffffffff1673ffffffffffffffffffffffffffffffffffffffff163373ffffffffffffffffffffffffffffffffffffffff1614151561136957600080fd5b600060149054906101000a900460ff16151561138457600080fd5b60008060146101000a81548160ff0219169083151502179055507f7805862f689e2f13df9f062ff482ad3ad112aca9e0847911ed832e158c525b3360405160405180910390a1565b6000600360009054906101000a900463ffffffff1690507f4e21dd52bcce287e8c74281919f77b5fe01a9761789a160d0bc2d8116703142f33604051808273ffffffffffffffffffffffffffffffffffffffff1673ffffffffffffffffffffffffffffffffffffffff168152602001806020018281038252601a8152602001807f73656c6563744f7267436f756e74202d202853554343455353290000000000008152506020019250505060405180910390a180905090565b600060149054906101000a900460ff1681565b6006818154811015156114a757fe5b90600052602060002090600a02016000915090508060000160009054906101000a900473ffffffffffffffffffffffffffffffffffffffff16908060010160009054906101000a900473ffffffffffffffffffffffffffffffffffffffff1690806002018054600181600116156101000203166002900480601f01602080910402602001604051908101604052809291908181526020018280546001816001161561010002031660029004801561159f5780601f106115745761010080835404028352916020019161159f565b820191906000526020600020905b81548152906001019060200180831161158257829003601f168201915b505050505090806003018054600181600116156101000203166002900480601f01602080910402602001604051908101604052809291908181526020018280546001816001161561010002031660029004801561163d5780601f106116125761010080835404028352916020019161163d565b820191906000526020600020905b81548152906001019060200180831161162057829003601f168201915b5050505050908060040154908060050154908060060154908060070160009054906101000a9004780100000000000000000000000000000000000000000000000002908060070160089054906101000a900478010000000000000000000000000000000000000000000000000290806008015490806009015490508b565b6000806000803360008060009150600260008473ffffffffffffffffffffffffffffffffffffffff1673ffffffffffffffffffffffffffffffffffffffff168152602001908152602001600020905060008160030160009054906101000a900473ffffffffffffffffffffffffffffffffffffffff1673ffffffffffffffffffffffffffffffffffffffff1614151561175357600191505b60008263ffffffff1614156117d0576040517f08c379a000000000000000000000000000000000000000000000000000000000815260040180806020018281038252600e8152602001807f4e6f7420417574686f72697a656400000000000000000000000000000000000081525060200191505060405180910390fd5b60008863ffffffff161180156117ee57506005548863ffffffff1611155b15156117f957600080fd5b60068863ffffffff1681548110151561180e57fe5b90600052602060002090600a02016006015460068963ffffffff1681548110151561183557fe5b90600052602060002090600a020160070160009054906101000a900478010000000000000000000000000000000000000000000000000260068a63ffffffff1681548110151561188157fe5b90600052602060002090600a020160070160089054906101000a900478010000000000000000000000000000000000000000000000000260068b63ffffffff168154811015156118cd57fe5b90600052602060002090600a02016008015496509650965096505050509193509193565b6000806060600080935060009250602060405190810160405280600081525091506000905060008563ffffffff16101515156119bb576040517f08c379a000000000000000000000000000000000000000000000000000000000815260040180806020018281038252603f8152602001807f73656c65637443726564656e7469616c4f7267202d20706f736974696f6e206881526020017f616420746f2062652067726561746572206f7220657175616c20746f20302e0081525060400191505060405180910390fd5b600360009054906101000a900463ffffffff1663ffffffff168563ffffffff161015611c2e577f4e21dd52bcce287e8c74281919f77b5fe01a9761789a160d0bc2d8116703142f33604051808273ffffffffffffffffffffffffffffffffffffffff1673ffffffffffffffffffffffffffffffffffffffff16815260200180602001828103825260288152602001807f73656c65637443726564656e7469616c4f72677e706f736974696f6e202d202881526020017f53554343455353290000000000000000000000000000000000000000000000008152506040019250505060405180910390a160048563ffffffff16815481101515611ab857fe5b90600052602060002090600402016000015460048663ffffffff16815481101515611adf57fe5b906000526020600020906004020160010160009054906101000a90047a0100000000000000000000000000000000000000000000000000000260048763ffffffff16815481101515611b2d57fe5b906000526020600020906004020160020160048863ffffffff16815481101515611b5357fe5b906000526020600020906004020160030160009054906101000a900473ffffffffffffffffffffffffffffffffffffffff16818054600181600116156101000203166002900480601f016020809104026020016040519081016040528092919081815260200182805460018160011615610100020316600290048015611c1a5780601f10611bef57610100808354040283529160200191611c1a565b820191906000526020600020905b815481529060010190602001808311611bfd57829003601f168201915b505050505091509350935093509350611cfd565b7f4e21dd52bcce287e8c74281919f77b5fe01a9761789a160d0bc2d8116703142f33604051808273ffffffffffffffffffffffffffffffffffffffff1673ffffffffffffffffffffffffffffffffffffffff168152602001806020018281038252603b8152602001807f73656c65637443726564656e7469616c4f72677e706f736974696f6e202d202881526020017f4641494c2920746f7020626f756e6472792065786365656465642e00000000008152506040019250505060405180910390a18383838393509350935093505b9193509193565b6000809054906101000a900473ffffffffffffffffffffffffffffffffffffffff1673ffffffffffffffffffffffffffffffffffffffff163373ffffffffffffffffffffffffffffffffffffffff16141515611d5f57600080fd5b600060149054906101000a900460ff16151515611d7b57600080fd5b6001600060146101000a81548160ff0219169083151502179055507f6985a02210a168e66602d3235cb6db0e70f92b3ba4d376a33c0f3d9434bff62560405160405180910390a1565b60007f5b2abd2e9bae7a7d7d1c82bca1b3f70cecac8aa00fd5ca126bbaab196e4655e9336000604051808373ffffffffffffffffffffffffffffffffffffffff1673ffffffffffffffffffffffffffffffffffffffff1681526020018263ffffffff16815260200180602001828103825260198152602001807f4e65774170706c6963616e744164642028415454454d50542900000000000000815250602001935050505060405180910390a160003373ffffffffffffffffffffffffffffffffffffffff1614158015611eaf575060008973ffffffffffffffffffffffffffffffffffffffff1614155b8015611ebc575060098851145b8015611ec9575060098751145b8015611ed957506000602060ff16115b8015611ee957506000602060ff16115b1515611ef457600080fd5b6006610160604051908101604052803373ffffffffffffffffffffffffffffffffffffffff1681526020018b73ffffffffffffffffffffffffffffffffffffffff1681526020018a81526020018981526020018860001916815260200187600019168152602001866000191681526020018577ffffffffffffffffffffffffffffffffffffffffffffffff191681526020018477ffffffffffffffffffffffffffffffffffffffffffffffff1916815260200142815260200160008152509080600181540180825580915050906001820390600052602060002090600a02016000909192909190915060008201518160000160006101000a81548173ffffffffffffffffffffffffffffffffffffffff021916908373ffffffffffffffffffffffffffffffffffffffff16021790555060208201518160010160006101000a81548173ffffffffffffffffffffffffffffffffffffffff021916908373ffffffffffffffffffffffffffffffffffffffff1602179055506040820151816002019080519060200190612087929190613660565b5060608201518160030190805190602001906120a4929190613660565b506080820151816004019060001916905560a0820151816005019060001916905560c0820151816006019060001916905560e08201518160070160006101000a81548167ffffffffffffffff02191690837801000000000000000000000000000000000000000000000000900402179055506101008201518160070160086101000a81548167ffffffffffffffff02191690837801000000000000000000000000000000000000000000000000900402179055506101208201518160080155610140820151816009015550509050600081111561223d576005600081548092919060010191905055507f5b2abd2e9bae7a7d7d1c82bca1b3f70cecac8aa00fd5ca126bbaab196e4655e9336000604051808373ffffffffffffffffffffffffffffffffffffffff1673ffffffffffffffffffffffffffffffffffffffff1681526020018263ffffffff16815260200180602001828103825260198152602001807f4e65774170706c6963616e744164642028535543434553532900000000000000815250602001935050505060405180910390a16122e9565b7f5b2abd2e9bae7a7d7d1c82bca1b3f70cecac8aa00fd5ca126bbaab196e4655e9336000604051808373ffffffffffffffffffffffffffffffffffffffff1673ffffffffffffffffffffffffffffffffffffffff1681526020018263ffffffff168152602001806020018281038252601b8152602001807f4e65774170706c6963616e7441646420284641494c2d50555348290000000000815250602001935050505060405180910390a15b505050505050505050565b6000809054906101000a900473ffffffffffffffffffffffffffffffffffffffff1681565b3360008060009150600260008473ffffffffffffffffffffffffffffffffffffffff1673ffffffffffffffffffffffffffffffffffffffff168152602001908152602001600020905060008160030160009054906101000a900473ffffffffffffffffffffffffffffffffffffffff1673ffffffffffffffffffffffffffffffffffffffff161415156123ab57600191505b60008263ffffffff161415612428576040517f08c379a000000000000000000000000000000000000000000000000000000000815260040180806020018281038252600e8152602001807f4e6f7420417574686f72697a656400000000000000000000000000000000000081525060200191505060405180910390fd5b60068463ffffffff1681548110151561243d57fe5b90600052602060002090600a020160010160009054906101000a900473ffffffffffffffffffffffffffffffffffffffff1673ffffffffffffffffffffffffffffffffffffffff163373ffffffffffffffffffffffffffffffffffffffff161415156124a857600080fd5b4260068563ffffffff168154811015156124be57fe5b90600052602060002090600a02016009018190555050505050565b600080606060008060008673ffffffffffffffffffffffffffffffffffffffff1614151515612596576040517f08c379a00000000000000000000000000000000000000000000000000000000081526004018080602001828103825260298152602001807f73656c65637443726564656e7469616c4f7267202d204164647265737320302081526020017f6e6f742076616c6964000000000000000000000000000000000000000000000081525060400191505060405180910390fd5b60009450600093506020604051908101604052806000815250925060009150600260008773ffffffffffffffffffffffffffffffffffffffff1673ffffffffffffffffffffffffffffffffffffffff168152602001908152602001600020905060008160030160009054906101000a900473ffffffffffffffffffffffffffffffffffffffff1673ffffffffffffffffffffffffffffffffffffffff161415156127ff577f4e21dd52bcce287e8c74281919f77b5fe01a9761789a160d0bc2d8116703142f33604051808273ffffffffffffffffffffffffffffffffffffffff1673ffffffffffffffffffffffffffffffffffffffff16815260200180602001828103825260278152602001807f73656c65637443726564656e7469616c4f72677e61646472657373202d20285381526020017f55434345535329000000000000000000000000000000000000000000000000008152506040019250505060405180910390a180600001548160010160009054906101000a90047a01000000000000000000000000000000000000000000000000000002826002018360030160009054906101000a900473ffffffffffffffffffffffffffffffffffffffff16818054600181600116156101000203166002900480601f0160208091040260200160405190810160405280929190818152602001828054600181600116156101000203166002900480156127eb5780601f106127c0576101008083540402835291602001916127eb565b820191906000526020600020905b8154815290600101906020018083116127ce57829003601f168201915b5050505050915094509450945094506128ce565b7f4e21dd52bcce287e8c74281919f77b5fe01a9761789a160d0bc2d8116703142f33604051808273ffffffffffffffffffffffffffffffffffffffff1673ffffffffffffffffffffffffffffffffffffffff16815260200180602001828103825260248152602001807f73656c65637443726564656e7469616c4f72677e61646472657373202d20284681526020017f41494c29000000000000000000000000000000000000000000000000000000008152506040019250505060405180910390a18484848494509450945094505b509193509193565b600080600080600060606000806000809054906101000a900473ffffffffffffffffffffffffffffffffffffffff1673ffffffffffffffffffffffffffffffffffffffff163373ffffffffffffffffffffffffffffffffffffffff1614151561293e57600080fd5b6000975061294a6113cc565b96508663ffffffff16600860009054906101000a900463ffffffff1663ffffffff16141515612b6657600095505b8663ffffffff168663ffffffff161015612b6557600090505b600860009054906101000a900463ffffffff1663ffffffff168163ffffffff161015612a3f5760078163ffffffff168154811015156129cc57fe5b9060005260206000200160000160009054906101000a900473ffffffffffffffffffffffffffffffffffffffff1673ffffffffffffffffffffffffffffffffffffffff168273ffffffffffffffffffffffffffffffffffffffff161415612a3257600197505b8080600101915050612991565b600015158815151415612b5457600760408051908101604052808473ffffffffffffffffffffffffffffffffffffffff168152602001600063ffffffff1681525090806001815401808255809150509060018203906000526020600020016000909192909190915060008201518160000160006101000a81548173ffffffffffffffffffffffffffffffffffffffff021916908373ffffffffffffffffffffffffffffffffffffffff16021790555060208201518160000160146101000a81548163ffffffff021916908363ffffffff1602179055505050506008600081819054906101000a900463ffffffff168092919060010191906101000a81548163ffffffff021916908363ffffffff160217905550505b600097508580600101965050612978565b5b5050505050505050565b60007f6480db5eb12fe3227eace7f150fa46f3a44dfebd8ea96d17acf257d2d2da06a984336040518083600019166000191681526020018273ffffffffffffffffffffffffffffffffffffffff1673ffffffffffffffffffffffffffffffffffffffff16815260200180602001828103825260118152602001807f4e6577204f726720416464202850524529000000000000000000000000000000815250602001935050505060405180910390a16000602060ff16118015612c49575060003373ffffffffffffffffffffffffffffffffffffffff1614155b8015612c58575060068060ff16145b8015612c65575060008251115b8015612c72575060468251105b1515612c7d57600080fd5b6004608060405190810160405280866000191681526020018579ffffffffffffffffffffffffffffffffffffffffffffffffffff191681526020018481526020013373ffffffffffffffffffffffffffffffffffffffff16815250908060018154018082558091505090600182039060005260206000209060040201600090919290919091506000820151816000019060001916905560208201518160010160006101000a81548165ffffffffffff02191690837a010000000000000000000000000000000000000000000000000000900402179055506040820151816002019080519060200190612d70929190613660565b5060608201518160030160006101000a81548173ffffffffffffffffffffffffffffffffffffffff021916908373ffffffffffffffffffffffffffffffffffffffff1602179055505050905060008163ffffffff1611156130ab5733600160008363ffffffff1663ffffffff16815260200190815260200160002060006101000a81548173ffffffffffffffffffffffffffffffffffffffff021916908373ffffffffffffffffffffffffffffffffffffffff1602179055506004612e4560018363ffffffff1661361190919063ffffffff16565b63ffffffff16815481101515612e5757fe5b9060005260206000209060040201600260003373ffffffffffffffffffffffffffffffffffffffff1673ffffffffffffffffffffffffffffffffffffffff168152602001908152602001600020600082015481600001906000191690556001820160009054906101000a90047a010000000000000000000000000000000000000000000000000000028160010160006101000a81548165ffffffffffff02191690837a0100000000000000000000000000000000000000000000000000009004021790555060028201816002019080546001816001161561010002031660029004612f439291906136e0565b506003820160009054906101000a900473ffffffffffffffffffffffffffffffffffffffff168160030160006101000a81548173ffffffffffffffffffffffffffffffffffffffff021916908373ffffffffffffffffffffffffffffffffffffffff160217905550905050612fda6001600360009054906101000a900463ffffffff1663ffffffff1661363690919063ffffffff16565b600360006101000a81548163ffffffff021916908363ffffffff1602179055507f6480db5eb12fe3227eace7f150fa46f3a44dfebd8ea96d17acf257d2d2da06a984336040518083600019166000191681526020018273ffffffffffffffffffffffffffffffffffffffff1673ffffffffffffffffffffffffffffffffffffffff168152602001806020018281038252601d8152602001807f63726561746543726564656e7469616c4f726720285355434345535329000000815250602001935050505060405180910390a1613119565b6040517f08c379a00000000000000000000000000000000000000000000000000000000081526004018080602001828103825260128152602001807f4e6577204f72672041646420284641494c29000000000000000000000000000081525060200191505060405180910390fd5b8090509392505050565b600860009054906101000a900463ffffffff1681565b60008060009150600260008473ffffffffffffffffffffffffffffffffffffffff1673ffffffffffffffffffffffffffffffffffffffff168152602001908152602001600020905060008160030160009054906101000a900473ffffffffffffffffffffffffffffffffffffffff1673ffffffffffffffffffffffffffffffffffffffff1614151561326a57600191507f4e21dd52bcce287e8c74281919f77b5fe01a9761789a160d0bc2d8116703142f33604051808273ffffffffffffffffffffffffffffffffffffffff1673ffffffffffffffffffffffffffffffffffffffff168152602001806020018281038252601b8152602001807f697343726564656e7469616c4f7267202d2028535543434553532900000000008152506020019250505060405180910390a1613307565b7f4e21dd52bcce287e8c74281919f77b5fe01a9761789a160d0bc2d8116703142f33604051808273ffffffffffffffffffffffffffffffffffffffff1673ffffffffffffffffffffffffffffffffffffffff16815260200180602001828103825260188152602001807f697343726564656e7469616c4f7267202d20284641494c2900000000000000008152506020019250505060405180910390a15b81915050919050565b60078181548110151561331f57fe5b906000526020600020016000915090508060000160009054906101000a900473ffffffffffffffffffffffffffffffffffffffff16908060000160149054906101000a900463ffffffff16905082565b3360008060009150600260008473ffffffffffffffffffffffffffffffffffffffff1673ffffffffffffffffffffffffffffffffffffffff168152602001908152602001600020905060008160030160009054906101000a900473ffffffffffffffffffffffffffffffffffffffff1673ffffffffffffffffffffffffffffffffffffffff1614151561340157600191505b60008263ffffffff16141561347e576040517f08c379a000000000000000000000000000000000000000000000000000000000815260040180806020018281038252600e8152602001807f4e6f7420417574686f72697a656400000000000000000000000000000000000081525060200191505060405180910390fd5b4260068563ffffffff1681548110151561349457fe5b90600052602060002090600a02016009018190555050505050565b6000809054906101000a900473ffffffffffffffffffffffffffffffffffffffff1673ffffffffffffffffffffffffffffffffffffffff163373ffffffffffffffffffffffffffffffffffffffff1614151561350a57600080fd5b600073ffffffffffffffffffffffffffffffffffffffff168173ffffffffffffffffffffffffffffffffffffffff161415151561354657600080fd5b8073ffffffffffffffffffffffffffffffffffffffff166000809054906101000a900473ffffffffffffffffffffffffffffffffffffffff1673ffffffffffffffffffffffffffffffffffffffff167f8be0079c531659141344cd1fd0a4f28419497f9722a3daafe3b4186f6b6457e060405160405180910390a3806000806101000a81548173ffffffffffffffffffffffffffffffffffffffff021916908373ffffffffffffffffffffffffffffffffffffffff16021790555050565b6000600554905080905090565b60008263ffffffff168263ffffffff161115151561362b57fe5b818303905092915050565b60008082840190508363ffffffff168163ffffffff161015151561365657fe5b8091505092915050565b828054600181600116156101000203166002900490600052602060002090601f016020900481019282601f106136a157805160ff19168380011785556136cf565b828001600101855582156136cf579182015b828111156136ce5782518255916020019190600101906136b3565b5b5090506136dc9190613767565b5090565b828054600181600116156101000203166002900490600052602060002090601f016020900481019282601f106137195780548555613756565b8280016001018555821561375657600052602060002091601f016020900482015b8281111561375557825482559160010191906001019061373a565b5b5090506137639190613767565b5090565b61378991905b8082111561378557600081600090555060010161376d565b5090565b905600a165627a7a72305820436152cd5241b9ce36ef5a9cfd3dcdde8ad7800d680e6d6568265abae87169e30029",
  "source": "pragma solidity ^0.4.21;\r\n/**\r\n * @title ProcessCredentials\r\n * @dev The ProcessCredentials allows the contract owner to process and write out credentials.\r\n */\r\nimport \"./ApplicantFactory.sol\";\r\nimport \"./CredentialOrgFactory.sol\";\r\n\r\ncontract ProcessCredentials is CredentialOrgFactory, ApplicantFactory {\r\n    \r\n    // mappings\r\n    \r\n    // events\r\n    event ProcessApplicant(address ApplicantAddress, uint32 position, string detail);\r\n\r\n    // structs\r\n    struct OrgProcessor{\r\n        address credentialOrgAddress;\r\n        uint32 lastApplicantPosition;\r\n    }    \r\n    \r\n    OrgProcessor[] public orgProcessors;\r\n    \r\n    uint32 public orgProcessorsCount;\r\n    \r\n    // constructor\r\n    constructor () public {\r\n        orgProcessorsCount = 0;\r\n    }\r\n    \r\n    // functions\r\n    function updateOrgProcessors() public onlyOwner {\r\n        bool found = false;\r\n        uint32 localOrgCount = selectOrgCount();\r\n        if (orgProcessorsCount != localOrgCount){\r\n            for(uint32 i=0; i < localOrgCount; i++){\r\n                bytes32 shortName;\r\n                bytes6 schoolCode;\r\n                string memory officialSchoolName;\r\n                address schoolAddress;\r\n                for (uint32 j=0; j < orgProcessorsCount; j++){\r\n                    //(shortName, schoolCode, officialSchoolName, schoolAddress) = selectCredentialOrg(i);\r\n                    if (schoolAddress == orgProcessors[j].credentialOrgAddress){\r\n                        found = true;\r\n                    }\r\n                }            \r\n                if (found == false){\r\n                    orgProcessors.push(OrgProcessor(schoolAddress,0));\r\n                    orgProcessorsCount++;\r\n                }\r\n                found = false;\r\n            }\r\n        }\r\n    }\r\n\r\n    function updateApplicant(uint32 _position) public onlyBy(msg.sender) {\r\n        require(msg.sender == applicants[_position].collegeAddress);\r\n        applicants[_position].processDate = block.timestamp;\r\n    }\r\n    \r\n    \r\n    function selectNextApplicantID(uint32 _startPosition) public view onlyBy(msg.sender) returns (uint ID){\r\n        require(_startPosition > 0 && _startPosition <= applicantCount);\r\n        uint startPosition = _startPosition;\r\n        bool foundRec = false;\r\n        uint foundPosition = 0;\r\n        while (!foundRec && startPosition <= applicantCount){\r\n            if (applicants[startPosition].collegeAddress == msg.sender){\r\n                foundRec = true;\r\n                foundPosition = startPosition;\r\n            }\r\n            startPosition++;\r\n        }\r\n        return (foundPosition);\r\n    }\r\n    \r\n    function selectApplicantPartA(uint32 _position) public view onlyBy(msg.sender) returns (address studentAddress, address collegeAddress, string SSN, string collegeStudentID, bytes32 firstName, bytes32 middleName){\r\n        require(_position > 0 && _position <= applicantCount);\r\n        return (applicants[_position].studentAddress, applicants[_position].collegeAddress, applicants[_position].SSN, applicants[_position].collegeStudentID, applicants[_position].firstName, applicants[_position].middleName);\r\n    }\r\n\r\n    function selectApplicantPartB(uint32 _position) public view onlyBy(msg.sender) returns (bytes32 lastName, bytes8 nameSuffix, bytes8 dateOfBirth, uint insertDate){\r\n        require(_position > 0 && _position <= applicantCount);\r\n        return (applicants[_position].lastName, applicants[_position].nameSuffix, applicants[_position].dateOfBirth, applicants[_position].insertDate);\r\n    }\r\n\r\n    function processApplicant(uint32 _position) public onlyBy(msg.sender) {\r\n        applicants[_position].processDate = block.timestamp;\r\n    }\r\n}",
  "sourcePath": "E:\\Projects\\CredentialVerify\\contracts\\ProcessCredentials.sol",
  "compiler": {
    "name": "solc",
    "version": "0.4.24+commit.e67f0147.Emscripten.clang"
  },
  "schemaVersion": "2.0.1",
  "updatedAt": "2018-08-09T03:03:24.072Z"
}