{
  "contractName": "ProcessCredentials",
  "abi": [
    {
      "constant": false,
      "inputs": [],
      "name": "unpause",
      "outputs": [],
      "payable": false,
      "stateMutability": "nonpayable",
      "type": "function"
    },
    {
      "constant": false,
      "inputs": [
        {
          "name": "_shortName",
          "type": "bytes32"
        },
        {
          "name": "_schoolAddress",
          "type": "address"
        },
        {
          "name": "_schoolCode",
          "type": "bytes6"
        },
        {
          "name": "_officialSchoolName",
          "type": "string"
        }
      ],
      "name": "createCredentialOrg",
      "outputs": [
        {
          "name": "position",
          "type": "uint32"
        }
      ],
      "payable": false,
      "stateMutability": "nonpayable",
      "type": "function"
    },
    {
      "constant": true,
      "inputs": [],
      "name": "selectOrgCount",
      "outputs": [
        {
          "name": "returnOrgCount",
          "type": "uint32"
        }
      ],
      "payable": false,
      "stateMutability": "view",
      "type": "function"
    },
    {
      "constant": true,
      "inputs": [],
      "name": "paused",
      "outputs": [
        {
          "name": "",
          "type": "bool"
        }
      ],
      "payable": false,
      "stateMutability": "view",
      "type": "function"
    },
    {
      "constant": true,
      "inputs": [
        {
          "name": "",
          "type": "uint256"
        }
      ],
      "name": "applicants",
      "outputs": [
        {
          "name": "studentAddress",
          "type": "address"
        },
        {
          "name": "collegeAddress",
          "type": "address"
        },
        {
          "name": "SSN",
          "type": "string"
        },
        {
          "name": "collegeStudentID",
          "type": "string"
        },
        {
          "name": "firstName",
          "type": "bytes32"
        },
        {
          "name": "middleName",
          "type": "bytes32"
        },
        {
          "name": "lastName",
          "type": "bytes32"
        },
        {
          "name": "nameSuffix",
          "type": "bytes8"
        },
        {
          "name": "dateOfBirth",
          "type": "bytes8"
        },
        {
          "name": "insertDate",
          "type": "uint256"
        },
        {
          "name": "processDate",
          "type": "uint256"
        }
      ],
      "payable": false,
      "stateMutability": "view",
      "type": "function"
    },
    {
      "constant": false,
      "inputs": [],
      "name": "pause",
      "outputs": [],
      "payable": false,
      "stateMutability": "nonpayable",
      "type": "function"
    },
    {
      "constant": false,
      "inputs": [
        {
          "name": "_collegeAddress",
          "type": "address"
        },
        {
          "name": "_SSN",
          "type": "string"
        },
        {
          "name": "_collegeStudentID",
          "type": "string"
        },
        {
          "name": "_firstName",
          "type": "bytes32"
        },
        {
          "name": "_middleName",
          "type": "bytes32"
        },
        {
          "name": "_lastName",
          "type": "bytes32"
        },
        {
          "name": "_nameSuffix",
          "type": "bytes8"
        },
        {
          "name": "_dateOfBirth",
          "type": "bytes8"
        }
      ],
      "name": "createApplicant",
      "outputs": [],
      "payable": false,
      "stateMutability": "nonpayable",
      "type": "function"
    },
    {
      "constant": true,
      "inputs": [],
      "name": "owner",
      "outputs": [
        {
          "name": "",
          "type": "address"
        }
      ],
      "payable": false,
      "stateMutability": "view",
      "type": "function"
    },
    {
      "constant": true,
      "inputs": [
        {
          "name": "_credentialOrgPosition",
          "type": "uint32"
        }
      ],
      "name": "selectCredentialOrg",
      "outputs": [
        {
          "name": "shortName",
          "type": "bytes32"
        },
        {
          "name": "schoolCode",
          "type": "bytes6"
        },
        {
          "name": "officialSchoolName",
          "type": "string"
        },
        {
          "name": "schoolAddress",
          "type": "address"
        }
      ],
      "payable": false,
      "stateMutability": "view",
      "type": "function"
    },
    {
      "constant": true,
      "inputs": [],
      "name": "orgProcessorsCount",
      "outputs": [
        {
          "name": "",
          "type": "uint32"
        }
      ],
      "payable": false,
      "stateMutability": "view",
      "type": "function"
    },
    {
      "constant": true,
      "inputs": [
        {
          "name": "_credentialOrgAddress",
          "type": "address"
        }
      ],
      "name": "isCredentialOrg",
      "outputs": [
        {
          "name": "IsOrgAddress",
          "type": "bool"
        }
      ],
      "payable": false,
      "stateMutability": "view",
      "type": "function"
    },
    {
      "constant": true,
      "inputs": [
        {
          "name": "",
          "type": "uint256"
        }
      ],
      "name": "orgProcessors",
      "outputs": [
        {
          "name": "credentialOrgAddress",
          "type": "address"
        },
        {
          "name": "lastApplicantPosition",
          "type": "uint32"
        }
      ],
      "payable": false,
      "stateMutability": "view",
      "type": "function"
    },
    {
      "constant": false,
      "inputs": [
        {
          "name": "newOwner",
          "type": "address"
        }
      ],
      "name": "transferOwnership",
      "outputs": [],
      "payable": false,
      "stateMutability": "nonpayable",
      "type": "function"
    },
    {
      "constant": true,
      "inputs": [],
      "name": "selectApplicantCount",
      "outputs": [
        {
          "name": "appCount",
          "type": "uint256"
        }
      ],
      "payable": false,
      "stateMutability": "view",
      "type": "function"
    },
    {
      "inputs": [],
      "payable": false,
      "stateMutability": "nonpayable",
      "type": "constructor"
    },
    {
      "anonymous": false,
      "inputs": [
        {
          "indexed": false,
          "name": "ApplicantAddress",
          "type": "address"
        },
        {
          "indexed": false,
          "name": "position",
          "type": "uint32"
        },
        {
          "indexed": false,
          "name": "detail",
          "type": "string"
        }
      ],
      "name": "ProcessApplicant",
      "type": "event"
    },
    {
      "anonymous": false,
      "inputs": [
        {
          "indexed": false,
          "name": "ApplicantAddress",
          "type": "address"
        },
        {
          "indexed": false,
          "name": "position",
          "type": "uint32"
        },
        {
          "indexed": false,
          "name": "detail",
          "type": "string"
        }
      ],
      "name": "NewApplicantAdd",
      "type": "event"
    },
    {
      "anonymous": false,
      "inputs": [
        {
          "indexed": false,
          "name": "shortName",
          "type": "bytes32"
        },
        {
          "indexed": false,
          "name": "schoolAddress",
          "type": "address"
        },
        {
          "indexed": false,
          "name": "detail",
          "type": "string"
        }
      ],
      "name": "NewOrgAdd",
      "type": "event"
    },
    {
      "anonymous": false,
      "inputs": [],
      "name": "Pause",
      "type": "event"
    },
    {
      "anonymous": false,
      "inputs": [],
      "name": "Unpause",
      "type": "event"
    },
    {
      "anonymous": false,
      "inputs": [
        {
          "indexed": true,
          "name": "previousOwner",
          "type": "address"
        },
        {
          "indexed": true,
          "name": "newOwner",
          "type": "address"
        }
      ],
      "name": "OwnershipTransferred",
      "type": "event"
    },
    {
      "constant": false,
      "inputs": [],
      "name": "updateOrgProcessors",
      "outputs": [],
      "payable": false,
      "stateMutability": "nonpayable",
      "type": "function"
    },
    {
      "constant": false,
      "inputs": [
        {
          "name": "_position",
          "type": "uint32"
        }
      ],
      "name": "updateApplicant",
      "outputs": [],
      "payable": false,
      "stateMutability": "nonpayable",
      "type": "function"
    },
    {
      "constant": true,
      "inputs": [
        {
          "name": "_startPosition",
          "type": "uint32"
        }
      ],
      "name": "selectNextApplicantID",
      "outputs": [
        {
          "name": "ID",
          "type": "uint256"
        }
      ],
      "payable": false,
      "stateMutability": "view",
      "type": "function"
    },
    {
      "constant": true,
      "inputs": [
        {
          "name": "_position",
          "type": "uint32"
        }
      ],
      "name": "selectApplicantPartA",
      "outputs": [
        {
          "name": "studentAddress",
          "type": "address"
        },
        {
          "name": "collegeAddress",
          "type": "address"
        },
        {
          "name": "SSN",
          "type": "string"
        },
        {
          "name": "collegeStudentID",
          "type": "string"
        },
        {
          "name": "firstName",
          "type": "bytes32"
        },
        {
          "name": "middleName",
          "type": "bytes32"
        }
      ],
      "payable": false,
      "stateMutability": "view",
      "type": "function"
    },
    {
      "constant": true,
      "inputs": [
        {
          "name": "_position",
          "type": "uint32"
        }
      ],
      "name": "selectApplicantPartB",
      "outputs": [
        {
          "name": "lastName",
          "type": "bytes32"
        },
        {
          "name": "nameSuffix",
          "type": "bytes8"
        },
        {
          "name": "dateOfBirth",
          "type": "bytes8"
        },
        {
          "name": "insertDate",
          "type": "uint256"
        }
      ],
      "payable": false,
      "stateMutability": "view",
      "type": "function"
    },
    {
      "constant": false,
      "inputs": [
        {
          "name": "_position",
          "type": "uint32"
        }
      ],
      "name": "processApplicant",
      "outputs": [],
      "payable": false,
      "stateMutability": "nonpayable",
      "type": "function"
    }
  ],
  "bytecode": "0x608060405260008060146101000a81548160ff0219169083151502179055503480156200002b57600080fd5b50336000806101000a81548173ffffffffffffffffffffffffffffffffffffffff021916908373ffffffffffffffffffffffffffffffffffffffff1602179055506000600360006101000a81548163ffffffff021916908363ffffffff160217905550620001417f494e49545245434f5244000000000000000000000000000000000000000000006000809054906101000a900473ffffffffffffffffffffffffffffffffffffffff167f30303030303000000000000000000000000000000000000000000000000000006040805190810160405280602081526020017f496e697469616c697a6174696f6e205265636f726420666f72206f776e65722e81525062000219640100000000026401000000009004565b50620001e87f4243440000000000000000000000000000000000000000000000000000000000735a186b7fec36909678211f69beb67ec3b1e4ffbb7f30303030303000000000000000000000000000000000000000000000000000006040805190810160405280601881526020017f20426173655265636f7264466f72204163636f756e742041000000000000000081525062000219640100000000026401000000009004565b5060006005819055506000600860006101000a81548163ffffffff021916908363ffffffff160217905550620007e8565b60007fd269155c21749744b1d4aa8db9212a1c95a65f3baa13728e9d0cc0b6433b2cea85856040518083600019166000191681526020018273ffffffffffffffffffffffffffffffffffffffff1673ffffffffffffffffffffffffffffffffffffffff16815260200180602001828103825260118152602001807f4e6577204f726720416464202850524529000000000000000000000000000000815250602001935050505060405180910390a16000602060ff16118015620002f3575060008473ffffffffffffffffffffffffffffffffffffffff1614155b801562000303575060068060ff16145b801562000311575060008251115b80156200031f575060468251105b15156200032b57600080fd5b6004608060405190810160405280876000191681526020018579ffffffffffffffffffffffffffffffffffffffffffffffffffff191681526020018481526020018673ffffffffffffffffffffffffffffffffffffffff16815250908060018154018082558091505090600182039060005260206000209060040201600090919290919091506000820151816000019060001916905560208201518160010160006101000a81548165ffffffffffff02191690837a0100000000000000000000000000000000000000000000000000009004021790555060408201518160020190805190602001906200042092919062000739565b5060608201518160030160006101000a81548173ffffffffffffffffffffffffffffffffffffffff021916908373ffffffffffffffffffffffffffffffffffffffff1602179055505050905060008163ffffffff1611156200066f5783600160008363ffffffff1663ffffffff16815260200190815260200160002060006101000a81548173ffffffffffffffffffffffffffffffffffffffff021916908373ffffffffffffffffffffffffffffffffffffffff1602179055506200050460018263ffffffff16620006e86401000000000262002d56179091906401000000009004565b600260008673ffffffffffffffffffffffffffffffffffffffff1673ffffffffffffffffffffffffffffffffffffffff16815260200190815260200160002060006101000a81548163ffffffff021916908363ffffffff1602179055506200059d6001600360009054906101000a900463ffffffff1663ffffffff166200070e6401000000000262002d7b179091906401000000009004565b600360006101000a81548163ffffffff021916908363ffffffff1602179055507fd269155c21749744b1d4aa8db9212a1c95a65f3baa13728e9d0cc0b6433b2cea85856040518083600019166000191681526020018273ffffffffffffffffffffffffffffffffffffffff1673ffffffffffffffffffffffffffffffffffffffff16815260200180602001828103825260158152602001807f4e6577204f726720416464202853554343455353290000000000000000000000815250602001935050505060405180910390a1620006dd565b6040517f08c379a00000000000000000000000000000000000000000000000000000000081526004018080602001828103825260128152602001807f4e6577204f72672041646420284641494c29000000000000000000000000000081525060200191505060405180910390fd5b809050949350505050565b60008263ffffffff168263ffffffff16111515156200070357fe5b818303905092915050565b60008082840190508363ffffffff168163ffffffff16101515156200072f57fe5b8091505092915050565b828054600181600116156101000203166002900490600052602060002090601f016020900481019282601f106200077c57805160ff1916838001178555620007ad565b82800160010185558215620007ad579182015b82811115620007ac5782518255916020019190600101906200078f565b5b509050620007bc9190620007c0565b5090565b620007e591905b80821115620007e1576000816000905550600101620007c7565b5090565b90565b612e7680620007f86000396000f300608060405260043610610112576000357c0100000000000000000000000000000000000000000000000000000000900463ffffffff168063033ea0811461011757806316a8b9be1461015e5780633f4ba83a146102fa5780634afab74c14610311578063554ee043146103ef5780635c975abb1461042657806363de53231461045557806369300cc7146106825780638456cb591461075257806388ddba6b146107695780638da5cb5b146108ac5780639bc3fa9514610903578063bd9ca90a14610936578063c4d707aa14610a65578063e0d1fc3914610a7c578063e1eaee4214610ab3578063e523c39614610b0e578063ec0d1fdf14610b8e578063f2fde38b14610bc1578063fb997a8914610c04575b600080fd5b34801561012357600080fd5b50610148600480360381019080803563ffffffff169060200190929190505050610c2f565b6040518082815260200191505060405180910390f35b34801561016a57600080fd5b5061018f600480360381019080803563ffffffff169060200190929190505050610e51565b604051808773ffffffffffffffffffffffffffffffffffffffff1673ffffffffffffffffffffffffffffffffffffffff1681526020018673ffffffffffffffffffffffffffffffffffffffff1673ffffffffffffffffffffffffffffffffffffffff168152602001806020018060200185600019166000191681526020018460001916600019168152602001838103835287818151815260200191508051906020019080838360005b83811015610253578082015181840152602081019050610238565b50505050905090810190601f1680156102805780820380516001836020036101000a031916815260200191505b50838103825286818151815260200191508051906020019080838360005b838110156102b957808201518184015260208101905061029e565b50505050905090810190601f1680156102e65780820380516001836020036101000a031916815260200191505b509850505050505050505060405180910390f35b34801561030657600080fd5b5061030f611230565b005b34801561031d57600080fd5b506103cd6004803603810190808035600019169060200190929190803573ffffffffffffffffffffffffffffffffffffffff169060200190929190803579ffffffffffffffffffffffffffffffffffffffffffffffffffff19169060200190929190803590602001908201803590602001908080601f01602080910402602001604051908101604052809392919081815260200183838082843782019150505050505091929192905050506112ee565b604051808263ffffffff1663ffffffff16815260200191505060405180910390f35b3480156103fb57600080fd5b50610404611794565b604051808263ffffffff1663ffffffff16815260200191505060405180910390f35b34801561043257600080fd5b5061043b6117b1565b604051808215151515815260200191505060405180910390f35b34801561046157600080fd5b50610480600480360381019080803590602001909291905050506117c4565b604051808c73ffffffffffffffffffffffffffffffffffffffff1673ffffffffffffffffffffffffffffffffffffffff1681526020018b73ffffffffffffffffffffffffffffffffffffffff1673ffffffffffffffffffffffffffffffffffffffff16815260200180602001806020018a60001916600019168152602001896000191660001916815260200188600019166000191681526020018777ffffffffffffffffffffffffffffffffffffffffffffffff191677ffffffffffffffffffffffffffffffffffffffffffffffff191681526020018677ffffffffffffffffffffffffffffffffffffffffffffffff191677ffffffffffffffffffffffffffffffffffffffffffffffff1916815260200185815260200184815260200183810383528c818151815260200191508051906020019080838360005b838110156105d65780820151818401526020810190506105bb565b50505050905090810190601f1680156106035780820380516001836020036101000a031916815260200191505b5083810382528b818151815260200191508051906020019080838360005b8381101561063c578082015181840152602081019050610621565b50505050905090810190601f1680156106695780820380516001836020036101000a031916815260200191505b509d505050505050505050505050505060405180910390f35b34801561068e57600080fd5b506106b3600480360381019080803563ffffffff1690602001909291905050506119e7565b6040518085600019166000191681526020018477ffffffffffffffffffffffffffffffffffffffffffffffff191677ffffffffffffffffffffffffffffffffffffffffffffffff191681526020018377ffffffffffffffffffffffffffffffffffffffffffffffff191677ffffffffffffffffffffffffffffffffffffffffffffffff1916815260200182815260200194505050505060405180910390f35b34801561075e57600080fd5b50610767611c43565b005b34801561077557600080fd5b506108aa600480360381019080803573ffffffffffffffffffffffffffffffffffffffff169060200190929190803590602001908201803590602001908080601f0160208091040260200160405190810160405280939291908181526020018383808284378201915050505050509192919290803590602001908201803590602001908080601f0160208091040260200160405190810160405280939291908181526020018383808284378201915050505050509192919290803560001916906020019092919080356000191690602001909291908035600019169060200190929190803577ffffffffffffffffffffffffffffffffffffffffffffffff19169060200190929190803577ffffffffffffffffffffffffffffffffffffffffffffffff19169060200190929190505050611d03565b005b3480156108b857600080fd5b506108c1612233565b604051808273ffffffffffffffffffffffffffffffffffffffff1673ffffffffffffffffffffffffffffffffffffffff16815260200191505060405180910390f35b34801561090f57600080fd5b50610934600480360381019080803563ffffffff169060200190929190505050612258565b005b34801561094257600080fd5b50610967600480360381019080803563ffffffff16906020019092919050505061243e565b6040518085600019166000191681526020018479ffffffffffffffffffffffffffffffffffffffffffffffffffff191679ffffffffffffffffffffffffffffffffffffffffffffffffffff19168152602001806020018373ffffffffffffffffffffffffffffffffffffffff1673ffffffffffffffffffffffffffffffffffffffff168152602001828103825284818151815260200191508051906020019080838360005b83811015610a27578082015181840152602081019050610a0c565b50505050905090810190601f168015610a545780820380516001836020036101000a031916815260200191505b509550505050505060405180910390f35b348015610a7157600080fd5b50610a7a612610565b005b348015610a8857600080fd5b50610a916128c3565b604051808263ffffffff1663ffffffff16815260200191505060405180910390f35b348015610abf57600080fd5b50610af4600480360381019080803573ffffffffffffffffffffffffffffffffffffffff1690602001909291905050506128d9565b604051808215151515815260200191505060405180910390f35b348015610b1a57600080fd5b50610b3960048036038101908080359060200190929190505050612a2f565b604051808373ffffffffffffffffffffffffffffffffffffffff1673ffffffffffffffffffffffffffffffffffffffff1681526020018263ffffffff1663ffffffff1681526020019250505060405180910390f35b348015610b9a57600080fd5b50610bbf600480360381019080803563ffffffff169060200190929190505050612a8e565b005b348015610bcd57600080fd5b50610c02600480360381019080803573ffffffffffffffffffffffffffffffffffffffff169060200190929190505050612bf4565b005b348015610c1057600080fd5b50610c19612d49565b6040518082815260200191505060405180910390f35b6000806000803360008060009150600090505b600360009054906101000a900463ffffffff1663ffffffff168163ffffffff161015610ced57600160008263ffffffff1663ffffffff16815260200190815260200160002060009054906101000a900473ffffffffffffffffffffffffffffffffffffffff1673ffffffffffffffffffffffffffffffffffffffff163373ffffffffffffffffffffffffffffffffffffffff161415610ce057600191505b8080600101915050610c42565b60008263ffffffff161415610d6a576040517f08c379a000000000000000000000000000000000000000000000000000000000815260040180806020018281038252600e8152602001807f4e6f7420417574686f72697a656400000000000000000000000000000000000081525060200191505060405180910390fd5b60008863ffffffff16118015610d8857506005548863ffffffff1611155b1515610d9357600080fd5b8763ffffffff16955060009450600093505b84158015610db557506005548611155b15610e43573373ffffffffffffffffffffffffffffffffffffffff16600687815481101515610de057fe5b90600052602060002090600a020160010160009054906101000a900473ffffffffffffffffffffffffffffffffffffffff1673ffffffffffffffffffffffffffffffffffffffff161415610e3657600194508593505b8580600101965050610da5565b839650505050505050919050565b6000806060806000803360008060009150600090505b600360009054906101000a900463ffffffff1663ffffffff168163ffffffff161015610f1257600160008263ffffffff1663ffffffff16815260200190815260200160002060009054906101000a900473ffffffffffffffffffffffffffffffffffffffff1673ffffffffffffffffffffffffffffffffffffffff163373ffffffffffffffffffffffffffffffffffffffff161415610f0557600191505b8080600101915050610e67565b60008263ffffffff161415610f8f576040517f08c379a000000000000000000000000000000000000000000000000000000000815260040180806020018281038252600e8152602001807f4e6f7420417574686f72697a656400000000000000000000000000000000000081525060200191505060405180910390fd5b60008a63ffffffff16118015610fad57506005548a63ffffffff1611155b1515610fb857600080fd5b60068a63ffffffff16815481101515610fcd57fe5b90600052602060002090600a020160000160009054906101000a900473ffffffffffffffffffffffffffffffffffffffff1660068b63ffffffff1681548110151561101457fe5b90600052602060002090600a020160010160009054906101000a900473ffffffffffffffffffffffffffffffffffffffff1660068c63ffffffff1681548110151561105b57fe5b90600052602060002090600a020160020160068d63ffffffff1681548110151561108157fe5b90600052602060002090600a020160030160068e63ffffffff168154811015156110a757fe5b90600052602060002090600a02016004015460068f63ffffffff168154811015156110ce57fe5b90600052602060002090600a020160050154838054600181600116156101000203166002900480601f0160208091040260200160405190810160405280929190818152602001828054600181600116156101000203166002900480156111755780601f1061114a57610100808354040283529160200191611175565b820191906000526020600020905b81548152906001019060200180831161115857829003601f168201915b50505050509350828054600181600116156101000203166002900480601f0160208091040260200160405190810160405280929190818152602001828054600181600116156101000203166002900480156112115780601f106111e657610100808354040283529160200191611211565b820191906000526020600020905b8154815290600101906020018083116111f457829003601f168201915b5050505050925098509850985098509850985050505091939550919395565b6000809054906101000a900473ffffffffffffffffffffffffffffffffffffffff1673ffffffffffffffffffffffffffffffffffffffff163373ffffffffffffffffffffffffffffffffffffffff1614151561128b57600080fd5b600060149054906101000a900460ff1615156112a657600080fd5b60008060146101000a81548160ff0219169083151502179055507f7805862f689e2f13df9f062ff482ad3ad112aca9e0847911ed832e158c525b3360405160405180910390a1565b60007fd269155c21749744b1d4aa8db9212a1c95a65f3baa13728e9d0cc0b6433b2cea85856040518083600019166000191681526020018273ffffffffffffffffffffffffffffffffffffffff1673ffffffffffffffffffffffffffffffffffffffff16815260200180602001828103825260118152602001807f4e6577204f726720416464202850524529000000000000000000000000000000815250602001935050505060405180910390a16000602060ff161180156113c7575060008473ffffffffffffffffffffffffffffffffffffffff1614155b80156113d6575060068060ff16145b80156113e3575060008251115b80156113f0575060468251105b15156113fb57600080fd5b6004608060405190810160405280876000191681526020018579ffffffffffffffffffffffffffffffffffffffffffffffffffff191681526020018481526020018673ffffffffffffffffffffffffffffffffffffffff16815250908060018154018082558091505090600182039060005260206000209060040201600090919290919091506000820151816000019060001916905560208201518160010160006101000a81548165ffffffffffff02191690837a0100000000000000000000000000000000000000000000000000009004021790555060408201518160020190805190602001906114ee929190612da5565b5060608201518160030160006101000a81548173ffffffffffffffffffffffffffffffffffffffff021916908373ffffffffffffffffffffffffffffffffffffffff1602179055505050905060008163ffffffff16111561171b5783600160008363ffffffff1663ffffffff16815260200190815260200160002060006101000a81548173ffffffffffffffffffffffffffffffffffffffff021916908373ffffffffffffffffffffffffffffffffffffffff1602179055506115c160018263ffffffff16612d5690919063ffffffff16565b600260008673ffffffffffffffffffffffffffffffffffffffff1673ffffffffffffffffffffffffffffffffffffffff16815260200190815260200160002060006101000a81548163ffffffff021916908363ffffffff16021790555061164a6001600360009054906101000a900463ffffffff1663ffffffff16612d7b90919063ffffffff16565b600360006101000a81548163ffffffff021916908363ffffffff1602179055507fd269155c21749744b1d4aa8db9212a1c95a65f3baa13728e9d0cc0b6433b2cea85856040518083600019166000191681526020018273ffffffffffffffffffffffffffffffffffffffff1673ffffffffffffffffffffffffffffffffffffffff16815260200180602001828103825260158152602001807f4e6577204f726720416464202853554343455353290000000000000000000000815250602001935050505060405180910390a1611789565b6040517f08c379a00000000000000000000000000000000000000000000000000000000081526004018080602001828103825260128152602001807f4e6577204f72672041646420284641494c29000000000000000000000000000081525060200191505060405180910390fd5b809050949350505050565b6000600360009054906101000a900463ffffffff16905080905090565b600060149054906101000a900460ff1681565b6006818154811015156117d357fe5b90600052602060002090600a02016000915090508060000160009054906101000a900473ffffffffffffffffffffffffffffffffffffffff16908060010160009054906101000a900473ffffffffffffffffffffffffffffffffffffffff1690806002018054600181600116156101000203166002900480601f0160208091040260200160405190810160405280929190818152602001828054600181600116156101000203166002900480156118cb5780601f106118a0576101008083540402835291602001916118cb565b820191906000526020600020905b8154815290600101906020018083116118ae57829003601f168201915b505050505090806003018054600181600116156101000203166002900480601f0160208091040260200160405190810160405280929190818152602001828054600181600116156101000203166002900480156119695780601f1061193e57610100808354040283529160200191611969565b820191906000526020600020905b81548152906001019060200180831161194c57829003601f168201915b5050505050908060040154908060050154908060060154908060070160009054906101000a9004780100000000000000000000000000000000000000000000000002908060070160089054906101000a900478010000000000000000000000000000000000000000000000000290806008015490806009015490508b565b6000806000803360008060009150600090505b600360009054906101000a900463ffffffff1663ffffffff168163ffffffff161015611aa557600160008263ffffffff1663ffffffff16815260200190815260200160002060009054906101000a900473ffffffffffffffffffffffffffffffffffffffff1673ffffffffffffffffffffffffffffffffffffffff163373ffffffffffffffffffffffffffffffffffffffff161415611a9857600191505b80806001019150506119fa565b60008263ffffffff161415611b22576040517f08c379a000000000000000000000000000000000000000000000000000000000815260040180806020018281038252600e8152602001807f4e6f7420417574686f72697a656400000000000000000000000000000000000081525060200191505060405180910390fd5b60008863ffffffff16118015611b4057506005548863ffffffff1611155b1515611b4b57600080fd5b60068863ffffffff16815481101515611b6057fe5b90600052602060002090600a02016006015460068963ffffffff16815481101515611b8757fe5b90600052602060002090600a020160070160009054906101000a900478010000000000000000000000000000000000000000000000000260068a63ffffffff16815481101515611bd357fe5b90600052602060002090600a020160070160089054906101000a900478010000000000000000000000000000000000000000000000000260068b63ffffffff16815481101515611c1f57fe5b90600052602060002090600a02016008015496509650965096505050509193509193565b6000809054906101000a900473ffffffffffffffffffffffffffffffffffffffff1673ffffffffffffffffffffffffffffffffffffffff163373ffffffffffffffffffffffffffffffffffffffff16141515611c9e57600080fd5b600060149054906101000a900460ff16151515611cba57600080fd5b6001600060146101000a81548160ff0219169083151502179055507f6985a02210a168e66602d3235cb6db0e70f92b3ba4d376a33c0f3d9434bff62560405160405180910390a1565b60007f5b2abd2e9bae7a7d7d1c82bca1b3f70cecac8aa00fd5ca126bbaab196e4655e9336000604051808373ffffffffffffffffffffffffffffffffffffffff1673ffffffffffffffffffffffffffffffffffffffff1681526020018263ffffffff16815260200180602001828103825260198152602001807f4e65774170706c6963616e744164642028415454454d50542900000000000000815250602001935050505060405180910390a160003373ffffffffffffffffffffffffffffffffffffffff1614158015611dee575060008973ffffffffffffffffffffffffffffffffffffffff1614155b8015611dfb575060098851145b8015611e08575060098751145b8015611e1857506000602060ff16115b8015611e2857506000602060ff16115b1515611e3357600080fd5b6006610160604051908101604052803373ffffffffffffffffffffffffffffffffffffffff1681526020018b73ffffffffffffffffffffffffffffffffffffffff1681526020018a81526020018981526020018860001916815260200187600019168152602001866000191681526020018577ffffffffffffffffffffffffffffffffffffffffffffffff191681526020018477ffffffffffffffffffffffffffffffffffffffffffffffff1916815260200142815260200160008152509080600181540180825580915050906001820390600052602060002090600a02016000909192909190915060008201518160000160006101000a81548173ffffffffffffffffffffffffffffffffffffffff021916908373ffffffffffffffffffffffffffffffffffffffff16021790555060208201518160010160006101000a81548173ffffffffffffffffffffffffffffffffffffffff021916908373ffffffffffffffffffffffffffffffffffffffff1602179055506040820151816002019080519060200190611fc6929190612da5565b506060820151816003019080519060200190611fe3929190612da5565b506080820151816004019060001916905560a0820151816005019060001916905560c0820151816006019060001916905560e08201518160070160006101000a81548167ffffffffffffffff02191690837801000000000000000000000000000000000000000000000000900402179055506101008201518160070160086101000a81548167ffffffffffffffff02191690837801000000000000000000000000000000000000000000000000900402179055506101208201518160080155610140820151816009015550509050600081111561217c576005600081548092919060010191905055507f5b2abd2e9bae7a7d7d1c82bca1b3f70cecac8aa00fd5ca126bbaab196e4655e9336000604051808373ffffffffffffffffffffffffffffffffffffffff1673ffffffffffffffffffffffffffffffffffffffff1681526020018263ffffffff16815260200180602001828103825260198152602001807f4e65774170706c6963616e744164642028535543434553532900000000000000815250602001935050505060405180910390a1612228565b7f5b2abd2e9bae7a7d7d1c82bca1b3f70cecac8aa00fd5ca126bbaab196e4655e9336000604051808373ffffffffffffffffffffffffffffffffffffffff1673ffffffffffffffffffffffffffffffffffffffff1681526020018263ffffffff168152602001806020018281038252601b8152602001807f4e65774170706c6963616e7441646420284641494c2d50555348290000000000815250602001935050505060405180910390a15b505050505050505050565b6000809054906101000a900473ffffffffffffffffffffffffffffffffffffffff1681565b3360008060009150600090505b600360009054906101000a900463ffffffff1663ffffffff168163ffffffff16101561231057600160008263ffffffff1663ffffffff16815260200190815260200160002060009054906101000a900473ffffffffffffffffffffffffffffffffffffffff1673ffffffffffffffffffffffffffffffffffffffff163373ffffffffffffffffffffffffffffffffffffffff16141561230357600191505b8080600101915050612265565b60008263ffffffff16141561238d576040517f08c379a000000000000000000000000000000000000000000000000000000000815260040180806020018281038252600e8152602001807f4e6f7420417574686f72697a656400000000000000000000000000000000000081525060200191505060405180910390fd5b60068463ffffffff168154811015156123a257fe5b90600052602060002090600a020160010160009054906101000a900473ffffffffffffffffffffffffffffffffffffffff1673ffffffffffffffffffffffffffffffffffffffff163373ffffffffffffffffffffffffffffffffffffffff1614151561240d57600080fd5b4260068563ffffffff1681548110151561242357fe5b90600052602060002090600a02016009018190555050505050565b60008060606000808563ffffffff16101580156124785750600360009054906101000a900463ffffffff1663ffffffff168563ffffffff16105b151561248357600080fd5b60048563ffffffff1681548110151561249857fe5b90600052602060002090600402016000015460048663ffffffff168154811015156124bf57fe5b906000526020600020906004020160010160009054906101000a90047a0100000000000000000000000000000000000000000000000000000260048763ffffffff1681548110151561250d57fe5b906000526020600020906004020160020160048863ffffffff1681548110151561253357fe5b906000526020600020906004020160030160009054906101000a900473ffffffffffffffffffffffffffffffffffffffff16818054600181600116156101000203166002900480601f0160208091040260200160405190810160405280929190818152602001828054600181600116156101000203166002900480156125fa5780601f106125cf576101008083540402835291602001916125fa565b820191906000526020600020905b8154815290600101906020018083116125dd57829003601f168201915b5050505050915093509350935093509193509193565b600080600080600060606000806000809054906101000a900473ffffffffffffffffffffffffffffffffffffffff1673ffffffffffffffffffffffffffffffffffffffff163373ffffffffffffffffffffffffffffffffffffffff1614151561267857600080fd5b60009750612684611794565b96508663ffffffff16600860009054906101000a900463ffffffff1663ffffffff161415156128b957600095505b8663ffffffff168663ffffffff1610156128b857600090505b600860009054906101000a900463ffffffff1663ffffffff168163ffffffff161015612792576126fa8661243e565b8095508196508297508398505050505060078163ffffffff1681548110151561271f57fe5b9060005260206000200160000160009054906101000a900473ffffffffffffffffffffffffffffffffffffffff1673ffffffffffffffffffffffffffffffffffffffff168273ffffffffffffffffffffffffffffffffffffffff16141561278557600197505b80806001019150506126cb565b6000151588151514156128a757600760408051908101604052808473ffffffffffffffffffffffffffffffffffffffff168152602001600063ffffffff1681525090806001815401808255809150509060018203906000526020600020016000909192909190915060008201518160000160006101000a81548173ffffffffffffffffffffffffffffffffffffffff021916908373ffffffffffffffffffffffffffffffffffffffff16021790555060208201518160000160146101000a81548163ffffffff021916908363ffffffff1602179055505050506008600081819054906101000a900463ffffffff168092919060010191906101000a81548163ffffffff021916908363ffffffff160217905550505b6000975085806001019650506126b2565b5b5050505050505050565b600860009054906101000a900463ffffffff1681565b6000806000915060008373ffffffffffffffffffffffffffffffffffffffff161415151561296f576040517f08c379a00000000000000000000000000000000000000000000000000000000081526004018080602001828103825260188152602001807f5a65726f2041646472657373204e6f7420416c6c6f776564000000000000000081525060200191505060405180910390fd5b600090505b600360009054906101000a900463ffffffff1663ffffffff168163ffffffff161015612a26578273ffffffffffffffffffffffffffffffffffffffff1660048263ffffffff168154811015156129c657fe5b906000526020600020906004020160030160009054906101000a900473ffffffffffffffffffffffffffffffffffffffff1673ffffffffffffffffffffffffffffffffffffffff161415612a1957600191505b8080600101915050612974565b81915050919050565b600781815481101515612a3e57fe5b906000526020600020016000915090508060000160009054906101000a900473ffffffffffffffffffffffffffffffffffffffff16908060000160149054906101000a900463ffffffff16905082565b3360008060009150600090505b600360009054906101000a900463ffffffff1663ffffffff168163ffffffff161015612b4657600160008263ffffffff1663ffffffff16815260200190815260200160002060009054906101000a900473ffffffffffffffffffffffffffffffffffffffff1673ffffffffffffffffffffffffffffffffffffffff163373ffffffffffffffffffffffffffffffffffffffff161415612b3957600191505b8080600101915050612a9b565b60008263ffffffff161415612bc3576040517f08c379a000000000000000000000000000000000000000000000000000000000815260040180806020018281038252600e8152602001807f4e6f7420417574686f72697a656400000000000000000000000000000000000081525060200191505060405180910390fd5b4260068563ffffffff16815481101515612bd957fe5b90600052602060002090600a02016009018190555050505050565b6000809054906101000a900473ffffffffffffffffffffffffffffffffffffffff1673ffffffffffffffffffffffffffffffffffffffff163373ffffffffffffffffffffffffffffffffffffffff16141515612c4f57600080fd5b600073ffffffffffffffffffffffffffffffffffffffff168173ffffffffffffffffffffffffffffffffffffffff1614151515612c8b57600080fd5b8073ffffffffffffffffffffffffffffffffffffffff166000809054906101000a900473ffffffffffffffffffffffffffffffffffffffff1673ffffffffffffffffffffffffffffffffffffffff167f8be0079c531659141344cd1fd0a4f28419497f9722a3daafe3b4186f6b6457e060405160405180910390a3806000806101000a81548173ffffffffffffffffffffffffffffffffffffffff021916908373ffffffffffffffffffffffffffffffffffffffff16021790555050565b6000600554905080905090565b60008263ffffffff168263ffffffff1611151515612d7057fe5b818303905092915050565b60008082840190508363ffffffff168163ffffffff1610151515612d9b57fe5b8091505092915050565b828054600181600116156101000203166002900490600052602060002090601f016020900481019282601f10612de657805160ff1916838001178555612e14565b82800160010185558215612e14579182015b82811115612e13578251825591602001919060010190612df8565b5b509050612e219190612e25565b5090565b612e4791905b80821115612e43576000816000905550600101612e2b565b5090565b905600a165627a7a723058202f814e40527d74ec4b65288904bde45c3cdaa9f21bd43d8153902eda074f08000029",
  "source": "pragma solidity ^0.4.21;\r\n/**\r\n * @title ProcessCredentials\r\n * @dev The ProcessCredentials allows the contract owner to process and write out credentials.\r\n */\r\nimport \"./ApplicantFactory.sol\";\r\nimport \"./CredentialOrgFactory.sol\";\r\n\r\ncontract ProcessCredentials is CredentialOrgFactory, ApplicantFactory {\r\n    \r\n    // mappings\r\n    \r\n    // events\r\n    event ProcessApplicant(address ApplicantAddress, uint32 position, string detail);\r\n\r\n    // structs\r\n    struct OrgProcessor{\r\n        address credentialOrgAddress;\r\n        uint32 lastApplicantPosition;\r\n    }    \r\n    \r\n    OrgProcessor[] public orgProcessors;\r\n    \r\n    uint32 public orgProcessorsCount;\r\n    \r\n    // constructor\r\n    constructor () public {\r\n        orgProcessorsCount = 0;\r\n    }\r\n    \r\n    // functions\r\n    function updateOrgProcessors() public onlyOwner {\r\n        bool found = false;\r\n        uint32 localOrgCount = selectOrgCount();\r\n        if (orgProcessorsCount != localOrgCount){\r\n            for(uint32 i=0; i < localOrgCount; i++){\r\n                bytes32 shortName;\r\n                bytes6 schoolCode;\r\n                string memory officialSchoolName;\r\n                address schoolAddress;\r\n                for (uint32 j=0; j < orgProcessorsCount; j++){\r\n                    (shortName, schoolCode, officialSchoolName, schoolAddress) = selectCredentialOrg(i);\r\n                    if (schoolAddress == orgProcessors[j].credentialOrgAddress){\r\n                        found = true;\r\n                    }\r\n                }            \r\n                if (found == false){\r\n                    orgProcessors.push(OrgProcessor(schoolAddress,0));\r\n                    orgProcessorsCount++;\r\n                }\r\n                found = false;\r\n            }\r\n        }\r\n    }\r\n\r\n    function updateApplicant(uint32 _position) public onlyBy(msg.sender) {\r\n        require(msg.sender == applicants[_position].collegeAddress);\r\n        applicants[_position].processDate = block.timestamp;\r\n    }\r\n    \r\n    \r\n    function selectNextApplicantID(uint32 _startPosition) public view onlyBy(msg.sender) returns (uint ID){\r\n        require(_startPosition > 0 && _startPosition <= applicantCount);\r\n        uint startPosition = _startPosition;\r\n        bool foundRec = false;\r\n        uint foundPosition = 0;\r\n        while (!foundRec && startPosition <= applicantCount){\r\n            if (applicants[startPosition].collegeAddress == msg.sender){\r\n                foundRec = true;\r\n                foundPosition = startPosition;\r\n            }\r\n            startPosition++;\r\n        }\r\n        return (foundPosition);\r\n    }\r\n    \r\n    function selectApplicantPartA(uint32 _position) public view onlyBy(msg.sender) returns (address studentAddress, address collegeAddress, string SSN, string collegeStudentID, bytes32 firstName, bytes32 middleName){\r\n        require(_position > 0 && _position <= applicantCount);\r\n        return (applicants[_position].studentAddress, applicants[_position].collegeAddress, applicants[_position].SSN, applicants[_position].collegeStudentID, applicants[_position].firstName, applicants[_position].middleName);\r\n    }\r\n\r\n    function selectApplicantPartB(uint32 _position) public view onlyBy(msg.sender) returns (bytes32 lastName, bytes8 nameSuffix, bytes8 dateOfBirth, uint insertDate){\r\n        require(_position > 0 && _position <= applicantCount);\r\n        return (applicants[_position].lastName, applicants[_position].nameSuffix, applicants[_position].dateOfBirth, applicants[_position].insertDate);\r\n    }\r\n\r\n    function processApplicant(uint32 _position) public onlyBy(msg.sender) {\r\n        applicants[_position].processDate = block.timestamp;\r\n    }\r\n}",
  "sourcePath": "E:\\Projects\\CredentialVerify\\contracts\\ProcessCredentials.sol",
  "compiler": {
    "name": "solc",
    "version": "0.4.24+commit.e67f0147.Emscripten.clang"
  },
  "schemaVersion": "2.0.1",
  "updatedAt": "2018-08-06T04:21:44.721Z"
}