{
  "contractName": "ProcessCredentials",
  "abi": [
    {
      "constant": false,
      "inputs": [],
      "name": "unpause",
      "outputs": [],
      "payable": false,
      "stateMutability": "nonpayable",
      "type": "function"
    },
    {
      "constant": true,
      "inputs": [],
      "name": "paused",
      "outputs": [
        {
          "name": "",
          "type": "bool"
        }
      ],
      "payable": false,
      "stateMutability": "view",
      "type": "function"
    },
    {
      "constant": false,
      "inputs": [],
      "name": "pause",
      "outputs": [],
      "payable": false,
      "stateMutability": "nonpayable",
      "type": "function"
    },
    {
      "constant": true,
      "inputs": [],
      "name": "owner",
      "outputs": [
        {
          "name": "",
          "type": "address"
        }
      ],
      "payable": false,
      "stateMutability": "view",
      "type": "function"
    },
    {
      "constant": false,
      "inputs": [
        {
          "name": "newOwner",
          "type": "address"
        }
      ],
      "name": "transferOwnership",
      "outputs": [],
      "payable": false,
      "stateMutability": "nonpayable",
      "type": "function"
    },
    {
      "inputs": [],
      "payable": false,
      "stateMutability": "nonpayable",
      "type": "constructor"
    },
    {
      "anonymous": false,
      "inputs": [
        {
          "indexed": false,
          "name": "orgAddress",
          "type": "address"
        },
        {
          "indexed": false,
          "name": "ApplicantAddress",
          "type": "address"
        },
        {
          "indexed": false,
          "name": "position",
          "type": "uint32"
        },
        {
          "indexed": false,
          "name": "detail",
          "type": "string"
        }
      ],
      "name": "ProcessCredentialApplicant",
      "type": "event"
    },
    {
      "anonymous": false,
      "inputs": [
        {
          "indexed": false,
          "name": "orgAddress",
          "type": "address"
        },
        {
          "indexed": false,
          "name": "detail",
          "type": "string"
        }
      ],
      "name": "ProcessCredentialDetail",
      "type": "event"
    },
    {
      "anonymous": false,
      "inputs": [],
      "name": "Pause",
      "type": "event"
    },
    {
      "anonymous": false,
      "inputs": [],
      "name": "Unpause",
      "type": "event"
    },
    {
      "anonymous": false,
      "inputs": [
        {
          "indexed": true,
          "name": "previousOwner",
          "type": "address"
        },
        {
          "indexed": true,
          "name": "newOwner",
          "type": "address"
        }
      ],
      "name": "OwnershipTransferred",
      "type": "event"
    },
    {
      "constant": false,
      "inputs": [
        {
          "name": "_credentialOrgContractAddress",
          "type": "address"
        },
        {
          "name": "_credentialContractAddress",
          "type": "address"
        },
        {
          "name": "_applicantContractAddress",
          "type": "address"
        }
      ],
      "name": "setAddress",
      "outputs": [],
      "payable": false,
      "stateMutability": "nonpayable",
      "type": "function"
    },
    {
      "constant": false,
      "inputs": [
        {
          "name": "_position",
          "type": "uint32"
        }
      ],
      "name": "setCredentialOrgApplicantPosition",
      "outputs": [],
      "payable": false,
      "stateMutability": "nonpayable",
      "type": "function"
    },
    {
      "constant": true,
      "inputs": [],
      "name": "selectCredentialOrgNextApplicant",
      "outputs": [
        {
          "name": "studentAddress",
          "type": "address"
        },
        {
          "name": "SSN",
          "type": "string"
        },
        {
          "name": "collegeStudentID",
          "type": "string"
        },
        {
          "name": "firstName",
          "type": "string"
        },
        {
          "name": "lastName",
          "type": "string"
        },
        {
          "name": "insertDate",
          "type": "uint32"
        },
        {
          "name": "processDate",
          "type": "uint32"
        }
      ],
      "payable": false,
      "stateMutability": "view",
      "type": "function"
    }
  ],
  "bytecode": "0x608060405260008060146101000a81548160ff02191690831515021790555034801561002a57600080fd5b50336000806101000a81548173ffffffffffffffffffffffffffffffffffffffff021916908373ffffffffffffffffffffffffffffffffffffffff1602179055506000600560006101000a81548163ffffffff021916908363ffffffff1602179055506114808061009c6000396000f30060806040526004361061008e576000357c0100000000000000000000000000000000000000000000000000000000900463ffffffff16806312505439146100935780633be08dab146100c65780633f4ba83a146101495780635c975abb146101605780638456cb591461018f5780638da5cb5b146101a6578063e27716d7146101fd578063f2fde38b1461042a575b600080fd5b34801561009f57600080fd5b506100c4600480360381019080803563ffffffff16906020019092919050505061046d565b005b3480156100d257600080fd5b50610147600480360381019080803573ffffffffffffffffffffffffffffffffffffffff169060200190929190803573ffffffffffffffffffffffffffffffffffffffff169060200190929190803573ffffffffffffffffffffffffffffffffffffffff169060200190929190505050610825565b005b34801561015557600080fd5b5061015e61099e565b005b34801561016c57600080fd5b50610175610a5c565b604051808215151515815260200191505060405180910390f35b34801561019b57600080fd5b506101a4610a6f565b005b3480156101b257600080fd5b506101bb610b2f565b604051808273ffffffffffffffffffffffffffffffffffffffff1673ffffffffffffffffffffffffffffffffffffffff16815260200191505060405180910390f35b34801561020957600080fd5b50610212610b54565b604051808873ffffffffffffffffffffffffffffffffffffffff1673ffffffffffffffffffffffffffffffffffffffff168152602001806020018060200180602001806020018763ffffffff1663ffffffff1681526020018663ffffffff1663ffffffff16815260200185810385528b818151815260200191508051906020019080838360005b838110156102b4578082015181840152602081019050610299565b50505050905090810190601f1680156102e15780820380516001836020036101000a031916815260200191505b5085810384528a818151815260200191508051906020019080838360005b8381101561031a5780820151818401526020810190506102ff565b50505050905090810190601f1680156103475780820380516001836020036101000a031916815260200191505b50858103835289818151815260200191508051906020019080838360005b83811015610380578082015181840152602081019050610365565b50505050905090810190601f1680156103ad5780820380516001836020036101000a031916815260200191505b50858103825288818151815260200191508051906020019080838360005b838110156103e65780820151818401526020810190506103cb565b50505050905090810190601f1680156104135780820380516001836020036101000a031916815260200191505b509b50505050505050505050505060405180910390f35b34801561043657600080fd5b5061046b600480360381019080803573ffffffffffffffffffffffffffffffffffffffff1690602001909291905050506112ff565b005b6000808263ffffffff1610151515610539576040517f08c379a00000000000000000000000000000000000000000000000000000000081526004018080602001828103825260478152602001807f73657443726564656e7469616c4f72674170706c6963616e74506f736974696f81526020017f6e20284641494c2920506f736974696f6e206d7573742062652030206f72206781526020017f7265617465722e0000000000000000000000000000000000000000000000000081525060600191505060405180910390fd5b600560049054906101000a900473ffffffffffffffffffffffffffffffffffffffff1690508073ffffffffffffffffffffffffffffffffffffffff1663e1eaee42336040518263ffffffff167c0100000000000000000000000000000000000000000000000000000000028152600401808273ffffffffffffffffffffffffffffffffffffffff1673ffffffffffffffffffffffffffffffffffffffff168152602001915050602060405180830381600087803b1580156105f957600080fd5b505af115801561060d573d6000803e3d6000fd5b505050506040513d602081101561062357600080fd5b81019080805190602001909291905050501561075e5781600460003373ffffffffffffffffffffffffffffffffffffffff1673ffffffffffffffffffffffffffffffffffffffff16815260200190815260200160002060006101000a81548163ffffffff021916908363ffffffff1602179055507f35700b49fb417a13a257973e03d2106f91bb3a03c1ff1d27d9264885f4a603d333604051808273ffffffffffffffffffffffffffffffffffffffff1673ffffffffffffffffffffffffffffffffffffffff168152602001806020018281038252602b8152602001807f73657443726564656e7469616c4f72674170706c6963616e74506f736974696f81526020017f6e202853554343455353290000000000000000000000000000000000000000008152506040019250505060405180910390a1610821565b7f35700b49fb417a13a257973e03d2106f91bb3a03c1ff1d27d9264885f4a603d333604051808273ffffffffffffffffffffffffffffffffffffffff1673ffffffffffffffffffffffffffffffffffffffff168152602001806020018281038252603b8152602001807f73657443726564656e7469616c4f72674170706c6963616e74506f736974696f81526020017f6e20284641494c29204e6f742043726564656e7469616c204f726700000000008152506040019250505060405180910390a15b5050565b6000809054906101000a900473ffffffffffffffffffffffffffffffffffffffff1673ffffffffffffffffffffffffffffffffffffffff163373ffffffffffffffffffffffffffffffffffffffff1614151561088057600080fd5b6000809054906101000a900473ffffffffffffffffffffffffffffffffffffffff1673ffffffffffffffffffffffffffffffffffffffff163373ffffffffffffffffffffffffffffffffffffffff1614156109995782600560046101000a81548173ffffffffffffffffffffffffffffffffffffffff021916908373ffffffffffffffffffffffffffffffffffffffff16021790555081600660006101000a81548173ffffffffffffffffffffffffffffffffffffffff021916908373ffffffffffffffffffffffffffffffffffffffff16021790555080600760006101000a81548173ffffffffffffffffffffffffffffffffffffffff021916908373ffffffffffffffffffffffffffffffffffffffff1602179055505b505050565b6000809054906101000a900473ffffffffffffffffffffffffffffffffffffffff1673ffffffffffffffffffffffffffffffffffffffff163373ffffffffffffffffffffffffffffffffffffffff161415156109f957600080fd5b600060149054906101000a900460ff161515610a1457600080fd5b60008060146101000a81548160ff0219169083151502179055507f7805862f689e2f13df9f062ff482ad3ad112aca9e0847911ed832e158c525b3360405160405180910390a1565b600060149054906101000a900460ff1681565b6000809054906101000a900473ffffffffffffffffffffffffffffffffffffffff1673ffffffffffffffffffffffffffffffffffffffff163373ffffffffffffffffffffffffffffffffffffffff16141515610aca57600080fd5b600060149054906101000a900460ff16151515610ae657600080fd5b6001600060146101000a81548160ff0219169083151502179055507f6985a02210a168e66602d3235cb6db0e70f92b3ba4d376a33c0f3d9434bff62560405160405180910390a1565b6000809054906101000a900473ffffffffffffffffffffffffffffffffffffffff1681565b6000606080606080600080600080600560049054906101000a900473ffffffffffffffffffffffffffffffffffffffff1691508173ffffffffffffffffffffffffffffffffffffffff1663e1eaee42336040518263ffffffff167c0100000000000000000000000000000000000000000000000000000000028152600401808273ffffffffffffffffffffffffffffffffffffffff1673ffffffffffffffffffffffffffffffffffffffff168152602001915050602060405180830381600087803b158015610c2257600080fd5b505af1158015610c36573d6000803e3d6000fd5b505050506040513d6020811015610c4c57600080fd5b8101908080519060200190929190505050156111c457600760009054906101000a900473ffffffffffffffffffffffffffffffffffffffff169050600460003373ffffffffffffffffffffffffffffffffffffffff1673ffffffffffffffffffffffffffffffffffffffff16815260200190815260200160002060009054906101000a900463ffffffff1663ffffffff168173ffffffffffffffffffffffffffffffffffffffff16631e0beabe336040518263ffffffff167c0100000000000000000000000000000000000000000000000000000000028152600401808273ffffffffffffffffffffffffffffffffffffffff1673ffffffffffffffffffffffffffffffffffffffff168152602001915050602060405180830381600087803b158015610d7857600080fd5b505af1158015610d8c573d6000803e3d6000fd5b505050506040513d6020811015610da257600080fd5b810190808051906020019092919050505063ffffffff1610151561107e578073ffffffffffffffffffffffffffffffffffffffff1663f76806d933600460003373ffffffffffffffffffffffffffffffffffffffff1673ffffffffffffffffffffffffffffffffffffffff16815260200190815260200160002060009054906101000a900463ffffffff166040518363ffffffff167c0100000000000000000000000000000000000000000000000000000000028152600401808373ffffffffffffffffffffffffffffffffffffffff1673ffffffffffffffffffffffffffffffffffffffff1681526020018263ffffffff1663ffffffff16815260200192505050600060405180830381600087803b158015610ebe57600080fd5b505af1158015610ed2573d6000803e3d6000fd5b505050506040513d6000823e3d601f19601f8201168201806040525060e0811015610efc57600080fd5b81019080805190602001909291908051640100000000811115610f1e57600080fd5b82810190506020810184811115610f3457600080fd5b8151856001820283011164010000000082111715610f5157600080fd5b50509291906020018051640100000000811115610f6d57600080fd5b82810190506020810184811115610f8357600080fd5b8151856001820283011164010000000082111715610fa057600080fd5b50509291906020018051640100000000811115610fbc57600080fd5b82810190506020810184811115610fd257600080fd5b8151856001820283011164010000000082111715610fef57600080fd5b5050929190602001805164010000000081111561100b57600080fd5b8281019050602081018481111561102157600080fd5b815185600182028301116401000000008211171561103e57600080fd5b50509291906020018051906020019092919080519060200190929190505050809950819a50829b50839c50849d50859e50869f50505050505050506111bf565b600098506020604051908101604052806000815250975060206040519081016040528060008152509650602060405190810160405280600081525095506020604051908101604052806000815250945060009350600092507f35700b49fb417a13a257973e03d2106f91bb3a03c1ff1d27d9264885f4a603d333604051808273ffffffffffffffffffffffffffffffffffffffff1673ffffffffffffffffffffffffffffffffffffffff16815260200180602001828103825260418152602001807f73656c65637443726564656e7469616c4f72674e6578744170706c6963616e7481526020017f20284641494c29204e6f204170706c6963616e747320746f2050726f6365737381526020017f2e000000000000000000000000000000000000000000000000000000000000008152506060019250505060405180910390a15b6112df565b600098506020604051908101604052806000815250975060206040519081016040528060008152509650602060405190810160405280600081525095506020604051908101604052806000815250945060009350600092507f35700b49fb417a13a257973e03d2106f91bb3a03c1ff1d27d9264885f4a603d333604051808273ffffffffffffffffffffffffffffffffffffffff1673ffffffffffffffffffffffffffffffffffffffff168152602001806020018281038252603a8152602001807f73656c65637443726564656e7469616c4f72674e6578744170706c6963616e7481526020017f20284641494c29204e6f742043726564656e7469616c204f72670000000000008152506040019250505060405180910390a15b888888888888889850985098509850985098509850505090919293949596565b6000809054906101000a900473ffffffffffffffffffffffffffffffffffffffff1673ffffffffffffffffffffffffffffffffffffffff163373ffffffffffffffffffffffffffffffffffffffff1614151561135a57600080fd5b600073ffffffffffffffffffffffffffffffffffffffff168173ffffffffffffffffffffffffffffffffffffffff161415151561139657600080fd5b8073ffffffffffffffffffffffffffffffffffffffff166000809054906101000a900473ffffffffffffffffffffffffffffffffffffffff1673ffffffffffffffffffffffffffffffffffffffff167f8be0079c531659141344cd1fd0a4f28419497f9722a3daafe3b4186f6b6457e060405160405180910390a3806000806101000a81548173ffffffffffffffffffffffffffffffffffffffff021916908373ffffffffffffffffffffffffffffffffffffffff160217905550505600a165627a7a72305820829bf48319a01af425eacbb700c128d90303e17e7dd47346706111c88324dd960029",
  "source": "pragma solidity ^0.4.21;\r\n/**\r\n * @title ProcessCredentials\r\n * @dev The ProcessCredentials contracts allows credentialing orgs to assign credentials to an Applicant.\r\n */\r\nimport \"./Pausable.sol\";\r\nimport \"./SafeMath32.sol\";\r\n\r\ninterface CredentialOrgFactory{\r\n    function isCredentialOrg(address _credentialOrgAddress) external view returns (bool IsOrgAddress);\r\n}\r\n\r\ninterface CredentialFactory{\r\n    function selectCredential(address _credentialOrgAddress, uint32 _position) external view returns (string credentialLevel, string credentialTitle, string credentialDivision, uint32 credentialInsertDate, bool isActive);\r\n    function isCredentialActive(address _credentialOrgAddress, uint _position) external view returns (bool activeState);\r\n}\r\n\r\ninterface ApplicantFactory{\r\n    function selectApplicantByOrgAndPosition(address _orgAddress, uint32 _position) external view returns (address studentAddress, string SSN, string collegeStudentID, string firstName,  string lastName, uint32 insertDate,  uint32 processDate);\r\n    function selectOrgApplicantCount(address _orgAddress) external view returns (uint32 appCount);\r\n}\r\n\r\ncontract ProcessCredentials is Pausable {\r\n    /**\r\n    *  @dev Library useage for safemath for uint32\r\n    */\r\n    using SafeMath32 for uint32;\r\n    // mappings\r\n    mapping (address => ApplicantCredential) applicantAddressToApplicantCredential;\r\n    mapping (address => ApplicantCredential[]) credentialOrgToApplicantCredential;\r\n    mapping (address => uint32) credentialOrgToApplicantCredentials;\r\n    mapping (address => uint32) credentailOrgToApplicantPosition;\r\n\r\n\r\n    // events\r\n    event ProcessCredentialApplicant(address orgAddress, address ApplicantAddress, uint32 position, string detail);\r\n    event ProcessCredentialDetail(address orgAddress,string detail);\r\n\r\n    // structs\r\n    struct ApplicantCredential {\r\n        // addresses\r\n        address credentialOrg;\r\n        address applicant;\r\n        // student detail\r\n        string SSN;                 // Applicant SSN\r\n        string collegeStudentID;    // Applicant CollegeID\r\n        string firstName;          // first name lenmax 40\r\n        string lastName;           // last name  lenmax 40\r\n        // credential details\r\n        string credentialLevel;     // 50 or less string\r\n        string credentialTitle;     // 70 or less string\r\n        string credentialDivision;  // 50 or less string\r\n    }\r\n\r\n    // variables\r\n    uint32 processedApplicants;\r\n    address private credentialOrgFactoryAddress;\r\n    address private credentialFactoryAddress;\r\n    address private applicantFatoryAddress;\r\n\r\n    // constructor\r\n    constructor () public {\r\n        processedApplicants = 0;\r\n    }\r\n\r\n    // functions\r\n    /**\r\n    * @dev Allows owner to set address of CredentialOrgFactory contract.\r\n    * @param _credentialOrgContractAddress address of CredentialOrgFactory (set on deploy).\r\n    */\r\n    function setAddress(address _credentialOrgContractAddress, address _credentialContractAddress, address _applicantContractAddress) \r\n    public onlyOwner \r\n    {\r\n        if (msg.sender == owner){\r\n            credentialOrgFactoryAddress = _credentialOrgContractAddress;\r\n            credentialFactoryAddress = _credentialContractAddress;\r\n            applicantFatoryAddress = _applicantContractAddress;\r\n        }\r\n    }    \r\n\r\n    function setCredentialOrgApplicantPosition (uint32 _position)\r\n    public \r\n    {\r\n        require(_position >= 0,\"setCredentialOrgApplicantPosition (FAIL) Position must be 0 or greater.\");\r\n        CredentialOrgFactory cof = CredentialOrgFactory(credentialOrgFactoryAddress);\r\n        if (cof.isCredentialOrg(msg.sender)){\r\n            credentailOrgToApplicantPosition[msg.sender] = _position;\r\n            emit ProcessCredentialDetail (msg.sender, \"setCredentialOrgApplicantPosition (SUCCESS)\");\r\n        } else {\r\n            emit ProcessCredentialDetail (msg.sender, \"setCredentialOrgApplicantPosition (FAIL) Not Credential Org\");\r\n        }\r\n    }\r\n\r\n    function selectCredentialOrgNextApplicant()\r\n    public view\r\n    returns (address studentAddress, string SSN, string collegeStudentID, string firstName,  string lastName, uint32 insertDate,  uint32 processDate)\r\n    {\r\n        CredentialOrgFactory cof = CredentialOrgFactory(credentialOrgFactoryAddress);\r\n        if (cof.isCredentialOrg(msg.sender)){\r\n            ApplicantFactory af = ApplicantFactory(applicantFatoryAddress);\r\n            if (af.selectOrgApplicantCount(msg.sender) >= credentailOrgToApplicantPosition[msg.sender]){\r\n                (studentAddress, SSN, collegeStudentID, firstName, lastName, insertDate, processDate) = af.selectApplicantByOrgAndPosition(msg.sender, credentailOrgToApplicantPosition[msg.sender]);\r\n            } else {\r\n                studentAddress = 0;\r\n                SSN = \"\";\r\n                collegeStudentID = \"\";\r\n                firstName = \"\";\r\n                lastName = \"\";\r\n                insertDate = 0;\r\n                processDate = 0;\r\n                emit ProcessCredentialDetail (msg.sender, \"selectCredentialOrgNextApplicant (FAIL) No Applicants to Process.\");\r\n            }\r\n        } else {\r\n            studentAddress = 0;\r\n            SSN = \"\";\r\n            collegeStudentID = \"\";\r\n            firstName = \"\";\r\n            lastName = \"\";\r\n            insertDate = 0;\r\n            processDate = 0;\r\n            emit ProcessCredentialDetail (msg.sender, \"selectCredentialOrgNextApplicant (FAIL) Not Credential Org\");\r\n        }\r\n        return (studentAddress, SSN, collegeStudentID, firstName, lastName, insertDate, processDate);\r\n    }\r\n}",
  "sourcePath": "E:\\Projects\\CredentialVerify\\contracts\\ProcessCredentials.sol",
  "compiler": {
    "name": "solc",
    "version": "0.4.24+commit.e67f0147.Emscripten.clang"
  },
  "schemaVersion": "2.0.1",
  "updatedAt": "2018-08-12T05:02:16.418Z"
}