{
  "contractName": "ProcessCredentials",
  "abi": [
    {
      "constant": false,
      "inputs": [],
      "name": "unpause",
      "outputs": [],
      "payable": false,
      "stateMutability": "nonpayable",
      "type": "function"
    },
    {
      "constant": true,
      "inputs": [],
      "name": "paused",
      "outputs": [
        {
          "name": "",
          "type": "bool"
        }
      ],
      "payable": false,
      "stateMutability": "view",
      "type": "function"
    },
    {
      "constant": false,
      "inputs": [],
      "name": "pause",
      "outputs": [],
      "payable": false,
      "stateMutability": "nonpayable",
      "type": "function"
    },
    {
      "constant": true,
      "inputs": [],
      "name": "owner",
      "outputs": [
        {
          "name": "",
          "type": "address"
        }
      ],
      "payable": false,
      "stateMutability": "view",
      "type": "function"
    },
    {
      "constant": false,
      "inputs": [
        {
          "name": "newOwner",
          "type": "address"
        }
      ],
      "name": "transferOwnership",
      "outputs": [],
      "payable": false,
      "stateMutability": "nonpayable",
      "type": "function"
    },
    {
      "inputs": [],
      "payable": false,
      "stateMutability": "nonpayable",
      "type": "constructor"
    },
    {
      "anonymous": false,
      "inputs": [
        {
          "indexed": false,
          "name": "ApplicantAddress",
          "type": "address"
        },
        {
          "indexed": false,
          "name": "position",
          "type": "uint32"
        },
        {
          "indexed": false,
          "name": "detail",
          "type": "string"
        }
      ],
      "name": "ProcessApplicant",
      "type": "event"
    },
    {
      "anonymous": false,
      "inputs": [],
      "name": "Pause",
      "type": "event"
    },
    {
      "anonymous": false,
      "inputs": [],
      "name": "Unpause",
      "type": "event"
    },
    {
      "anonymous": false,
      "inputs": [
        {
          "indexed": true,
          "name": "previousOwner",
          "type": "address"
        },
        {
          "indexed": true,
          "name": "newOwner",
          "type": "address"
        }
      ],
      "name": "OwnershipTransferred",
      "type": "event"
    },
    {
      "constant": false,
      "inputs": [
        {
          "name": "_credentialOrgContractAddress",
          "type": "address"
        },
        {
          "name": "_credentialContractAddress",
          "type": "address"
        },
        {
          "name": "_applicantContractAddress",
          "type": "address"
        }
      ],
      "name": "setAddress",
      "outputs": [],
      "payable": false,
      "stateMutability": "nonpayable",
      "type": "function"
    }
  ],
  "bytecode": "0x608060405260008060146101000a81548160ff02191690831515021790555034801561002a57600080fd5b50336000806101000a81548173ffffffffffffffffffffffffffffffffffffffff021916908373ffffffffffffffffffffffffffffffffffffffff16021790555060008060156101000a81548163ffffffff021916908363ffffffff1602179055506106a78061009b6000396000f300608060405260043610610078576000357c0100000000000000000000000000000000000000000000000000000000900463ffffffff1680633be08dab1461007d5780633f4ba83a146101005780635c975abb146101175780638456cb59146101465780638da5cb5b1461015d578063f2fde38b146101b4575b600080fd5b34801561008957600080fd5b506100fe600480360381019080803573ffffffffffffffffffffffffffffffffffffffff169060200190929190803573ffffffffffffffffffffffffffffffffffffffff169060200190929190803573ffffffffffffffffffffffffffffffffffffffff1690602001909291905050506101f7565b005b34801561010c57600080fd5b50610115610370565b005b34801561012357600080fd5b5061012c61042e565b604051808215151515815260200191505060405180910390f35b34801561015257600080fd5b5061015b610441565b005b34801561016957600080fd5b50610172610501565b604051808273ffffffffffffffffffffffffffffffffffffffff1673ffffffffffffffffffffffffffffffffffffffff16815260200191505060405180910390f35b3480156101c057600080fd5b506101f5600480360381019080803573ffffffffffffffffffffffffffffffffffffffff169060200190929190505050610526565b005b6000809054906101000a900473ffffffffffffffffffffffffffffffffffffffff1673ffffffffffffffffffffffffffffffffffffffff163373ffffffffffffffffffffffffffffffffffffffff1614151561025257600080fd5b6000809054906101000a900473ffffffffffffffffffffffffffffffffffffffff1673ffffffffffffffffffffffffffffffffffffffff163373ffffffffffffffffffffffffffffffffffffffff16141561036b5782600160006101000a81548173ffffffffffffffffffffffffffffffffffffffff021916908373ffffffffffffffffffffffffffffffffffffffff16021790555081600260006101000a81548173ffffffffffffffffffffffffffffffffffffffff021916908373ffffffffffffffffffffffffffffffffffffffff16021790555080600360006101000a81548173ffffffffffffffffffffffffffffffffffffffff021916908373ffffffffffffffffffffffffffffffffffffffff1602179055505b505050565b6000809054906101000a900473ffffffffffffffffffffffffffffffffffffffff1673ffffffffffffffffffffffffffffffffffffffff163373ffffffffffffffffffffffffffffffffffffffff161415156103cb57600080fd5b600060149054906101000a900460ff1615156103e657600080fd5b60008060146101000a81548160ff0219169083151502179055507f7805862f689e2f13df9f062ff482ad3ad112aca9e0847911ed832e158c525b3360405160405180910390a1565b600060149054906101000a900460ff1681565b6000809054906101000a900473ffffffffffffffffffffffffffffffffffffffff1673ffffffffffffffffffffffffffffffffffffffff163373ffffffffffffffffffffffffffffffffffffffff1614151561049c57600080fd5b600060149054906101000a900460ff161515156104b857600080fd5b6001600060146101000a81548160ff0219169083151502179055507f6985a02210a168e66602d3235cb6db0e70f92b3ba4d376a33c0f3d9434bff62560405160405180910390a1565b6000809054906101000a900473ffffffffffffffffffffffffffffffffffffffff1681565b6000809054906101000a900473ffffffffffffffffffffffffffffffffffffffff1673ffffffffffffffffffffffffffffffffffffffff163373ffffffffffffffffffffffffffffffffffffffff1614151561058157600080fd5b600073ffffffffffffffffffffffffffffffffffffffff168173ffffffffffffffffffffffffffffffffffffffff16141515156105bd57600080fd5b8073ffffffffffffffffffffffffffffffffffffffff166000809054906101000a900473ffffffffffffffffffffffffffffffffffffffff1673ffffffffffffffffffffffffffffffffffffffff167f8be0079c531659141344cd1fd0a4f28419497f9722a3daafe3b4186f6b6457e060405160405180910390a3806000806101000a81548173ffffffffffffffffffffffffffffffffffffffff021916908373ffffffffffffffffffffffffffffffffffffffff160217905550505600a165627a7a7230582085068c38e13bb4b0bbf7be43afbddd3c407ff55309db4bdc371e1ff20cfa4f6a0029",
  "source": "pragma solidity ^0.4.21;\r\n/**\r\n * @title ProcessCredentials\r\n * @dev The ProcessCredentials contracts allows credentialing orgs to assign credentials to an Applicant.\r\n */\r\nimport \"./Pausable.sol\";\r\nimport \"./SafeMath32.sol\";\r\n\r\ninterface CredentialOrgFactory{\r\n    function isCredentialOrg(address _credentialOrgAddress) external view returns (bool IsOrgAddress);\r\n}\r\n\r\ninterface CredentialFactory{\r\n    function selectCredential(address _credentialOrgAddress, uint32 _position) external view returns (string credentialLevel, string credentialTitle, string credentialDivision, uint32 credentialInsertDate, bool isActive);\r\n    function isCredentialActive(address _credentialOrgAddress, uint _position) external view returns (bool activeState);\r\n}\r\n\r\ninterface ApplicantFactory{\r\n    function selectApplicantByOrgAndPosition(address _orgAddress, uint32 _position) external view returns (address studentAddress, string SSN, string collegeStudentID, string firstName,  string lastName, uint32 insertDate,  uint32 processDate);\r\n    function selectOrgApplicantCount(address _orgAddress) external view returns (uint32 appCount);\r\n}\r\n\r\ncontract ProcessCredentials is Pausable {\r\n    /**\r\n    *  @dev Library useage for safemath for uint32\r\n    */\r\n    using SafeMath32 for uint32;\r\n    // mappings\r\n    \r\n    // events\r\n    event ProcessApplicant(address ApplicantAddress, uint32 position, string detail);\r\n\r\n    // variables\r\n    uint32 processedApplicants;\r\n    address credentialOrgFactoryAddress;\r\n    address credentialFactoryAddress;\r\n    address applicantFatoryAddress;\r\n\r\n    // constructor\r\n    constructor () public {\r\n        processedApplicants = 0;\r\n    }\r\n\r\n    // functions\r\n    /**\r\n    * @dev Allows owner to set address of CredentialOrgFactory contract.\r\n    * @param _credentialOrgContractAddress address of CredentialOrgFactory (set on deploy).\r\n    */\r\n    function setAddress(address _credentialOrgContractAddress, address _credentialContractAddress, address _applicantContractAddress) public onlyOwner {\r\n        if (msg.sender == owner){\r\n            credentialOrgFactoryAddress = _credentialOrgContractAddress;\r\n            credentialFactoryAddress = _credentialContractAddress;\r\n            applicantFatoryAddress = _applicantContractAddress;\r\n        }\r\n    }    \r\n}",
  "sourcePath": "E:\\Projects\\CredentialVerify\\contracts\\ProcessCredentials.sol",
  "compiler": {
    "name": "solc",
    "version": "0.4.24+commit.e67f0147.Emscripten.clang"
  },
  "schemaVersion": "2.0.1",
  "updatedAt": "2018-08-11T22:54:17.546Z"
}