{
  "contractName": "ProcessApplicants",
  "abi": [
    {
      "constant": false,
      "inputs": [],
      "name": "unpause",
      "outputs": [],
      "payable": false,
      "stateMutability": "nonpayable",
      "type": "function"
    },
    {
      "constant": true,
      "inputs": [],
      "name": "paused",
      "outputs": [
        {
          "name": "",
          "type": "bool"
        }
      ],
      "payable": false,
      "stateMutability": "view",
      "type": "function"
    },
    {
      "constant": false,
      "inputs": [],
      "name": "pause",
      "outputs": [],
      "payable": false,
      "stateMutability": "nonpayable",
      "type": "function"
    },
    {
      "constant": true,
      "inputs": [],
      "name": "owner",
      "outputs": [
        {
          "name": "",
          "type": "address"
        }
      ],
      "payable": false,
      "stateMutability": "view",
      "type": "function"
    },
    {
      "constant": false,
      "inputs": [
        {
          "name": "newOwner",
          "type": "address"
        }
      ],
      "name": "transferOwnership",
      "outputs": [],
      "payable": false,
      "stateMutability": "nonpayable",
      "type": "function"
    },
    {
      "inputs": [],
      "payable": false,
      "stateMutability": "nonpayable",
      "type": "constructor"
    },
    {
      "anonymous": false,
      "inputs": [
        {
          "indexed": false,
          "name": "orgAddress",
          "type": "address"
        },
        {
          "indexed": false,
          "name": "ApplicantAddress",
          "type": "address"
        },
        {
          "indexed": false,
          "name": "position",
          "type": "uint32"
        },
        {
          "indexed": false,
          "name": "detail",
          "type": "string"
        }
      ],
      "name": "ProcessCredentialApplicant",
      "type": "event"
    },
    {
      "anonymous": false,
      "inputs": [
        {
          "indexed": false,
          "name": "orgAddress",
          "type": "address"
        },
        {
          "indexed": false,
          "name": "detail",
          "type": "string"
        }
      ],
      "name": "ProcessCredentialDetail",
      "type": "event"
    },
    {
      "anonymous": false,
      "inputs": [],
      "name": "Pause",
      "type": "event"
    },
    {
      "anonymous": false,
      "inputs": [],
      "name": "Unpause",
      "type": "event"
    },
    {
      "anonymous": false,
      "inputs": [
        {
          "indexed": true,
          "name": "previousOwner",
          "type": "address"
        },
        {
          "indexed": true,
          "name": "newOwner",
          "type": "address"
        }
      ],
      "name": "OwnershipTransferred",
      "type": "event"
    },
    {
      "constant": false,
      "inputs": [
        {
          "name": "_credentialOrgContractAddress",
          "type": "address"
        },
        {
          "name": "_credentialContractAddress",
          "type": "address"
        },
        {
          "name": "_applicantContractAddress",
          "type": "address"
        }
      ],
      "name": "setAddress",
      "outputs": [],
      "payable": false,
      "stateMutability": "nonpayable",
      "type": "function"
    },
    {
      "constant": false,
      "inputs": [
        {
          "name": "_position",
          "type": "uint32"
        }
      ],
      "name": "setCredentialOrgApplicantPosition",
      "outputs": [],
      "payable": false,
      "stateMutability": "nonpayable",
      "type": "function"
    },
    {
      "constant": true,
      "inputs": [],
      "name": "selectCredentialOrgNextApplicant",
      "outputs": [
        {
          "name": "studentAddress",
          "type": "address"
        },
        {
          "name": "SSN",
          "type": "string"
        },
        {
          "name": "collegeStudentID",
          "type": "string"
        },
        {
          "name": "firstName",
          "type": "string"
        },
        {
          "name": "lastName",
          "type": "string"
        },
        {
          "name": "insertDate",
          "type": "uint32"
        }
      ],
      "payable": false,
      "stateMutability": "view",
      "type": "function"
    },
    {
      "constant": false,
      "inputs": [
        {
          "name": "_credentialPosition",
          "type": "uint32"
        }
      ],
      "name": "createApplicantCredential",
      "outputs": [
        {
          "name": "insertSuccess",
          "type": "bool"
        }
      ],
      "payable": false,
      "stateMutability": "nonpayable",
      "type": "function"
    },
    {
      "constant": false,
      "inputs": [],
      "name": "denyApplicantCredential",
      "outputs": [
        {
          "name": "updateStatus",
          "type": "bool"
        }
      ],
      "payable": false,
      "stateMutability": "nonpayable",
      "type": "function"
    }
  ],
  "bytecode": "0x608060405260008060146101000a81548160ff02191690831515021790555034801561002a57600080fd5b50336000806101000a81548173ffffffffffffffffffffffffffffffffffffffff021916908373ffffffffffffffffffffffffffffffffffffffff16021790555061255f8061007a6000396000f3006080604052600436106100a4576000357c0100000000000000000000000000000000000000000000000000000000900463ffffffff16806312505439146100a95780633be08dab146100dc5780633f4ba83a1461015f5780635c975abb1461017657806368c2d20e146101a55780638456cb59146101d45780638da5cb5b146101eb578063c3dc71b114610242578063e27716d71461028d578063f2fde38b146104a7575b600080fd5b3480156100b557600080fd5b506100da600480360381019080803563ffffffff1690602001909291905050506104ea565b005b3480156100e857600080fd5b5061015d600480360381019080803573ffffffffffffffffffffffffffffffffffffffff169060200190929190803573ffffffffffffffffffffffffffffffffffffffff169060200190929190803573ffffffffffffffffffffffffffffffffffffffff169060200190929190505050610a30565b005b34801561016b57600080fd5b50610174610ba9565b005b34801561018257600080fd5b5061018b610c67565b604051808215151515815260200191505060405180910390f35b3480156101b157600080fd5b506101ba610c7a565b604051808215151515815260200191505060405180910390f35b3480156101e057600080fd5b506101e9610e4f565b005b3480156101f757600080fd5b50610200610f0f565b604051808273ffffffffffffffffffffffffffffffffffffffff1673ffffffffffffffffffffffffffffffffffffffff16815260200191505060405180910390f35b34801561024e57600080fd5b50610273600480360381019080803563ffffffff169060200190929190505050610f34565b604051808215151515815260200191505060405180910390f35b34801561029957600080fd5b506102a2611819565b604051808773ffffffffffffffffffffffffffffffffffffffff1673ffffffffffffffffffffffffffffffffffffffff168152602001806020018060200180602001806020018663ffffffff1663ffffffff16815260200185810385528a818151815260200191508051906020019080838360005b83811015610332578082015181840152602081019050610317565b50505050905090810190601f16801561035f5780820380516001836020036101000a031916815260200191505b50858103845289818151815260200191508051906020019080838360005b8381101561039857808201518184015260208101905061037d565b50505050905090810190601f1680156103c55780820380516001836020036101000a031916815260200191505b50858103835288818151815260200191508051906020019080838360005b838110156103fe5780820151818401526020810190506103e3565b50505050905090810190601f16801561042b5780820380516001836020036101000a031916815260200191505b50858103825287818151815260200191508051906020019080838360005b83811015610464578082015181840152602081019050610449565b50505050905090810190601f1680156104915780820380516001836020036101000a031916815260200191505b509a505050505050505050505060405180910390f35b3480156104b357600080fd5b506104e8600480360381019080803573ffffffffffffffffffffffffffffffffffffffff169060200190929190505050611f02565b005b60003360008060009150600460009054906101000a900473ffffffffffffffffffffffffffffffffffffffff1690508073ffffffffffffffffffffffffffffffffffffffff1663e1eaee42336040518263ffffffff167c0100000000000000000000000000000000000000000000000000000000028152600401808273ffffffffffffffffffffffffffffffffffffffff1673ffffffffffffffffffffffffffffffffffffffff168152602001915050602060405180830381600087803b1580156105b457600080fd5b505af11580156105c8573d6000803e3d6000fd5b505050506040513d60208110156105de57600080fd5b8101908080519060200190929190505050156105f957600191505b60008263ffffffff161415610676576040517f08c379a000000000000000000000000000000000000000000000000000000000815260040180806020018281038252601c8152602001807f4e6f7420417574686f72697a65642043726564656e7469616c4f72670000000081525060200191505060405180910390fd5b60008563ffffffff1610151515610741576040517f08c379a00000000000000000000000000000000000000000000000000000000081526004018080602001828103825260478152602001807f73657443726564656e7469616c4f72674170706c6963616e74506f736974696f81526020017f6e20284641494c2920506f736974696f6e206d7573742062652030206f72206781526020017f7265617465722e0000000000000000000000000000000000000000000000000081525060600191505060405180910390fd5b600460009054906101000a900473ffffffffffffffffffffffffffffffffffffffff1693508373ffffffffffffffffffffffffffffffffffffffff1663e1eaee42336040518263ffffffff167c0100000000000000000000000000000000000000000000000000000000028152600401808273ffffffffffffffffffffffffffffffffffffffff1673ffffffffffffffffffffffffffffffffffffffff168152602001915050602060405180830381600087803b15801561080157600080fd5b505af1158015610815573d6000803e3d6000fd5b505050506040513d602081101561082b57600080fd5b8101908080519060200190929190505050156109665784600360003373ffffffffffffffffffffffffffffffffffffffff1673ffffffffffffffffffffffffffffffffffffffff16815260200190815260200160002060006101000a81548163ffffffff021916908363ffffffff1602179055507f35700b49fb417a13a257973e03d2106f91bb3a03c1ff1d27d9264885f4a603d333604051808273ffffffffffffffffffffffffffffffffffffffff1673ffffffffffffffffffffffffffffffffffffffff168152602001806020018281038252602b8152602001807f73657443726564656e7469616c4f72674170706c6963616e74506f736974696f81526020017f6e202853554343455353290000000000000000000000000000000000000000008152506040019250505060405180910390a1610a29565b7f35700b49fb417a13a257973e03d2106f91bb3a03c1ff1d27d9264885f4a603d333604051808273ffffffffffffffffffffffffffffffffffffffff1673ffffffffffffffffffffffffffffffffffffffff168152602001806020018281038252603b8152602001807f73657443726564656e7469616c4f72674170706c6963616e74506f736974696f81526020017f6e20284641494c29204e6f742043726564656e7469616c204f726700000000008152506040019250505060405180910390a15b5050505050565b6000809054906101000a900473ffffffffffffffffffffffffffffffffffffffff1673ffffffffffffffffffffffffffffffffffffffff163373ffffffffffffffffffffffffffffffffffffffff16141515610a8b57600080fd5b6000809054906101000a900473ffffffffffffffffffffffffffffffffffffffff1673ffffffffffffffffffffffffffffffffffffffff163373ffffffffffffffffffffffffffffffffffffffff161415610ba45782600460006101000a81548173ffffffffffffffffffffffffffffffffffffffff021916908373ffffffffffffffffffffffffffffffffffffffff16021790555081600560006101000a81548173ffffffffffffffffffffffffffffffffffffffff021916908373ffffffffffffffffffffffffffffffffffffffff16021790555080600660006101000a81548173ffffffffffffffffffffffffffffffffffffffff021916908373ffffffffffffffffffffffffffffffffffffffff1602179055505b505050565b6000809054906101000a900473ffffffffffffffffffffffffffffffffffffffff1673ffffffffffffffffffffffffffffffffffffffff163373ffffffffffffffffffffffffffffffffffffffff16141515610c0457600080fd5b600060149054906101000a900460ff161515610c1f57600080fd5b60008060146101000a81548160ff0219169083151502179055507f7805862f689e2f13df9f062ff482ad3ad112aca9e0847911ed832e158c525b3360405160405180910390a1565b600060149054906101000a900460ff1681565b60003360008060009150600460009054906101000a900473ffffffffffffffffffffffffffffffffffffffff1690508073ffffffffffffffffffffffffffffffffffffffff1663e1eaee42336040518263ffffffff167c0100000000000000000000000000000000000000000000000000000000028152600401808273ffffffffffffffffffffffffffffffffffffffff1673ffffffffffffffffffffffffffffffffffffffff168152602001915050602060405180830381600087803b158015610d4457600080fd5b505af1158015610d58573d6000803e3d6000fd5b505050506040513d6020811015610d6e57600080fd5b810190808051906020019092919050505015610d8957600191505b60008263ffffffff161415610e06576040517f08c379a000000000000000000000000000000000000000000000000000000000815260040180806020018281038252601c8152602001807f4e6f7420417574686f72697a65642043726564656e7469616c4f72670000000081525060200191505060405180910390fd5b610e446040805190810160405280600681526020017f44454e4945440000000000000000000000000000000000000000000000000000815250612057565b935083935050505090565b6000809054906101000a900473ffffffffffffffffffffffffffffffffffffffff1673ffffffffffffffffffffffffffffffffffffffff163373ffffffffffffffffffffffffffffffffffffffff16141515610eaa57600080fd5b600060149054906101000a900460ff16151515610ec657600080fd5b6001600060146101000a81548160ff0219169083151502179055507f6985a02210a168e66602d3235cb6db0e70f92b3ba4d376a33c0f3d9434bff62560405160405180910390a1565b6000809054906101000a900473ffffffffffffffffffffffffffffffffffffffff1681565b600080610f3f612424565b6000806000803360008060009150600460009054906101000a900473ffffffffffffffffffffffffffffffffffffffff1690508073ffffffffffffffffffffffffffffffffffffffff1663e1eaee42336040518263ffffffff167c0100000000000000000000000000000000000000000000000000000000028152600401808273ffffffffffffffffffffffffffffffffffffffff1673ffffffffffffffffffffffffffffffffffffffff168152602001915050602060405180830381600087803b15801561100d57600080fd5b505af1158015611021573d6000803e3d6000fd5b505050506040513d602081101561103757600080fd5b81019080805190602001909291905050501561105257600191505b60008263ffffffff1614156110cf576040517f08c379a000000000000000000000000000000000000000000000000000000000815260040180806020018281038252601c8152602001807f4e6f7420417574686f72697a65642043726564656e7469616c4f72670000000081525060200191505060405180910390fd5b6000995060009850600660009054906101000a900473ffffffffffffffffffffffffffffffffffffffff169650600560009054906101000a900473ffffffffffffffffffffffffffffffffffffffff1695508673ffffffffffffffffffffffffffffffffffffffff1663f76806d933600360003373ffffffffffffffffffffffffffffffffffffffff1673ffffffffffffffffffffffffffffffffffffffff16815260200190815260200160002060009054906101000a900463ffffffff166040518363ffffffff167c0100000000000000000000000000000000000000000000000000000000028152600401808373ffffffffffffffffffffffffffffffffffffffff1673ffffffffffffffffffffffffffffffffffffffff1681526020018263ffffffff1663ffffffff16815260200192505050600060405180830381600087803b15801561121f57600080fd5b505af1158015611233573d6000803e3d6000fd5b505050506040513d6000823e3d601f19601f8201168201806040525060a081101561125d57600080fd5b8101908080519060200190929190805164010000000081111561127f57600080fd5b8281019050602081018481111561129557600080fd5b81518560018202830111640100000000821117156112b257600080fd5b505092919060200180516401000000008111156112ce57600080fd5b828101905060208101848111156112e457600080fd5b815185600182028301116401000000008211171561130157600080fd5b5050929190602001805164010000000081111561131d57600080fd5b8281019050602081018481111561133357600080fd5b815185600182028301116401000000008211171561135057600080fd5b5050929190602001805164010000000081111561136c57600080fd5b8281019050602081018481111561138257600080fd5b815185600182028301116401000000008211171561139f57600080fd5b5050929190505050909192509091508191508090508a6020018b6040018c6060018390528390528373ffffffffffffffffffffffffffffffffffffffff1673ffffffffffffffffffffffffffffffffffffffff168152505050508573ffffffffffffffffffffffffffffffffffffffff1663e7c32593338d6040518363ffffffff167c0100000000000000000000000000000000000000000000000000000000028152600401808373ffffffffffffffffffffffffffffffffffffffff1673ffffffffffffffffffffffffffffffffffffffff1681526020018263ffffffff1663ffffffff16815260200192505050600060405180830381600087803b1580156114a857600080fd5b505af11580156114bc573d6000803e3d6000fd5b505050506040513d6000823e3d601f19601f8201168201806040525060a08110156114e657600080fd5b8101908080516401000000008111156114fe57600080fd5b8281019050602081018481111561151457600080fd5b815185600182028301116401000000008211171561153157600080fd5b5050929190602001805164010000000081111561154d57600080fd5b8281019050602081018481111561156357600080fd5b815185600182028301116401000000008211171561158057600080fd5b5050929190602001805164010000000081111561159c57600080fd5b828101905060208101848111156115b257600080fd5b81518560018202830111640100000000821117156115cf57600080fd5b505092919060200180519060200190929190805190602001909291905050508494508393508292509050508a6080018b60a0018c60c001839052839052839052505050600160003373ffffffffffffffffffffffffffffffffffffffff1673ffffffffffffffffffffffffffffffffffffffff168152602001908152602001600020889080600181540180825580915050906001820390600052602060002090600702016000909192909190915060008201518160000160006101000a81548173ffffffffffffffffffffffffffffffffffffffff021916908373ffffffffffffffffffffffffffffffffffffffff16021790555060208201518160010160006101000a81548173ffffffffffffffffffffffffffffffffffffffff021916908373ffffffffffffffffffffffffffffffffffffffff160217905550604082015181600201908051906020019061172792919061248e565b50606082015181600301908051906020019061174492919061248e565b50608082015181600401908051906020019061176192919061248e565b5060a082015181600501908051906020019061177e92919061248e565b5060c082015181600601908051906020019061179b92919061248e565b505050945060008563ffffffff1611156117b457600198505b6117f26040805190810160405280600781526020017f4157415244454400000000000000000000000000000000000000000000000000815250612057565b93508380156117fe5750885b1561180857600199505b899950505050505050505050919050565b60006060806060806000803360008060009150600460009054906101000a900473ffffffffffffffffffffffffffffffffffffffff1690508073ffffffffffffffffffffffffffffffffffffffff1663e1eaee42336040518263ffffffff167c0100000000000000000000000000000000000000000000000000000000028152600401808273ffffffffffffffffffffffffffffffffffffffff1673ffffffffffffffffffffffffffffffffffffffff168152602001915050602060405180830381600087803b1580156118ec57600080fd5b505af1158015611900573d6000803e3d6000fd5b505050506040513d602081101561191657600080fd5b81019080805190602001909291905050501561193157600191505b60008263ffffffff1614156119ae576040517f08c379a000000000000000000000000000000000000000000000000000000000815260040180806020018281038252601c8152602001807f4e6f7420417574686f72697a65642043726564656e7469616c4f72670000000081525060200191505060405180910390fd5b600660009054906101000a900473ffffffffffffffffffffffffffffffffffffffff169350600360003373ffffffffffffffffffffffffffffffffffffffff1673ffffffffffffffffffffffffffffffffffffffff16815260200190815260200160002060009054906101000a900463ffffffff1663ffffffff168473ffffffffffffffffffffffffffffffffffffffff16631e0beabe336040518263ffffffff167c0100000000000000000000000000000000000000000000000000000000028152600401808273ffffffffffffffffffffffffffffffffffffffff1673ffffffffffffffffffffffffffffffffffffffff168152602001915050602060405180830381600087803b158015611ac457600080fd5b505af1158015611ad8573d6000803e3d6000fd5b505050506040513d6020811015611aee57600080fd5b810190808051906020019092919050505063ffffffff16101515611dab578373ffffffffffffffffffffffffffffffffffffffff1663f76806d933600360003373ffffffffffffffffffffffffffffffffffffffff1673ffffffffffffffffffffffffffffffffffffffff16815260200190815260200160002060009054906101000a900463ffffffff166040518363ffffffff167c0100000000000000000000000000000000000000000000000000000000028152600401808373ffffffffffffffffffffffffffffffffffffffff1673ffffffffffffffffffffffffffffffffffffffff1681526020018263ffffffff1663ffffffff16815260200192505050600060405180830381600087803b158015611c0a57600080fd5b505af1158015611c1e573d6000803e3d6000fd5b505050506040513d6000823e3d601f19601f8201168201806040525060a0811015611c4857600080fd5b81019080805190602001909291908051640100000000811115611c6a57600080fd5b82810190506020810184811115611c8057600080fd5b8151856001820283011164010000000082111715611c9d57600080fd5b50509291906020018051640100000000811115611cb957600080fd5b82810190506020810184811115611ccf57600080fd5b8151856001820283011164010000000082111715611cec57600080fd5b50509291906020018051640100000000811115611d0857600080fd5b82810190506020810184811115611d1e57600080fd5b8151856001820283011164010000000082111715611d3b57600080fd5b50509291906020018051640100000000811115611d5757600080fd5b82810190506020810184811115611d6d57600080fd5b8151856001820283011164010000000082111715611d8a57600080fd5b5050929190505050809a50819b50829c50839d50849e505050505050611ee4565b60009950602060405190810160405280600081525098506020604051908101604052806000815250975060206040519081016040528060008152509650602060405190810160405280600081525095507f35700b49fb417a13a257973e03d2106f91bb3a03c1ff1d27d9264885f4a603d333604051808273ffffffffffffffffffffffffffffffffffffffff1673ffffffffffffffffffffffffffffffffffffffff16815260200180602001828103825260418152602001807f73656c65637443726564656e7469616c4f72674e6578744170706c6963616e7481526020017f20284641494c29204e6f204170706c6963616e747320746f2050726f6365737381526020017f2e000000000000000000000000000000000000000000000000000000000000008152506060019250505060405180910390a15b89898989898999509950995099509950995050505050909192939495565b6000809054906101000a900473ffffffffffffffffffffffffffffffffffffffff1673ffffffffffffffffffffffffffffffffffffffff163373ffffffffffffffffffffffffffffffffffffffff16141515611f5d57600080fd5b600073ffffffffffffffffffffffffffffffffffffffff168173ffffffffffffffffffffffffffffffffffffffff1614151515611f9957600080fd5b8073ffffffffffffffffffffffffffffffffffffffff166000809054906101000a900473ffffffffffffffffffffffffffffffffffffffff1673ffffffffffffffffffffffffffffffffffffffff167f8be0079c531659141344cd1fd0a4f28419497f9722a3daafe3b4186f6b6457e060405160405180910390a3806000806101000a81548173ffffffffffffffffffffffffffffffffffffffff021916908373ffffffffffffffffffffffffffffffffffffffff16021790555050565b600080600660009054906101000a900473ffffffffffffffffffffffffffffffffffffffff169050600360003373ffffffffffffffffffffffffffffffffffffffff1673ffffffffffffffffffffffffffffffffffffffff16815260200190815260200160002060009054906101000a900463ffffffff1663ffffffff168173ffffffffffffffffffffffffffffffffffffffff16631e0beabe336040518263ffffffff167c0100000000000000000000000000000000000000000000000000000000028152600401808273ffffffffffffffffffffffffffffffffffffffff1673ffffffffffffffffffffffffffffffffffffffff168152602001915050602060405180830381600087803b15801561217057600080fd5b505af1158015612184573d6000803e3d6000fd5b505050506040513d602081101561219a57600080fd5b810190808051906020019092919050505063ffffffff16101515612331578073ffffffffffffffffffffffffffffffffffffffff1663bbbd0832600360003373ffffffffffffffffffffffffffffffffffffffff1673ffffffffffffffffffffffffffffffffffffffff16815260200190815260200160002060009054906101000a900463ffffffff16856040518363ffffffff167c0100000000000000000000000000000000000000000000000000000000028152600401808363ffffffff1663ffffffff16815260200180602001828103825283818151815260200191508051906020019080838360005b838110156122a2578082015181840152602081019050612287565b50505050905090810190601f1680156122cf5780820380516001836020036101000a031916815260200191505b509350505050602060405180830381600087803b1580156122ef57600080fd5b505af1158015612303573d6000803e3d6000fd5b505050506040513d602081101561231957600080fd5b8101908080519060200190929190505050915061241e565b600091507f35700b49fb417a13a257973e03d2106f91bb3a03c1ff1d27d9264885f4a603d333604051808273ffffffffffffffffffffffffffffffffffffffff1673ffffffffffffffffffffffffffffffffffffffff16815260200180602001828103825260488152602001807f64656e794170706c6963616e7443726564656e7469616c20284641494c29206381526020017f726564656e7469616c4f7267546f4170706c6963616e74506f736974696f6e2081526020017f6661696c7572652e0000000000000000000000000000000000000000000000008152506060019250505060405180910390a15b50919050565b60e060405190810160405280600073ffffffffffffffffffffffffffffffffffffffff168152602001600073ffffffffffffffffffffffffffffffffffffffff16815260200160608152602001606081526020016060815260200160608152602001606081525090565b828054600181600116156101000203166002900490600052602060002090601f016020900481019282601f106124cf57805160ff19168380011785556124fd565b828001600101855582156124fd579182015b828111156124fc5782518255916020019190600101906124e1565b5b50905061250a919061250e565b5090565b61253091905b8082111561252c576000816000905550600101612514565b5090565b905600a165627a7a72305820eb25178efe5a98b10f9072b3ec61fc9fd073077e15416582c4a1f8eb436c2f4e0029",
  "source": "pragma solidity ^0.4.21;\r\n/**\r\n * @title ProcessCredentials\r\n * @dev The ProcessCredentials contracts allows credentialing orgs to assign credentials to an Applicant.\r\n */\r\nimport \"./Pausable.sol\";\r\nimport \"./SafeMath32.sol\";\r\n\r\ninterface CredentialOrgFactory{\r\n    function isCredentialOrg(address _credentialOrgAddress) external view returns (bool IsOrgAddress);\r\n}\r\n\r\ninterface CredentialFactory{\r\n    function selectCredential(address _credentialOrgAddress, uint32 _position) external view returns (string credentialLevel, string credentialTitle, string credentialDivision, uint32 credentialInsertDate, bool isActive);\r\n    function isCredentialActive(address _credentialOrgAddress, uint _position) external view returns (bool activeState);\r\n}\r\n\r\ninterface ApplicantFactory{\r\n    function selectApplicantByOrgAndPosition(address _orgAddress, uint32 _position) external view returns (address studentAddress, string SSN, string collegeStudentID, string firstName,  string lastName);\r\n    function updateApplicantByOrgAndPosition(uint32 _position, string _processDetail) external returns (bool updateSuccess);\r\n    function selectOrgApplicantCount(address _orgAddress) external view returns (uint32 appCount);\r\n}\r\n\r\ncontract ProcessApplicants is Pausable {\r\n    /**\r\n    *  @dev Library useage for safemath for uint32\r\n    */\r\n    using SafeMath32 for uint32;\r\n    // mappings\r\n    mapping (address => ApplicantCredential[]) credentialOrgToApplicantCredential;\r\n    mapping (address => uint32) credentialOrgToApplicantCredentials;\r\n    mapping (address => uint32) credentailOrgToApplicantPosition;\r\n\r\n\r\n    // events\r\n    event ProcessCredentialApplicant(address orgAddress, address ApplicantAddress, uint32 position, string detail);\r\n    event ProcessCredentialDetail(address orgAddress,string detail);\r\n\r\n    // structs\r\n    struct ApplicantCredential {\r\n        // addresses\r\n        address credentialOrg;\r\n        address applicant;\r\n        // student detail\r\n        string firstName;          // first name lenmax 40\r\n        string lastName;           // last name  lenmax 40\r\n        // credential details\r\n        string credentialLevel;     // 50 or less string\r\n        string credentialTitle;     // 70 or less string\r\n        string credentialDivision;  // 50 or less string\r\n    }\r\n\r\n    // variables\r\n    address private credentialOrgFactoryAddress;\r\n    address private credentialFactoryAddress;\r\n    address private applicantFatoryAddress;\r\n\r\n    // modifiers\r\n    /**\r\n    * @dev Modifer onlyBy for Access Control\r\n    */\r\n    modifier onlyBy(address _credentialOrgAddress){\r\n        uint32 foundAccount = 0;\r\n        CredentialOrgFactory cof = CredentialOrgFactory(credentialOrgFactoryAddress);\r\n        if (cof.isCredentialOrg(msg.sender)){\r\n            foundAccount = 1;\r\n        }\r\n        if (foundAccount == 0) revert(\"Not Authorized CredentialOrg\");\r\n        _;\r\n    }\r\n\r\n    // constructor\r\n    constructor () public {\r\n    }\r\n\r\n    // functions\r\n    /**\r\n    * @dev Allows owner to set addresses needed for ProcessCredentials contract.\r\n    * @param _credentialOrgContractAddress address of CredentialOrgFactory (set on deploy).\r\n    * @param _credentialContractAddress address of CredentialFactory (set on deploy).\r\n    * @param _applicantContractAddress address of ApplicantFactory (set on deploy).\r\n    */\r\n    function setAddress(address _credentialOrgContractAddress, address _credentialContractAddress, address _applicantContractAddress) \r\n    public onlyOwner \r\n    {\r\n        if (msg.sender == owner){\r\n            credentialOrgFactoryAddress = _credentialOrgContractAddress;\r\n            credentialFactoryAddress = _credentialContractAddress;\r\n            applicantFatoryAddress = _applicantContractAddress;\r\n        }\r\n    }    \r\n    /**\r\n    * @dev Allows credentialOrg to set where they want to begin processing Applicants (int=0)\r\n    * @param _position address of CredentialOrgFactory (set on deploy).\r\n    */\r\n    function setCredentialOrgApplicantPosition (uint32 _position)\r\n    public onlyBy(msg.sender)\r\n    {\r\n        require(_position >= 0,\"setCredentialOrgApplicantPosition (FAIL) Position must be 0 or greater.\");\r\n        CredentialOrgFactory cof = CredentialOrgFactory(credentialOrgFactoryAddress);\r\n        if (cof.isCredentialOrg(msg.sender)){\r\n            credentailOrgToApplicantPosition[msg.sender] = _position;\r\n            emit ProcessCredentialDetail (msg.sender, \"setCredentialOrgApplicantPosition (SUCCESS)\");\r\n        } else {\r\n            emit ProcessCredentialDetail (msg.sender, \"setCredentialOrgApplicantPosition (FAIL) Not Credential Org\");\r\n        }\r\n    }\r\n    /**\r\n    * @dev Allows credentialOrg to select next Applicant (or sends back blank of not available/error)\r\n    */\r\n    function selectCredentialOrgNextApplicant()\r\n    public view onlyBy(msg.sender)\r\n    returns (address studentAddress, string SSN, string collegeStudentID, string firstName,  string lastName, uint32 insertDate)\r\n    {\r\n        ApplicantFactory af = ApplicantFactory(applicantFatoryAddress);\r\n        if (af.selectOrgApplicantCount(msg.sender) >= credentailOrgToApplicantPosition[msg.sender]){\r\n            (studentAddress, SSN, collegeStudentID, firstName, lastName) = af.selectApplicantByOrgAndPosition(msg.sender, credentailOrgToApplicantPosition[msg.sender]);\r\n        } else {\r\n            studentAddress = 0;\r\n            SSN = \"\";\r\n            collegeStudentID = \"\";\r\n            firstName = \"\";\r\n            lastName = \"\";\r\n            emit ProcessCredentialDetail (msg.sender, \"selectCredentialOrgNextApplicant (FAIL) No Applicants to Process.\");\r\n        }\r\n        return (studentAddress, SSN, collegeStudentID, firstName, lastName, insertDate);\r\n    }\r\n\r\n    function createApplicantCredential(uint32 _credentialPosition)\r\n    public onlyBy(msg.sender)\r\n    returns (bool insertSuccess)\r\n    {\r\n        insertSuccess = false;\r\n        bool insertStatus = false;\r\n        ApplicantCredential memory appCredential;\r\n        ApplicantFactory af = ApplicantFactory(applicantFatoryAddress);\r\n        CredentialFactory cf = CredentialFactory(credentialFactoryAddress);\r\n        (appCredential.applicant, , , appCredential.firstName, appCredential.lastName) = af.selectApplicantByOrgAndPosition(msg.sender, credentailOrgToApplicantPosition[msg.sender]);\r\n        (appCredential.credentialLevel, appCredential.credentialTitle, appCredential.credentialDivision, , ) = cf.selectCredential(msg.sender, _credentialPosition);\r\n        uint32 position = uint32(credentialOrgToApplicantCredential[msg.sender].push(appCredential));\r\n        if (position > 0){\r\n            insertStatus = true;\r\n        }\r\n        bool updateStatus = updateApplicant(\"AWARDED\");\r\n        if (updateStatus && insertStatus){\r\n            insertSuccess = true;\r\n        }\r\n        return (insertSuccess);\r\n    }\r\n\r\n    function denyApplicantCredential()\r\n    public onlyBy(msg.sender)\r\n    returns (bool updateStatus)\r\n    {\r\n        updateStatus = updateApplicant(\"DENIED\");\r\n        return (updateStatus);\r\n    }\r\n\r\n    function updateApplicant (string _status)\r\n    internal \r\n    returns (bool updateStatus)\r\n    {\r\n        ApplicantFactory af = ApplicantFactory(applicantFatoryAddress);\r\n        if (af.selectOrgApplicantCount(msg.sender) >= credentailOrgToApplicantPosition[msg.sender]){\r\n            updateStatus = af.updateApplicantByOrgAndPosition(credentailOrgToApplicantPosition[msg.sender], _status);\r\n        } else {\r\n            updateStatus = false;\r\n            emit ProcessCredentialDetail (msg.sender, \"denyApplicantCredential (FAIL) credentialOrgToApplicantPosition failure.\");\r\n        }\r\n    }\r\n}",
  "sourcePath": "E:\\Projects\\CredentialVerify\\contracts\\ProcessApplicants.sol",
  "compiler": {
    "name": "solc",
    "version": "0.4.24+commit.e67f0147.Emscripten.clang"
  },
  "schemaVersion": "2.0.1",
  "updatedAt": "2018-08-14T02:36:16.319Z"
}