{
  "contractName": "ProcessCredentials",
  "abi": [
    {
      "constant": false,
      "inputs": [],
      "name": "unpause",
      "outputs": [],
      "payable": false,
      "stateMutability": "nonpayable",
      "type": "function"
    },
    {
      "constant": false,
      "inputs": [
        {
          "name": "_shortName",
          "type": "bytes32"
        },
        {
          "name": "_schoolAddress",
          "type": "address"
        },
        {
          "name": "_schoolCode",
          "type": "bytes6"
        },
        {
          "name": "_officialSchoolName",
          "type": "string"
        }
      ],
      "name": "createCredentialOrg",
      "outputs": [
        {
          "name": "position",
          "type": "uint256"
        }
      ],
      "payable": false,
      "stateMutability": "nonpayable",
      "type": "function"
    },
    {
      "constant": true,
      "inputs": [],
      "name": "selectOrgCount",
      "outputs": [
        {
          "name": "returnOrgCount",
          "type": "uint256"
        }
      ],
      "payable": false,
      "stateMutability": "view",
      "type": "function"
    },
    {
      "constant": true,
      "inputs": [],
      "name": "paused",
      "outputs": [
        {
          "name": "",
          "type": "bool"
        }
      ],
      "payable": false,
      "stateMutability": "view",
      "type": "function"
    },
    {
      "constant": true,
      "inputs": [
        {
          "name": "",
          "type": "uint256"
        }
      ],
      "name": "applicants",
      "outputs": [
        {
          "name": "studentAddress",
          "type": "address"
        },
        {
          "name": "collegeAddress",
          "type": "address"
        },
        {
          "name": "SSN",
          "type": "string"
        },
        {
          "name": "collegeStudentID",
          "type": "string"
        },
        {
          "name": "firstName",
          "type": "bytes32"
        },
        {
          "name": "middleName",
          "type": "bytes32"
        },
        {
          "name": "lastName",
          "type": "bytes32"
        },
        {
          "name": "nameSuffix",
          "type": "bytes8"
        },
        {
          "name": "dateOfBirth",
          "type": "bytes8"
        },
        {
          "name": "insertDate",
          "type": "uint256"
        },
        {
          "name": "processDate",
          "type": "uint256"
        }
      ],
      "payable": false,
      "stateMutability": "view",
      "type": "function"
    },
    {
      "constant": false,
      "inputs": [],
      "name": "pause",
      "outputs": [],
      "payable": false,
      "stateMutability": "nonpayable",
      "type": "function"
    },
    {
      "constant": false,
      "inputs": [
        {
          "name": "_collegeAddress",
          "type": "address"
        },
        {
          "name": "_SSN",
          "type": "string"
        },
        {
          "name": "_collegeStudentID",
          "type": "string"
        },
        {
          "name": "_firstName",
          "type": "bytes32"
        },
        {
          "name": "_middleName",
          "type": "bytes32"
        },
        {
          "name": "_lastName",
          "type": "bytes32"
        },
        {
          "name": "_nameSuffix",
          "type": "bytes8"
        },
        {
          "name": "_dateOfBirth",
          "type": "bytes8"
        }
      ],
      "name": "createApplicant",
      "outputs": [],
      "payable": false,
      "stateMutability": "nonpayable",
      "type": "function"
    },
    {
      "constant": true,
      "inputs": [],
      "name": "owner",
      "outputs": [
        {
          "name": "",
          "type": "address"
        }
      ],
      "payable": false,
      "stateMutability": "view",
      "type": "function"
    },
    {
      "constant": true,
      "inputs": [],
      "name": "orgProcessorsCount",
      "outputs": [
        {
          "name": "",
          "type": "uint256"
        }
      ],
      "payable": false,
      "stateMutability": "view",
      "type": "function"
    },
    {
      "constant": true,
      "inputs": [
        {
          "name": "_credentialOrgAddress",
          "type": "address"
        }
      ],
      "name": "isCredentialOrg",
      "outputs": [
        {
          "name": "IsOrgAddress",
          "type": "bool"
        }
      ],
      "payable": false,
      "stateMutability": "view",
      "type": "function"
    },
    {
      "constant": true,
      "inputs": [
        {
          "name": "",
          "type": "uint256"
        }
      ],
      "name": "orgProcessors",
      "outputs": [
        {
          "name": "credentialOrgAddress",
          "type": "address"
        },
        {
          "name": "lastApplicantPosition",
          "type": "uint32"
        }
      ],
      "payable": false,
      "stateMutability": "view",
      "type": "function"
    },
    {
      "constant": true,
      "inputs": [
        {
          "name": "_credentialPosition",
          "type": "uint256"
        }
      ],
      "name": "selectCredentialOrg",
      "outputs": [
        {
          "name": "shortName",
          "type": "bytes32"
        },
        {
          "name": "schoolCode",
          "type": "bytes6"
        },
        {
          "name": "officialSchoolName",
          "type": "string"
        },
        {
          "name": "schoolAddress",
          "type": "address"
        }
      ],
      "payable": false,
      "stateMutability": "view",
      "type": "function"
    },
    {
      "constant": false,
      "inputs": [
        {
          "name": "newOwner",
          "type": "address"
        }
      ],
      "name": "transferOwnership",
      "outputs": [],
      "payable": false,
      "stateMutability": "nonpayable",
      "type": "function"
    },
    {
      "constant": true,
      "inputs": [],
      "name": "selectApplicantCount",
      "outputs": [
        {
          "name": "appCount",
          "type": "uint256"
        }
      ],
      "payable": false,
      "stateMutability": "view",
      "type": "function"
    },
    {
      "inputs": [],
      "payable": false,
      "stateMutability": "nonpayable",
      "type": "constructor"
    },
    {
      "anonymous": false,
      "inputs": [
        {
          "indexed": false,
          "name": "ApplicantAddress",
          "type": "address"
        },
        {
          "indexed": false,
          "name": "position",
          "type": "uint32"
        },
        {
          "indexed": false,
          "name": "detail",
          "type": "string"
        }
      ],
      "name": "ProcessApplicant",
      "type": "event"
    },
    {
      "anonymous": false,
      "inputs": [
        {
          "indexed": false,
          "name": "ApplicantAddress",
          "type": "address"
        },
        {
          "indexed": false,
          "name": "position",
          "type": "uint32"
        },
        {
          "indexed": false,
          "name": "detail",
          "type": "string"
        }
      ],
      "name": "NewApplicantAdd",
      "type": "event"
    },
    {
      "anonymous": false,
      "inputs": [
        {
          "indexed": false,
          "name": "shortName",
          "type": "bytes32"
        },
        {
          "indexed": false,
          "name": "schoolAddress",
          "type": "address"
        },
        {
          "indexed": false,
          "name": "detail",
          "type": "string"
        }
      ],
      "name": "NewOrgAdd",
      "type": "event"
    },
    {
      "anonymous": false,
      "inputs": [],
      "name": "Pause",
      "type": "event"
    },
    {
      "anonymous": false,
      "inputs": [],
      "name": "Unpause",
      "type": "event"
    },
    {
      "anonymous": false,
      "inputs": [
        {
          "indexed": true,
          "name": "previousOwner",
          "type": "address"
        },
        {
          "indexed": true,
          "name": "newOwner",
          "type": "address"
        }
      ],
      "name": "OwnershipTransferred",
      "type": "event"
    },
    {
      "constant": false,
      "inputs": [],
      "name": "updateOrgProcessors",
      "outputs": [],
      "payable": false,
      "stateMutability": "nonpayable",
      "type": "function"
    },
    {
      "constant": false,
      "inputs": [
        {
          "name": "_position",
          "type": "uint256"
        }
      ],
      "name": "updateApplicant",
      "outputs": [],
      "payable": false,
      "stateMutability": "nonpayable",
      "type": "function"
    },
    {
      "constant": true,
      "inputs": [
        {
          "name": "_startPosition",
          "type": "uint256"
        }
      ],
      "name": "selectNextApplicantID",
      "outputs": [
        {
          "name": "ID",
          "type": "uint256"
        }
      ],
      "payable": false,
      "stateMutability": "view",
      "type": "function"
    },
    {
      "constant": true,
      "inputs": [
        {
          "name": "_position",
          "type": "uint256"
        }
      ],
      "name": "selectApplicantPartA",
      "outputs": [
        {
          "name": "studentAddress",
          "type": "address"
        },
        {
          "name": "collegeAddress",
          "type": "address"
        },
        {
          "name": "SSN",
          "type": "string"
        },
        {
          "name": "collegeStudentID",
          "type": "string"
        },
        {
          "name": "firstName",
          "type": "bytes32"
        },
        {
          "name": "middleName",
          "type": "bytes32"
        }
      ],
      "payable": false,
      "stateMutability": "view",
      "type": "function"
    },
    {
      "constant": true,
      "inputs": [
        {
          "name": "_position",
          "type": "uint256"
        }
      ],
      "name": "selectApplicantPartB",
      "outputs": [
        {
          "name": "lastName",
          "type": "bytes32"
        },
        {
          "name": "nameSuffix",
          "type": "bytes8"
        },
        {
          "name": "dateOfBirth",
          "type": "bytes8"
        },
        {
          "name": "insertDate",
          "type": "uint256"
        }
      ],
      "payable": false,
      "stateMutability": "view",
      "type": "function"
    },
    {
      "constant": false,
      "inputs": [
        {
          "name": "_position",
          "type": "uint256"
        }
      ],
      "name": "processApplicant",
      "outputs": [],
      "payable": false,
      "stateMutability": "nonpayable",
      "type": "function"
    }
  ],
  "bytecode": "0x608060405260008060146101000a81548160ff0219169083151502179055503480156200002b57600080fd5b50336000806101000a81548173ffffffffffffffffffffffffffffffffffffffff021916908373ffffffffffffffffffffffffffffffffffffffff1602179055506000600381905550620001277f41424300000000000000000000000000000000000000000000000000000000006000809054906101000a900473ffffffffffffffffffffffffffffffffffffffff167f30303030303000000000000000000000000000000000000000000000000000006040805190810160405280601281526020017f426173655265636f7264666f724f776e657200000000000000000000000000008152506200028c640100000000026401000000009004565b50620001ce7f53434300000000000000000000000000000000000000000000000000000000007314723a09acff6d2a60dcdf7aa4aff308fddc160c7f30303337393300000000000000000000000000000000000000000000000000006040805190810160405280601981526020017f53706f6b616e6520436f6d6d756e69747920436f6c6c656765000000000000008152506200028c640100000000026401000000009004565b50620002757f5346434300000000000000000000000000000000000000000000000000000000734b0897b0513fdc7c541b6d9d7e929c4e5364d2db7f30303935343400000000000000000000000000000000000000000000000000006040805190810160405280601f81526020017f53706f6b616e652046616c6c7320436f6d6d756e69747920436f6c6c656765008152506200028c640100000000026401000000009004565b50600060058190555060006008819055506200076e565b60007fd269155c21749744b1d4aa8db9212a1c95a65f3baa13728e9d0cc0b6433b2cea85856040518083600019166000191681526020018273ffffffffffffffffffffffffffffffffffffffff1673ffffffffffffffffffffffffffffffffffffffff16815260200180602001828103825260118152602001807f4e6577204f726720416464202850524529000000000000000000000000000000815250602001935050505060405180910390a16000602060ff1611801562000366575060008473ffffffffffffffffffffffffffffffffffffffff1614155b801562000376575060068060ff16145b801562000384575060008251115b801562000392575060468251105b15156200039e57600080fd5b6004608060405190810160405280876000191681526020018579ffffffffffffffffffffffffffffffffffffffffffffffffffff191681526020018481526020018673ffffffffffffffffffffffffffffffffffffffff16815250908060018154018082558091505090600182039060005260206000209060040201600090919290919091506000820151816000019060001916905560208201518160010160006101000a81548165ffffffffffff02191690837a01000000000000000000000000000000000000000000000000000090040217905550604082015181600201908051906020019062000493929190620006bf565b5060608201518160030160006101000a81548173ffffffffffffffffffffffffffffffffffffffff021916908373ffffffffffffffffffffffffffffffffffffffff1602179055505050905060008111156200064657836001600083815260200190815260200160002060006101000a81548173ffffffffffffffffffffffffffffffffffffffff021916908373ffffffffffffffffffffffffffffffffffffffff16021790555060018103600260008673ffffffffffffffffffffffffffffffffffffffff1673ffffffffffffffffffffffffffffffffffffffff168152602001908152602001600020819055506003600081548092919060010191905055507fd269155c21749744b1d4aa8db9212a1c95a65f3baa13728e9d0cc0b6433b2cea85856040518083600019166000191681526020018273ffffffffffffffffffffffffffffffffffffffff1673ffffffffffffffffffffffffffffffffffffffff16815260200180602001828103825260158152602001807f4e6577204f726720416464202853554343455353290000000000000000000000815250602001935050505060405180910390a1620006b4565b6040517f08c379a00000000000000000000000000000000000000000000000000000000081526004018080602001828103825260128152602001807f4e6577204f72672041646420284641494c29000000000000000000000000000081525060200191505060405180910390fd5b809050949350505050565b828054600181600116156101000203166002900490600052602060002090601f016020900481019282601f106200070257805160ff191683800117855562000733565b8280016001018555821562000733579182015b828111156200073257825182559160200191906001019062000715565b5b50905062000742919062000746565b5090565b6200076b91905b80821115620007675760008160009055506001016200074d565b5090565b90565b612aad806200077e6000396000f300608060405260043610610112576000357c0100000000000000000000000000000000000000000000000000000000900463ffffffff16806323d0b19a146101175780633f4ba83a146101585780634afab74c1461016f578063554ee043146102415780635c975abb1461026c5780635ca5d6261461029b57806363de5323146104315780638456cb591461065e57806388ddba6b146106755780638da5cb5b146107b8578063c330f0071461080f578063c4d707aa1461083c578063e0d1fc3914610853578063e1eaee421461087e578063e523c396146108d9578063f071459314610959578063f18e49c614610986578063f2fde38b14610aaf578063f947908914610af2578063fb997a8914610bbc575b600080fd5b34801561012357600080fd5b5061014260048036038101908080359060200190929190505050610be7565b6040518082815260200191505060405180910390f35b34801561016457600080fd5b5061016d610dc9565b005b34801561017b57600080fd5b5061022b6004803603810190808035600019169060200190929190803573ffffffffffffffffffffffffffffffffffffffff169060200190929190803579ffffffffffffffffffffffffffffffffffffffffffffffffffff19169060200190929190803590602001908201803590602001908080601f0160208091040260200160405190810160405280939291908181526020018383808284378201915050505050509192919290505050610e87565b6040518082815260200191505060405180910390f35b34801561024d57600080fd5b506102566112b1565b6040518082815260200191505060405180910390f35b34801561027857600080fd5b506102816112be565b604051808215151515815260200191505060405180910390f35b3480156102a757600080fd5b506102c6600480360381019080803590602001909291905050506112d1565b604051808773ffffffffffffffffffffffffffffffffffffffff1673ffffffffffffffffffffffffffffffffffffffff1681526020018673ffffffffffffffffffffffffffffffffffffffff1673ffffffffffffffffffffffffffffffffffffffff168152602001806020018060200185600019166000191681526020018460001916600019168152602001838103835287818151815260200191508051906020019080838360005b8381101561038a57808201518184015260208101905061036f565b50505050905090810190601f1680156103b75780820380516001836020036101000a031916815260200191505b50838103825286818151815260200191508051906020019080838360005b838110156103f05780820151818401526020810190506103d5565b50505050905090810190601f16801561041d5780820380516001836020036101000a031916815260200191505b509850505050505050505060405180910390f35b34801561043d57600080fd5b5061045c60048036038101908080359060200190929190505050611652565b604051808c73ffffffffffffffffffffffffffffffffffffffff1673ffffffffffffffffffffffffffffffffffffffff1681526020018b73ffffffffffffffffffffffffffffffffffffffff1673ffffffffffffffffffffffffffffffffffffffff16815260200180602001806020018a60001916600019168152602001896000191660001916815260200188600019166000191681526020018777ffffffffffffffffffffffffffffffffffffffffffffffff191677ffffffffffffffffffffffffffffffffffffffffffffffff191681526020018677ffffffffffffffffffffffffffffffffffffffffffffffff191677ffffffffffffffffffffffffffffffffffffffffffffffff1916815260200185815260200184815260200183810383528c818151815260200191508051906020019080838360005b838110156105b2578082015181840152602081019050610597565b50505050905090810190601f1680156105df5780820380516001836020036101000a031916815260200191505b5083810382528b818151815260200191508051906020019080838360005b838110156106185780820151818401526020810190506105fd565b50505050905090810190601f1680156106455780820380516001836020036101000a031916815260200191505b509d505050505050505050505050505060405180910390f35b34801561066a57600080fd5b50610673611875565b005b34801561068157600080fd5b506107b6600480360381019080803573ffffffffffffffffffffffffffffffffffffffff169060200190929190803590602001908201803590602001908080601f0160208091040260200160405190810160405280939291908181526020018383808284378201915050505050509192919290803590602001908201803590602001908080601f0160208091040260200160405190810160405280939291908181526020018383808284378201915050505050509192919290803560001916906020019092919080356000191690602001909291908035600019169060200190929190803577ffffffffffffffffffffffffffffffffffffffffffffffff19169060200190929190803577ffffffffffffffffffffffffffffffffffffffffffffffff19169060200190929190505050611935565b005b3480156107c457600080fd5b506107cd611e65565b604051808273ffffffffffffffffffffffffffffffffffffffff1673ffffffffffffffffffffffffffffffffffffffff16815260200191505060405180910390f35b34801561081b57600080fd5b5061083a60048036038101908080359060200190929190505050611e8a565b005b34801561084857600080fd5b50610851611fbc565b005b34801561085f57600080fd5b506108686121fc565b6040518082815260200191505060405180910390f35b34801561088a57600080fd5b506108bf600480360381019080803573ffffffffffffffffffffffffffffffffffffffff169060200190929190505050612202565b604051808215151515815260200191505060405180910390f35b3480156108e557600080fd5b50610904600480360381019080803590602001909291905050506122cd565b604051808373ffffffffffffffffffffffffffffffffffffffff1673ffffffffffffffffffffffffffffffffffffffff1681526020018263ffffffff1663ffffffff1681526020019250505060405180910390f35b34801561096557600080fd5b506109846004803603810190808035906020019092919050505061232c565b005b34801561099257600080fd5b506109b1600480360381019080803590602001909291905050506124d8565b6040518085600019166000191681526020018479ffffffffffffffffffffffffffffffffffffffffffffffffffff191679ffffffffffffffffffffffffffffffffffffffffffffffffffff19168152602001806020018373ffffffffffffffffffffffffffffffffffffffff1673ffffffffffffffffffffffffffffffffffffffff168152602001828103825284818151815260200191508051906020019080838360005b83811015610a71578082015181840152602081019050610a56565b50505050905090810190601f168015610a9e5780820380516001836020036101000a031916815260200191505b509550505050505060405180910390f35b348015610abb57600080fd5b50610af0600480360381019080803573ffffffffffffffffffffffffffffffffffffffff169060200190929190505050612670565b005b348015610afe57600080fd5b50610b1d600480360381019080803590602001909291905050506127c5565b6040518085600019166000191681526020018477ffffffffffffffffffffffffffffffffffffffffffffffff191677ffffffffffffffffffffffffffffffffffffffffffffffff191681526020018377ffffffffffffffffffffffffffffffffffffffffffffffff191677ffffffffffffffffffffffffffffffffffffffffffffffff1916815260200182815260200194505050505060405180910390f35b348015610bc857600080fd5b50610bd16129cf565b6040518082815260200191505060405180910390f35b6000806000803360008060009150600090505b600354811015610c7d576001600082815260200190815260200160002060009054906101000a900473ffffffffffffffffffffffffffffffffffffffff1673ffffffffffffffffffffffffffffffffffffffff163373ffffffffffffffffffffffffffffffffffffffff161415610c7057600191505b8080600101915050610bfa565b6000821415610cf4576040517f08c379a000000000000000000000000000000000000000000000000000000000815260040180806020018281038252600e8152602001807f4e6f7420417574686f72697a656400000000000000000000000000000000000081525060200191505060405180910390fd5b600088118015610d0657506005548811155b1515610d1157600080fd5b87955060009450600093505b84158015610d2d57506005548611155b15610dbb573373ffffffffffffffffffffffffffffffffffffffff16600687815481101515610d5857fe5b90600052602060002090600a020160010160009054906101000a900473ffffffffffffffffffffffffffffffffffffffff1673ffffffffffffffffffffffffffffffffffffffff161415610dae57600194508593505b8580600101965050610d1d565b839650505050505050919050565b6000809054906101000a900473ffffffffffffffffffffffffffffffffffffffff1673ffffffffffffffffffffffffffffffffffffffff163373ffffffffffffffffffffffffffffffffffffffff16141515610e2457600080fd5b600060149054906101000a900460ff161515610e3f57600080fd5b60008060146101000a81548160ff0219169083151502179055507f7805862f689e2f13df9f062ff482ad3ad112aca9e0847911ed832e158c525b3360405160405180910390a1565b60007fd269155c21749744b1d4aa8db9212a1c95a65f3baa13728e9d0cc0b6433b2cea85856040518083600019166000191681526020018273ffffffffffffffffffffffffffffffffffffffff1673ffffffffffffffffffffffffffffffffffffffff16815260200180602001828103825260118152602001807f4e6577204f726720416464202850524529000000000000000000000000000000815250602001935050505060405180910390a16000602060ff16118015610f60575060008473ffffffffffffffffffffffffffffffffffffffff1614155b8015610f6f575060068060ff16145b8015610f7c575060008251115b8015610f89575060468251105b1515610f9457600080fd5b6004608060405190810160405280876000191681526020018579ffffffffffffffffffffffffffffffffffffffffffffffffffff191681526020018481526020018673ffffffffffffffffffffffffffffffffffffffff16815250908060018154018082558091505090600182039060005260206000209060040201600090919290919091506000820151816000019060001916905560208201518160010160006101000a81548165ffffffffffff02191690837a0100000000000000000000000000000000000000000000000000009004021790555060408201518160020190805190602001906110879291906129dc565b5060608201518160030160006101000a81548173ffffffffffffffffffffffffffffffffffffffff021916908373ffffffffffffffffffffffffffffffffffffffff16021790555050509050600081111561123857836001600083815260200190815260200160002060006101000a81548173ffffffffffffffffffffffffffffffffffffffff021916908373ffffffffffffffffffffffffffffffffffffffff16021790555060018103600260008673ffffffffffffffffffffffffffffffffffffffff1673ffffffffffffffffffffffffffffffffffffffff168152602001908152602001600020819055506003600081548092919060010191905055507fd269155c21749744b1d4aa8db9212a1c95a65f3baa13728e9d0cc0b6433b2cea85856040518083600019166000191681526020018273ffffffffffffffffffffffffffffffffffffffff1673ffffffffffffffffffffffffffffffffffffffff16815260200180602001828103825260158152602001807f4e6577204f726720416464202853554343455353290000000000000000000000815250602001935050505060405180910390a16112a6565b6040517f08c379a00000000000000000000000000000000000000000000000000000000081526004018080602001828103825260128152602001807f4e6577204f72672041646420284641494c29000000000000000000000000000081525060200191505060405180910390fd5b809050949350505050565b6000600354905080905090565b600060149054906101000a900460ff1681565b6000806060806000803360008060009150600090505b60035481101561136a576001600082815260200190815260200160002060009054906101000a900473ffffffffffffffffffffffffffffffffffffffff1673ffffffffffffffffffffffffffffffffffffffff163373ffffffffffffffffffffffffffffffffffffffff16141561135d57600191505b80806001019150506112e7565b60008214156113e1576040517f08c379a000000000000000000000000000000000000000000000000000000000815260040180806020018281038252600e8152602001807f4e6f7420417574686f72697a656400000000000000000000000000000000000081525060200191505060405180910390fd5b60008a1180156113f357506005548a11155b15156113fe57600080fd5b60068a81548110151561140d57fe5b90600052602060002090600a020160000160009054906101000a900473ffffffffffffffffffffffffffffffffffffffff1660068b81548110151561144e57fe5b90600052602060002090600a020160010160009054906101000a900473ffffffffffffffffffffffffffffffffffffffff1660068c81548110151561148f57fe5b90600052602060002090600a020160020160068d8154811015156114af57fe5b90600052602060002090600a020160030160068e8154811015156114cf57fe5b90600052602060002090600a02016004015460068f8154811015156114f057fe5b90600052602060002090600a020160050154838054600181600116156101000203166002900480601f0160208091040260200160405190810160405280929190818152602001828054600181600116156101000203166002900480156115975780601f1061156c57610100808354040283529160200191611597565b820191906000526020600020905b81548152906001019060200180831161157a57829003601f168201915b50505050509350828054600181600116156101000203166002900480601f0160208091040260200160405190810160405280929190818152602001828054600181600116156101000203166002900480156116335780601f1061160857610100808354040283529160200191611633565b820191906000526020600020905b81548152906001019060200180831161161657829003601f168201915b5050505050925098509850985098509850985050505091939550919395565b60068181548110151561166157fe5b90600052602060002090600a02016000915090508060000160009054906101000a900473ffffffffffffffffffffffffffffffffffffffff16908060010160009054906101000a900473ffffffffffffffffffffffffffffffffffffffff1690806002018054600181600116156101000203166002900480601f0160208091040260200160405190810160405280929190818152602001828054600181600116156101000203166002900480156117595780601f1061172e57610100808354040283529160200191611759565b820191906000526020600020905b81548152906001019060200180831161173c57829003601f168201915b505050505090806003018054600181600116156101000203166002900480601f0160208091040260200160405190810160405280929190818152602001828054600181600116156101000203166002900480156117f75780601f106117cc576101008083540402835291602001916117f7565b820191906000526020600020905b8154815290600101906020018083116117da57829003601f168201915b5050505050908060040154908060050154908060060154908060070160009054906101000a9004780100000000000000000000000000000000000000000000000002908060070160089054906101000a900478010000000000000000000000000000000000000000000000000290806008015490806009015490508b565b6000809054906101000a900473ffffffffffffffffffffffffffffffffffffffff1673ffffffffffffffffffffffffffffffffffffffff163373ffffffffffffffffffffffffffffffffffffffff161415156118d057600080fd5b600060149054906101000a900460ff161515156118ec57600080fd5b6001600060146101000a81548160ff0219169083151502179055507f6985a02210a168e66602d3235cb6db0e70f92b3ba4d376a33c0f3d9434bff62560405160405180910390a1565b60007f5b2abd2e9bae7a7d7d1c82bca1b3f70cecac8aa00fd5ca126bbaab196e4655e9336000604051808373ffffffffffffffffffffffffffffffffffffffff1673ffffffffffffffffffffffffffffffffffffffff1681526020018263ffffffff16815260200180602001828103825260198152602001807f4e65774170706c6963616e744164642028415454454d50542900000000000000815250602001935050505060405180910390a160003373ffffffffffffffffffffffffffffffffffffffff1614158015611a20575060008973ffffffffffffffffffffffffffffffffffffffff1614155b8015611a2d575060098851145b8015611a3a575060098751145b8015611a4a57506000602060ff16115b8015611a5a57506000602060ff16115b1515611a6557600080fd5b6006610160604051908101604052803373ffffffffffffffffffffffffffffffffffffffff1681526020018b73ffffffffffffffffffffffffffffffffffffffff1681526020018a81526020018981526020018860001916815260200187600019168152602001866000191681526020018577ffffffffffffffffffffffffffffffffffffffffffffffff191681526020018477ffffffffffffffffffffffffffffffffffffffffffffffff1916815260200142815260200160008152509080600181540180825580915050906001820390600052602060002090600a02016000909192909190915060008201518160000160006101000a81548173ffffffffffffffffffffffffffffffffffffffff021916908373ffffffffffffffffffffffffffffffffffffffff16021790555060208201518160010160006101000a81548173ffffffffffffffffffffffffffffffffffffffff021916908373ffffffffffffffffffffffffffffffffffffffff1602179055506040820151816002019080519060200190611bf89291906129dc565b506060820151816003019080519060200190611c159291906129dc565b506080820151816004019060001916905560a0820151816005019060001916905560c0820151816006019060001916905560e08201518160070160006101000a81548167ffffffffffffffff02191690837801000000000000000000000000000000000000000000000000900402179055506101008201518160070160086101000a81548167ffffffffffffffff021916908378010000000000000000000000000000000000000000000000009004021790555061012082015181600801556101408201518160090155505090506000811115611dae576005600081548092919060010191905055507f5b2abd2e9bae7a7d7d1c82bca1b3f70cecac8aa00fd5ca126bbaab196e4655e9336000604051808373ffffffffffffffffffffffffffffffffffffffff1673ffffffffffffffffffffffffffffffffffffffff1681526020018263ffffffff16815260200180602001828103825260198152602001807f4e65774170706c6963616e744164642028535543434553532900000000000000815250602001935050505060405180910390a1611e5a565b7f5b2abd2e9bae7a7d7d1c82bca1b3f70cecac8aa00fd5ca126bbaab196e4655e9336000604051808373ffffffffffffffffffffffffffffffffffffffff1673ffffffffffffffffffffffffffffffffffffffff1681526020018263ffffffff168152602001806020018281038252601b8152602001807f4e65774170706c6963616e7441646420284641494c2d50555348290000000000815250602001935050505060405180910390a15b505050505050505050565b6000809054906101000a900473ffffffffffffffffffffffffffffffffffffffff1681565b3360008060009150600090505b600354811015611f1a576001600082815260200190815260200160002060009054906101000a900473ffffffffffffffffffffffffffffffffffffffff1673ffffffffffffffffffffffffffffffffffffffff163373ffffffffffffffffffffffffffffffffffffffff161415611f0d57600191505b8080600101915050611e97565b6000821415611f91576040517f08c379a000000000000000000000000000000000000000000000000000000000815260040180806020018281038252600e8152602001807f4e6f7420417574686f72697a656400000000000000000000000000000000000081525060200191505060405180910390fd5b42600685815481101515611fa157fe5b90600052602060002090600a02016009018190555050505050565b600080600080600060606000806000809054906101000a900473ffffffffffffffffffffffffffffffffffffffff1673ffffffffffffffffffffffffffffffffffffffff163373ffffffffffffffffffffffffffffffffffffffff1614151561202457600080fd5b600097506120306112b1565b9650866008541415156121f257600095505b868610156121f157600090505b6008548110156120f457612062866124d8565b8095508196508297508398505050505060078181548110151561208157fe5b9060005260206000200160000160009054906101000a900473ffffffffffffffffffffffffffffffffffffffff1673ffffffffffffffffffffffffffffffffffffffff168273ffffffffffffffffffffffffffffffffffffffff1614156120e757600197505b808060010191505061204f565b6000151588151514156121e057600760408051908101604052808473ffffffffffffffffffffffffffffffffffffffff168152602001600063ffffffff1681525090806001815401808255809150509060018203906000526020600020016000909192909190915060008201518160000160006101000a81548173ffffffffffffffffffffffffffffffffffffffff021916908373ffffffffffffffffffffffffffffffffffffffff16021790555060208201518160000160146101000a81548163ffffffff021916908363ffffffff1602179055505050506008600081548092919060010191905055505b600097508580600101965050612042565b5b5050505050505050565b60085481565b6000806000915060008373ffffffffffffffffffffffffffffffffffffffff161415151561222f57600080fd5b600090505b6003548110156122c4578273ffffffffffffffffffffffffffffffffffffffff1660048281548110151561226457fe5b906000526020600020906004020160030160009054906101000a900473ffffffffffffffffffffffffffffffffffffffff1673ffffffffffffffffffffffffffffffffffffffff1614156122b757600191505b8080600101915050612234565b81915050919050565b6007818154811015156122dc57fe5b906000526020600020016000915090508060000160009054906101000a900473ffffffffffffffffffffffffffffffffffffffff16908060000160149054906101000a900463ffffffff16905082565b3360008060009150600090505b6003548110156123bc576001600082815260200190815260200160002060009054906101000a900473ffffffffffffffffffffffffffffffffffffffff1673ffffffffffffffffffffffffffffffffffffffff163373ffffffffffffffffffffffffffffffffffffffff1614156123af57600191505b8080600101915050612339565b6000821415612433576040517f08c379a000000000000000000000000000000000000000000000000000000000815260040180806020018281038252600e8152602001807f4e6f7420417574686f72697a656400000000000000000000000000000000000081525060200191505060405180910390fd5b60068481548110151561244257fe5b90600052602060002090600a020160010160009054906101000a900473ffffffffffffffffffffffffffffffffffffffff1673ffffffffffffffffffffffffffffffffffffffff163373ffffffffffffffffffffffffffffffffffffffff161415156124ad57600080fd5b426006858154811015156124bd57fe5b90600052602060002090600a02016009018190555050505050565b600080606060008085101580156124f0575060035485105b15156124fb57600080fd5b60048581548110151561250a57fe5b90600052602060002090600402016000015460048681548110151561252b57fe5b906000526020600020906004020160010160009054906101000a90047a0100000000000000000000000000000000000000000000000000000260048781548110151561257357fe5b906000526020600020906004020160020160048881548110151561259357fe5b906000526020600020906004020160030160009054906101000a900473ffffffffffffffffffffffffffffffffffffffff16818054600181600116156101000203166002900480601f01602080910402602001604051908101604052809291908181526020018280546001816001161561010002031660029004801561265a5780601f1061262f5761010080835404028352916020019161265a565b820191906000526020600020905b81548152906001019060200180831161263d57829003601f168201915b5050505050915093509350935093509193509193565b6000809054906101000a900473ffffffffffffffffffffffffffffffffffffffff1673ffffffffffffffffffffffffffffffffffffffff163373ffffffffffffffffffffffffffffffffffffffff161415156126cb57600080fd5b600073ffffffffffffffffffffffffffffffffffffffff168173ffffffffffffffffffffffffffffffffffffffff161415151561270757600080fd5b8073ffffffffffffffffffffffffffffffffffffffff166000809054906101000a900473ffffffffffffffffffffffffffffffffffffffff1673ffffffffffffffffffffffffffffffffffffffff167f8be0079c531659141344cd1fd0a4f28419497f9722a3daafe3b4186f6b6457e060405160405180910390a3806000806101000a81548173ffffffffffffffffffffffffffffffffffffffff021916908373ffffffffffffffffffffffffffffffffffffffff16021790555050565b6000806000803360008060009150600090505b60035481101561285b576001600082815260200190815260200160002060009054906101000a900473ffffffffffffffffffffffffffffffffffffffff1673ffffffffffffffffffffffffffffffffffffffff163373ffffffffffffffffffffffffffffffffffffffff16141561284e57600191505b80806001019150506127d8565b60008214156128d2576040517f08c379a000000000000000000000000000000000000000000000000000000000815260040180806020018281038252600e8152602001807f4e6f7420417574686f72697a656400000000000000000000000000000000000081525060200191505060405180910390fd5b6000881180156128e457506005548811155b15156128ef57600080fd5b6006888154811015156128fe57fe5b90600052602060002090600a02016006015460068981548110151561291f57fe5b90600052602060002090600a020160070160009054906101000a900478010000000000000000000000000000000000000000000000000260068a81548110151561296557fe5b90600052602060002090600a020160070160089054906101000a900478010000000000000000000000000000000000000000000000000260068b8154811015156129ab57fe5b90600052602060002090600a02016008015496509650965096505050509193509193565b6000600554905080905090565b828054600181600116156101000203166002900490600052602060002090601f016020900481019282601f10612a1d57805160ff1916838001178555612a4b565b82800160010185558215612a4b579182015b82811115612a4a578251825591602001919060010190612a2f565b5b509050612a589190612a5c565b5090565b612a7e91905b80821115612a7a576000816000905550600101612a62565b5090565b905600a165627a7a72305820d241d8a0d704cc015d586aa89bedd0fbce22b5b3202c9c56aa799cd55748dc000029",
  "source": "pragma solidity ^0.4.21;\r\n/**\r\n * @title ProcessCredentials\r\n * @dev The ProcessCredentials allows the contract owner to process and write out credentials.\r\n */\r\nimport \"./ApplicantFactory.sol\";\r\nimport \"./CredentialOrgFactory.sol\";\r\n\r\ncontract ProcessCredentials is CredentialOrgFactory, ApplicantFactory {\r\n    \r\n    // mappings\r\n    \r\n    // events\r\n    event ProcessApplicant(address ApplicantAddress, uint32 position, string detail);\r\n\r\n    // structs\r\n    struct OrgProcessor{\r\n        address credentialOrgAddress;\r\n        uint32 lastApplicantPosition;\r\n    }    \r\n    \r\n    OrgProcessor[] public orgProcessors;\r\n    \r\n    uint256 public orgProcessorsCount;\r\n    \r\n    // constructor\r\n    constructor () public {\r\n        orgProcessorsCount = 0;\r\n    }\r\n    \r\n    // functions\r\n    function updateOrgProcessors() public onlyOwner {\r\n        bool found = false;\r\n        uint256 localOrgCount = selectOrgCount();\r\n        if (orgProcessorsCount != localOrgCount){\r\n            for(uint256 i=0; i < localOrgCount; i++){\r\n                bytes32 shortName;\r\n                bytes6 schoolCode;\r\n                string memory officialSchoolName;\r\n                address schoolAddress;\r\n                for (uint256 j=0; j < orgProcessorsCount; j++){\r\n                    (shortName, schoolCode, officialSchoolName, schoolAddress) = selectCredentialOrg(i);\r\n                    if (schoolAddress == orgProcessors[j].credentialOrgAddress){\r\n                        found = true;\r\n                    }\r\n                }            \r\n                if (found == false){\r\n                    orgProcessors.push(OrgProcessor(schoolAddress,0));\r\n                    orgProcessorsCount++;\r\n                }\r\n                found = false;\r\n            }\r\n        }\r\n    }\r\n\r\n    function updateApplicant(uint _position) public onlyBy(msg.sender) {\r\n        require(msg.sender == applicants[_position].collegeAddress);\r\n        applicants[_position].processDate = block.timestamp;\r\n    }\r\n    \r\n    \r\n    function selectNextApplicantID(uint _startPosition) public view onlyBy(msg.sender) returns (uint ID){\r\n        require(_startPosition > 0 && _startPosition <= applicantCount);\r\n        uint startPosition = _startPosition;\r\n        bool foundRec = false;\r\n        uint foundPosition = 0;\r\n        while (!foundRec && startPosition <= applicantCount){\r\n            if (applicants[startPosition].collegeAddress == msg.sender){\r\n                foundRec = true;\r\n                foundPosition = startPosition;\r\n            }\r\n            startPosition++;\r\n        }\r\n        return (foundPosition);\r\n    }\r\n    \r\n    function selectApplicantPartA(uint _position) public view onlyBy(msg.sender) returns (address studentAddress, address collegeAddress, string SSN, string collegeStudentID, bytes32 firstName, bytes32 middleName){\r\n        require(_position > 0 && _position <= applicantCount);\r\n        return (applicants[_position].studentAddress, applicants[_position].collegeAddress, applicants[_position].SSN, applicants[_position].collegeStudentID, applicants[_position].firstName, applicants[_position].middleName);\r\n    }\r\n\r\n    function selectApplicantPartB(uint _position) public view onlyBy(msg.sender) returns (bytes32 lastName, bytes8 nameSuffix, bytes8 dateOfBirth, uint insertDate){\r\n        require(_position > 0 && _position <= applicantCount);\r\n        return (applicants[_position].lastName, applicants[_position].nameSuffix, applicants[_position].dateOfBirth, applicants[_position].insertDate);\r\n    }\r\n\r\n\r\n\r\n    function processApplicant(uint _position) public onlyBy(msg.sender) {\r\n        applicants[_position].processDate = block.timestamp;\r\n    }\r\n}",
  "sourcePath": "E:\\Projects\\CredentialVerify\\contracts\\ProcessCredentials.sol",
  "compiler": {
    "name": "solc",
    "version": "0.4.24+commit.e67f0147.Emscripten.clang"
  },
  "schemaVersion": "2.0.1",
  "updatedAt": "2018-08-06T00:11:23.852Z"
}